:020000040000fa
:04005c00fc020000a2
:020000040000fa
:04007c00fc02000082
:020000040000fa
:04000c00fc020000f2
:020000040000fa
:0400b400fc0200004a
:020000040000fa
:0400b000fc0200004e
:020000040000fa
:04014000fc020000bd
:020000040000fa
:04010800fc020000f5
:020000040000fa
:04010400fc020000f9
:020000040000fa
:04014400fc020000b9
:020000040000fa
:04007000fc0200008e
:020000040000fa
:04013400fc020000c9
:020000040000fa
:04011400fc020000e9
:020000040000fa
:04011800fc020000e5
:020000040000fa
:04003800fc020000c6
:020000040000fa
:04020800fc020000f4
:020000040000fa
:04020c00fc020000f0
:020000040000fa
:04023000fc020000cc
:020000040000fa
:04023400fc020000c8
:020000040000fa
:04023800fc020000c4
:020000040000fa
:04006000fc0200009e
:020000040000fa
:04008800fc02000076
:020000040000fa
:0400b800fc02000046
:020000040000fa
:0400e000fc0200001e
:020000040000fa
:04011c00fc020000e1
:020000040000fa
:04013800fc020000c5
:020000040000fa
:04013c00fc020000c1
:020000040000fa
:04020000fc020000fc
:020000040000fa
:04020400fc020000f8
:020000040000fa
:04001c00fc020000e2
:020000040000fa
:04001000fc020000ee
:020000040000fa
:04021c00fc020000e0
:020000040000fa
:04022400fc020000d8
:020000040000fa
:04022c00fc020000d0
:020000040000fa
:04024400fc020000b8
:020000040000fa
:04024c00fc020000b0
:020000040000fa
:04025400fc020000a8
:020000040000fa
:04025c00fc020000a0
:020000040000fa
:04002c00fc020000d2
:020000040000fa
:04003c00fc020000c2
:020000040000fa
:0400bc00fc02000042
:020000040000fa
:0400c000fc0200003e
:020000040000fa
:0400c400fc0200003a
:020000040000fa
:0400c800fc02000036
:020000040000fa
:04008000fc0200007e
:020000040000fa
:04008400fc0200007a
:020000040000fa
:04019c00fc02000061
:020000040000fa
:04026000fc0200009c
:020000040000fa
:04002800fc020000d6
:020000040000fa
:04007800fc02000086
:020000040000fa
:04009c00fc02000062
:020000040000fa
:0400fc00fc02000002
:020000040000fa
:04010000fc020000fd
:020000040000fa
:0401b800fc02000045
:020000040000fa
:0401bc00fc02000041
:020000040000fa
:0401c000fc0200003d
:020000040000fa
:0401c400fc02000039
:020000040000fa
:0401c800fc02000035
:020000040000fa
:0401cc00fc02000031
:020000040000fa
:0401d000fc0200002d
:020000040000fa
:0401d400fc02000029
:020000040000fa
:0401d800fc02000025
:020000040000fa
:0401dc00fc02000021
:020000040000fa
:0401e000fc0200001d
:020000040000fa
:0401e400fc02000019
:020000040000fa
:0401e800fc02000015
:020000040000fa
:0401ec00fc02000011
:020000040000fa
:0401f000fc0200000d
:020000040000fa
:0401f400fc02000009
:020000040000fa
:0401f800fc02000005
:020000040000fa
:0401fc00fc02000001
:020000040000fa
:04023c00fc020000c0
:020000040000fa
:04012400fc020000d9
:020000040000fa
:04012800fc020000d5
:020000040000fa
:04014800fc020000b5
:020000040000fa
:04015000fc020000ad
:020000040000fa
:04015800fc020000a5
:020000040000fa
:04015c00fc020000a1
:020000040000fa
:04016000fc0200009d
:020000040000fa
:04016400fc02000099
:020000040000fa
:04016800fc02000095
:020000040000fa
:04017800fc02000085
:020000040000fa
:04017c00fc02000081
:020000040000fa
:04026400fc02000098
:020000040000fa
:04006c00fc02000092
:020000040000fa
:0400f000fc0200000e
:020000040000fa
:04001800fc020000e6
:020000040000fa
:04006400fc0200009a
:020000040000fa
:04021800fc020000e4
:020000040000fa
:04022000fc020000dc
:020000040000fa
:04022800fc020000d4
:020000040000fa
:04024000fc020000bc
:020000040000fa
:04024800fc020000b4
:020000040000fa
:04025000fc020000ac
:020000040000fa
:04025800fc020000a4
:020000040000fa
:04003000fc020000ce
:020000040000fa
:04004000fc020000be
:020000040000fa
:04008c00fc02000072
:020000040000fa
:04009000fc0200006e
:020000040000fa
:0400cc00fc02000032
:020000040000fa
:0400d000fc0200002e
:020000040000fa
:0400d400fc0200002a
:020000040000fa
:0400d800fc02000026
:020000040000fa
:04019800fc02000065
:020000040000fa
:04000800fc020000f6
:020000040000fa
:0400dc00fc02000022
:020000040000fa
:0401a000fc0200005d
:020000040000fa
:0401a400fc02000059
:020000040000fa
:0401a800fc02000055
:020000040000fa
:0401ac00fc02000051
:020000040000fa
:0401b000fc0200004d
:020000040000fa
:0401b400fc02000049
:020000040000fa
:04014c00fc020000b1
:020000040000fa
:04010c00fc020000f1
:020000040000fa
:04011000fc020000ed
:020000040000fa
:04015400fc020000a9
:020000040000fa
:04012000fc020000dd
:020000040000fa
:04002400fc020000da
:020000040000fa
:04006800fc02000096
:020000040000fa
:0400ec00fc02000012
:020000040000fa
:04004c00fc020000b2
:020000040000fa
:04005000fc020000ae
:020000040000fa
:0400a800fc02000056
:020000040000fa
:0400ac00fc02000052
:020000040000fa
:04019000fc0200006d
:020000040000fa
:04019400fc02000069
:020000040000fa
:04021000fc020000ec
:020000040000fa
:04021400fc020000e8
:020000040000fa
:04002000fc020000de
:020000040000fa
:04001400fc020000ea
:020000040000fa
:04003400fc020000ca
:020000040000fa
:04004400fc020000ba
:020000040000fa
:04004800fc020000b6
:020000040000fa
:04009400fc0200006a
:020000040000fa
:04009800fc02000066
:020000040000fa
:0400e400fc0200001a
:020000040000fa
:0400e800fc02000016
:020000040000fa
:0400f400fc0200000a
:020000040000fa
:0400f800fc02000006
:020000040000fa
:04012c00fc020000d1
:020000040000fa
:04005400fc020000aa
:020000040000fa
:04005800fc020000a6
:020000040000fa
:04013000fc020000cd
:020000040000fa
:0400a000fc0200005e
:020000040000fa
:0400a400fc0200005a
:020000040000fa
:04016c00fc02000091
:020000040000fa
:04017000fc0200008d
:020000040000fa
:04017400fc02000089
:020000040000fa
:04018400fc02000079
:020000040000fa
:04018800fc02000075
:020000040000fa
:04018c00fc02000071
:020000040000fa
:080000000002040000000000f2
:020000040000fa
:100400000fa621000eff27000e018800000000004b
:10041000000020000000e000020032000001200087
:10042000200288000c0007006081260001002000e7
:100430001d000700000020000000e0000200320064
:100440000000020000000000cc6602000000000076
:100450000040da000000fe00203c20000000e00028
:1004600002003200002020009001880000000600f9
:10047000f03fb1000180b10006003500ee03090035
:1004800000000000403fb1000180b100fbff3d00d3
:100490001000b000203fb0000200350000800900cd
:1004a0000000000000000600a10288008000780023
:1004b0000000eb001a003700e280400054a0b400b6
:1004c0009101ba00e280400054a0b4009102ba0049
:1004d000e280400054a0b4000002eb00472bde0095
:1004e000f507b200a6018800602ce10008003a0080
:1004f0000049eb000201e800020039003420ec0062
:1005000002f0a0008301e900f9ff3e00040037007b
:100510006128e100010032000082eb000b000700bf
:1005200011c3ba001101ba000604e00003003a004a
:100530000200e000e0ff3a0000000600f607b2000b
:10054000a602880082007800f5ff370004d0a300df
:10055000e20f49001c003900810278003549ba00d9
:100560000201e800020039003420ec0002f0a00093
:100570008301e9000f0032002549ba000201e800ba
:10058000020039003420ec0002f0a0008301e900f1
:10059000080032000400e0000600320015c9ba006d
:1005a0000201e800020039003420ec0002f0a00053
:1005b0008301e9008180e80054a0b4000300e0005a
:1005c000e2ff3a00000006009102ba0005597800e7
:1005d0008301e900f7ff3200c82ade0005597800e0
:1005e0008301e900f3ff32000400e000f1ff320074
:1005f00011d9ba00eeff37000040da000000fe001b
:100600008001780002003700815978000201e9007a
:100610000200e000fcff3a00000006006022b80083
:10062000060220000000d0008180d2000482d200a7
:100630008582d2000000a0000202520083825a008c
:10064000030031000202420083824a000000a10040
:100650000603e900f3ff3a0000000600810378007a
:10066000d10107000001be006000b8000478a300bb
:1006700013003a006220e10015003e000d00390031
:100680008301d1000281d3008180d3008301d10096
:100690000281d3008180d3008301d1000281d30085
:1006a0008180d3000538b000c42add00f300b20019
:1006b0008381720007f0a70003f0a000000006008d
:1006c000f3ff2700f2ff2f006110b900fbff370096
:1006d00003ff2700f7ff37002800fa00889fbe00bd
:1006e0008a9fbe008c9fbe0003866b00c30107007b
:1006f0000028a30064003a000128a30067003a0024
:100700000008a30062003a000108a30065003a0057
:100710001e009000be08900081064000ed3fb10031
:10072000f4805700ee019000111ab8008e09900075
:10073000311bb8009e099000311cb800511db80053
:10074000f485570046000700fe0190003a000700bc
:100750008b85e8003e0007008e09900040000700ee
:10076000ee019000340007008b85e8003800070098
:100770008e099000400007009e0990001b18b800e9
:10078000890440000a854800fe01900034000700fb
:100790008b85e80038000700ee019000300007006c
:1007a0008e0990001b18b800890440000a85480093
:1007b0000a98a30008003a000402420085824a0019
:1007c00006034b0087834b0008044c0089844c00cf
:1007d0000a054d008d06e9008482720085027300cf
:1007e0004c3add0085027200010032001500200045
:1007f000443ade001400b2004538de00cb45dd008f
:100800000b007000c540de00cb4ddd008b8070001a
:100810004549de00cb55dd000b017100c551de00fe
:100820000d0378008e01070003f0a1000cf0a70073
:1008300003f0a000850137001b18b80085024000b6
:1008400006834800e0834b0060044c00070037003b
:100850001b18b8000603400087834800faff3700e2
:100860001b18b8008703400008844800e0844c004f
:1008700060054d00000006001b18b8000804400089
:1008800089844800faff37000108a3006c013a0090
:100890005800be005801be00e3ff37000008a30067
:1008a00067013a0009047800f9ff37001400fa00e4
:1008b000889fbe008a9fbe008c9fbe000005be00c0
:1008c0000206be00680047000c90be000a90be0001
:1008d0008f0107006400e1001a00320016003e009c
:1008e0006100e1001a0032006e049000fe049000e6
:1008f0000e0b90009e0b90006011b8009e059000ba
:100900000b38b100d50120008281710061016400c3
:100910008703d1000683d3008984d3000884d300e1
:100920008502e900f8ff3a00a00107000df0a700da
:1009300001f0a00045013700f1ff2700f0ff2f0074
:100940004201370001f8270000002000f7ff3700c0
:100950006000b800f5ff370014002000b90137002f
:1009600003f0a200889fbe008a9fbe008c1f780003
:10097000cf010700d60133006450e1004f00320080
:100980006420e1005200320003826c0007003b004b
:100990000905d0000306d000820f54000c065d004c
:1009a0000200390002003200890178000306780055
:1009b0008582550004003d000003fd008103fd0019
:1009c0008502ea008b854200840f720002003b0022
:1009d00060001000e08018006011b8000005eb0016
:1009e0007a28e1000a00390006007800c75ddd00c2
:1009f000f707b200878075002d00370082817100f3
:100a00000a017800610560008180d1000080d30078
:100a10008502e900f9ff3b00060440008784480096
:100a200002003b0060041400e0841c000988a3005d
:100a3000070032008a8171008281710061016400c7
:100a40008904d1000884d3008b05e8001700370023
:100a50000978a30013003a000b00e00013003400f3
:100a60008b05e9000804440089844c000a447400a2
:100a70000978a3000d003a000b00e00007003400e5
:100a80008b05e9000804440089844c0001003a0009
:100a90000b0020000978a300f7ff32000001eb00f3
:100aa00002003700828171000a0178003f010700cf
:100ab0000cf0a70001f0a0008e0137006420e100d7
:100ac00002003a00838f6c008e0133000801be00e3
:100ad0000200be00870137000002eb008c01070016
:100ae0000500320007ff2300060020006022b80046
:100af00003f0a700ca010700000006000001be00c5
:100b0000a90007000470a70003f0a1006509b10067
:100b1000160032000d0035006828e100060035009f
:100b2000f0ff2f00f1ff27000300e00013003b005f
:100b300001002800000005000000400081804800fe
:100b40008502e900fcff3a0008003700f88f4200f8
:100b500002003c008000eb00000005008100d10095
:100b60000080d3008502e800fcff3a000300e000ab
:100b700002003b0060001000e0801800000006004a
:100b8000889fbe008a9fbe008c1f78004801070026
:100b90004f01330003866c006450e10024003200f2
:100ba0006420e100270032006150e10022003200a1
:100bb0006120e100210032008b854200eb07b1008b
:100bc0000134b800003ab8000804420089844a00a1
:100bd000013ab8000030b8008880400009014a009e
:100be00004003300000040008180480002014900f9
:100bf0008b05e900c909dd008301700001003200a6
:100c000013002000c814de004814dd004709de0090
:100c10001200b200c808de0008847000e30007007c
:100c200001f0a1000cf0a70001f0a0003101370095
:100c30006120e100330132000801be000200be0065
:100c4000f7ff37006150e100fcff3a002d0137004b
:100c50004f89de008201780073013700839f6800ae
:100c60000100e00002003d0060001000e08018007c
:100c70000300e00002003d0060011100e081190066
:100c800066fe07004f00e00002003b00600010001d
:100c9000e080180000000600889fbe008a9fbe000a
:100ca0008c1f7800020107000901330003866c00e5
:100cb0006450e1002e0032006420e1003300320075
:100cc0006150e1002f0032006120e100310032006c
:100cd00085855500eb07b0000900200008042000be
:100ce000050037000804440089844c000a003100e4
:100cf0000603430087834b000001530081815b00a2
:100d0000f8ff33000203be000800a00008044400fe
:100d100089844c00f6ff3900c639dd008301730079
:100d200001003200130020008904d1000884d300a0
:100d30000998a300050032000800a7000300a000e6
:100d40008904d1000884d3008b05e8008904d10010
:100d50000884d3000001eb000281d2009300070059
:100d600001f0a1000cf0a70001f0a000e1003700a5
:100d70006420e100e30032000801be000200be0072
:100d8000f7ff37006120e100de0032006000b800ac
:100d9000f3ff37000000200001f82700f0ff3700c4
:100da0006011b80030013700c70ade00f107b20059
:100db000f50fb20008003200e1cf4200020032001d
:100dc0000170a00024000500810f700001003200b6
:100dd0000408050044000500810f700002003a007d
:100de000140005008502e9000000400081c04800b1
:100df000fcff3b000170a0002400050068044700d0
:100e00000294be000094be00fc0447008694be001d
:100e10008494be00090078003d00070008007800b7
:100e20003b00070099007800814f70000b003b00e9
:100e30000800be003b0107004f00b100030037006f
:100e4000f3ff2700f2ff2f006110b9004f06be002c
:100e50004f05be004f04be000080fa0000000600ef
:100e60001800200057002000080453000d003d002a
:100e70000600200097fc2f000740e1001e00340010
:100e800084827200610260008301d1000281d3007c
:100e90008180d3000080d3000804e800f8ff3a0006
:100ea000470020006104600005047400040464002d
:100eb0000d00320061004000e08048006001490000
:100ec000e081490003b8a500070032000603e800ee
:100ed0006538e10004003a008301d1000281d300ab
:100ee0008180d3000080d300f87f20000830e1002b
:100ef00003003500080378006000b8006011b800f6
:100f00004433dd00f300b2008301730000000600eb
:100f1000800078005002be005003be004439de005d
:100f2000f700b200f37f20000301610009003200e6
:100f30000218e10016003a00850172008301730077
:100f4000838173000008200015003a004000200053
:100f500013003700850172008301730083817300e1
:100f600005003a0004a8be0006a8be00100020003c
:100f70000b0037000201e9000402420085824a00aa
:100f800006034b0087834b000748a300f9ff32009c
:100f90000740a00004a8be0006a8be002000200054
:100fa0008000980092009800000006008100200058
:100fb000618055000b003d000b00200061fe2f00fa
:100fc0000100e1001d0034008281710061016400b4
:100fd0008904d1000884d3000000e800faff3a0039
:100fe00071002000610064000300700002006000d6
:100ff0000900320061044400e0844c000988a50027
:10100000050032008b05e8006808e10002003a00a4
:101010008904d1000884d300f20f20000258e100b7
:1010200005003d00c75ddd00f907b200898075004d
:1010300008007800000006000bf827008b007800fd
:1010400000000500889fbe008a9fbe00841f7800b4
:10105000170007004f00780011003300f0ff2f0049
:10106000838f6c0006003b00040565000a00a700a2
:101070000800370009f0a600100020000800370023
:10108000820f5400838f5c000300390010002000a1
:1010900001003e000000200009f0a7000000ea0067
:1010a0004f05be004f04be000000e0000000060037
:1010b0000004be003cff07000003be000405be00a4
:1010c0000200be0038ff0700844f750000000600d4
:1010d0000200be006450e100050036006420e1001b
:1010e000020036000968a30001003a000800be00b3
:1010f0000160a0004f0678004f05be004f04be00ff
:1011000000000600f0ff2f00f1ff2700f9ff370075
:101110001400fa00889fbe008a9fbe008c9fbe000c
:1011200004067800e80247008292be008092be006a
:101130000500780076ff07006200e10033003a0006
:101140006000b8006011b8001e0390000c0353004b
:10115000f63fb100220035004b0320000b30e100c8
:101160002a003d00fb012000faff2f006154b90066
:101170006c0147008b05d1000a85d3008984d30018
:101180000884d3000603e900faff3b003200be00ea
:101190001201be0000026400818264000203650047
:1011a0008383650005027200060272000702720066
:1011b000160032000884ea008984ea000a85ea0001
:1011c0008b85ea00000064008180640002016500f4
:1011d000838165006022b8001e03900020ff070095
:1011e000de03900007f0a70003f0a0000082eb00f0
:1011f0000400e0008e0290004f06be004f05be00c6
:101200004f04be000080fa000000060064014700a1
:10121000040020003200be001201be00f4ff3700bf
:1012200007f0a2004d003700881f78000304780003
:101230000300e00007003d0060001000e08018009f
:1012400060011900e081190002003b0001f02d004f
:10125000030037000400070008f0a70001f0a00019
:101260004f04780000000600889fbe008a9fbe00e1
:1012700000827000040271000482710026003200b6
:101280000004be000200be006011b8006b0920001f
:10129000950220000182cf000a0039000541b1000b
:1012a0000082cf00070039000541b1000982cf005c
:1012b000040039000541b1000882cf000100390067
:1012c0000541b10005425200120032000a003b0005
:1012d00082817100610164008100d1000080d3002f
:1012e0008984d3000884d3008b05e8000442e80019
:1012f000f7ff3a00070037000804440089844c00d7
:1013000000004800818048008b05e9000442e900a4
:10131000f9ff3a0025ff07004f05be004f04be004d
:1013200000000600e48240001078a30007003200ad
:10133000640240001178a3003400be001401be0016
:10134000040032000330a700000006003500be0094
:101350001501be000330a000000006002800fa00be
:10136000889fbe008a9fbe008c9fbe000706780043
:10137000878669000c003b0003047800870478002e
:1013800008f0a10009f0a100840f5000858f5800db
:10139000860f5900890f5c00030033000cf0a20097
:1013a00001003a000cf0a10094fe07006400e10087
:1013b0005f003200780147006408e10061003200fc
:1013c0006c014700748557003200be001201be0058
:1013d0003a04be001a05be001e039000be0a90002b
:1013e0008503530006003d000004fd008104fd005c
:1013f0000205fd008305fd008703ea000503780070
:101400000df8a3000400320060041400e0841c0006
:1014100060051d00e0851d006022b8007d032000ee
:101420000d38e1008006eb000b0039004433dd008d
:10143000f300b20083017300390037008482720028
:101440000d027800e10664008b85d1000a85d30087
:101450008984d3000884d3008703e900f7ff3b00a9
:1014600008004000898048000a0149008b8149003a
:1014700004003b0060001000e080180060011900cb
:10148000e08119000358a300090032008d82720028
:1014900084827200610260008301d1000281d30066
:1014a0008180d3000080d3000603e8001b003700d2
:1014b0000348a30017003a000600e00017003400bc
:1014c0000603e9000d00a3000000480081804800e9
:1014d00002014900838149000348a3000f003a003c
:1014e0000600e000090034000603e90000004000a7
:1014f00081804800020149008381490001003a00cf
:101500000003eb000348a300f5ff32006022b8009f
:1015100002003700848272006182660050fe07007c
:1015200003f0a1000cf0a70003f0a00047fe370075
:10153000640147006408e10002003a000df8a300ce
:101540003ffe3a003200be001201be003ffe3700ef
:020000040000fa
:0401800084220000d5
:020000040000fa
:04007400ea67000037
:020000040000fa
:10155000200000004f4b00000045000072720000a8
:101560006f720000004700006574000041700000c9
:101570006956000065720000736900006f6e00001c
:1015800000530000657400004170000069560000bf
:1015900065720000626f0000736500000052000079
:1015a0006561000064440000696700006974000020
:1015b000616c0000496e000070750000740000004e
:1015c0005265000061640000446900006769000022
:1015d000746100006c4900006e70000075740000ba
:1015e000730000005265000061640000416e00005d
:1015f000616c00006f670000496e000070750000ac
:101600007400000057720000697400006552000009
:10161000656c0000617900000057000072690000ed
:1016200074650000526500006c6100007973000071
:1016300000570000726900007465000054720000d9
:10164000616e0000005700007269000074650000c0
:1016500054720000616e00007300000057720000b9
:101660006974000065540000726100006e50000053
:10167000574d0000456e0000616200006c6500007f
:101680000052000065610000644b000065790000b5
:101690000044000069730000706c00006179000074
:1016a000436c0000656100007200000044690000a6
:1016b000737000006c6100007943000075720000d7
:1016c000736f000072000000446900007370000036
:1016d0006c6100007953000074720000696e0000b4
:1016e0006700000044690000737000006c61000036
:1016f0007950000069780000656c0000004300002c
:10170000414e0000456e0000616200006c65000003
:1017100000430000414e0000527800004368000082
:10172000656300006b000000434100004e52000062
:101730006561000064000000434100004e57000056
:101740007269000074650000004c0000494e000002
:10175000456e0000616200006c650000004c0000f6
:10176000494e00005265000061640000004c00001a
:10177000494e0000577200006974000065000000c7
:10178000496e0000697400002055000053420000bb
:101790000052000065610000647900002e2e0000f8
:1017a000003a0000003b00000a000000280300008f
:1017b000460000006c0000006f0000007700000091
:1017c000630000006f00000064000000650000007e
:1017d00020000000550000005300000042000000ff
:1017e00020000000530000006500000072000000af
:1017f00069000000610000006c0000002e03000082
:101800004d00000061000000740000007200000044
:101810006900000078000000200000004d0000007a
:10182000750000006c0000007400000069000000fa
:101830006d00000065000000640000006900000009
:1018400061000000200000004c0000007400000057
:10185000640000002e0000001201000000020000e1
:101860000200000000080000bf12000010f000009d
:101870000001000001020000000100000902000058
:10188000430000000201000000c000003209000017
:10189000040000000001000002020000010000003e
:1018a00005240000001000000104000024020000d4
:1018b00002050000240600000001000005240000cd
:1018c000010000000107000005810000030800007e
:1018d000000200000904000001000000020a0000ec
:1018e00000000000000700000502000002400000a8
:1018f0000000000007050000820200004000000018
:101900000000000004030000090400003e8c0000f9
:10191000828c0000d68b0000fe8b000000060000c9
:101920005f0600000007000003000000070300003e
:10193000247e0000247e0000242400002b6a000086
:10194000120000006313000008640000633600000a
:10195000495600002050000000070000030000006e
:10196000000000003e4100000000000000410000b7
:101970003e000000000800003e1c00003e08000081
:10198000080800003e08000008000000e0600000b9
:10199000000000000808000008080000080000001f
:1019a000606000000000000020100000080400003b
:1019b000023e000051490000453e00000042000088
:1019c0007f400000006200005149000049460000cd
:1019d0002249000049490000361800001412000096
:1019e0007f1000002745000045450000393c0000fd
:1019f0004a4900004930000001710000090500005b
:101a0000033600004949000049360000064900003d
:101a1000492900001e0000006c6c0000000000005e
:101a200000ec00006c000000000800001422000020
:101a300041000000242400002424000024000000b1
:101a400041220000140800000201000059090000b2
:101a5000063e0000415d0000551e00007e090000aa
:101a6000090900007e7f0000494900004936000056
:101a70003e41000041410000227f00004141000042
:101a8000413e00007f49000049490000417f0000bd
:101a900009090000090100003e4100004949000019
:101aa0007a7f000008080000087f00000041000065
:101ab0007f4100000030000040400000403f000037
:101ac0007f08000014220000417f00004040000019
:101ad000404000007f020000040200007f7f000001
:101ae00002040000087f00003e4100004141000068
:101af0003e7f000009090000090600003e41000089
:101b0000512100005e7f00000909000019660000f5
:101b1000264900004949000032010000017f000011
:101b2000010100003f400000404000003f1f000056
:101b300020400000201f00003f4000003c4000000b
:101b40003f63000014080000146300000708000051
:101b500070080000077100004945000043000000c4
:101b6000007f000041410000000200000408000066
:101b70001020000000410000417f00000004000030
:101b8000020100000204000080800000808000004c
:101b90008000000003070000000000002054000047
:101ba00054540000787f0000444400004438000092
:101bb0003844000044440000283800004444000039
:101bc000447f0000385400005454000018080000fe
:101bd0007e0900000900000018a40000a4a4000071
:101be0007c7f00000404000078000000000000007a
:101bf0007d00000000400000808400007d000000a7
:101c00007f1000002844000000000000007f00005a
:101c1000400000007c04000018040000787c0000f4
:101c20000404000078000000384400004444000030
:101c300038fc0000444400004438000038440000f0
:101c400044440000fc440000784400000408000004
:101c50000854000054540000200400003e440000da
:101c6000240000003c400000207c0000001c00001c
:101c700020400000201c00003c600000306000009c
:101c80003c6c0000101000006c0000009ca00000e4
:101c9000603c000000640000545400004c00000050
:101ca000083e00004141000000000000007f0000ed
:101cb0000000000000410000413e0000080200005a
:101cc00001020000010000000609000009060000f2
:041cd0000000000010
:020000040000fa
:101cd4000001eb000100e000080032001004e00005
:101ce40003003a00050037005004e000030032000e
:101cf4000201e800828f5000fbff3e0002007800e2
:101d040000000600e8874700889fbe008a9fbe0047
:101d14008c9fbe008e1f7800e2b79f008306780078
:101d24000046eb000d00e00043003200e00f5000dd
:101d3400e08f580009003d00d2c2b300efb1970014
:101d44008249780060011000e0811800f2b79f001a
:101d540083bf9f001c00200003003700f0b79f00e2
:101d640081bf9f000006eb0018002000090020003e
:101d74001ec0b3007fb097008fb89700e00f5000eb
:101d8400e08f58000300320008a02c00a9b92300fa
:101d94000047eb008d0f560027003100e00f540080
:101da400e08f5c002b0032007fb597008fbd970059
:101db400880f5500898f5d00020031000e04e00099
:101dc400120032000801be000a00be0012fa070029
:101dd400efb197008c80410002c3b30082484000f9
:101de4000c06e8000080fb008000eb0080c9b9000d
:101df4000800b800810041000001550081815d00a8
:101e0400f2b79f0083bf9f001ec0b3008d0f560022
:101e140009003100a2002000030020000800be00d9
:101e2400fdf907000004be00e00f5000e08f5800e9
:101e3400ddff3a00070037000c4078004f077800b8
:101e44004f06be004f05be004f04be008f00b10018
:101e540000000600efb197000c8041000048eb0041
:101e6400f5ff3700e4874700889fbe008a9fbe00c5
:101e74008c9fbe008e1f780082bf9f0003077800ee
:101e84000046eb000e00e0002c0032001800200099
:101e9400090020006055b8001dc0b300e00f5000d9
:101ea400e08f5800040032000005be0008a02c009a
:101eb400a9b923008046eb000006eb00880f55000b
:101ec400898f5d00020031000d04e0001000320033
:101ed4000801be000a00be00cff907000fb9970041
:101ee4008c00410002c3b300824840000c06e800a5
:101ef4000080fb008000eb0080c9b9000800b80036
:101f0400810041000005550081855d001dc0b300be
:101f14008e0f560009003100a200200003002000ab
:101f24000800be00bcf907000004be00e00f50002a
:101f3400e08f5800e1ff3a00070037000c407800ba
:101f44004f0778004f06be004f05be004f04be0089
:101f54004f00b100000006008fb897000c804000cd
:101f64000048eb00f5ff3700e8874700889fbe0074
:101f74008a9fbe008c9fbe008e1f7800e2b79f0030
:101f8400830678000d00e00043003200e00f5000ab
:101f9400e08f580009003d00d2c2b300efb19700b2
:101fa4008249780060011000e0811800f2b79f00b8
:101fb40083bf9f001c00200003003700f0b79f0080
:101fc40081bf9f000006eb001800200009002000dc
:101fd4001ec0b3007fb097008fb89700e00f500089
:101fe400e08f58000300320008a02c00a9b9230098
:101ff4000047eb008d0f560027003100e00f54001e
:10200400e08f5c002b0032007fb597008fbd9700f6
:10201400880f5500898f5d00020031000e04e00036
:10202400120032000801be000a00be007af907005f
:10203400efb197008c80410002c3b3008248400096
:102044000c06e8000080fb008000eb0080c9b900aa
:102054000800b800810041000001550081815d0045
:10206400f2b79f0083bf9f001ec0b3008d0f5600c0
:1020740009003100a2002000030020000800be0077
:1020840065f907000004be00e00f5000e08f58001f
:10209400ddff3a00070037006fb097004f07780064
:1020a4004f06be004f05be004f04be008f00b100b6
:1020b40000000600efb197000c864100004eeb00d3
:1020c400f5ff37000080fb008181fb000001400028
:1020d400028141004411dd0003a0210003014100fd
:1020e4001274a1000104e00005003a000000400061
:1020f400a148210000804000020878000400370055
:10210400000040008149210000804000020878005e
:102114001264a100680141001264a00000000600de
:1021240041a4800080c0b300e78f50000e003e0041
:1021340040a48000c250e20004003a0013c0b3007f
:10214400220c21000349780007003700210c2100ec
:1021540091407800e1cf500003003a0023c0b3005f
:10216400220c210003497800814821000081fb00f2
:1021740091081100c1a48000a1419000a2409800e0
:10218400b1419000c2cfb30002c16100b2409800d7
:10219400014c21002186880031a480000108a3009d
:1021a400030032000004e0000c003a0000000600c6
:1021b4000004e0001100320043482100930078003d
:1021c40022868000315978002286880081097800af
:1021d4000040e900f8ff3a000000060043482100ef
:1021e4009300780022868000315978002286880086
:1021f400810978000040e900f8ff3a000000060079
:1022040000c8b300014b2100914f100033003a0085
:1022140001ccb3006048210001487800304b210014
:1022240010407800e24f500009003200e34f5000a4
:1022340017003200e14f500026003a00c0c22800c7
:1022440020a488002001200040a48800000006008b
:10225400204b21001080fb000000400061c82800d2
:102264008080400040482100110878001001780067
:10227400e4004000224190008248780090007800f9
:1022840065004000b140900001487800000006005d
:10229400204b210021c0b30090cf10000a003e0063
:1022a4001080fb000000400081c8280080804000ae
:1022b4004048210011087800100078001080fb00cd
:1022c40040a4880000000600604821000048eb009c
:1022d40000000600604821000048eb0000000600f2
:1022e4000040eb00014c2100804878008100e800a8
:1022f40080487800004b2100104078007f40600047
:102304000080fb00e10f50000e003200e20f50008d
:102314000f0032000000e00029003a00604821006c
:102324001070a0000100e9001004a0008085800066
:10233400e10f500022003a000100e9001014a0004f
:102344001f003700604821001070a0001c003700f7
:10235400604821001070a000404b21001004e000f0
:1023640008003500104078006f4060000080fb00da
:1023740000004000a1482100008040009000780047
:1023840008003700404b2100104078006f40600087
:102394000080fb00000040008149210000804000d3
:1023a4009000780040c8b3009140600080cf500096
:1023b40003003a0011c0b300004c2100014878002a
:1023c40030a480000078a30007003200004c2100f4
:1023d40020a48800604821001000a00021c0b300a0
:1023e4000080e8000148780000000600e024ab000b
:1023f40017003200f08580009080fb0010419000af
:102404004811dd000281700001082000810f510095
:102414000e003a00c1a480009181fb00114190009c
:102424004811dd000281710041082000810f510034
:1024340006003a0090407800c1c8b3000148780013
:10244400904090008040eb0011409800e024a900e7
:10245400000820000026880000000600881f78007d
:1024640080492100900078001184fb004644de007e
:10247400614464001034a200a0858000e80f50007d
:102484000a003a00204b21001080fb0060268800df
:10249400cc04e2000300320000012000a085880083
:1024a4000200370040002000a0858800c3d0bf0090
:1024b400e14f500025003a00c0a48000014c2100e7
:1024c4004041900041409800c808de00504190000f
:1024d4005140980012ff0700c2d0bf00e24f5000e5
:1024e40008003a00c0a480009040780041c8b300be
:1024f40001487800904090008040eb001140980023
:10250400260037000804e00008003a00c0a4800058
:102514009040780081ccb30001487800904090004e
:102524008040eb00114098001c003700c0a48000dc
:102534009040780081c8b300014878009040900032
:102544008040eb001140980014003700204921001e
:102554001004e00010003d00630040009080fb0088
:102564000000e8001080fb004800dd0000807000df
:1025740007003200504921009080fb000000e80071
:102584001080fb004800dd000080700000000100a6
:10259400204921001074a100c370ef004f0478009b
:1025a40000000600f4874700889fbe008a9fbe0093
:1025b4008c9fbe008e1f78000005be000247780085
:1025c400f3b79f0084bf9f000e04e00010003200a8
:1025d4000800200009f023000046eb000800be00bc
:1025e4001df80700a49929009599290096992900b6
:1025f40097fb230037f80700abf807000004be0080
:102604000c46e8008c4f5700f4ff3e0002003700f0
:102614000800200009f023006011b8000a00be0081
:10262400ccf807000006eb000000e00005003d00c8
:102634000bf0a200d0c2b300ffb09700804878002e
:102644001c0020000801be000a00be00c4f80700f8
:102654000004be0000f807001ef9070092f8070006
:102664000005be0024f90700c300200002fe2f006d
:102674000f0141003cfe07008fe097000104e000d9
:102684000e0032000040eb000fb997008c0f510090
:1026940004003600ffb197000c8141000149780025
:1026a4000c06e8000040e8008080fb000102b10055
:1026b400efc078000104e000f3ff3a000e04e000ec
:1026c400290032000fb897008c0f50002c00360000
:1026d400ffb097000c804000e1c2b30001487800cd
:1026e4000c06e800ecb79f000fb997008c01780046
:1026f400830f5100220036000a01be000800be000c
:1027040096f807007fb19700efb197008306410068
:1027140003067800030037000fb997008c0f5100af
:1027240017003600020020000312240013f90700ea
:102734000004be00f0f807000005be0043f90700de
:102744000001be000800be0084f8070003c3b30004
:10275400835e45000c06e800cfe99700034156006c
:10276400824f5700ecff3e000fb89700800f5600d1
:1027740003003100ffb097000c864000004eeb00d0
:102784007fb097004f0778004f06be004f05be008c
:102794004f04be004f01b1000000060001016100ba
:1027a4008180ea009080600001087100000006004a
:1027b4000282ea0091086200028161001002620054
:1027c4000408710000000600908060000281fb0094
:1027d4000208de000000060091087100100161008b
:1027e4000380fb000010de0000000600889fbe008e
:1027f400804478000904e000080032000044eb0043
:102804000060fe00001721001100200017f70700e8
:102814000844e80088cf5400f9ff3e004f04be008e
:1028240000000600889fbe008a1f780000457800db
:102834008044eb000a04e0000a003a000b00370071
:1028440010c0b300e9ff07000804e800703e200050
:10285400800f5400faff3a008944e800894f55007c
:10286400020036000004eb00f5ff37004f05780046
:102874004f04be0000000600889fbe0000047800dc
:10288400f00f2000800f540007003600a05b2400e6
:1028940001002000f5f60700f80fb100f00f20004a
:1028a400800f5400f9ff3e000800e00007003200ea
:1028b4000880fb006104b8006104200081c9b900ec
:1028c4000140b80081004100e8f607004f04be0053
:1028d40000000600881f780000047800f00f200034
:1028e400800f54000700360000e925000111200084
:1028f400def60700f80fb100f00f2000800f54003f
:10290400f9ff3e000800e000050032000884fb00e7
:10291400001721000040b80081004400d3f60700ee
:102924004f04780000000600881f78000004780037
:10293400f00f2000800f54000600360000c0eb00aa
:10294400aaff0700f80fb100f00f2000800f540019
:10295400faff3e000800e000020032000840780060
:10296400a2ff07004f04780000000600881f7800cb
:1029740000047800f00f2000800f54000700360098
:1029840000282600117f2200b8f60700f80fb100d6
:10299400f00f2000800f5400f9ff3e000800e00013
:1029a4000a0032000880fb008000eb0003d82100fd
:1029b4008389b900c44220008482b9000401410023
:1029c4000300b80081004100a8f607004f04780016
:1029d40000000600881f780000047800f00f200033
:1029e400800f54000600360000c0eb008dff070086
:1029f400f80fb100f00f2000800f5400faff3e00e2
:102a04000800e000020032000840780085ff07005b
:102a14004f047800000006000000fa00889fbe0002
:102a24008a9fbe008c1f78000604be006fb5970015
:102a3400ffb597000605550087855d00020050002c
:102a44008380580080dbb9008a8eb9000c034300f0
:102a54000050b800810043000201520083815a00f3
:102a64007df807000000440081804c004f06780088
:102a74004f05be004f04be000080fa0000000600af
:102a84000400fa00889fbe008a9fbe008c9fbe008f
:102a94000204be0084bf9f0095bf9f000606be00cf
:102aa4000801be00adf707000005be000c01be0022
:102ab4003fb09700cfb09700a8f707000001be0011
:102ac4000a00be002df807000005be000801be0084
:102ad4000fb897009fb89700a0f707000001be0049
:102ae4000a00be006bf807000c01be009cf707004b
:102af4004f06be004f05be004f04be000080fa0022
:102b0400000006002ac8a900f00f20002026880033
:102b140000268800e024ef00e224ef00e424ef0024
:102b2400dc24ef00f00920003026880010268800fd
:102b34009004a80000a021004800de007026880050
:102b44000000eb00c300dd0002a021008100410071
:102b54006022b8006033b8008498be008690be003e
:102b64000000e800ec0f5000f6ff3a00ca24a80069
:102b7400cc24ef00caa4a900ca24a900c064ab00f5
:102b84000f00320080002000002688000040eb0087
:102b9400614821008048780021492100804878005c
:102ba4008100e80011417800804878008100e80045
:102bb4001141780080487800c064ab00f1ff3a000e
:102bc400100020006086880070868800ae30ef0018
:102bd400aa30ef00b230ef000000eb0050a48800f0
:102be400a14b210080487800d14b21008048780017
:102bf400d0a4880060a48800b14b210080487800ec
:102c0400e14b210080487800e0a4880070a488008b
:102c1400c14b210080487800f14b210080487800a6
:102c240000a12100c0a48800d00020000027880053
:102c3400004b210020d0880020a0210001c02f00db
:102c4400908060000130a000010878004008200056
:102c540000d08800b670ef00b430ef00000006002a
:102c6400889fbe008a1f7800004578008144780060
:102c74000984fb000838a300030032008040eb0005
:102c84000a4078000ffd07000828a3000300320063
:102c940011c0b3000a4078000afd07000a85fb0052
:102ca4000a054500004e20000a054000094d780041
:102cb4004f0578004f04be00000006000104e00048
:102cc400060032000082fb00040242008549210014
:102cd4000482420014027800050037000082fb00e1
:102ce40004024200a5482100048242001402780034
:102cf4008002eb000400e0002e003200c442900089
:102d0400424298004811de00d4429000524298009a
:102d14008381fb00f50f200024419000234298009a
:102d2400b4419000c2cfb30002c1610032429800a6
:102d34001481fb00944190000204b2009441780095
:102d4400054a61004811de00944190001242980047
:102d54009481fb00144190004811dd000281710050
:102d64008208b30094417800054a61004811de00ee
:102d740094419000124298000104e00007003200e0
:102d84000080fb0000004000814921000100400058
:102d94001034a20084027800060037000080fb0093
:102da40000004000a1482100010040001034a200ae
:102db4008402780005007800000006000004e000aa
:102dc4001d003a0000868000a04090008040eb0087
:102dd40082c0b30022409800b0419000c2cfb3003b
:102de40002c161003240980000868000024b21003d
:102df400c0419000424098004811de00d04190004c
:102e0400524098000086800010417800c2c8b30088
:102e1400024878001041900011409800c0a480003e
:102e24001041780042c8b300024878001041900075
:102e340011409800000006008180fb000080fb0028
:102e440000004000008040004400dd0004a0210098
:102e5400840040001181fb0091429000c82add00eb
:102e6400850271004308200085827100f20f200062
:102e740082c86200c82ade009540980068004000bd
:102e8400040040001082fb0090409000c808dd0060
:102e9400810072008180710002c86000c808de00f1
:102ea40011409800000006001000fa00889fbe0040
:102eb4008a9fbe008c1f7800caa4ab009800320021
:102ec4008080fb0081804000804921008100400017
:102ed400110078001081fb0090419000c819dd00ba
:102ee40083017100b3b79f00204190000281fb0071
:102ef400b0419000c819dd0083017100c3b79f0081
:102f0400404190000281fb00d0419000c819dd00cf
:102f140083017100d3b79f00604190000281fb00e0
:102f2400f0419000c819dd0083017100e3b79f00f0
:102f34003fb29700cfb297005fb39700efb397000b
:102f440008042000090020006055b800080262004f
:102f5400898262000a0363008b836300f4b79f00d5
:102f640085bf9f0096bf9f00a7bf9f00f20f200060
:102f74009041780002486200ffb49700c849de001f
:102f84001046900013409800a041900025409800fe
:102f94000fbd9700c851de003046900033409800c2
:102fa400c0419000464098009fbd9700c859de007c
:102fb4005046900053409800e041900067409800cc
:102fc4002fba9700c821de00704490007340980027
:102fd400110078009081fb00104690004866dd00e7
:102fe4000c867100bcb79f00a04190008381fb0058
:102ff400304690004866dd000c867100ccb79f0017
:10300400c04190008381fb00504690004866dd007b
:103014000c867100dcb79f00e04190008381fb00c7
:10302400704690004866dd000c867100ecb79f0086
:103034003fb49700cfb497005fb59700efb5970002
:1030440004042000050020006033b80004046c0070
:1030540085846c0006056d0087856d00f8b79f00b8
:1030640089bf9f009abf9f00abbf9f00904178002b
:1030740002486400ffb29700c829de0010449000a3
:1030840013409800a0419000294098000fbb97007e
:10309400c831de003044900033409800c0419000b5
:1030a4004a4098009fbb9700c839de005044900006
:1030b40053409800e04190006b4098002fbc97006b
:1030c400c841de0070429000734098001134a200a1
:1030d400110078009081fb00104290000304b200bc
:1030e4001042780002c86100c819de001042900046
:1030f40013409800110078009081fb0090409000ec
:10310400c808dd00818071000160a2009041780050
:1031140002c86000c808de00104190001140980009
:103124004f0678004f05be004f04be000080fa0031
:1031340000000600ca24ef00c224ef00b430ef0000
:1031440000000600b410e20012003a00ca24ef00a6
:10315400c224ef00dc24ef00f009200030268800b0
:10316400102688002ac8a800f0cf2f006a08b600ed
:1031740000a0a00050438800ca04ab0003003a003a
:10318400ca04a800ca04ab00fdff320010002000ee
:10319400a085880000000600cc10e20046003a003a
:1031a4001000200060868800ce10e20042003a0041
:1031b40070868800c3d0bf00e24f500010003a0070
:1031c4008249210012007800a04090008040eb006a
:1031d4002140980030429000c3cfb3008341620085
:1031e40033409800120078001041780082ccb3007c
:1031f4000248780010419000114098000000060039
:10320400c3d0bf00e14f50002b003a00c830ef009c
:10321400f0858000a04090008040eb0085c0b300a2
:103224002540980030419000c4cfb30004416100b0
:1032340032409800f0858000024b21008281fb001f
:1032440040439000434098004811de0050439000f2
:1032540052409800f08580001043780046c8b300bf
:103264000648780010439000114098001000200098
:103274004086880000868000204390002540980006
:10328400b042900004c2620034409800008680007e
:103294004042900043409800d04190005240980032
:1032a400008680001041780002c8b300024878000c
:1032b400104190001140980000000600f085800045
:1032c4002043900030409000304921009080fb0062
:1032d4000000e8001080fb004800dd000080700062
:1032e4008680fb00808f50000400360030492100a6
:1032f4001083fb000000e8001080fb00314921002e
:103304009181fb000100e8001081fb004811dd0001
:10331400028171008681fb00030151009141780014
:10332400824878004811de00904078000248780016
:103334000604e000120032008000eb000349210083
:103344009382fb000301e8001280fb004800dd00cb
:10335400044c2100010242000080720014587800dd
:1033640013427800804978004800de0092417800da
:10337400004978008100e800814f5300efff3e00d0
:10338400304921009080fb000000e8001080fb0021
:103394004800dd00008070002300320000868000b9
:1033a400a040900081c0b3002140980030419000bb
:1033b400c1cfb30081406100314098000086800095
:1033c400014c21004041900041409800c808de00b3
:1033d4005041900051409800f085800001c4b30032
:1033e40010c0600008003a00008680009040780019
:1033f40081ccb30001487800904090008040eb00fd
:10340400114098000000060000868000904078007b
:1034140081c8b30001487800904090008040eb00e0
:10342400114098000000060000868000a040900033
:1034340081c0b3002140980030419000c1cfb30057
:10344400814061003140980000868000014b2100da
:103454004041900041409800c808de00504190006f
:1034640051409800008680009040780041c8b30025
:1034740001487800904090008040eb001140980093
:10348400504921009080fb000000e8001080fb0000
:103494004800dd0000807000070032005049210020
:1034a4009080fb000000e8001080fb004800dd0075
:1034b4000080700000000100204921001074a10068
:1034c400ac10e20001003a0033ff070000000600e0
:1034d400c3d0bf00e24f500001003a0077ff37002d
:1034e400c370ef00c810e20017003a0000868000a5
:1034f400a040900081c0b30021409800304190006a
:10350400c1cfb30081406100314098000086800043
:10351400014b21004041900041409800c808de0062
:1035240050419000514098000086800090407800ff
:10353400c1c8b30001487800904090008040eb007f
:103544001140980000000600c830ef00000006009b
:10355400ae30ef00aa30ef00c3d0bf00e24f5000fe
:1035640017003a0000868000a040900081c0b3009c
:103574002140980030419000c1cfb30081406100e8
:103584003140980000868000014c210040419000a9
:1035940041409800c808de00504190005140980016
:1035a400008680009040780081ccb3000148780008
:1035b400904090008040eb0011409800000006000d
:1035c400604b21001080fb00714b21009180fb00b7
:1035d400c808dd008100700040a48000808f500086
:1035e40007003100604b21009080fb000000e800e0
:1035f4001081fb004811dd008048210001087100a2
:10360400c7fa07008149210011007800024c21000b
:10361400c0419000424098004811de00d041900023
:1036240052409800110078009040780081ccb3009b
:1036340001487800904090008040eb0011409800d1
:1036440000000600caa4a90030a480000078a300ea
:1036540028003a00204921001004e00008003d0041
:1036640020c0b300c3f0b700aa10e20001003a0082
:10367400b7ff0700ce30ef00cc30ef0000000600ab
:1036840000868000a04090008040eb0082c0b30020
:1036940022409800b0419000c2cfb30002c1610043
:1036a4003240980000868000024b2100c041900007
:1036b400424098004811de00d041900052409800ea
:1036c4000086800010417800c2c8b3000248780028
:1036d4001041900011409800c0a48000104178006f
:1036e40042c8b3000248780010419000114098008d
:1036f40000000600004b21001004e0000a003d0019
:1037040010c0b300c3f0b700ae10e20001003a00ed
:103714008fff0700ce30ef00cc30ef00ac10e2009a
:103724001e003a009cfe370020c0b300c3f0b7006f
:1037340000868000a040900081c0b3002140980022
:1037440030419000c1cfb300814061003140980006
:1037540000868000014b21004041900041409800c8
:10376400c808de0050419000514098000086800057
:103774009040780041c8b300014878009040900020
:103784008040eb0011409800ce30ef00cc30ef00c9
:10379400ac10e20001003a007ffe070000000600c2
:1037a400322680001126800050248000534180007e
:1037b400c619de00e1c16100c624ef00c224ef0097
:1037c4008a24ef000ac8a9008a84a8000401200002
:1037d400442488002ac8a8000040fe00e18161005a
:1037e400c619dd00f4fb2f0055418000050262007c
:1037f4000482710054418800322688001126880012
:103804005024880010000500004b2100104078006f
:103814007f406000e14f500059003a00004b210006
:1038240002c6b3009040610000c2b30080cf5000d4
:1038340053003a00404b21001004e0000300320022
:1038440011c0b30090cf10004d003a00104b21007e
:103854001040780001c2b300814f50001a003200ba
:1038640005003e000004e0000a003200e14f500071
:1038740043003a000f00370011c2b300814f5000db
:10388400310032008140e800814f50003c003a0092
:10389400350037008054210020a4880080002000d7
:1038a40040a48800604821001000a0001070a0000f
:1038b400000006008054210020a4880060482100f4
:1038c4001070a00000000600604b21009080fb00f7
:1038d4000000e8001080fb004800dd00008070005c
:1038e400f30f200032492100924078008040eb0021
:1038f400034960004801de0040492100104278007d
:1039040002487800804a21000249210012427800ce
:10391400034960004801de0010492100904178000d
:1039240002487800640040001041780001487800a3
:103934000000e8001041780001487800640050005d
:103944001074a00000000600804a210020a4880012
:103954007000200040a4880011ccb300604821000e
:103964000148780000000600204b210090407800b8
:10397400620d210001497800604821001070a00008
:103984000000060000b024000100200040a58800cb
:1039940051a588000040eb00c14a2100804878000e
:1039a4008100e8008048780081c0b300e04a21002b
:1039b40001487800b770ef0051c1b30010c0b300e4
:1039c400a7fc0700d1c1b30020c0b300a4fc0700ca
:1039d40003c4b300825021008040eb0020c0b30038
:1039e400b6fc070090868800d430ef00b870ef0072
:1039f40000000600881f780001047800e50f5000dd
:103a040010003a0090868000880f500006003a00ab
:103a140003c4b300825021008040eb0020c0b300f7
:103a2400a6fc07009086880010002000a186800074
:103a3400888f500004003a00b870ef00bc70ef00ab
:103a4400010037000000eb004f047800000006007e
:103a540000017800b770ef00908680000000e0005d
:103a6400020032001004e0001d00350020429000e6
:103a74000482fb00b0419000e3816100c819dd00bd
:103a8400830172000182fb00830f520002003400a4
:103a9400a0409000304090000104e0000a00320091
:103aa4000040eb000080fb00835021008081410036
:103ab4000000410013487800b750ec00b7f0b7009d
:103ac40080cf5000f7ff3e0003c4b30082502100b2
:103ad4008040eb0020c0b30078fc0700908688008b
:103ae400b7d0bf00000006002ac8a900b850e20001
:103af40007003a00d085880001417800c00b2100fe
:103b04000248780010c0b300bdf0b700b8f0b700a9
:103b14002ac8a800000006002ac8a900b850e2007c
:103b2400060032002ac8a800000006008140e80010
:103b3400e1cf400003003a000400370000017800a0
:103b440011c0b3003204e000f8ff3a00d0858800c9
:103b540001417800c00b21000248780010c0b30076
:103b6400bdf0b700b8f0b7002ac8a80000000600ee
:103b74002ac8a900b850e200060032002ac8a800ea
:103b8400000006008140e800e1cf400003003a0055
:103b9400040037000001780011c0b3003204e000d3
:103ba400f8ff3a00d085880001417800c00b21005d
:103bb40002487800bd70ef0010c0b300b8f0b70041
:103bc4002ac8a800000006002ac8a900a086800010
:103bd4000000e000040032001004e00002003d0098
:103be4002ac8a80000000600b8d0bf00e34f500068
:103bf40002003a00b870ef00020037000004e00051
:103c040002003a002ac8a80000000600e24f500053
:103c140008003a008041eb000001eb0011c0b30042
:103c240026fc0700a086880030c0b300b8f0b700b7
:103c340033003700e14f500031003a00bcd0bf00e0
:103c44008041780001c4b300814f50000100360068
:103c54008141780003405000bcf0b700804c210043
:103c640080868800bd50e200030032000304e000b7
:103c74000c003a00130037000304e0001100320086
:103c840003407800d28580008186800092487800c5
:103c9400d030ec00ba30ec000040e900f9ff3a0003
:103ca4000800370003407800d285800081868000b8
:103cb40092487800d030ec00ba30ec000040e900c3
:103cc400f9ff3a00bc50e20008003a0000c4b30017
:103cd40080cf510003003a0020c0b300b8f0b70011
:103ce4000200370030c0b300b8f0b700824c2100a6
:103cf40011c0b30020c0b300f0fb0700a086880009
:103d04002ac8a80000000600a5fe3700000006002f
:103d14000000060000000600bbfe3700000006009d
:103d240018ff370080858000e10f50000a003a0038
:103d340090858000e10f500007003a002ac8a900ce
:103d44009024a900b230ef00ca44a800f830ef0074
:103d5400ca44a9002ac8a80000000600e30f5000c6
:103d64000a00320051072000810f50000300320086
:103d7400e10f500006003a0002003700e2ff07009e
:103d840003003700e6ff070001003700e2ff0700e9
:103d940010000500b230ef000001eb008000eb00e2
:103da40040072000edff07008a84a90000012000dd
:103db40040248800000006008a84a8000001200036
:103dc4000026880010002000908588000001eb0088
:103dd4008000eb0050072000e0ff3700881f7800c8
:103de400604821001070a000e224ef00e424ef00fa
:103df40008a02100020620008000eb0008007800e3
:103e0400fef10700ca24a8000040eb00a14b2100ea
:103e140080487800d14b210080487800b14b2100c4
:103e240080487800e14b210080487800c14b210094
:103e340080487800f14b210080487800220020005f
:103e44008000eb00804b2100ecf10700ca24a9009c
:103e540070004400c0a48800f885880008868800a3
:103e6400204b210010417800610b2100824878002a
:103e7400b650e20003003a0000012000a08588004b
:103e84000600370012002000610b21001000200002
:103e9400b2ff070000022000a08588004f047800cc
:103ea400000006000200fa00881f7800204b210061
:103eb40011c0b30090cf10000e003a000080e9005a
:103ec400104078007f4060000a003a0060482100fa
:103ed4001070a000104b210032c0b300904f1100ad
:103ee40003003a001000200080858800010037009c
:103ef400b030ef00204b21001004e000c6003a006f
:103f04000080e900104078007f406000e24f5000dc
:103f1400c1003a00404b2100104078006f4060001f
:103f2400bd003200404b2100104078006f4060001b
:103f34000080fb00e20f5000b7003c0000022000ac
:103f4400b410e300b4003a00604821001070a000ef
:103f5400404b21001004e0000f00350010417800b0
:103f6400ef4061008180fb0081804000a248210075
:103f74008100410091007800e1bf9f00104078006b
:103f84006f4060000080fb00d14b210000804000a6
:103f9400104478000f003700404b21001041780096
:103fa400ef4061008180fb00818040008249210054
:103fb4008100410091007800e1bf9f00104078002b
:103fc4006f4060000080fb00a14b21000080400096
:103fd400104478000808a30004003a004ff8970042
:103fe4000034a100c0ff9f0003003700cff8970002
:103ff4000134a000c1ff9f00404b21001004e000e9
:1040040009003500104078006f4060000080fb001c
:1040140000004000a1482100008040006fb99700d3
:104024000208780009003700404b21001040780056
:104034006f4060000080fb000000400081492100c7
:1040440000804000efb8970001087800104b210071
:1040540032c0b300904f11001e003a006fb89700b1
:104064001004e00011003d00404b21001004e0006a
:1040740007003500104078006f4060000080fb00ae
:10408400d14b2100008040001014a000070037002d
:10409400404b2100104078006f4060000080fb001e
:1040a400a14b2100008040001014a0006fb89700bd
:1040b4009080fb00104190004811dd008280700068
:1040c4004108b30001487800c808de001140980098
:1040d400510037004ff897000034a200c0ff9f0042
:1040e400efb897001104e0000d003d001180fb00c3
:1040f400114190004811dd00020070000070a10021
:104104000060a000804878004800de0090409800dd
:10411400220020005000200010ff07000800370094
:104124001181fb00114090004800dd000000710087
:104134000060a000804878004800de0090409800ad
:10414400cff897000134a200c1ff9f000818a30014
:1041540003003a006fb897001004e0001e003d0011
:10416400404b21001004e0000700350010407800a7
:104174006f4060000080fb00d14b210000804000b4
:104184001014a10007003700404b210010407800b4
:104194006f4060000080fb00a14b210000804000c4
:1041a4001014a100efb897001180fb00114190009a
:1041b4004811dd00b003b2000000710080487800af
:1041c4004800de00904098002200200050002000ab
:1041d400e2fe0700080037009080fb0010419000c9
:1041e4004811dd00b103b20081007100014878007c
:1041f400c808de0011409800404b210010407800b0
:104204006f4060000080fb0000004000014e200071
:10421400010040001014a1004f0478000080fa004f
:1042240000000600004b210001c6b30010c060006e
:104234003e003a00104b21001080fb008000eb0090
:10424400eb0f5000e08f580038003e0000060100dc
:104254001b0037001b0037003400370019003700fb
:1042640032003700060037000a0037002b00370001
:104274000a00370008003700130037001e0037001b
:10428400604821001070a00080002000a0858800f4
:1042940000000600daf73700d0fe3700600b21007b
:1042a40020a48800604821001000a00012c0b300c0
:1042b4008080e800824878001070a00000000600aa
:1042c40007f83700f7fe3700404b21009080fb00d1
:1042d40040482100824b2100010841000080e80091
:1042e4001000a00012c0b3008080e800824878006b
:1042f4001070a00000000600604821001070a000ab
:10430400404b21001080fb00814b210000804000c5
:10431400214b210011487800000006000001eb0049
:104324008000eb00200020008cfe07000000060047
:10433400c270ef00ac30ef00ae30ef00aa30ef00f7
:10434400c830ef00c370ef0080492100900078006e
:104354001181fb0091429000c82add0085027100a2
:10436400f4f72f0084826200f30f200011417800db
:104374000041eb0083c86200c82ade0011439000ac
:10438400954098001034a200900078001183fb003f
:1043940091429000c82add00850273008482620085
:1043a4001143780083c86200c82ade0011439000dc
:1043b400954098001034a200008680009082fb0093
:1043c40090409000c808dd00818072000482600083
:1043d40090407800034862004822de00904090003c
:1043e4001440980060482100024878000000eb0067
:1043f40040a4880021492100804878000100e80099
:1044040090407800024878000000e800904078006e
:104414000248780083ff07000001eb008000eb00f6
:10442400300020004dfe070086fc3700d0c2b300e8
:10443400caf0b700c6d0bf00b00fb2002b003a00dc
:10444400c6d0bf000000d000801fb20001a0210030
:1044540001004000f085880000868800c070aa0032
:10446400c1c3b30010c16000e8c05000814f5100c7
:104474001d003a00014b210081027800688240004f
:10448400c04190008381fb00504190004811dd0041
:104494000281710092587800c04190008381fb0032
:1044a400504190004811dd00028171000201e800d2
:1044b400c0419000424098004811de00d041900075
:1044c40052409800848f5000edff3a00f085800040
:1044d400c040900045409800c82ade00d0409000bb
:1044e4005540980092ff3700f9fb3700c6d0bf0053
:1044f400b00fb200e80f500001003a00d7f70700f0
:10450400000006003600f800809fbe00829fbe00b7
:10451400849fbe00869fbe00881f78003200f8008a
:104524003400f80010002000a001880000202000c2
:104534009001880000000000a0858000e10f500079
:1045440006003a00f00f200000268800c204a800ec
:10455400c284a80020002000a08588008884ab00c5
:10456400050032008a84ab00030032000001200001
:104574004024880007fe07009024ab0002003200ac
:104584000ac8a9006a003700c004ab000800320062
:10459400c204ab00060032005af907002ac8a8007a
:1045a40040002000a085880010002000002688001c
:1045b400c084ab0005003200c284ab0003003200ab
:1045c400fdfd07000001200000268800c044ab0068
:1045d4000e003200c244ab0004003200120020007e
:1045e4008000eb0030072000dcfd070040002000c5
:1045f40000268800ca50e20001003200ca70ed00b3
:10460400ca50e20001003a00e3fa0700c0e4ab003c
:1046140003003200c2e4ab000100320073f707006c
:10462400c024ab000a003200c224ab0008003200f0
:10463400120020008000eb00f0ff2700c7fd0700f8
:10464400f00f20002026880020002000002688008b
:10465400a0858000e30f500002003e000ac8a900b4
:1046640033003700c264ab003000320048c0b300ee
:10467400c064ab0003003a002c003700c064ab00f8
:104684002a00320040268000c6f0b700c6d0bf0022
:104694000080fb004400de00c7f0b700800020006b
:1046a40000268800c6d0bf000038a3000b003a00e3
:1046b400c7d0bf000080fb00d14b21000080400028
:1046c40010417800e14061000104a200104178002b
:1046d4000204a100014871000a003700c7d0bf00de
:1046e4000080fb00a14b21000080400010417800b5
:1046f400e14061000104a200104178000204a1001d
:1047040001487100c750e20002003a0047ff070069
:10471400040037000001eb00610c21002007200099
:104724008efd07000844e900d4ff3a000ac8a90036
:104734003400f9003200f9004f0478004f03be0042
:104744004f02be004f01be004f00be003600f9000c
:10475400004006000004e00005003a0004e12000e7
:1047640044878800e570ef00e4e120005487880066
:1047740045878000560e2100164378000683fb000f
:10478400140020000623dd00954a7300458780004d
:10479400560e2100164378000683fb000623dd0035
:1047a40048b3de0055437300864a7800558780007d
:1047b400560e2100164378000683fb000623dd0015
:1047c400954a730055878000560e210016437800e1
:1047d4000683fb000622dd0048a2de00554272007b
:1047e400844a78007f0060004019880023c3a90030
:1047f40023e3a9000204e00002003a0023a3a90075
:104804000100370023a3a80000c4b30080cf5000e8
:1048140002003a0025e3a8000300370025e3a900bd
:104824008180fb00211988002143a80021e3a8000e
:104834002023a8000380fb00610420000100b800cd
:104844000aef37002023a9002003ab00feff32004b
:104854000004e0000200320000188000020037006b
:10486400001880004400de002023a8000000060099
:1048740021e3a90050878000520e210012417800e4
:104884000281fb00110020000209dd0002c1ea00e0
:104894001048610050878000520e210012417800b8
:1048a4000281fb008208dd00c888de0081c0ea00c6
:1048b400d0c060000148780000000600000220001b
:1048c400c0028800f10f2c0040348000808060001a
:1048d40000e02000010070004034880000f82f0040
:1048e400d406b6002003b300a0368800f0cf2f0012
:1048f4000004b60000a0a00000208800010e2000e3
:10490400032080008380600000082000808f500016
:10491400faff3a0001cba90001aba80000588000bf
:104924000040a1000050a00000588800c0ff2f00e4
:10493400002bb6006004200010588800710020008d
:1049440071588800204420006058880002802100ab
:10495400225888006112b900402ade0034588800c9
:1049640001eba80011cba90011aba900805880006d
:104974000040a1000050a00080588800c0ff2f0014
:10498400102bb6002002200090588800f1588800af
:1049940000442000e0588800a2588800b4588800d9
:1049a40011eba8000004a9003020800000d0a00072
:1049b40000e0a00000f0a1003020880001fe2f00dc
:1049c40033208000038060000020a0003020880095
:1049d4000164a9006000200080208800103d2000b0
:1049e400902088000004a800c0ff2f001824b600ff
:1049f40030ff2f001824b600002180003000b300df
:104a04000020a1000030a1000021880000218000c6
:104a14000003b3000060a1000070a1000021880021
:104a24001404a8001424a800c02080000040a000a2
:104a34000050a100c0208800c02080000060a000b9
:104a44000070a100c0208800c02080000080a00069
:104a54000090a100c0208800c020800000a0a00019
:104a640000b0a100c0208800002180000030b30005
:104a740000a0a00000b0a000002188000021800058
:104a840000c0a00000d0a00000e0a00000f0a00042
:104a94000021880010218000f000b300102188005c
:104aa40010218000000fb300102188001444a800d6
:104ab4001464a8001484a80014a4a800f001200021
:104ac4003024b600c0ff2f003024b6003224ef009b
:104ad40000228000008070000022880000228000f4
:104ae4003000b300002288000080eb001022880010
:104af400a321800083817000a3218800a32180006a
:104b04003300b300a3218800b02188004322800031
:104b14008381700043228800432280003300b30065
:104b24004322880050228800632280008381700021
:104b340063228800632280003300b300632288006c
:104b44007022880083228000838170008322880081
:104b5400832280003300b3008322880090228800df
:104b6400a322800083817000a3228800a1228000f8
:104b74003100b300a1228800b02288003064a9006b
:104b84004064a8004464a8003464a9004864a800f0
:104b94004c64a8005064a8005464a8000004a90050
:104ba40030e4a800802180003000b3008021880018
:104bb40011002000010978000000eb0010c08800fb
:104bc4001240200022c0880031c0880040c0880004
:104bd40050c0880060c0880031e4a80082218000b1
:104be4000230b3008221880081c0880090c0880010
:104bf40022802000a2c0880022202000b2c08800a9
:104c0400c0c08800d0c08800e0c0880032e4a8009a
:104c1400922180003200b3009221880001c18800f3
:104c240010c1880031c0200021c18800313020002b
:104c340031c188003100200041c1880050c1880082
:104c440060c18800f08f2f000024b600000e200001
:104c54000004b600fdff3a00000006000064a9004d
:104c640000000600e14f50000d003200030039003f
:104c7400e24f50001b003a00120037003064a800d5
:104c84003064ab00170032000080eb003064ab00ee
:104c9400140032000000e900fcff3a0000000600a6
:104ca4003164a8003164ab000e0032000080eb00d8
:104cb4003164ab000b0032000000e900fcff3a0055
:104cc400000006003264a8003264ab000500320024
:104cd4000080eb003264ab00020032000000e90007
:104ce400fcff3a0000000600889fbe008a9fbe00b9
:104cf4000004a90031c0b3000004e0000200320047
:104d040041208000f143b2008180fb0012002000aa
:104d14000111dd0000218000820160000040eb00f1
:104d240048003200c409dd00048021000300420071
:104d3400a00290006fc06200ecf0b7008301420053
:104d4400130078000008a30018003200c8ff2100f7
:104d5400080060006104b800c044dd0008002000c1
:104d6400c409dd000480e80000804100faff20004f
:104d7400100565008005eb00465bdd00ca53de00cc
:104d8400870373004653dd000604740087847400af
:104d94004a28de006103b8000602740087827400aa
:104da4007487880085878800050037004300dd008c
:104db4004500de006102b80074878800858788009a
:104dc400c408dd000080210081014000b30190008f
:104dd40004792100034a7800c819de000402e800bf
:104de400034a780081014000c30190000402e800f6
:104df400034a7800c819de000402e800034a780078
:104e040081014000d30190000402e800034a7800c5
:104e1400c819de000402e800034a7800810040005b
:104e2400610090008400e800804878004800de00bb
:104e34008100e800804878000280ea002024b6005f
:104e440010c0b3004f05be004f04be0000000600b2
:104e54000000fa00889fbe008a1f7800e24f5000cd
:104e64001e003e000080fb004400dd00488021005d
:104e740000044400ef80600009ff2f009884640060
:104e8400098c70006180210080804000c819dd0019
:104e94000281fb00828871008180210080804000b3
:104ea400c82add000482fb0084887200a1802100ee
:104eb40080804000c83bdd000683fb0086887300c9
:104ec400c1802100008040000ff197004811dd00ef
:104ed400aff097008180fb00010871004f05780056
:104ee4004f04be000080fa0000000600e24f5000ac
:104ef40006003e000080fb004400dd00018021002c
:104f040000804000410020000108780000000600f5
:104f14000000060000000600000006000000060075
:104f2400000006000202be00f1cf2f000220800024
:104f34008280600001a0a00001208800030e2000f0
:104f4400012080008181610001082000818f5100cf
:104f5400faff3a000004a8000004e0000300320055
:104f6400e14f50001e003a000f0037004228de00d7
:104f7400010020004500dd0081218000ff806000e9
:104f8400810070008121880063806200c1ff2f00ce
:104f9400822180008280600081007000812188006d
:104fa400942188000e0037004228de000100200012
:104fb4004500dd00a1218000ff80600081007000b9
:104fc400a121880063806200c1ff2f00a22180001c
:104fd4008280600081007000a1218800b4218800d3
:104fe4000004a900f08f2f000024b600000e20005a
:104ff4000004b600fdff3a00000006000202be00f5
:10500400f1cf2f00022080008280600001a0a00068
:1050140001208800030e20000120800081816100ae
:1050240001082000818f5100faff3a000004a80013
:10503400e24f50002a00320005003e000004e00068
:1050440009003200e14f500060003a0015003700bb
:10505400e44f50004000320030003900e54f50006a
:105064005a003a004b0037004228de0001002000bd
:105074004500dd0001228000ff8060008100700097
:105084000122880063806200c1ff2f000222800099
:105094008280600081007000012288001422880050
:1050a4004a0037004228de00010020004500dd00f0
:1050b40021228000ff80600081007000212288008e
:1050c40063806200c1ff2f00222280008280600082
:1050d4008100700021228800342288003b003700c0
:1050e4004228de00010020004500dd00412280004e
:1050f400ff806000810070004122880063806200ac
:10510400c1ff2f0042228000828060008100700075
:1051140041228800542288002c0037004228de00f7
:10512400010020004500dd0061228000ff80600056
:10513400810070006122880063806200c1ff2f003b
:1051440062228000828060008100700061228800f9
:10515400742288001d0037004228de000100200070
:105164004500dd0081228000ff8060008100700026
:105174008122880063806200c1ff2f0082228000a8
:10518400828060008100700081228800942288005f
:105194000e0037004228de00010020004500dd003b
:1051a400a1228000ff80600081007000a12288009d
:1051b40063806200c1ff2f00a22280008280600011
:1051c40081007000a1228800b42288000004a90094
:1051d400f08f2f000024b600000e20000004b6005b
:1051e400fdff3a0000000600e24f500018003e00a8
:1051f4000080fb00018021004400dd0000824000ab
:10520400c5ff2100838262000500a000050a780022
:105214000182e80000024200c61bde00ca1add005b
:105224004613de0006837200f5ff2000050a6300c2
:1052340064824000000242004a11dd006400400024
:1052440080804000910078006f806000000a710047
:10525400000006007087800081878000000006003f
:10526400ecd0bf0000000600e78060000079210058
:105274008100400011407800000006000002200078
:10528400c002880000fc2f008a06b600f000b300bc
:1052940050348800f10f2800a03680008080600020
:1052a4000040230001007000a0368800f0cf2f00da
:1052b4000005b60000a0a00000288800010e200010
:1052c400032880008380600000082000808f500045
:1052d400faff3a0021cba90021aba80000598000b5
:1052e4000040a1000050a00000598800c0ff2f001a
:1052f400202bb60070042000105988007100200093
:1053040071598800205420006059880002902100bf
:10531400225988006112b900402ade0034598800fd
:1053240021eba80031cba90031aba9008059800042
:105334000040a1000050a00080598800c0ff2f0049
:10534400302bb6007003200090598800f159880072
:1053540000542000e0598800a2598800b4598800fc
:1053640031eba8000005a9003028800000d0a0007f
:1053740000e0a00000f0a1003028880000fe2f000b
:1053840033288000830060000120a00031288800b9
:105394000165a900d100200081288800113d20006a
:1053a400912888000005a800c1ff2f008351200028
:1053b4009389600031ff2f0083512000938960009e
:1053c400012980003100b3000120a1000130a100b7
:1053d40001298800012980000103b3000160a100b4
:1053e4000170a100012988001405a8001425a80053
:1053f400c12880000140a0000150a100c1288800fc
:10540400c12880000160a0000170a100c1288800ab
:10541400c12880000180a0000190a100c12888005b
:10542400c128800001a0a00001b0a100c12888000b
:10543400012980000130b30001a0a00001b0a00048
:10544400012988000129800001c0a00001d0a0002a
:1054540001e0a00001f0a0000129880011298000ca
:10546400f100b3001129880011298000010fb30055
:10547400112988001445a8001465a8001485a80003
:1054840014a5a800f1012000435320009389600073
:10549400c1ff2f0043532000938960003625ef009d
:1054a400412a800081007000412a8800412a80003e
:1054b4003100b300412a88008080eb00512a880023
:1054c400632a800083017000632a8800632a8000b5
:1054d4003300b300632a8800712a8800832a80007d
:1054e40083017000832a8800832a80003300b3007c
:1054f400832a8800912a8800a32a800083017000ef
:10550400a32a8800a32a80003300b300a32a8800ba
:10551400b12a8800a329800083017000a329880090
:10552400a32980003300b300a3298800b12988008f
:10553400432a800083017000432a8800432a8000a4
:105544003300b300432a8800512a8800632a80006c
:1055540083017000632a8800632a80003300b3004b
:10556400632a8800712a8800832a800083017000de
:10557400832a8800832a80003300b300832a8800aa
:10558400912a8800a32a800083017000a32a88003e
:10559400a02a80003000b300a02a8800b12a880025
:1055a4003065a9004065a8004465a8003465a900d9
:1055b4004865a8004c65a8005065a8005465a8007b
:1055c4000005a90030e5a800802980003000b30060
:1055d4008029880011002000010978000000eb00f8
:1055e40010c888001240200022c8880031c88800f2
:1055f40040c8880050c8880060c8880031e5a80009
:10560400822980000230b3008229880081c8880082
:1056140090c8880022802000a2c888002220200090
:10562400b2c88800c0c88800d0c88800e0c8880014
:1056340032e5a800922980003200b3009229880044
:1056440001c9880010c9880031c0200021c9880020
:105654003130200031c988003100200041c9880060
:1056640050c9880060c98800f08f2f000025b6005b
:10567400000e20000005b600fdff3a000000060001
:105684000065a90000000600e14f50000d00320043
:1056940003003900e24f50001b003a0012003700ab
:1056a4003065a8003065ab00170032000080eb00c5
:1056b4003065ab00140032000000e900fcff3a0042
:1056c400000006003165a8003165ab000e00320011
:1056d4000080eb003165ab000b0032000000e900f4
:1056e400fcff3a00000006003265a8003265ab00fa
