:020000040000FA
:040800006BEF16F094
:08080800BAEF16F07453D8A4F6
:100810000BEF04F012001D0EFF0FD8A40CEF04F034
:100820000000742F0BEF04F012003853D8A41AEF15
:1008300004F01200FF0E00000000000000000000A5
:1008400000000000000000000000000000000000A8
:100850000000000000000000000000000000000098
:100860000000000000000000000000000000000088
:100870000000000000000000000000000000000078
:10088000000000000000000000000000FF0FD8A4DE
:100890001BEF04F00000000000000000000000005A
:1008A000000000000000000000000000382F1AEFD8
:1008B00004F01200FA0E386F15EC04F0FA0E386FDF
:1008C00015EC04F0FA0E386F15EC04F0FA0E386FE0
:1008D00015EC04F0122FEED7120001016A6B0451DF
:1008E0006A6125D00001EB51EF5D02E1EA51EE5D56
:1008F0001EE2ED51EF5D02E1EC51EE5D18E2F151C7
:10090000EA6EF051E96EEF5001016B6F0001F35197
:10091000EA6EF25101016A25E96E6B51EF6E00013A
:10092000F04BF12BEE4BEF2B01016A2BD8D70101D5
:1009300004516A6111D00001EC51EE6304D0ED5115
:10094000EF6301D006D0EA51EE6306D0EB51EF63BE
:1009500003D0050E0101036F01016A510401056F07
:10096000050E076F080E066F04AD02D0049D01D07E
:10097000048D049B04990487049504930491048FC7
:10098000120004010485048F0085008F1200080EF8
:10099000046F0001EE6BEF6B010EEA6FEB6BEC6B1B
:1009A000ED6B01016951066F010E0001F16F060E3A
:1009B000F06F040EF56F040EF46F050EF36F080E62
:1009C000F26F0401049D6DEC04F01200080E0101A9
:1009D000046F040E0001F56F040EF46F050EF36F43
:1009E000080EF26FEE6BEF6BEA6BEB6BEC6BED6B83
:1009F000F06BF16B0401049D6DEC04F012006F6B61
:100A0000706B69050CE0020E696301D012D0030E11
:100A1000696301D018D0060E69633AD039D0000E50
:100A2000736F800E6F6F7351706F120E716F726BF8
:100A30002FD0000E736F250E6F6F7351706F200EE5
:100A4000716F726B25D06A5306E06A050EE0020EE4
:100A50006A631ED012D0040E716F726B000E736F3A
:100A6000E40E6F6F7351706F13D0020E716F726B63
:100A700000516F6F0151706F0BD0020E716F726B6E
:100A80000001FF5101016F6F000100510101706F02
:100A90006C51EA6E6B51E96E6F51EF6E7051EC6EF6
:100AA0006E51EA6E6D51E96E7151EF6E7251EC6EDE
:100AB0001200010E01010D6F1200718871847182A4
:100AC000718604010C8D0C9B0C990C970C950C9362
:100AD0000C910C9F200E096F300E0A6F050E0B6FE4
:100AE000089D089B08990897089508930891088F16
:100AF0001200080E0401016F026B050E036F008DDA
:100B0000009B00990087009500930091008F1200D0
:100B1000060E606301D00FD0050E606301D046D091
:100B2000090E606301D04CD00A0E606301D054D02E
:100B3000605358E012006251676F6151686F6751EE
:100B4000696F68516A6F000E6F6FF00E6B6F6F51B7
:100B50006C6F000E6F6FEA0E6D6F6F516E6FFFEC72
:100B600004F00001F05302E1F1531DE0030E010116
:100B7000036F65510001EC6F010166510001ED6FDB
:100B8000EE6BEF6B080E0101046F040E0001F56FB0
:100B9000040EF46F080EF26F050EF36F0401049D4E
:100BA0006DEC04F01200C1EC04F012006151026F10
:100BB000010E056FE6EC04F0060E0101036F120052
:100BC000060E036FE6EC04F0030E0101016F5DEC0D
:100BD00005F059EC05F01200030E036F010E696F6A
:100BE000C7EC04F00101696BC7EC04F0120060056A
:100BF000D8B41200020E606301D01200030E6063CD
:100C000001D01200090E606301D012000A0E606369
:100C100001D004D00B0E606312001200C1EC04F08E
:100C200012001200120012006105D8A41200676BB6
:100C3000645167616551D8B412000C29666F200EAB
:100C4000666301D0666B0B5166630B6311D0635111
:100C5000EA6E62516725E96EEF50686F000EEA6E2A
:100C6000050EE96E0C51E9266851EF6E66510C6F66
:100C7000672BDED75F51646F6051656F6151666F9E
:100C80006251676F000E636512D06751EA6E66515C
:100C9000E96E664B672BEF50686F6551EA6E6451E1
:100CA000E96E644B652B6851EF6E6307EBD75F51BC
:100CB000686F6051696F120012000101026B036BD3
:100CC000056B6896689668966896080E0401016F31
:100CD000026B050E036F009D009B00990097009525
:100CE00000930091008F080E056F066F050E076FC9
:100CF000049D049B0499049504930491049F12009D
:100D00006C5001015F6F5F335F335F311F0B5D6FAD
:100D10006CA40CD00401045101015F6FD8905F33C3
:100D2000D8905F330F0E5F155E6F0BD0040100513A
:100D300001015F6FD8905F33D8905F330F0E5F155E
:100D40005E6F5D53D8A4B8D00D0E5E6360D0000E08
:100D5000646FB50E5F6F6451606F050E646F000EB7
:100D6000616F6451626F080E636F3AEC06F079ECC4
:100D700005F00001B5BD24D0B5BB22D0BC510101A6
:100D8000666F0001BB510101656F0001BA5101019D
:100D9000646F0001B9510101636F0001B851010195
:100DA000626F0001B7510101616F0001B65101018D
:100DB000606F0001B55101015F6F88EC05F025D02F
:100DC000B5BD23D0B5AB21D0BC510101666F000188
:100DD000BB510101656F0001BA510101646F00014F
:100DE000B9510101636F0001B8510101626F000147
:100DF000B7510101616F0001B6510101606F00013F
:100E0000B55101015F6FF7EC05F06D981200090E06
:100E10005E631ED0030E036303D06DEC04F012007A
:100E2000060E03630AD0036B0505D8A41200020E58
:100E3000016F02516E6E056B1200050E036302D046
:100E400000001200040E0363120012EC06F0120000
:100E5000020E5E6311D0030E036303D06DEC04F049
:100E60001200040E036303D012EC06F01200060E0B
:100E700003631200036B12005E05D8A41200050E76
:100E8000036302D0036B15D0020E03630ED0050E70
:100E9000636F000E5F6F6351606F040101510101C8
:100EA000616F626B11EC06F004D0030E036301D096
:100EB000036B79EC05F012006CA41BD00001000E4E
:100EC000EA6ECC0EE96E01015D51616FD89061351B
:100ED000E926EF505F6FEC50606F5D51616F6051BC
:100EE000EA6E5F51E96EEC50626F636B13EC06F0D3
:100EF00012000001000EEA6ED00EE96E01015D5194
:100F0000616FD8906135E926EF505F6FEC50606FEC
:100F10005D51616F0001000EEA6ED80EE96E0101AD
:100F20005D51666FD8906635E926EF50626FEC50E0
:100F3000636F6051EA6E5F51E96EEC50646F656BF0
:100F400014EC06F00001000EEA6EE00EE96E0101FD
:100F50005D51616FD8906135E926EF50626FEC50BA
:100F6000636F6051EA6E5F51E96EE92A6251EF6E7C
:100F70006051EA6E5F51E96EEF9C6051EA6E5F511D
:100F8000E96EEF9A6051EA6E5F51E96EEF98605139
:100F9000EA6E5F51E96EEF966051EA6E5F51E96E5D
:100FA000EF946051EA6E5F51E96EEF926051EA6E24
:100FB0005F51E96EEF906051EA6E5F51E96EEF8E1E
:100FC0001200080E01015D6F380E5E6F070E5F6F35
:100FD0009550606F5F519510676F66695E1D67156C
:100FE000956E616B030E61611BD05E518C10676F53
:100FF00066695D1D6715836E020E746F06EC04F062
:101000008350636F626B030E626106D063A10CD0E4
:10101000D8906333622BF7D7D8905D37612BE2D736
:101020006051956E666912006051956E030E610302
:10103000F350646FF450656F62516425666F12005F
:10104000A1AA1200A19A68B8689868A603D080EC9B
:1010500006F0689668A003D05DEC06F0689068AA78
:1010600003D05CEC06F0689A68BC689C1200000132
:10107000FD53D8A41200E1EC07F066510001F96FAE
:10108000FC51F963FC6304D0010EFA6FF951FC6F57
:10109000FF0EF9611200FA05D8A41200FA6B070ED0
:1010A000F8611200000EEA6EAD0EE96EF851E92605
:1010B000F951EF6EF829F86F12000001000EEA6E88
:1010C000D40EE96E01013E51486FD8904835E926AB
:1010D000EF50466FEC50476F0001000EEA6ECC0EE9
:1010E000E96E01013E51486FD8904835E926EF502E
:1010F000446FEC50456F4551EA6E4451E96EEFBEC6
:101100001200436B4151436110D04051EA6E3F5190
:101110004325E96EEF50486F4751EA6E465143252B
:10112000E96E4851EF6E432BEDD74551EA6E4451BD
:10113000E96EE92A4351EF6E4551EA6E4451E96E7A
:10114000020EE9264651EF6E4751EC6E42A105D0E2
:101150004551EA6E4451E96EEF9C4551EA6E4451A7
:10116000E96EEFAC06D04551EA6E4451E96EEF9C52
:1011700005D04551EA6E4451E96EEF8C4551EA6E57
:101180004451E96EEF9A4551EA6E4451E96EEF9889
:101190004551EA6E4451E96EEF864551EA6E44517D
:1011A000E96EEF944551EA6E4451E96EEF92455174
:1011B000EA6E4451E96EEF904551EA6E4451E96E92
:1011C000EF8E1200500E01014B6F050E4C6F070E93
:1011D0004C5D02E1FF0E4B5DD8B012004C51EA6E3F
:1011E0004B51E96EEF504D6F4DBF3CD07F0E4D150A
:1011F000526F546B52514B25536F4C515423516BCA
:10120000010E5325506F545151235051556F515178
:10121000000B566F010E565D02E1000E555D22E295
:101220005151EA6E5051E96EEF50576F57BF1AD0C7
:10123000596B57514D25586FD8B0592B7E0E5861B8
:10124000596759670FD05B6B57514D255A6FD8B00E
:101250005B2B5A295C6F4C51EA6E4B51E96E5C5125
:10126000EF6EB5D77F0E4D15506F516B502BD8B424
:10127000512B50514B2751514C234B514E6F4C51D8
:10128000000B4F6F010E4F5D04E1000E4E6101D067
:101290009ED79DE34B6B4C2B9AD783503E6F3E9B62
:1012A0003E993E973E913E933E9D3B390F0B3F6FDB
:1012B0000F0E3F153D6F3DB13E8B3DB33E893DB5B1
:1012C0003E873DB73E813C53D8A43E833E51836E5A
:1012D0000A0E746F06EC04F0838C0A0E746F06EC31
:1012E00004F0839C0F0E3B153D6F0A0E746F06ECE5
:1012F00004F083503E6F3E9B3E993E973E913E9355
:101300003E9D3DB13E8B3DB33E893DB53E873DB7E9
:101310003E813C53D8A43E833E51836E0A0E746FC7
:1013200006EC04F0838C0A0E746F06EC04F0839CC8
:101330000A0E746F06EC04F012004553D8B4460749
:1013400045074651EA6E4551E96EEF9E120045AFE2
:1013500003D0496B4A6B1200486B020E486164D09F
:10136000500E466F050E476F070E475D02E1FF0EF8
:10137000465D54E24751EA6E4651E96EEF504B6FBD
:101380004BBF32D04B51456501D02ED0800E451158
:101390004E6F4751EA6E4651E96E4E51EF6E4B511A
:1013A000456117D045514B5D526F5205536F4F6BDE
:1013B000455146254E6F47514F23516B010E4E2527
:1013C000506F4F5151235151EA6E5051E96E5351B4
:1013D000EF6E4F6B010E46254E6F47514F234E5116
:1013E000496F4F514A6F12007F0E4B154E6F4F6B76
:1013F0004E2BD8B44F2B4E5146274F5147237F0ECB
:1014000046154C6F4D6B010E4D5D04E1000E4C61B5
:1014100001D0AAD7A9E3466B472BA6D7486702D0CD
:10142000E2EC08F0482B99D7496B4A6B1200416BEC
:10143000426B446B456B436B43B91200D890443701
:1014400045373B373C37413742373D51415D3E518F
:101450004263425D05E33D51415F3E51425B448141
:10146000432BEAD7010E3E6F3B513F6F3C51406F1B
:101470003D51416F42915DEC08F01200446B4351C5
:10148000C96E1051C714FDE0C950446F4451456FF7
:101490001200800E04010C1501013B6F1200365141
:1014A0003B6F100E3C6F4DEC09F012003653D8B470
:1014B0001200050E3661120036050CE0020E36638E
:1014C00001D00BD0030E366301D00AD0040E366370
:1014D000120009D094948294120094908290120089
:1014E000949282921200949C829C12003653D8B43B
:1014F0001200050E3661120036050CE0020E36634E
:1015000001D00BD0030E366301D00AD0040E36632F
:10151000120009D094948284120094908280120068
:10152000949282821200949C828C120036531AE0AC
:10153000050E366117D0386B030E3625376FD8B0DD
:10154000382B385302E0396B0BD0010E3A6F37510C
:10155000FF0B04E0D8903A37FF0FFAD73A51396FB2
:10156000391D9316386B030E3625376FD8B0382BDC
:10157000385302E0396B0BD0010E3A6F3751FF0B35
:1015800004E0D8903A37FF0FFAD73A51396F391D36
:101590008116120036531AE0050E366117D0386BEB
:1015A000030E3625376FD8B0382B385302E0396B2D
:1015B0000BD0010E3A6F3751FF0B04E0D8903A3749
:1015C000FF0FFAD73A51396F391D9316386B030E56
:1015D0003625376FD8B0382B385302E0396B0BD033
:1015E000010E3A6F3751FF0B04E0D8903A37FF0FE6
:1015F000FAD73A51396F395181121200376936538F
:10160000D8B47ED0090E36617BD036051CE0020EC0
:10161000366301D023D0030E366301D02BD0040EE5
:10162000366301D033D0050E366301D03BD0060EB1
:10163000366301D042D0070E366301D04AD0080E7F
:1016400036635ED052D09280010E8014386F396BB1
:101650003805D8B4392B3951376F52D09282020EE7
:101660008014386F396B020E386301D0392B395131
:10167000376F46D09284040E8014386F396B040E95
:10168000386301D0392B3951376F3AD09286080E22
:101690008014386F396B080E386301D0392B3951FB
:1016A000376F2ED09680010E8414386F396B380551
:1016B000D8B4392B3951376F23D09682020E841457
:1016C000386F396B020E386301D0392B3951376FBF
:1016D00017D09684040E8414386F396B040E386367
:1016E00001D0392B3951376F0BD09384040E8114FC
:1016F000386F396B040E386301D0392B3951376F8D
:101700003751386F12003C6B020E3B6502D03D6BC7
:101710001200839C3B513E6F3F6BD8903E373F3762
:10172000D8903E373F373E51900FC96E1051C714C5
:10173000FDE05A0EC96E1051C714FDE00001000E05
:10174000EA6EF60EE96E01013C51E9263C2BC950C8
:10175000EF6E5A0EC96E1051C714FDE00001000E65
:10176000EA6EF60EE96E01013C51E9263C2BC950A8
:10177000EF6E5A0EC96E1051C714FDE05A0EC96EB5
:101780001051C714FDE05A0EC96E1051C714FDE088
:10179000C950116F000E11655CD05A0EC96E105100
:1017A000C714FDE0C9500001BD6F010E01011165B4
:1017B00050D05A0EC96E1051C714FDE0C950000137
:1017C000BE6F020E0101116544D05A0EC96E105150
:1017D000C714FDE0C9500001BF6F030E0101116580
:1017E00038D05A0EC96E1051C714FDE0C95000011F
:1017F000C06F040E010111652CD05A0EC96E105134
:10180000C714FDE0C9500001C16F050E010111654B
:1018100020D05A0EC96E1051C714FDE0C950000106
:10182000C26F060E0101116514D05A0EC96E105117
:10183000C714FDE0C9500001C36F070E0101116517
:1018400008D05A0EC96E1051C714FDE0C9500001EE
:10185000C46F838C010111513D6F120001013B6B7C
:10186000839CB00EC96E1051C714FDE05A0EC96EAC
:101870001051C714FDE0C9503B6F838C3B513C6F46
:1018800012000101016B6F966F846F886F926F90E9
:10189000040E0001CD6F040ECC6F040ECF6F0C0E42
:1018A000CE6F040ED16F000ED06F040ED36F080EF2
:1018B000D26F7088708470827096698A6986698038
:1018C000A08A1200010E0001E86FE96BFE51E86189
:1018D000E951E96701D002D0E9AF1200D8B4120093
:1018E000000EEA6E450EE96EE851E926000EEF643F
:1018F0001200000EEA6E450EE96EE851E926EF503F
:101900000101366F4FEC0AF00001E82BD8B4E92B47
:10191000DDD747A00DD046A006D0010E0101366FDD
:10192000CAEC0AF005D0010E0101366F96EC0AF000
:1019300047A20DD046A206D0020E0101366FCAECB6
:101940000AF005D0020E0101366F96EC0AF047A4AA
:101950000DD046A406D0030E0101366FCAEC0AF082
:1019600005D0030E0101366F96EC0AF047A60DD0A4
:1019700046A606D0040E0101366FCAEC0AF005D067
:10198000040E0101366F96EC0AF047A80DD046A868
:1019900006D0010E0101366F76EC0AF005D0010E7B
:1019A0000101366F56EC0AF047AA0DD046AA06D0C0
:1019B000020E0101366F76EC0AF005D0020E01012D
:1019C000366F56EC0AF047AC0DD046AC06D0030E8D
:1019D0000101366F76EC0AF005D0030E0101366F77
:1019E00056EC0AF047AE120046AE06D0040E0101D6
:1019F000366F76EC0AF01200040E0101366F56ECD9
:101A00000AF01200010E0101366FFEEC0AF03851A7
:101A10000001926F020E0101366FFEEC0AF03851A0
:101A20000001936F030E0101366FFEEC0AF038518E
:101A30000001946F040E0101366FFEEC0AF038517C
:101A40000001956F050E0101366FFEEC0AF038516A
:101A50000001966F060E0101366FFEEC0AF0385158
:101A60000001976F070E0101366FFEEC0AF0385146
:101A70000001986F080E0101366FFEEC0AF0385134
:101A80000001996F080EFB6F1200426B4051456FC9
:101A9000A7EC09F04951436F4A51446F435306E1A3
:101AA000445304E13E51436F3F51446F416B3A51FF
:101AB00041611BD04051426116D03751EA6E365118
:101AC0004125E96EEF50456F4451EA6E435142257E
:101AD000E96E4551EF6E3751EA6E36514125E96E98
:101AE000EF5203E0422B412BE2D7416B3D51416164
:101AF0001BD04051426116D03C51EA6E3B5141250A
:101B0000E96EEF50456F4451EA6E43514225E96E4C
:101B10004551EF6E3C51EA6E3B514125E96EEF5263
:101B200003E0422B412BE2D74051426107D04451A0
:101B3000EA6E43514225E96E000EEF6E43513E635B
:101B400004D044513F63446314D0416B4051416120
:101B500010D04451EA6E43514125E96EEF50456F74
:101B60003F51EA6E3E514125E96E4551EF6E412BE2
:101B7000EDD73E51436304D03F5144633F6306D0E9
:101B80004351456F4451466F9DEC09F04251456FFA
:101B900012001F0E396502D01F0E396F3A6B395192
:101BA0003A6113D03751EA6E36513A25E96EEF505B
:101BB0003B6F0001000EEA6E600EE96E01013A51C2
:101BC000E9263B51EF6E3A2BEAD749EC0AF03B533A
:101BD000FCE1000E3E6F600E3B6F3E513C6F395191
:101BE0003D6F32EC0AF01200360502E13751BE6E4D
:101BF000020E366312003751BB6E1200CB68040E22
:101C0000CA6E360503E10C0EBD6E9494020E366367
:101C100012000C0EBA6E949212003651CB6E37053C
:101C200008E0040E376301D007D0100E37631200AE
:101C300006D0040ECA6E1200050ECA6E1200060E01
:101C4000CA6E120037AF0ED02D0E3B6F100E3C6FD8
:101C50004DEC09F0365100083B6F371FD8B0372BD9
:101C60003B51366F3651386F3751396F375127082E
:101C700002E13651100801E331E137BF2FD03F6B4D
:101C800038513B6F39513C6F39AF06D03B1F3C1F79
:101C90003B2BD8B43C2B3F2B100E3D6F270E3E6FD5
:101CA00017EC0AF044513A6F3FA102D03A1F3A2B89
:101CB0003A51300F3B6F100E3C6F4DEC09F0000EA7
:101CC0003A650CD0100E385D3B6F270E39593C6FCA
:101CD0003B51386F3C51396F3A07F1D73751030800
:101CE00002E13651E80801E332E137BF30D0406B02
:101CF00038513B6F39513C6F39AF06D03B1F3C1F09
:101D00003B2BD8B43C2B402BE80E3D6F030E3E6FAF
:101D100017EC0AF044513F6F40A102D03F1F3F2B08
:101D20003F513A6F300F3B6F100E3C6F4DEC09F096
:101D3000000E3A650CD0E80E385D3B6F030E395942
:101D40003C6F3B51386F3C51396F3A07F1D73751EF
:101D5000640ED8B4366101D032D037BF30D0406B7A
:101D600038513B6F39513C6F39AF06D03B1F3C1F98
:101D70003B2BD8B43C2B402B640E3D6F3E6B17ECD5
:101D80000AF044513F6F40A102D03F1F3F2B3F510B
:101D90003A6F300F3B6F100E3C6F4DEC09F0000EA8
:101DA0003A650DD0640E385D3B6F38596408395D73
:101DB0003C6F3B51386F3C51396F3A07F0D7375180
:101DC0000A0ED8B4366101D032D037BF30D0406B64
:101DD00038513B6F39513C6F39AF06D03B1F3C1F28
:101DE0003B2BD8B43C2B402B0A0E3D6F3E6B17ECBF
:101DF0000AF044513F6F40A102D03F1F3F2B3F519B
:101E00003A6F300F3B6F100E3C6F4DEC09F0000E37
:101E10003A650DD00A0E385D3B6F38590A08395DB6
:101E20003C6F3B51386F3C51396F3A07F0D738510E
:101E3000300F3B6F100E3C6F4DEC09F01200375322
:101E400003E1800E376F0DD0370503E1C00E376F09
:101E500008D0020E376303D0900E376F02D0D00E39
:101E6000376F365137253B6F3C6B4DEC09F0020E56
:101E7000386F15EC04F01200010E01013B6F3C6B52
:101E80004DEC09F0020E386F15EC04F0020E3B6FBA
:101E90003C6B4DEC09F0020E386F15EC04F01200AB
:101EA0003653D8B46FD0090E36616CD03651396FC5
:101EB000050E366101D001D0392B030EC06E3951A9
:101EC0000F08C16E36051CE0020E366301D01CD02F
:101ED000030E366301D01CD0040E366301D01CD033
:101EE000050E366301D01CD0060E366301D01CD01F
:101EF000070E366301D01CD0080E366320D01CD0EC
:101F00009250376F92801BD09250376F928217D0C9
:101F10009250376F928413D09250376F92860FD0C1
:101F20009650376F96800BD09650376F968207D0B9
:101F30009650376F968403D09350376F938439054A
:101F40003A6F3A373A35FC0B0109C26E386B280EEE
:101F5000386102D0382BFBD7020EC210C26EC2B25B
:101F6000FED7080E366303D03751936E08D0050EA6
:101F7000366103D03751926E02D03751966E0F0EF4
:101F8000C16EC26AC4503A6F1200386B3651A96EE6
:101F9000A69EA69CA680A850386F3851396F1200B3
:101FA000A6B2FED73651A96E3851A86EA69EA69C41
:101FB000A684800EF214396FF29E550EA76EAA0EFB
:101FC000A76EA682A6B2FED7395301E0F28EA69480
:101FD0001200030E366501D01200800E376F3653A3
:101FE00006E0360507E0020E366309D006D0810E02
:101FF000376F05D0820E376F02D0840E376F839C07
:102000003751C96E1051C714FDE0838C1200030EC6
:10201000366501D0120036513A6F3B6BD8903A3793
:102020003B37D8903A373B37D8903A373B37D89040
:102030003A373B37310E3A25396F839C020E436F96
:102040003EEC0AF03951436F3EEC0AF03751436FD2
:102050003EEC0AF03851436F3EEC0AF0838C1200DC
:10206000030E366501D01200080E376501D012004C
:102070003651416F426BD89041374237D890413743
:102080004237D89041374237D89041374237350EE2
:102090004125406F839C020E436F3EEC0AF0405195
:1020A000436F3EEC0AF03751436F3EEC0AF0000EEE
:1020B000376535D03851436F3EEC0AF0010E376575
:1020C0002ED03951436F3EEC0AF0020E376527D00F
:1020D0003A51436F3EEC0AF0030E376520D03B5176
:1020E000436F3EEC0AF0040E376519D03C51436F44
:1020F0003EEC0AF0050E376512D03D51436F3EECC1
:102100000AF0060E37650BD03E51436F3EEC0AF0E5
:10211000070E376504D03F51436F3EEC0AF0838CC5
:102120001200030E366502D0386B1200070E3765B9
:1021300002D0386B12000001000EEA6EBD0EE96E8F
:1021400001013751E926EF50386F1200030E366552
:1021500002D0376B12001151376F1200030E366533
:1021600002D0376B12000001F6510101376F1200E7
:10217000030E366502D0376B12000001F7510101E2
:10218000376F1200396B030E366502D03A6B1200BE
:10219000360503E1800E386F02D0400E386F2EEC0A
:1021A0000CF03C51376F3851371506E0010E396F8E
:1021B00036513B6F83EC0BF039513A6F1200686A6D
:1021C0006D86010E0101016F1200120E0001806F79
:1021D000010E816F826B020E836F846B856B866B41
:1021E000080E876FBF0E886F120E896F100E8A6FF0
:1021F000020E8B6F8C6B010E8D6F8E6F020E8F6FC8
:10220000906B010E916F090E9B6F020E9C6F200E5A
:102210009D6F9E6B010E9F6FA06FA16B800EA26FD2
:10222000FA0EA36F090EA46F040EA56FA66BA76B21
:10223000020EA86FA96BAA6BAB6BAC6B070E596E45
:10224000050E5A6E010E5B6E020E5C6E200E5D6E08
:102250005E6A5F6A070EC56F050EC66F810EC76F97
:10226000020EC86F200EC96FCA6BCB6BA3512D6EC7
:10227000A2512C6EA1512B6EA0512A6E9F51296E36
:102280009E51286E9D51276E9C51266E9B51256E46
:10229000AC51366EAB51356EAA51346EA951336EC6
:1022A000A851326EA751316EA651306EA5512F6ED6
:1022B000A4512E6E5F503D6E5E503C6E5D503B6E85
:1022C0005C503A6E5B50396E5A50386E5950376ECA
:1022D000CB51446ECA51436EC951426EC851416ED2
:1022E000C751406EC6513F6EC5513E6E1200F29E00
:1022F000F2BEFDD741EC0CF0F28CF28E1200010E12
:102300000001FB6F926B936B780E0101386F396B94
:10231000010E416F380E366F4151376F010E3A6F23
:1023200034513B6F35513C6F140E3D6F34513E6F4D
:1023300035513F6F140E406F45EC0DF03451366F40
:102340003551376F140E3A6F386B010E396F380EF6
:102350003B6F39513C6F3D6B000E396F450E3E6F40
:1023600039513F6F140E406F45EC0DF0330508E115
:102370004650366FFEEC0AF038510001926F54D28D
:10238000020E336303D002EC0DF04ED2030E336322
:1023900008D04650366F50EC0FF03A510001926F62
:1023A00043D2040E33631BD00001AD51926FFF0E78
:1023B000AD613AD2AE51AD6FAF51AE6FB051AF6FAC
:1023C000B151B06FB251B16FB351B26FB451B36F7D
:1023D000B469000EF86528D2F805F86F25D2050E0D
:1023E00033630AD00001AD69AE69AF69B069B16904
:1023F000B269B369B469F86B060E010133630CD09E
:10240000475205E04650366FCAEC0AF00DD24650EE
:10241000366F96EC0AF008D2070E33630CD04752A1
:1024200005E04650366F76EC0AF0FED14650366F26
:1024300056EC0AF0F9D1080E336303D089EC0CF0A6
:10244000F3D1090E336308D0010E0001FD6F3CEC9F
:102450000FF00001FD6BE8D10A0E33630DD0010EC1
:102460000001FD6F46500101366F4750376F1FEC7A
:102470000FF00001FD6BD8D10B0E336327D046500F
:102480000001E86FE96B0101366B4750376F365139
:102490000001E8110101386F37510001E911010114
:1024A000396F38510001E86F010139510001E96FBE
:1024B000010EFD6FE8510101366F0001E951010184
:1024C000376F22EC0EF00001FD6BAED10C0E3363C2
:1024D00007D0010E0001FD6F62EC0CF0FD6BA4D182
:1024E0000D0E33630CD0475205E04650366FFEECBC
:1024F0000DF09AD14650366FFEEC0DF095D10E0ED0
:10250000336307D04650366F4750376FF4EC0DF009
:102510008BD10F0E336317D0465205E13669010E99
:10252000376F0DEC0EF0460405E13669040E376F87
:102530000DEC0EF0020E466277D13669100E376F41
:102540000DEC0EF071D1100E33631CD0080E9310F9
:10255000936E080E8114366F376B386B080E366336
:1025600001D0372B37510001E86F010138510001CC
:10257000E96FE85302E1E95302E0926B55D1010E95
:10258000926F52D1110E336308D04650366F376BBD
:102590004750386FD0EC0FF047D1120E336309D09B
:1025A0004650366F376BC5EC0FF039510001926F12
:1025B0003BD1130E336316D0366B4650376F4750FE
:1025C000386F4850396F49503A6F4A503B6F4B5003
:1025D0003C6F4C503D6F4D503E6F4E503F6F30EC56
:1025E00010F022D1140E33633CD046500001E86F46
:1025F000E96B0101366B4750376F36510001E81126
:102600000101386F37510001E9110101396F38516B
:102610000001E86F010139510001E96FD890E837F6
:10262000E937D890E837E937D890E837E937D890D4
:10263000E837E937D890E837E937E851936FE9513F
:10264000946F0101366B000194510101376F000155
:1026500093510101386F07EC10F0366BE9EC0FF085
:10266000E3D0150E336339D0366BC2EC10F03A511B
:102670000001E86FE96BE85302E1E9532BE0010147
:10268000366BB8EC10F037510001926F0101366BD8
:10269000AEEC10F037510001936F92510101366F8B
:1026A000376B36333633363336333631070B00016A
:1026B000E86F010137510001E96F93510101366F55
:1026C000363736373635F80B0001E811E86F926F70
:1026D000E951936F020EFB6FA7D0160E336350D0F3
:1026E000366BA6EC10F037510001926F0101366B8A
:1026F000376B91EC10F038510001936F0101366B8C
:10270000010E376F91EC10F038510001946F010108
:10271000366B020E376F91EC10F038510001956F57
:102720000101366B030E376F91EC10F03851000148
:10273000966F0101366B040E376F91EC10F0385133
:102740000001976F0101366B050E376F91EC10F0A9
:1027500038510001986F0101366B060E376F91EC0E
:1027600010F038510001996F0101366B070E376F79
:1027700091EC10F0385100019A6F090EFB6F54D0A4
:10278000170E336328D046500001E86FE96B010152
:10279000386B4750396F38510001E81101013A6F29
:1027A00039510001E91101013B6F3A510001E86F15
:1027B00001013B510001E96FE8510101366F000151
:1027C000E9510101376F3751EA6E3651E96EEF502A
:1027D0000001926F29D0180E336326D046500001B5
:1027E000E86FE96B0101386B4750396F38510001D0
:1027F000E81101013A6F39510001E91101013B6F04
:102800003A510001E86F01013B510001E96FE851C5
:102810000101366F0001E9510101376F3751EA6E4E
:102820003651E96E4850EF6E000E01013A6F920E7C
:10283000366F3A51376F090E386F0001FB510101B5
:10284000396FC9EC0DF01200256B2451256112007F
:102850001351EA6E12512525E96EEF52D8B41200D9
:102860001351EA6E12512525E96EEF503B6F100EA1
:102870003C6F4DEC09F0252BE8D7959A95989596E5
:1028800095909592959C0C0E0101386F15EC04F013
:10289000330E3B6F3C6B4DEC09F0020E386F15ECBC
:1028A00004F0330E3B6F3C6B4DEC09F0020E386FB9
:1028B00015EC04F0320E3B6F3C6B4DEC09F0020E50
:1028C000386F15EC04F02C0E3B6F3C6B4DEC09F0AF
:1028D000020E386F15EC04F0060E3B6F3C6B4DECAE
:1028E00009F0020E386F15EC04F00C0E3B6F3C6BD8
:1028F0004DEC09F0020E386F15EC04F0010E3B6F41
:102900003C6B4DEC09F0020E386F15EC04F0020E32
:102910003B6F3C6B4DEC09F0020E386F15EC04F088
:10292000120001010C510B630C6307D00B510C5DBD
:10293000336F0C6B3351346F1200346B12003CEC6C
:102940000FF0200E146F186F420E176F430E196FA1
:10295000530E166F550E156F630E1E6F640E216FAA
:10296000650E1D6F206F6E0E1B6F1C6F6F0E1A6F42
:10297000740E1F6F226B010E236F140E126F235102
:10298000136F0E0E246F24EC14F0020E126F5AEC2B
:1029900004F03CEC0FF012003DEC14F0200E146F2C
:1029A000156F4C0E166F630E186F1F6F690E1E6F3A
:1029B0006B0E196F6E0E1D6F6F0E176F1C6F720E00
:1029C0001B6F730E206F740E1A6F216B010E236F35
:1029D000140E126F2351136F0D0E246F24EC14F09C
:1029E000050E366F010E376F1FEC0FF04C0E146F93
:1029F0004B0E156F380E166F370E176F330E186F9C
:102A0000390E196F1A6B010E1B6F140E126F1B51CA
:102A1000136F060E246F24EC14F0020E366F376F1E
:102A20001FEC0FF0200E1B6F530E146F610E1C6F06
:102A3000640E1E6F650E156F6E0E166F1D6F6F0E96
:102A4000186F720E196F730E176F1A6F1F6B010ECE
:102A5000206F140E126F2051136F0B0E246F24EC95
:102A600014F0040E366F030E376F1FEC0FF0630E79
:102A7000146F6C0E1A6F6E0E166F6F0E156F196F46
:102A8000720E186F740E176F1B6B010E1C6F140EF5
:102A9000126F1C51136F070E246F24EC14F0020EFA
:102AA000126F5AEC04F03CEC0FF0200E146F1B6F09
:102AB000430E1C6F500E156F610E186F630E216F61
:102AC000650E176F1A6F206F6C0E166F6E0E1E6FED
:102AD0001F6F6F0E1D6F730E196F740E226F236BB5
:102AE000010E256F140E126F2551136F0F0E246FF8
:102AF00024EC14F0366B010E376F1FEC0FF0200E34
:102B0000146F186F1D6F410E1B6F430E1C6F490E23
:102B10001A6F4D0E196F650E176F680E166F690EDE
:102B2000206F6E0E1F6F740E156F216F750E1E6F66
:102B3000226B010E236F140E126F2351136F0E0EB2
:102B4000246F24EC14F0366B020E376F1FEC0FF07D
:102B5000200E146F176F1B6F420E1E6F530E1D6FEA
:102B6000550E1C6F650E1A6F680E196F6F0E166F7B
:102B7000740E156F186F1F6B010E206F140E126FFD
:102B80002051136F0B0E246F24EC14F0120001017E
:102B9000146B010E0E6F0E53D8B4120091EC14F0AA
:102BA0003451136F1353F7E0126B1305126112D0F7
:102BB000000EEA6E050EE96E1229E926EF50336F1A
:102BC000010EEA6E140EE96E1251E9263351EF6ED2
:102BD000122BEBD70550336F010E366F140E346F86
:102BE0003651356F7FEC11F0D6D7E5EC10F077EC6D
:102BF00011F0640E0101386F15EC04F0DFEC10F0F9
:102C0000126B136B0D53FEE0146B12000F0EC16EAE
:102C1000080E6F6ECCEC14F0F5EC15F014510001B9
:102C2000E86FE96B9FEC14F00001FD6BF86BAD6988
:102C3000AE69AF69B069B169B269B369B469D59A6F
:102C4000D588F00ED5140101126F070E1211D56E42
:102C5000F28EF28A140E386F15EC04F0C7EC15F002
:102C6000FFD7500E0101126F050E136F070E135D93
:102C700002E1FF0E125DD8B012001251FF08146F6E
:102C80007F0E146502D07F0E146F1351EA6E12513D
:102C9000E96E1451EF6E1251156F1351000B0008BD
:102CA00002E11551800814E37F0E1415166F176B9F
:102CB000162BD8B4172B1651122717511323125164
:102CC000FF08146F1351EA6E1251E96E1451EF6E42
:102CD000126B132BCBD7000E0001FF6F010E010109
:102CE000006F016B050E076F080E0001D46F010124
:102CF00007510001D56F050E0101086F100E00018C
:102D0000D66F010108510001D76F050E0101096F4F
:102D1000000E0001D86F010109510001D96F050EA5
:102D200001010A6F300E0001DA6F01010A51000142
:102D3000DB6F080EDC6FDD6B200EDE6FDF6B080EC5
:102D4000E06FE16B200EE26FE36B01010B6B0C6B2C
:102D5000040E0001E46F030EE56F090EE66F040E2A
:102D6000E76F01010D6B010E0E6F0F6B31EC16F06A
:102D700006EF16F0EACF01F0E9CF02F0F4CF03F04E
:102D8000F3CF04F020EC08F0F2A403D037EC08F005
:102D9000F29404C0F3FF03C0F4FF02C0E9FF01C0D6
:042DA000EAFF110035
:020000040030CA
:0E000000200E3E1E008181000F800FA00F0019
:00000001FF