:100000000C9434000C9451000C9451000C94510049
:100010000C9451000C9451000C9451000C9451001C
:100020000C9451000C9451000C9451000C9451000C
:100030000C9451000C9451000C9451000C945100FC
:100040000C9451000C9451000C9451000C945100EC
:100050000C9451000C9451000C9451000C945100DC
:100060000C9451000C94510011241FBECFEFD8E026
:10007000DEBFCDBF11E0A0E0B1E0EAE5FFE002C0E5
:1000800005900D92A030B107D9F714E0A0E0B1E0DF
:1000900001C01D92A931B107E1F70E94A7070C9496
:1000A000AB070C940000239A2B9A2498259A2D9A3A
:1000B00088E58CBD81E00895229A2A982DB59EBDD1
:1000C0000DB407FEFDCF9EB59DB58EBD0DB407FEE8
:1000D000FDCF8EB580910B019DB58EBD0DB407FE91
:1000E000FDCF8EB58DB58AEA8EBD0DB407FEFDCF6E
:1000F0004EB58DB58AEA8EBD0DB407FEFDCF2EB587
:1001000030E0229A2A9A942F80E0282B392BC901BB
:100110000895229A2A984DB59EBD0DB407FEFDCFD5
:100120009EB59DB58EBD0DB407FEFDCF8EB58091F9
:100130000B0184609DB58EBD0DB407FEFDCF8EB55D
:1001400040E050E00CC0FB01E40FF51F80819DB53D
:100150008EBD0DB407FEFDCF8EB54F5F5F4F4217CA
:10016000530788F3229A2A9A0895229A2A984DB51D
:100170009EBD0DB407FEFDCF9EB59DB58EBD0DB4E1
:1001800007FEFDCF8EB580910B019DB58EBD0DB4E0
:1001900007FEFDCF8EB540E050E09AEA0CC08DB569
:1001A0009EBD0DB407FEFDCF8EB5FB01E40FF51F1C
:1001B00080834F5F5F4F4217530788F3229A2A9A32
:1001C00008951F93182F8295880F807E885F8093F3
:1001D0000B0184E290E00E945C00A12FB0E0AA0F26
:1001E000BB1FFD01EB5AFE4F91838083A35FBB4F82
:1001F00011961C921E921F9108950F931F93CF93F7
:10020000DF93982F89018295880F807E885E809386
:100210000B01C92FD0E0CC0FDD1FCC5EDE4F8881F3
:10022000998148EE53E00E94B50088819981800F42
:10023000911F99838883DF91CF911F910F9108952A
:10024000229A2A982DB59EBD0DB407FEFDCF9EB50E
:100250009DB58EBD0DB407FEFDCF8EB580910B010F
:100260008C5F9DB58EBD0DB407FEFDCF8EB58DB5EF
:100270006EBD0DB407FEFDCF8EB5229A2A9A089561
:10028000229A2A982DB59EBD0DB407FEFDCF9EB5CE
:100290009DB58EBD0DB407FEFDCF8EB580910B01CF
:1002A0009DB58EBD0DB407FEFDCF8EB58DB58AEA26
:1002B0008EBD0DB407FEFDCF8EB5229A2A9A089501
:1002C0004F925F926F927F928F929F92AF92BF9266
:1002D000DF92EF92FF920F931F93CF93DF93F82E4D
:1002E000D82EDD0CDD0C8D2D8F5F880F880F880FC9
:1002F00080930B0186E290E00E945C008C010097E5
:1003000009F4DDC083E090E00E944001823351F0A7
:10031000823479F0EF2DF0E0823289F4EF5AFE4F0B
:1003200088E005C0EF2DF0E0EF5AFE4F86E08083B5
:1003300009C0EF2DF0E0EF5AFE4F82E0F8CFEF5A00
:10034000FE4F10828F2C992431E5A32E31E0B32E7D
:10035000A80CB91CF501808190E00817190708F472
:10036000AEC08081E401CC0FDD1F740193E0EE0C80
:10037000FF1C9A95E1F7882309F467C088E290E0B2
:100380000E945C009770FE01EC5EFE4F91838083BB
:1003900023E0D20EDD0CDD0CDD0CD0920B01DD2450
:1003A00035012E01EF0111C087010D0D111D88814E
:1003B00099810E944001095D1E4FF8018083D3940A
:1003C00088819981019699838883F3018081D81669
:1003D00058F3F5018081F7013297E80FF11DE95DCF
:1003E000FE4F808190E0D201A45FBE4F11969C9396
:1003F0008E938D919C911197982F882711969C939D
:100400008E932D913C911197F5018081F7013197E1
:10041000E80FF11DE95DFE4F808190E0822B932B68
:1004200011969C938E9397012B5F3F4F97E0F901B4
:10043000E95DFE4F8081F901E75DFE4F80839150B9
:1004400021503040913099F718C088E290E00E9426
:100450005C00FE01EC5EFE4F91838083C45FDE4F43
:1004600019830883C701079627E0FC01E95DFE4F69
:100470001082215001972130C1F7F401EE0FFF1FC8
:10048000E45FFE4F80819181D701A85DBE4F8C93C0
:100490008081918127E231E0E20EF31EF701908323
:1004A000F401EE0FFF1FE45FFE4F808191818F3FCB
:1004B000910510F08FEF04C08081918101C080E030
:1004C000DF91CF911F910F91FF90EF90DF90BF9040
:1004D000AF909F908F907F906F905F904F90089516
:1004E000EF92FF920F931F93CF93DF9380E00E94D0
:1004F0006001082FE0900C01F0900D0181EFE816EB
:10050000F10408F44EC180E065EE71E044E252E08F
:1005100097010E94FD008091F50180934D0180912B
:10052000F60180934E018091F70180934F018091F5
:10053000F80180935001C0EFD0E0FE01EB51FE4F77
:10054000E081E63009F459C0E73040F4E130E9F0E9
:10055000E13098F0E33009F016C130C0E53379F0AE
:10056000E63320F4E33309F00EC169C0E63309F441
:10057000F0C0EF3F09F007C114C121960EC1FE0182
:10058000E951FE4F0081239608C1FE01E951FE4F5B
:10059000808180932301FE01E851FE4F808180938A
:1005A0002401FE01E751FE4F808180932501FE0169
:1005B000E651FE4F808180932601E3C0FE01EA519F
:1005C000FE4F90819E012E5F3F4FF901EB51FE4F90
:1005D000808180935D01FE01E851FE4F8081809310
:1005E0005E01FE01E751FE4F808180935F01C6519D
:1005F000DE4F8881809360011EC0FE01EA51FE4FEC
:1006000090819E012E5F3F4FF901EB51FE4F80819B
:1006100080931C01FE01E851FE4F808180931D01F3
:10062000FE01E751FE4F808180931E01C651DE4FCF
:10063000888180931F01E901C90FD11DAEC0FE0161
:10064000EA51FE4F1081BE016E5F7F4FFB01EB51FF
:10065000FE4F808190E0A0E0B0E080930001909395
:100660000101A0930201B093030120910001309198
:1006700001014091020150910301FE01E851FE4F3A
:10068000808190E0A0E0B0E0542F432F322F22274A
:10069000822B932BA42BB52B809300019093010107
:1006A000A0930201B0930301209100013091010158
:1006B0004091020150910301FE01E751FE4F8081FC
:1006C00090E0A0E0B0E0542F432F322F2227822B5E
:1006D000932BA42BB52B8093000190930101A09341
:1006E0000201B0930301209100013091010140917A
:1006F000020150910301C651DE4F888190E0A0E0D5
:10070000B0E0542F432F322F2227822B932BA42B80
:10071000B52B8093000190930101A0930201B09347
:1007200003018091000190910101A0910201B0911B
:100730000301B695A79597958795809306019093A9
:100740000701A0930801B0930901EB01C10FD11D6E
:1007500024C0FE01E951FE4F808180931504FE0103
:10076000E851FE4F808180931604FE01E751FE4F51
:10077000808180931704FE01E651FE4F80818093B3
:10078000180426960AC0CE010196FC01EB51FE4FDB
:100790002081EC012196C20FD11DCE15DF0508F492
:1007A000CCCE802FDF91CF911F910F91FF90EF90D2
:1007B0000895229A2A982DB59EBD0DB407FEFDCF4F
:1007C0009EB59DB58EBD0DB407FEFDCF8EB5809153
:1007D0000B018C5F9DB58EBD0DB407FEFDCF8EB5B0
:1007E0008DB57EBD0DB407FEFDCF8EB58DB56EBD4A
:1007F0000DB407FEFDCF8EB5229A2A9A08951F9355
:10080000CF93DF93182F8295880F807E885F809327
:100810000B0184E290E00E945C00C12FD0E0FE0159
:10082000EE0FFF1FE35FFB4F60817181680F791F3F
:1008300084E290E00E94D90381E090E060E20E94AF
:10084000200181E090E00E9440018823D1F7CC0F85
:10085000DD1FC35FDB4F19821882DF91CF911F919B
:100860000895DF92EF92FF920F931F93CF93DF9340
:10087000D82E8B018295880F807E885F80930B0134
:1008800083E090E00E944001882359F081E090E0ED
:1008900060E10E94200183E090E00E9440018823F3
:1008A000D1F7C4EFD1E040EAE42E4FE0F42E80E02F
:1008B00090E062E00E94200184E090E0B8010E9494
:1008C000D90381E090E061E00E94200181E090E0A6
:1008D0000E9440018823D1F7C7010197F1F783E017
:1008E00090E00E9440012197823219F0209769F030
:1008F000DECFCD2B51F0ED2DF0E0EE0FFF1FE45FCA
:10090000FE4F1182108281E001C080E0DF91CF9123
:100910001F910F91FF90EF90DF900895DF92EF927B
:10092000FF920F931F93142FD22E843010F080E08B
:100930001FC08295880F807E885F80930B018CE0BA
:1009400090E00E9420018DE090E0612F0E94200144
:100950008EE090E06D2D0E9420018FE090E0602FEE
:100960000E94200180E190E0B7010E94D90381E05C
:100970001F910F91FF90EF90DF900895EF92FF92FB
:100980000F931F93CF93DF93082F79018295880FE0
:10099000807E805F80930B01C02FD0E0CC0FDD1FE5
:1009A0008E010B5A1E4FF8018081918148EE53E071
:1009B0000E948900F801808191818E0D9F1D918395
:1009C0008083FE01E35FFB4F808191818E0D9F1D2F
:1009D00091838083DF91CF911F910F91FF90EF90D2
:1009E000089581E08093E5018093E60186E080939D
:1009F000E7011092E80182E18093E90184E38093AA
:100A0000EA0186E58093EB0188E78093EC01109280
:100A1000ED011092EE0180E88093EF011092F00159
:100A20001092F1011092F2011092F3011092F40170
:100A30001092F5011092F6011092F7011092F80150
:100A40001092F9011092FA011092FB011092FC0130
:100A50001092FD011092FE011092FF01109200020F
:100A600080914701809301028091480180930202A6
:100A7000809149018093030280914A01809304028E
:100A800080914B018093050280914C018093060276
:100A900010920702109208021092090210920A02A4
:100AA00010920B0210920C0210920D0210920E0284
:100AB00010920F02109210028CE290E0FC01EB51B8
:100AC000FE4F108201968C369105C1F7FC01EB5167
:100AD000FE4F108201968C3E9105C1F783E680930C
:100AE000D10292E89093D20293E59093D30280933F
:100AF000D4020895EF92FF920F930E94F104809127
:100B00000A01843029F00FEF2FEF4FEF6FEF18C07D
:100B10006091150440911604209117040091180467
:100B200080914D018093F10180914E018093F201FB
:100B300080914F018093F301809150018093F401E3
:100B400085E38093D50291E09093D60282E0809372
:100B5000D7028DE38093D80287E08093D9029093E7
:100B6000DA02809147018093DB02809148018093F3
:100B7000DC02809149018093DD0280914A018093DB
:100B8000DE0280914B018093DF0280914C018093C3
:100B9000E0028CE08093E10289E08093E20287E545
:100BA0008093E30289E48093E4028AE58093E5027E
:100BB0008EE68093E60285E68093E70284E78093E1
:100BC000E80280914A018093E90280914B01809371
:100BD000EA0280914C018093EB0287E38093EC0260
:100BE00088E08093ED029093EE0283E08093EF0221
:100BF00086E08093F0028FE08093F1028AE3809395
:100C0000F2028BE38093F3028FE18093F40281E29E
:100C10008093F5028FEF8093F60280E0F3E4EF2EED
:100C2000F12C0E948E0480E00E94E10080E065EEDD
:100C300071E044E252E022E131E00E94BE0480E033
:100C40000E94FF030F91FF90EF900895EF92FF92A3
:100C50000F930E94F10485E38093D50221E0209355
:100C6000D6022093D7028DE38093D80287E0809349
:100C7000D9022093DA02809147018093DB028091B0
:100C800048018093DC02809149018093DD028091CC
:100C90004A018093DE0280914B018093DF028091B4
:100CA0004C018093E0028CE08093E10289E0809324
:100CB000E20287E58093E30289E48093E4028AE517
:100CC0008093E5028EE68093E60285E68093E70254
:100CD00084E78093E80280914A018093E902809141
:100CE0004B018093EA0280914C018093EB0287E3F1
:100CF0008093EC0296E09093ED022093EE0283E065
:100D00008093EF029093F0028FE08093F1028AE3E8
:100D10008093F2028BE38093F3028FEF8093F402CF
:100D200080E06FEF4FEF2FEF0FEFA3E4EA2EF12CEF
:100D30000E948E0480E00E94E10080E065EE71E098
:100D400044E252E020E131E00E94BE0480E00E94D3
:100D5000FF030F91FF90EF9008951F930E94700280
:100D6000182F80910A01843019F1853040F48230C7
:100D700099F08330B0F4813009F044C006C085306A
:100D8000D9F0893008F03EC00CC0123061F40E94E6
:100D90007A0510930A0105C0153029F483E0809389
:100DA0000A0110E03AC080EA9FE00197F1F720C005
:100DB0000E947A0585E0F3CF1530A9F480910001F7
:100DC00090910101A0910201B0910301B695A79500
:100DD000979587958093060190930701A09308014A
:100DE000B0930901DBCF163019F410920A01D9CF64
:100DF00080910401909105010196909305018093E3
:100E00000401CFCF80E064E470E00E943104182F29
:100E10000E94260681E080930A01812F1F91089588
:100E20001092470188E0809348018CED809349013E
:100E300010924A0110924B0110924C010E945300F3
:100E400010920B0180E090E060E80E94200186E1B2
:100E500090E060E00E94200189E090E067E471E0AA
:100E600046E050E026E030E00E94890010924D01FB
:100E700010924E0110924F011092500110925D019C
:100E800010925E0110925F011092600181E090E08B
:100E90006DE571E044E050E024E030E00E9489001C
:100EA0008FE090E06DE471E044E050E024E030E059
:100EB0000E948900109205011092040110920A010B
:100EC00002C00E94AD068091040190910501885EE8
:100ED000934020F480910A01833098F381E090E000
:100EE0006DE571E044E050E024E030E00E948900CC
:100EF00085E090E063E271E044E050E024E030E01F
:100F00000E9489008FE090E06DE471E044E050E0E1
:100F100024E030E00E94890089E190E06FE00E94C7
:100F200020018AE190E060EA0E9420018BE190E0DC
:100F300069E10E9420018FE090E00E9440019091C1
:100F40004D0120E0891709F421E0822F089514BE95
:0A0F50000E941007FFCFF894FFCFB6
:00000001FF
