:020000040000fa
:04005c00fc020000a2
:020000040000fa
:04007c00fc02000082
:020000040000fa
:04000c00fc020000f2
:020000040000fa
:0400b400fc0200004a
:020000040000fa
:0400b000fc0200004e
:020000040000fa
:04014000fc020000bd
:020000040000fa
:04010800fc020000f5
:020000040000fa
:04010400fc020000f9
:020000040000fa
:04014400fc020000b9
:020000040000fa
:04007000fc0200008e
:020000040000fa
:04007400fc0200008a
:020000040000fa
:04013400fc020000c9
:020000040000fa
:04011400fc020000e9
:020000040000fa
:04011800fc020000e5
:020000040000fa
:04003800fc020000c6
:020000040000fa
:04020800fc020000f4
:020000040000fa
:04020c00fc020000f0
:020000040000fa
:04023000fc020000cc
:020000040000fa
:04023400fc020000c8
:020000040000fa
:04023800fc020000c4
:020000040000fa
:04006000fc0200009e
:020000040000fa
:04008800fc02000076
:020000040000fa
:0400b800fc02000046
:020000040000fa
:0400e000fc0200001e
:020000040000fa
:04011c00fc020000e1
:020000040000fa
:04013800fc020000c5
:020000040000fa
:04013c00fc020000c1
:020000040000fa
:04020000fc020000fc
:020000040000fa
:04020400fc020000f8
:020000040000fa
:04001c00fc020000e2
:020000040000fa
:04001000fc020000ee
:020000040000fa
:04021c00fc020000e0
:020000040000fa
:04022400fc020000d8
:020000040000fa
:04022c00fc020000d0
:020000040000fa
:04024400fc020000b8
:020000040000fa
:04024c00fc020000b0
:020000040000fa
:04025400fc020000a8
:020000040000fa
:04025c00fc020000a0
:020000040000fa
:04002c00fc020000d2
:020000040000fa
:04003c00fc020000c2
:020000040000fa
:0400bc00fc02000042
:020000040000fa
:0400c000fc0200003e
:020000040000fa
:0400c400fc0200003a
:020000040000fa
:0400c800fc02000036
:020000040000fa
:04008000fc0200007e
:020000040000fa
:04008400fc0200007a
:020000040000fa
:04019c00fc02000061
:020000040000fa
:04026000fc0200009c
:020000040000fa
:04002800fc020000d6
:020000040000fa
:04007800fc02000086
:020000040000fa
:04009c00fc02000062
:020000040000fa
:0400fc00fc02000002
:020000040000fa
:04010000fc020000fd
:020000040000fa
:0401b800fc02000045
:020000040000fa
:0401bc00fc02000041
:020000040000fa
:0401c000fc0200003d
:020000040000fa
:0401c400fc02000039
:020000040000fa
:0401c800fc02000035
:020000040000fa
:0401cc00fc02000031
:020000040000fa
:0401d000fc0200002d
:020000040000fa
:0401d400fc02000029
:020000040000fa
:0401d800fc02000025
:020000040000fa
:0401dc00fc02000021
:020000040000fa
:0401e000fc0200001d
:020000040000fa
:0401e400fc02000019
:020000040000fa
:0401e800fc02000015
:020000040000fa
:0401ec00fc02000011
:020000040000fa
:0401f000fc0200000d
:020000040000fa
:0401f400fc02000009
:020000040000fa
:0401f800fc02000005
:020000040000fa
:0401fc00fc02000001
:020000040000fa
:04023c00fc020000c0
:020000040000fa
:04012400fc020000d9
:020000040000fa
:04012800fc020000d5
:020000040000fa
:04014800fc020000b5
:020000040000fa
:04015000fc020000ad
:020000040000fa
:04015800fc020000a5
:020000040000fa
:04015c00fc020000a1
:020000040000fa
:04016000fc0200009d
:020000040000fa
:04016400fc02000099
:020000040000fa
:04016800fc02000095
:020000040000fa
:04017800fc02000085
:020000040000fa
:04017c00fc02000081
:020000040000fa
:0401b000fc0200004d
:020000040000fa
:0401b400fc02000049
:020000040000fa
:04026400fc02000098
:020000040000fa
:04006c00fc02000092
:020000040000fa
:0400f000fc0200000e
:020000040000fa
:04001800fc020000e6
:020000040000fa
:04006400fc0200009a
:020000040000fa
:04021800fc020000e4
:020000040000fa
:04022000fc020000dc
:020000040000fa
:04022800fc020000d4
:020000040000fa
:04024000fc020000bc
:020000040000fa
:04024800fc020000b4
:020000040000fa
:04025000fc020000ac
:020000040000fa
:04025800fc020000a4
:020000040000fa
:04003000fc020000ce
:020000040000fa
:04004000fc020000be
:020000040000fa
:04008c00fc02000072
:020000040000fa
:04009000fc0200006e
:020000040000fa
:0400cc00fc02000032
:020000040000fa
:0400d000fc0200002e
:020000040000fa
:0400d400fc0200002a
:020000040000fa
:0400d800fc02000026
:020000040000fa
:04019800fc02000065
:020000040000fa
:04000800fc020000f6
:020000040000fa
:0400dc00fc02000022
:020000040000fa
:0401a000fc0200005d
:020000040000fa
:0401a400fc02000059
:020000040000fa
:0401a800fc02000055
:020000040000fa
:0401ac00fc02000051
:020000040000fa
:04014c00fc020000b1
:020000040000fa
:04010c00fc020000f1
:020000040000fa
:04011000fc020000ed
:020000040000fa
:04015400fc020000a9
:020000040000fa
:04012000fc020000dd
:020000040000fa
:04002400fc020000da
:020000040000fa
:04006800fc02000096
:020000040000fa
:0400ec00fc02000012
:020000040000fa
:04004c00fc020000b2
:020000040000fa
:04005000fc020000ae
:020000040000fa
:0400a800fc02000056
:020000040000fa
:0400ac00fc02000052
:020000040000fa
:04019000fc0200006d
:020000040000fa
:04019400fc02000069
:020000040000fa
:04021000fc020000ec
:020000040000fa
:04021400fc020000e8
:020000040000fa
:04002000fc020000de
:020000040000fa
:04001400fc020000ea
:020000040000fa
:04003400fc020000ca
:020000040000fa
:04004400fc020000ba
:020000040000fa
:04004800fc020000b6
:020000040000fa
:04009400fc0200006a
:020000040000fa
:0400e400fc0200001a
:020000040000fa
:0400e800fc02000016
:020000040000fa
:0400f400fc0200000a
:020000040000fa
:0400f800fc02000006
:020000040000fa
:04012c00fc020000d1
:020000040000fa
:04005800fc020000a6
:020000040000fa
:04013000fc020000cd
:020000040000fa
:0400a400fc0200005a
:020000040000fa
:04016c00fc02000091
:020000040000fa
:04017000fc0200008d
:020000040000fa
:04017400fc02000089
:020000040000fa
:04018400fc02000079
:020000040000fa
:04018800fc02000075
:020000040000fa
:04018c00fc02000071
:020000040000fa
:080000000002040000000000f2
:020000040000fa
:100400000fc621000eff27000e018800000000002b
:10041000000020000000e000020032000001200087
:10042000200288000c000700200d29000100200098
:100430001d000700000020000000e0000200320064
:100440000000020000000000a68e02000000000074
:100450000040da000000fe00e0b320000000e000f1
:1004600002003200002020009001880000000600f9
:10047000f03fb1000180b10006003500ee03090035
:1004800000000000403fb1000180b100fbff3d00d3
:100490001000b000203fb0000200350000800900cd
:1004a0000000000000000600a10288008000780023
:1004b0000000eb001a003700e280400054a0b400b6
:1004c0009101ba00e280400054a0b4009102ba0049
:1004d000e280400054a0b4000002eb00472bde0095
:1004e000f507b200a6018800602ce10008003a0080
:1004f0000049eb000201e800020039003420ec0062
:1005000002f0a0008301e900f9ff3e00040037007b
:100510006128e100010032000082eb000b000700bf
:1005200011c3ba001101ba000604e00003003a004a
:100530000200e000e0ff3a0000000600f607b2000b
:10054000a602880082007800f5ff370004d0a300df
:10055000e20f49001c003900810278003549ba00d9
:100560000201e800020039003420ec0002f0a00093
:100570008301e9000f0032002549ba000201e800ba
:10058000020039003420ec0002f0a0008301e900f1
:10059000080032000400e0000600320015c9ba006d
:1005a0000201e800020039003420ec0002f0a00053
:1005b0008301e9008180e80054a0b4000300e0005a
:1005c000e2ff3a00000006009102ba0005597800e7
:1005d0008301e900f7ff3200c82ade0005597800e0
:1005e0008301e900f3ff32000400e000f1ff320074
:1005f00011d9ba00eeff37000040da000000fe001b
:100600008001780002003700815978000201e9007a
:100610000200e000fcff3a00000006006022b80083
:10062000060220000000d0008180d2000482d200a7
:100630008582d2000000a0000202520083825a008c
:10064000030031000202420083824a000000a10040
:100650000603e900f3ff3a0000000600839f6800ec
:100660000100e00002003d0060001000e080180082
:100670000300e00002003d0060011100e08119006c
:10068000e6ff07004f00e00002003b0060001000a2
:10069000e08018000000060003f0a200889fbe0062
:1006a0008a9fbe008c1f7800cf000700d600330061
:1006b0006450e1004f0032006420e100520032003b
:1006c00003826c0007003b000905d0000306d00040
:1006d000820f54000c065d00020039000200320057
:1006e00089017800030678008582550004003d00ea
:1006f0000003fd008103fd008502ea008b854200b6
:10070000840f720002003b0060001000e0801800bf
:100710006011b8000005eb007a28e1000a003900fa
:1007200006007800c75ddd00f707b200878075001e
:100730002d003700828171000a0178006105600098
:100740008180d1000080d3008502e900f9ff3b00e1
:10075000060440008784480002003b006004140047
:10076000e0841c000988a300070032008a81710020
:1007700082817100610164008904d1000884d30082
:100780008b05e800170037000978a30013003a0032
:100790000b00e000130034008b05e900080444005e
:1007a00089844c000a4474000978a3000d003a00c3
:1007b0000b00e000070034008b05e900080444004a
:1007c00089844c0001003a000b0020000978a30046
:1007d000f7ff32000001eb00020037008281710058
:1007e0000a017800980007000cf0a70001f0a000b3
:1007f0008e0037006420e10002003a00838f6c0015
:100800008e0033000801be000200be0087003700e2
:10081000889fbe008a9fbe008c1f78007200070070
:100820007900330003866c006450e100240032003c
:100830006420e100270032006150e1002200320014
:100840006120e100210032008b854200eb07b100fe
:100850000134b800003ab8000804420089844a0014
:10086000013ab8000030b8008880400009014a0011
:10087000040033000000400081804800020149006c
:100880008b05e900c909dd00830170000100320019
:1008900013002000c814de004814dd004709de0004
:1008a0001200b200c808de0008847000660007006d
:1008b00001f0a1000cf0a70001f0a0005b003700e0
:1008c0006120e1005d0032000801be000200be00b0
:1008d000f7ff37006150e100fcff3a005700370096
:1008e000889fbe008a9fbe008c1f78003e000700d4
:1008f0004500330003866c006450e1002e00320096
:100900006420e100330032006150e1002f0032002a
:100910006120e1003100320085855500eb07b00011
:1009200009002000080420000500370008044400e6
:1009300089844c000a0031000603430087834b0082
:100940000001530081815b00f8ff33000203be0009
:100950000800a0000804440089844c00f6ff390018
:10096000c639dd008301730001003200130020004e
:100970008904d1000884d3000998a300050032003f
:100980000800a7000300a0008904d1000884d30058
:100990008b05e8008904d1000884d3000001eb0036
:1009a0000281d2002800070001f0a1000cf0a7008e
:1009b00001f0a0001d0037006420e1001f0032009c
:1009c0000801be000200be00f7ff37006120e10011
:1009d0001a0032006000b800f3ff3700000020006a
:1009e00001f82700f0ff37000004be003c000700bc
:1009f0000003be000405be000200be003800070070
:100a0000844f7500000006000200be006450e10043
:100a1000050036006420e100020036000968a300ea
:100a200001003a000800be000160a0004f067800f7
:100a30004f05be004f04be0000000600f0ff2f006f
:100a4000f1ff2700f9ff3700810020006180550089
:100a50000b003d000b00200061fe2f000100e100b3
:100a60001d00340082817100610164008904d1009d
:100a70000884d3000000e800faff3a00710020006b
:100a80006100640003007000020060000900320091
:100a900061044400e0844c000988a5000500320090
:100aa0008b05e8006808e10002003a008904d100e3
:100ab0000884d300f20f20000258e10005003d0039
:100ac000c75ddd00f907b200898075000800780075
:100ad000000006000bf827008b00780000000500de
:100ae000c70ade00f107b200f50fb20008003200bd
:100af000e1cf4200020032000170a0002400050096
:100b0000810f700001003200040805004400050058
:100b1000810f700002003a00140005008502e90010
:100b20000000400081c04800fcff3b000170a000b5
:040b30002400050098
:020000040000fa
:0401800060270000f4
:020000040000fa
:040098001a900000ba
:020000040000fa
:0400540046900000d2
:020000040000fa
:0400a0008c90000040
:020000040000fa
:100b3400004d0000585f0000554100005254000071
:100b44005f4900004e5400005f430000483100003c
:100b54005f460000554e0000430a00000a000000f2
:100b64004d5800005f550000494e00005438000005
:100b740020460000434c00005f4300004f4d00003e
:100b84004d5300005f4900004e3b00000a0a00007c
:100b940000460000434c00005f4300004f4d00003e
:100ba4004d5300005f4900004e2000003d2000002e
:100bb4004d5800005f55000041520000545f000092
:100bc400494e0000545f000043480000315f0000bc
:100bd40044450000543b00000a0a0000006900007c
:100be4006620000028460000434c00005f430000dc
:100bf4004f4d00004d5300005f4900004e29000096
:100c04000a7b00000a0a0000004d0000585f000043
:100c140055410000525400005f4900004e5400004a
:100c24005f430000483100005f4300004c52000065
:100c34003b0000000a0a00007d0a00000a4d000083
:100c4400585f000055410000525400005f49000005
:100c54004e5400005f460000554e0000435f000004
:100c6400454e0000440a00000a0000004d580000f0
:100c74005f55000041520000545f0000494e0000df
:100c8400545f000043480000325f000046550000f6
:100c94004e4300000a0a000000460000434c0000d6
:100ca4005f4300004f4d00004d5300005f490000ba
:100cb4004e2000003d2000004d5800005f5500000c
:100cc40041520000545f0000494e0000545f000090
:100cd40043480000325f000044450000543b0000dc
:100ce4000a0a0000004d0000585f00005541000052
:100cf400525400005f4900004e5400005f4300005e
:100d0400483200005f4300004c5200003b000000ea
:100d14000a0a00007d0a00000a4d0000585f000026
:100d240055410000525400005f4900004e54000039
:100d34005f460000554e0000435f0000454e000032
:100d4400440a000000520000494e00004700000021
:100d5400434f00004e4e0000454300005400000085
:100d64006c63000064700000726900006e7400001f
:100d7400007200006561000064640000696700009f
:100d840069740000616c0000696e000070750000f9
:100d9400740000007265000061640000696e000068
:100da400707500007473000000720000656100003b
:100db400646100006e6100006c6f000067690000f0
:100dc4006e70000075740000007700007269000006
:100dd40074650000726500006c61000079730000a6
:100de40000770000726900007465000072650000fd
:100df4006c610000790000007772000069740000e3
:100e040065740000726100006e73000000770000da
:100e1400726900007465000074720000616e000065
:100e240000700000776d0000656e000061620000d4
:100e34006c65000000700000776d000064750000b0
:100e44007479000000700000776d0000636f00008b
:100e54006e660000696700000072000065610000b2
:100e6400646b000065790000007200006561000099
:100e7400647200007463000000770000726900006f
:100e84007465000072740000630000006c6300006d
:100e9400646300006c65000061720000006c000077
:100ea4006364000063750000727300006f720000d9
:100eb400006c0000636400006e7500006d62000049
:100ec40065720000006c000063640000706900003b
:100ed400786500006c0000006c630000646c000026
:100ee400696e0000650000006c630000647200001d
:100ef40065630000740000006c630000646200001d
:100f0400697400006d610000700000006c630000f3
:100f140064620000616300006b6c0000696700009c
:100f240068740000006c0000636400006f700000cf
:100f3400746900006f6e00007300000063610000bc
:100f440072640000696e0000736500007274000032
:100f5400656400000063000061720000646f0000bb
:100f6400706500006e0000006361000072640000a0
:100f7400726500006164000062790000746500001d
:100f84000063000061720000647700007269000071
:100f9400746500006279000074650000006300005d
:100fa40061720000646300007265000061740000f7
:100fb4006500000063610000726400006465000065
:100fc4006c65000074650000006300006f6d000034
:100fd4006d7300007265000061640000006300002e
:100fe4006f6d00006d73000077720000697400007b
:100ff40065000000636f00006d6d00007362000007
:101004006175000064000000676500007461000001
:10101400706900007665000072730000696f00005b
:101024006e0000006c6300006476000065720000ce
:10103400626f000073650000004300006d640000ef
:10104400204e00006f740000204600006f75000001
:101054006e64000000760000004d0000494100006d
:1010640043200000416c00006c4300006f640000ea
:1010740065200000425400002020000020000000f1
:101084004d49000041430000204100006c6c000009
:10109400436f0000646500002057000049460000cb
:1010a40049200000004d0000494100004320000099
:1010b400416c00006c4300006f6400006520000078
:1010c4002020000020200000200000002a20000032
:1010d4004150000049000000436f00006e660000ac
:1010e4006967000075720000650000002a000000b6
:1010f40020000000202000000032000034300000f6
:1011040030000000343800003030000000390000a6
:101114003630000030000000313900003230000069
:10112400300000003338000034300000300000008c
:101134003537000036300000300000003131000047
:101144003532000030300000003100003230000041
:10115400300000002a2000004241000055440000f5
:101164002052000061740000650000003f00000090
:101174000d0a0000005200002c3100000d00000098
:101184002424000024000000434d0000440000001b
:101194002b0d0000004500004348000000530000f0
:1011a400412c0000340d0000005100000d0000002f
:1011b4002d2d00002d00000053630000616e00001f
:1011c4006e6900006e67000000410000542b0000af
:1011d400435700004d4f0000444500003d310000de
:1011e40000410000542b0000435700004c41000014
:1011f400500000004631000020440000656c0000ef
:1012040065740000652000004368000061720000fe
:101214000046000032200000446500006c650000b8
:1012240074650000204100006c6c00000030000078
:101234000041000000410000542b0000434900001d
:1012440050530000454e0000443d000000410000a2
:10125400542b000052460000504f00005745000038
:10126400523d0000343000000041000054000000f2
:10127400415400002b430000495000004d5500002c
:10128400583d000030000000496e00006974000001
:10129400696100006c690000736900006e670000fa
:1012a40000410000542b000043570000514100004e
:1012b400500000002a2000004e65000074770000f2
:1012c4006f7200006b200000436f00006e66000028
:1012d40069670000004e000065740000776f00002d
:1012e400726b0000205300005349000044000000ca
:1012f4005061000073730000776f00007264000097
:10130400004500006e6300007279000070740000f4
:10131400696f00006e00000043680000616e000009
:101324006e6500006c0000004d4900004143000060
:101334005f4100006c6c0000436f000064650000b6
:101344000070000061730000737700006f7200008a
:101354006400000057500000415f00005750000037
:10136400413200005f500000534b00000057000062
:1013740050410000325f0000505300004b00000059
:1013840057500000415f0000505300004b00000024
:101394004f700000656e0000204e00006574000070
:1013a400776f0000726b0000004a00006f69000054
:1013b4006e2000004e650000747700006f7200001c
:1013c4006b000000486f000073740000204e0000a2
:1013d40065740000776f0000726b0000002a000043
:1013e400204200006c750000657400006f6f0000ff
:1013f40074680000204e0000616d0000650000006c
:10140400426c000075650000746f00006f7400008a
:1014140068200000504900004e000000426c0000ab
:1014240075650000746f00006f7400006820000090
:101434005669000073690000626c000065000000da
:10144400313200003334000000530000502c0000ff
:10145400000d0000004e00006f74000020440000e6
:1014640069730000636f000076650000726100001c
:10147400626c0000650000004469000073630000b2
:101484006f76000065720000616200006c65000008
:10149400004d00004941000043200000416c000061
:1014a4006c4300006f64000065000000534e0000b0
:1014b4002c0000004150000049200000554100006c
:1014c40052540000004200006c7500006574000076
:1014d4006f6f000074680000205300006574000002
:1014e400746900006e670000730000005769000013
:1014f40066690000205300006574000074690000f0
:101504006e670000730000005365000072690000fc
:10151400616c0000205300006574000074690000d1
:101524006e67000073000000554100005254000033
:1015340020300000005500004152000054200000fb
:101544003120000028440000656600006175000039
:101554006c74000029000000415400002b4300007b
:10156400574a0000415000003d22000000220000c4
:101574002c2200000022000000410000542b000037
:10158400435700004d4f0000444500003d32000029
:1015940000410000542b0000435700005341000059
:1015a400503d000022000000222c0000002c00000e
:1015b40000410000542b000043490000504d00003e
:1015c400555800003d31000000410000542b00003c
:1015d40043490000505300004552000056450000a6
:1015e400523d0000312c0000383000000041000062
:1015f400542b0000434900004653000052000000f1
:10160400495000003a0000004142000043440000f9
:101614004546000047480000494a00004b4c000082
:101624004d4e00004f500000515200005354000032
:101634005556000057580000595a000061620000d6
:10164400636400006566000067680000696a000062
:101654006b6c00006d6e00006f7000007172000012
:10166400737400007576000077780000797a0000c2
:1016740030310000323300003435000036370000ca
:10168400383900002d5f00001a0300004d000000ef
:101694004900000041000000430000002000000059
:1016a400410000006c0000006c00000043000000da
:1016b4006f000000640000006500000016030000d5
:1016c4004d00000061000000740000007200000082
:1016d40069000000780000002000000054000000b1
:1016e400530000004c000000120100000002000042
:1016f4000200000000080000bf1200000401000006
:1017040000010000010200000001000009020000c5
:10171400430000000201000000c000003209000084
:1017240004000000000100000202000001000000ab
:101734000524000000100000010400002402000041
:10174400020500002406000000010000052400003a
:1017540001000000010700000581000003080000eb
:10176400000200000904000001000000020a000059
:101774000000000000070000050200000240000015
:101784000000000007050000820200004000000085
:10179400000000000403000009040000888b00001e
:1017a400cc8b0000468b0000608b00000000000022
:1017b4000000000000000000000000000000000025
:1017c4000000000000000000000000000000000015
:1017d4000000000000000000000000000000000005
:1017e40000000000000000000000000000000000f5
:1017f40000000000000000000000000000000000e5
:1018040000000000000000000000000000000000d4
:1018140000000000000000000000000000000000c4
:1018240000000000000000000000000000000000b4
:1018340000000000000000000000000000000000a4
:101844000000000000000000000000000000000094
:101854000000000000000000000000000000000084
:101864000000000000000000000000000000000074
:101874000000000000000000000000000000000064
:101884000000000000000000000000000000000054
:101894000000000000000000000000000000000044
:1018a4000000000000000000000000000000000034
:1018b4000000000000000000000000000000000024
:1018c4000000000000000000000000000000000014
:1018d4000000000000000000000000000000000004
:1018e40000000000000000000000000000080000ec
:1018f400043e000004080000000000000000000096
:1019040000000000000000000000000000000000d3
:1019140000000000000000000000000000000000c3
:1019240000000000000000000000000000000000b3
:1019340000000000000000000000000000000000a3
:101944000000000000000000000000000000000093
:101954000000000000000000000000000000000083
:101964000000000000000000000000000000000073
:101974000000000000000000000000000000000063
:101984000000000000000000000000000000000053
:101994000000000000000000000000000000000043
:1019a4000000000000000000000000000000000033
:1019b4000000000000000000000000000000000023
:1019c4000000000000000000000000000000000013
:1019d4000000000000000000000000000000000003
:1019e40000000000000000000000000000000000f3
:1019f40000000000000000000000000000000000e3
:101a040000000000000000000000000000000000d2
:101a1400000000000000000008140000080000009e
:101a240000000000000000000000000000000000b2
:101a340000000000000000000000000000000000a2
:101a44000808000008080000080000000800000062
:101a54000000000014140000140000000000000046
:101a64000000000000000000141400003e140000f8
:101a74003e1400001400000000000000081e0000d6
:101a8400281c00000a3c00000800000000000000c0
:101a94003032000004080000102600000600000098
:101aa4000000000018240000281000002a24000070
:101ab4001a000000000000001808000010000000d8
:101ac4000000000000000000000000000408000006
:101ad40010100000100800000400000000000000c6
:101ae40010080000040400000408000010000000b6
:101af40000000000000800002a1c00002a08000062
:101b0400000000000000000000080000083e000083
:101b140008080000000000000000000000000000b1
:101b24000000000000180000081000000000000081
:101b340000000000003e0000000000000000000063
:101b44000000000000000000000000000018000079
:101b5400180000000000000000020000040800005b
:101b64001020000000000000000000001c22000003
:101b7400262a0000322200001c00000000000000a1
:101b84000818000008080000080800001c000000f5
:101b9400000000001c2200000204000008100000e5
:101ba4003e000000000000003e04000008040000a5
:101bb400022200001c00000000000000040c0000d1
:101bc400142400003e040000040000000000000093
:101bd4003e2000003c020000022200001c00000025
:101be400000000000c100000203c00002222000035
:101bf4001c000000000000003e0200000408000079
:101c04001010000010000000000000001c22000062
:101c1400221c0000222200001c0000000000000022
:101c24001c220000221e00000204000038000000f4
:101c34000000000000180000180000001818000040
:101c44000000000000000000001800001800000060
:101c54001808000010000000000000000408000044
:101c64001020000010080000040000000000000024
:101c7400000000003e0000003e00000000000000e4
:101c84000000000010080000040200000408000026
:101c940010000000000000001c22000002040000ec
:101ca4000800000008000000000000001c02000002
:101cb400021a00002a2a00001c0000000000000094
:101cc4001c220000222200003e220000220000000c
:101cd400000000003c220000223c00002222000000
:101ce4003c000000000000001c2200002020000036
:101cf400202200001c000000000000003824000026
:101d0400222200002224000038000000000000000d
:101d14003e200000203c0000202000003e00000087
:101d2400000000003e200000203c000020200000b5
:101d340020000000000000001c220000202e0000f3
:101d4400222200001e0000000000000022220000e9
:101d5400223e0000222200002200000000000000b9
:101d64001c08000008080000080800001c0000000f
:101d7400000000000e04000004040000042400001d
:101d84001800000000000000222400002830000099
:101d94002824000022000000000000002020000091
:101da40020200000202000003e0000000000000071
:101db400223600002a2a000022220000220000000d
:101dc4000000000022220000322a00002622000027
:101dd40022000000000000001c220000222200005b
:101de400222200001c000000000000003c22000031
:101df400223c000020200000200000000000000021
:101e04001c220000222200002a2400001a000000e4
:101e1400000000003c220000223c000028240000b6
:101e240022000000000000001e200000201c000012
:101e3400020200003c000000000000003e08000018
:101e44000808000008080000080000000000000066
:101e54002222000022220000222200001c00000096
:101e640000000000222200002222000022140000b0
:101e7400080000000000000022220000222a0000c6
:101e84002a2a0000140000000000000022220000a2
:101e940014080000142200002200000000000000ca
:101ea400222200002214000008080000080000009c
:101eb400000000003e0200000408000010200000a2
:101ec4003e000000000000001c1000001010000084
:101ed400101000001c0000000000000000000000c2
:101ee40000000000000000000000000000000000ee
:101ef4001c04000004040000040400001c00000092
:101f0400000000000814000022000000000000008f
:101f140000000000000000000000000000000000bd
:101f2400000000003e000000000000001008000057
:101f34000400000000000000000000000000000099
:101f4400000000001c0200001e2200001e00000011
:101f540000000000202000002c320000222200009b
:101f64003c00000000000000000000001c200000f5
:101f7400202200001c0000000000000002020000fb
:101f84001a260000222200001e00000000000000ab
:101f9400000000001c2200003e2000001c00000085
:101fa400000000000c1200001038000010100000a7
:101fb4001000000000000000000000001e220000cd
:101fc400222200001e0200001c000000202000004d
:101fd4002c32000022220000220000000000000039
:101fe4000800000018080000080800001c00000099
:101ff40000000000020000000602000002020000cf
:10200400022200001c000000202000002428000000
:102014003028000024000000000000001808000020
:1020240008080000080800001c0000000000000070
:1020340000000000342a00002a22000022000000d0
:1020440000000000000000002c32000022220000ea
:102054002200000000000000000000001c2200001c
:10206400222200001c00000000000000000000000c
:102074003c220000222200003c200000200000003e
:10208400000000001a260000222200001e020000a8
:1020940002000000000000002c320000202000009c
:1020a4002000000000000000000000001c200000d0
:1020b4001c0200003c0000000000000010100000a2
:1020c40038100000101200000c0000000000000096
:1020d4000000000022220000222600001a00000056
:1020e4000000000000000000222200002214000072
:1020f4000800000000000000000000002222000090
:102104002a2a000014000000000000000000000063
:102114002214000008140000220000000000000047
:102124000000000000220000222200001e02000025
:102134001c000000000000003e0400000810000025
:102144003e00000000000000040800000810000029
:102154000808000004000000000000000808000057
:102164000808000008080000080000000000000043
:102174001008000008040000080800001000000017
:102184000000000000080000043e000004080000f5
:10219400000000000000000000080000103e0000e5
:0c21a40010080000000000000000000017
:020000040000fa
:1021b0000001eb000100e000080032001004e00024
:1021c00003003a00050037005004e000030032002d
:1021d0000201e800828f5000fbff3e000200780001
:1021e00000000600e8874700889fbe008a9fbe0067
:1021f0008c9fbe008e1f7800e2b79f008306780098
:102200000046eb000d00e00043003200e00f5000fc
:10221000e08f580009003d00d2c2b300efb1970033
:102220008249780060011000e0811800f2b79f0039
:1022300083bf9f001c00200003003700f0b79f0001
:1022400081bf9f000006eb0018002000090020005d
:102250001ec0b3007fb097008fb89700e00f50000a
:10226000e08f58000300320008a02c00a9b9230019
:102270000047eb008d0f560027003100e00f54009f
:10228000e08f5c002b0032007fb597008fbd970078
:10229000880f5500898f5d00020031000e04e000b8
:1022a000120032000801be000a00be00dbf8070081
:1022b000efb197008c80410002c3b3008248400018
:1022c0000c06e8000080fb008000eb0080c9b9002c
:1022d0000800b800810041000001550081815d00c7
:1022e000f2b79f0083bf9f001ec0b3008d0f560042
:1022f00009003100a2002000030020000800be00f9
:10230000c6f807000004be00e00f5000e08f580040
:10231000ddff3a00070037000c4078004f077800d7
:102320004f06be004f05be004f04be008f00b10037
:1023300000000600efb197000c8041000048eb0060
:10234000f5ff3700e4874700889fbe008a9fbe00e4
:102350008c9fbe008e1f780082bf9f00030778000d
:102360000046eb000e00e0002c00320018002000b8
:10237000090020006055b8001dc0b300e00f5000f8
:10238000e08f5800040032000005be0008a02c00b9
:10239000a9b923008046eb000006eb00880f55002a
:1023a000898f5d00020031000d04e0001000320052
:1023b0000801be000a00be0098f807000fb9970098
:1023c0008c00410002c3b300824840000c06e800c4
:1023d0000080fb008000eb0080c9b9000800b80055
:1023e000810041000005550081855d001dc0b300de
:1023f0008e0f560009003100a200200003002000cb
:102400000800be0085f807000004be00e00f500081
:10241000e08f5800e1ff3a00070037000c407800d9
:102420004f0778004f06be004f05be004f04be00a8
:102430004f00b100000006008fb897000c804000ec
:102440000048eb00f5ff3700e8874700889fbe0093
:102450008a9fbe008c9fbe008e1f7800e2b79f004f
:10246000830678000d00e00043003200e00f5000ca
:10247000e08f580009003d00d2c2b300efb19700d1
:102480008249780060011000e0811800f2b79f00d7
:1024900083bf9f001c00200003003700f0b79f009f
:1024a00081bf9f000006eb001800200009002000fb
:1024b0001ec0b3007fb097008fb89700e00f5000a8
:1024c000e08f58000300320008a02c00a9b92300b7
:1024d0000047eb008d0f560027003100e00f54003d
:1024e000e08f5c002b0032007fb597008fbd970016
:1024f000880f5500898f5d00020031000e04e00056
:10250000120032000801be000a00be0043f80700b6
:10251000efb197008c80410002c3b30082484000b5
:102520000c06e8000080fb008000eb0080c9b900c9
:102530000800b800810041000001550081815d0064
:10254000f2b79f0083bf9f001ec0b3008d0f5600df
:1025500009003100a2002000030020000800be0096
:102560002ef807000004be00e00f5000e08f580076
:10257000ddff3a00070037006fb097004f07780083
:102580004f06be004f05be004f04be008f00b100d5
:1025900000000600efb197000c864100004eeb00f2
:1025a000f5ff37000300e0001800320083037800d5
:1025b000818f510001003100810378000002eb009f
:1025c0000700e0000d00320082027800b080fb00be
:1025d000f6f92f0001034300f90f530001003e00fc
:1025e0000150a200815a78000100e000030032008f
:1025f0000402e800870f5200f4ff3900848f510075
:1026000002003600040141000049eb000000060012
:10261000889fbe008a1f78000100e0002c00320075
:102620000300e000220032008004780002047800f9
:102630008003eb00b9427800384378000404e000de
:102640000a003200fac9b3000ac54200f94f55002a
:1026500001003e000554a100fac9b3000a45430039
:10266000f94f550001003e000654a1000604e000a9
:1026700004003a000580fb000000ea004f00de0085
:10268000220037000504e0001b00320086cf520014
:102690001b0039001c003e008703e800878f5000b4
:1026a00004003600878f5100e2ff3e000100370032
:1026b0008003eb00838f50000600360007004000c7
:1026c0001080fb000000ea004f00de000f00370022
:1026d0008003eb000040eb00838f50000b003100c3
:1026e0000701410000c0eb001204e00007003a00bf
:1026f0000040eb000500370000c0eb00030037008e
:1027000000c0eb000100370010c0b3004f05780097
:102710004f04be0000000600889fbe00840f5100d9
:10272000090032000100e000620032000500e00014
:102730007c003200904378000003eb000704e000c7
:1027400050003a005c0037000003eb000100e0009d
:10275000090032001004e000070032008003780016
:10276000020037005704e000030032000603e800cf
:10277000868f5000fbff3e00868f520009003e000e
:102780000100e000620032000500e0006500320058
:10279000104178000003eb000204e0002d003a0035
:1027a0005c0037008003eb000300e00016003200fd
:1027b0001204e00014003200020478000200370026
:1027c0005804e000030032008703e800878f5100bf
:1027d000fbff3e0086815200838f530001003600cc
:1027e000830378000700e0000700320087044100ff
:1027f0000683430006044100870178008301e90055
:1028000049647800fdff3a008001eb000100e00020
:102810000e0032000500e0000c0032001044780089
:102820000804e00009003200085978008301e8003c
:10283000838f500005003600838f5200030036005e
:10284000504478000804e000f7ff3a000783410095
:1028500030003700840178000003eb0082597800d3
:102860000603e800868f50002a003600868f52004b
:102870002c003600504178000204e000f7ff3a00d7
:1028800026003700040478000003eb00075c7800a2
:102890000603e800868f500007003600868f52003e
:1028a00020003600d04378000704e000f7ff3a002c
:1028b000030037000003eb00868f5200190036003a
:1028c000860342000000eb000300e0000e0032002f
:1028d000068452000c003200924078000104e000af
:1028e00009003200815b78000000e800808f510011
:1028f00005003600800f540003003600d2407800f7
:102900000104e000f7ff3a00060340000100370031
:102910000003eb00850f5300020031000603420064
:10292000004beb004f04be00000006000100e00079
:10293000110032000300e0001600320090427800df
:102940000504e0000e003200020378000002eb00f4
:10295000055b78000402e800848f5000090036000f
:10296000848f51000b003600d04278000504e0004f
:10297000f7ff3a00050037000002eb0001003700c6
:102980000002eb00848f5100020036000401410078
:102990000049eb00000006000080fb008181fb0085
:1029a00000014000028141004411dd0003c021000c
:1029b000030141001274a1000104e00005003a0087
:1029c0000000400001a621000080400002087800bd
:1029d0000400370000004000e1a621000080400014
:1029e000020878001264a100680141001264a0008e
:1029f00000000600f1d2800080c0b300e78f5000d5
:102a00000e003e00f0d280000a51e20004003a00bd
:102a100013c0b300a210210003497800070037005b
:102a2000a110210091407800e1cf500003003a004e
:102a300023c0b300a210210003497800e1a52100c2
:102a40000081fb009108110071d38000a14190002a
:102a5000a2409800b1419000c2cfb30002c1610012
:102a6000b240980061a9210061888800e1d280000d
:102a70000108a300030032000004e0000c003a004b
:102a8000000006000004e00011003200a3a52100b0
:102a9000930078006288800031597800628888004d
:102aa000810978000040e900f8ff3a0000000600c4
:102ab000a3a5210093007800628880003159780036
:102ac00062888800810978000040e900f8ff3a0038
:102ad0000000060000c8b30061a82100914f10005b
:102ae00033003a0001ccb300c0a5210001487800b2
:102af00090a8210010407800e24f500009003200f9
:102b0000e34f500017003200e14f500026003a001a
:102b100060b72800d0d2880020012000f0d28800c1
:102b20000000060080a821001080fb00000040008b
:102b300001bd280080804000a0a521001108780078
:102b400010017800e40040002241900082487800a3
:102b50009000780065004000b14090000148780086
:102b60000000060080a8210021c0b30090cf100013
:102b70000a003e001080fb000000400021bd28003c
:102b800080804000a0a52100110878001000780086
:102b90001080fb00f0d2880000000600c0a52100d4
:102ba0000048eb0000000600c0a521000048eb0033
:102bb000000006000040eb0061a921008048780079
:102bc0008100e8008048780060a82100104078006b
:102bd0007f4060000080fb00e10f50000e003200db
:102be000e20f50000f0032000000e00029003a0020
:102bf000c0a521001070a0000100e9001004a00091
:102c0000c0878000e10f500022003a000100e90077
:102c10001014a0001f003700c0a521001070a000f4
:102c20001c003700c0a521001070a000a0a8210042
:102c30001004e00008003500104078006f4060008c
:102c40000080fb000000400001a621000080400041
:102c50009000780008003700a0a8210010407800fc
:102c60006f4060000080fb0000004000e1a62100f2
:102c7000008040009000780040c8b30091406000a0
:102c800080cf500003003a0011c0b30060a92100ba
:102c900001487800e0d280000078a30007003200ed
:102ca00060a92100d0d28800c0a521001000a0009a
:102cb00021c0b3000080e800014878000000060051
:102cc000e024ab0017003200308880009080fb00c9
:102cd000104190004811dd000281700001082000c1
:102ce000810f51000e003a0071d380009181fb00ea
:102cf000114190004811dd0002817100410820005f
:102d0000810f510006003a0090407800c1c8b3001e
:102d100001487800904090008040eb0011409800fe
:102d2000e024a9000008200000268800000006001a
:102d3000881f7800e0a62100900078001184fb0035
:102d40004644de00614464001034a200e087800045
:102d5000e80f50000a003a0080a821001080fb0014
:102d600060268800cc04e20003003200000120004d
:102d7000e08788000200370040002000e0878800dc
:102d80000bd1bf00e14f500025003a0070d3800006
:102d900061a921004041900041409800c808de0030
:102da000504190005140980012ff07000ad1bf0027
:102db000e24f500008003a0070d380009040780045
:102dc00041c8b30001487800904090008040eb007b
:102dd00011409800260037000804e00008003a007f
:102de00070d380009040780081ccb3000148780017
:102df000904090008040eb00114098001c0037008c
:102e000070d380009040780081c8b30001487800fa
:102e1000904090008040eb00114098001400370073
:102e200080a621001004e00010003d006300400077
:102e30009080fb000000e8001080fb004800dd00ef
:102e40000080700007003200b0a621009080fb00d7
:102e50000000e8001080fb004800dd0000807000ea
:102e60000000010080a621001074a1000b71ef008a
:102e70004f04780000000600881f780081708000f1
:102e800000f02f000100700080708800350ea9004e
:102e9000352ea800354ea800005e2100010020005c
:102ea00073f5070098708000354ea900c02b2000f4
:102eb000010020006ef507004840de004f04780056
:102ec00000000600352ea900350ea900f10f2000e4
:102ed00002e12000128960004800dd00a27080003d
:102ee0008280600080807000a1708800354ea8004c
:102ef000005e2100010020005df50700354ea900ad
:102f0000c02b20000100200059f53700881f7800f1
:102f10008170800000f02f00010070008070880038
:102f2000350ea800352ea800c02b2000010020007f
:102f30004ff50700354ea800005e2100010020007b
:102f40004bf5070098708000354ea900c02b20007b
:102f50000100200046f507004840de004f047800dd
:102f600000000600889fbe00ffcf5000040036001e
:102f700001c4ea0079c0b30080c4540004003700e3
:102f8000f8c1b30001445400f9c0b30080c4540038
:102f9000b9ff07000004e000fdff3500f1c3b300f6
:102fa0000140640008c8b30008407000c5ff070076
:102fb000c02b2000010020002df507006fc0640029
:102fc00008407000bfff0700005e210001002000e4
:102fd00027f50700cdff0700005e2100010020005b
:102fe00023f50700c9ff07004804dd00005e21004b
:102ff000010020001ef50700c4ff07000080fb0051
:1030000008047000c02b20000100200018f5070004
:1030100001c1b3000000eb00000040000808a3005d
:10302000010032000000a0008140e90002003200ef
:103030000804d100f8ff37004f04be00000006006e
:10304000352ea900350ea800f10f200002e1200066
:10305000128960004800dd00a2708000828060005c
:1030600080807000a1708800354ea800005e2100ad
:1030700001002000fef40700354ea900c02b2000ff
:1030800001002000faf43700889fbe008a1f7800f4
:10309000ff4f51000400360082c4ea007ac0b3003a
:1030a0000145550004003700f9c1b30082c4540043
:1030b000fac0b3000145550001c1b3000004eb00a4
:1030c000080444000008a300010032000800a0002a
:1030d0008140e900020032000000d100f8ff370013
:1030e00065ff07000004e000fdff3500f1c3b300f9
:1030f00001c0640009c8b3000940700071ff0700f7
:10310000c02b200001002000d9f407006f406500ab
:10311000094070006bff0700c02b20000100200059
:10312000d3f407004840de00c5ff0700c02b200095
:1031300001002000cef4070008407800c0ff07001f
:10314000c02b200001002000c9f407004f057800c3
:103150004f04be0000000600010161008180ea000a
:103160009080600001087100000006000282ea0001
:10317000910862000281610010026200040871007f
:1031800000000600908060000281fb000208de0063
:103190000000060091087100100161000380fb002f
:1031a0000010de0000000600889fbe00804478000a
:1031b0000904e000080032000044eb000060fe005b
:1031c0000017210011002000a9f407000844e800be
:1031d00088cf5400f9ff3e004f04be0000000600f7
:1031e000889fbe008a1f7800004578008044eb006d
:1031f0000a04e0000a003a000b00370010c0b300d8
:10320000e9ff07000804e800703e2000800f54002a
:10321000faff3a008944e800894f55000200360061
:103220000004eb00f5ff37004f0578004f04be00a7
:1032300000000600889fbe0000047800f00f200008
:10324000800f540007003600a05b2400010020001e
:1032500087f40700f80fb100f00f2000800f540032
:10326000f9ff3e000800e000070032000880fb0084
:103270006104b8006104200081c9b9000140b800b0
:10328000810041007af407004f04be0000000600f0
:10329000881f780000047800f00f2000800f540091
:1032a0000700360000e925000111200070f4070036
:1032b000f80fb100f00f2000800f5400f9ff3e001e
:1032c0000800e000050032000884fb000017210020
:1032d0000040b8008100440065f407004f04780006
:1032e00000000600881f780000047800f00f20001e
:1032f000800f54000600360000c0eb00aaff070054
:10330000f80fb100f00f2000800f5400faff3e00cc
:103310000800e0000200320008407800a2ff070029
:103320004f04780000000600881f78000004780031
:10333000f00f2000800f5400070036000028260000
:10334000117f22004af40700f80fb100f00f2000af
:10335000800f5400f9ff3e000800e0000a00320030
:103360000880fb008000eb0003d821008389b900ae
:10337000c44220008482b900040141000300b80067
:10338000810041003af407004f0478000000060075
:10339000881f780000047800f00f2000800f540090
:1033a0000600360000c0eb008dff0700f80fb100eb
:1033b000f00f2000800f5400faff3e000800e000ec
:1033c000020032000840780085ff07004f047800b3
:1033d000000006000000fa00889fbe008a9fbe0021
:1033e0008c1f78000604be006fb59700ffb59700ec
:1033f0000605550087855d00020050008380580057
:1034000080dbb9008a8eb9000c0343000050b8007d
:10341000810043000201520083815a008ff40700ab
:103420000000440081804c004f0678004f05be002c
:103430004f04be000080fa00000006000400fa00fd
:10344000889fbe008a9fbe008c9fbe000204be0003
:1034500084bf9f0095bf9f000606be000801be0006
:103460008df407000005be000c01be003fb09700c0
:10347000cfb0970088f407000001be000a00be002c
:10348000e3f407000005be000801be000fb8970076
:103490009fb8970080f407000001be000a00be003c
:1034a0000ff507000c01be007cf407004f06be00bc
:1034b0004f05be004f04be000080fa000000060069
:1034c0002ac8a900f00f20002026880000268800c6
:1034d000e024ef00e224ef00e424ef00dc24ef001e
:1034e000f009200030268800102688009004a800eb
:1034f00000c021004800de00702688000000eb00bc
:10350000c300dd0002c02100810041006022b8003c
:103510006033b8008498be008690be000000e800ca
:10352000ec0f5000f6ff3a00ca24a800cc24ef00ac
:10353000caa4a900ca24a900c064ab000f003200cd
:1035400080002000002688000040eb00c1a521007b
:103550008048780081a62100804878008100e8003a
:1035600011417800804878008100e800114178001e
:1035700080487800c064ab00f1ff3a0010002000e2
:10358000a0888800b0888800f630ef00f230ef00a5
:10359000fa30ef000000eb0000d3880001a9210001
:1035a0008048780031a921008048780080d38800c5
:1035b00010d3880011a921008048780041a921007a
:1035c0008048780090d3880020d3880021a921006a
:1035d0008048780051a921008048780000c121006e
:1035e00070d38800d00020000027880060a8210048
:1035f00020e0880020c0210001c02f0090806000e2
:103600000130a000010878004008200000e0880098
:10361000fe70ef00fc30ef0000000600889fbe0047
:103620008a1f780000457800814478000984fb00f7
:103630000838a300030032008040eb000a40780005
:10364000d5fc07000828a3000300320011c0b30016
:103650000a407800d0fc07000a85fb000a054500f7
:10366000004e20000a054000094d78004f05780003
:103670004f04be00000006000104e0000600320016
:103680000082fb0004024200e5a621000482420001
:1036900014027800050037000082fb00040242009b
:1036a00005a6210004824200140278008002eb008b
:1036b0000400e0002e003200c44290004242980014
:1036c0004811de00d4429000524298008381fb00f2
:1036d000f50f20002441900023429800b44190004f
:1036e000c2cfb30002c16100324298001481fb00d6
:1036f000944190000204b20094417800054a6100b0
:103700004811de0094419000124298009481fb0021
:10371000144190004811dd00028171008208b3005d
:1037200094417800054a61004811de009441900000
:10373000124298000104e000070032000080fb0004
:1037400000004000e1a62100010040001034a2006a
:1037500084027800060037000080fb000000400073
:1037600001a62100010040001034a200840278006c
:1037700005007800000006000004e0001d003a008b
:1037800040888000a04090008040eb0082c0b300e1
:1037900022409800b0419000c2cfb30002c1610046
:1037a000324098004088800062a82100c04190000b
:1037b000424098004811de00d041900052409800ed
:1037c0004088800010417800c2c8b30002487800e9
:1037d000104190001140980070d380001041780093
:1037e00042c8b30002487800104190001140980090
:1037f000000006008180fb000080fb00000040000c
:10380000008040004400dd0004c02100840040002e
:103810001181fb0091429000c82add0085027100f1
:103820004308200085827100f20f200082c86200e8
:10383000c82ade009540980068004000040040005f
:103840001082fb0090409000c808dd0081007200eb
:103850008180710002c86000c808de001140980035
:10386000000006001000fa00889fbe008a9fbe007c
:103870008c1f7800caa4ab00980032008080fb0047
:1038800081804000e0a62100810040001100780006
:103890001081fb0090419000c819dd008301710088
:1038a000b3b79f00204190000281fb00b04190001f
:1038b000c819dd0083017100c3b79f00404190002b
:1038c0000281fb00d0419000c819dd008301710026
:1038d000d3b79f00604190000281fb00f04190004f
:1038e000c819dd0083017100e3b79f003fb2970064
:1038f000cfb297005fb39700efb3970008042000a2
:10390000090020006055b800080262008982620048
:103910000a0363008b836300f4b79f0085bf9f0099
:1039200096bf9f00a7bf9f00f20f20009041780034
:1039300002486200ffb49700c849de0010469000bc
:1039400013409800a0419000254098000fbd9700bb
:10395000c851de003046900033409800c0419000ce
:10396000464098009fbd9700c859de005046900021
:1039700053409800e0419000674098002fba9700ac
:10398000c821de0070449000734098001100780058
:103990009081fb00104690004866dd000c867100a7
:1039a000bcb79f00a04190008381fb00304690008f
:1039b0004866dd000c867100ccb79f00c0419000c6
:1039c0008381fb00504690004866dd000c86710044
:1039d000dcb79f00e04190008381fb0070469000bf
:1039e0004866dd000c867100ecb79f003fb497007d
:1039f000cfb497005fb59700efb59700040420009f
:103a0000050020006033b80004046c0085846c005d
:103a100006056d0087856d00f8b79f0089bf9f0080
:103a20009abf9f00abbf9f0090417800024864009e
:103a3000ffb29700c829de001044900013409800a0
:103a4000a0419000294098000fbb9700c831de00cc
:103a50003044900033409800c04190004a409800a4
:103a60009fbb9700c839de00504490005340980037
:103a7000e04190006b4098002fbc9700c841de00e9
:103a800070429000734098001134a2001100780039
:103a90009081fb00104290000304b20010427800b5
:103aa00002c86100c819de0010429000134098005f
:103ab000110078009081fb0090409000c808dd0064
:103ac000818071000160a2009041780002c860000e
:103ad000c808de0010419000114098004f067800a1
:103ae0004f05be004f04be000080fa000000060033
:103af000ca24ef00c224ef00fc30ef0000000600f3
:103b0000fc10e20012003a00ca24ef00c224ef00c9
:103b1000dc24ef00f0092000302688001026880001
:103b20002ac8a800f0cf2f006a08b60000a0a000a5
:103b300050438800ca04ab0003003a00ca04a8003e
:103b4000ca04ab00fdff320010002000e0878800af
:103b5000000006001411e20046003a0010002000a8
:103b6000a08888001611e20042003a00b088880060
:103b70000bd1bf00e24f500010003a00e2a6210036
:103b800012007800a04090008040eb002140980097
:103b900030429000c3cfb3008341620033409800ad
:103ba000120078001041780082ccb30002487800ff
:103bb0001041900011409800000006000bd1bf009a
:103bc000e14f50002b003a001031ef0030888000a8
:103bd000a04090008040eb0085c0b30025409800d5
:103be00030419000c4cfb3000441610032409800de
:103bf0003088800062a821008281fb004043900051
:103c0000434098004811de00504390005240980015
:103c1000308880001043780046c8b300064878001a
:103c20001043900011409800100020008088880008
:103c3000408880002043900025409800b0429000ca
:103c400004c26200344098004088800040429000e6
:103c500043409800d0419000524098004088800036
:103c60001041780002c8b30002487800104190006b
:103c7000114098000000060030888000204390002a
:103c80003040900090a621009080fb000000e800ea
:103c90001080fb004800dd00008070008680fb0083
:103ca000808f50000400360090a621001083fb0096
:103cb0000000e8001080fb0091a621009181fb002c
:103cc0000100e8001081fb004811dd000281710055
:103cd0008681fb0003015100914178008248780001
:103ce0004811de0090407800024878000604e000a9
:103cf000120032008000eb0063a621009382fb00db
:103d00000301e8001280fb004800dd0064a92100e7
:103d100001024200008072001458780013427800bb
:103d2000804978004800de00924178000049780020
:103d30008100e800814f5300efff3e0090a6210074
:103d40009080fb000000e8001080fb004800dd00d0
:103d5000008070002300320040888000a040900066
:103d600081c0b3002140980030419000c1cfb30022
:103d700081406100314098004088800061a92100a5
:103d80004041900041409800c808de00504190003a
:103d9000514098003088800001c4b30010c060001a
:103da00008003a00408880009040780081ccb30041
:103db00001487800904090008040eb00114098004e
:103dc00000000600408880009040780081c8b30061
:103dd00001487800904090008040eb00114098002e
:103de0000000060040888000a040900081c0b30021
:103df0002140980030419000c1cfb3008140610064
:103e0000314098004088800061a821004041900026
:103e100041409800c808de00504190005140980091
:103e2000408880009040780041c8b3000148780085
:103e3000904090008040eb0011409800b0a6210017
:103e40009080fb000000e8001080fb004800dd00cf
:103e50000080700007003200b0a621009080fb00b7
:103e60000000e8001080fb004800dd0000807000ca
:103e70000000010080a621001074a100f410e200ef
:103e800001003a0033ff0700000006000bd1bf001d
:103e9000e24f500001003a0077ff37000b71ef004e
:103ea0001011e20017003a0040888000a040900006
:103eb00081c0b3002140980030419000c1cfb300d1
:103ec00081406100314098004088800061a8210055
:103ed0004041900041409800c808de0050419000e9
:103ee000514098004088800090407800c1c8b300dd
:103ef00001487800904090008040eb00114098000d
:103f0000000006001031ef0000000600f630ef0060
:103f1000f230ef000bd1bf00e24f500017003a0023
:103f200040888000a040900081c0b30021409800ec
:103f300030419000c1cfb300814061003140980012
:103f40004088800061a921004041900041409800d4
:103f5000c808de0050419000514098004088800021
:103f60009040780081ccb3000148780090409000e8
:103f70008040eb001140980000000600c0a821001e
:103f80001080fb00d1a821009180fb00c808dd0053
:103f900081007000f0d28000808f50000700310057
:103fa000c0a821009080fb000000e8001081fb0009
:103fb0004811dd00e0a52100010871008dfa07001d
:103fc000e1a621001100780062a92100c041900003
:103fd000424098004811de00d041900052409800c5
:103fe000110078009040780081ccb300014878003f
:103ff000904090008040eb001140980000000600c7
:10400000caa4a900e0d280000078a30028003a00ea
:1040100080a621001004e00008003d0020c0b3008d
:104020000bf1b700f210e20001003a00b7ff070001
:104030001631ef001431ef000000060040888000c8
:10404000a04090008040eb0082c0b3002240980066
:10405000b0419000c2cfb30002c16100324098006d
:104060004088800062a82100c04190004240980032
:104070004811de00d04190005240980040888000f6
:1040800010417800c2c8b300024878001041900087
:104090001140980070d380001041780042c8b300ee
:1040a000024878001041900011409800000006007e
:1040b00060a821001004e0000a003d0010c0b30019
:1040c0000bf1b700f610e20001003a008fff070085
:1040d0001631ef001431ef00f410e2001e003a0038
:1040e0009cfe370020c0b3000bf1b7004088800071
:1040f000a040900081c0b300214098003041900062
:10410000c1cfb300814061003140980040888000f9
:1041100061a821004041900041409800c808de009d
:1041200050419000514098004088800090407800b5
:1041300041c8b30001487800904090008040eb00f7
:10414000114098001631ef001431ef00f410e20036
:1041500001003a007ffe07000000060032268000c2
:10416000112680005024800053418000c619de00d3
:10417000e1c16100c624ef00c224ef008a24ef00f1
:104180000ac8a9008a84a8000401200044248800e9
:104190002ac8a8000040fe00e1816100c619dd00c8
:1041a000f4fb2f005541800005026200048271007b
:1041b0005441880032268800112688005024880047
:1041c0001000050060a82100104078007f406000ca
:1041d000e14f500059003a0060a8210002c6b30028
:1041e0009040610000c2b30080cf500053003a00fd
:1041f000a0a821001004e0000300320011c0b300a9
:1042000090cf10004d003a0070a8210010407800b7
:1042100001c2b300814f50001a00320005003e0079
:104220000004e0000a003200e14f500043003a0071
:104230000f00370011c2b300814f5000310032002f
:104240008140e800814f50003c003a0035003700c3
:10425000e0b12100d0d2880080002000f0d2880098
:10426000c0a521001000a0001070a00000000600f2
:10427000e0b12100d0d28800c0a521001070a000bc
:1042800000000600c0a821009080fb000000e800ac
:104290001080fb004800dd0000807000f30f20005c
:1042a00092a62100924078008040eb000349600014
:1042b0004801de00a0a621001042780002487800e4
:1042c000e0a7210062a621001242780003496000a5
:1042d0004801de0070a62100904178000248780075
:1042e0006400400010417800014878000000e800b8
:1042f0001041780001487800640050001074a0005c
:1043000000000600e0a72100d0d288007000200045
:10431000f0d2880011ccb300c0a52100014878007c
:104320000000060080a8210090407800e2112100e2
:1043300001497800c0a521001070a000000006000f
:1043400000b0240001002000f0d3880001d48800d0
:104350000040eb0021a82100804878008100e8009f
:104360008048780081c0b30040a82100014878004f
:10437000ff70ef0051c1b30010c0b300a7fc0700ed
:10438000d1c1b30020c0b300a4fc070003c4b30034
:10439000e2ad21008040eb0020c0b300b6fc070076
:1043a000d08888001c31ef000071ef00000006008b
:1043b000881f780001047800e50f500010003a00d3
:1043c000d0888000880f500006003a0003c4b30074
:1043d000e2ad21008040eb0020c0b300a6fc070046
:1043e000d088880010002000e1888000888f50006d
:1043f00004003a000071ef000471ef000100370083
:104400000000eb004f047800000006000001780077
:10441000ff70ef00d08880000000e0000200320052
:104420001004e0001d003500204290000482fb00d3
:10443000b0419000e3816100c819dd008301720082
:104440000182fb00830f520002003400a040900064
:10445000304090000104e0000a0032000040eb0010
:104460000080fb00e3ad210080814100000041009d
:1044700013487800ff50ec00fff0b70080cf5000e9
:10448000f7ff3e0003c4b300e2ad21008040eb0023
:1044900020c0b30078fc0700d0888800ffd0bf00a0
:1044a000000006002ac8a9000051e20007003a00f7
:1044b00010888800014178004010210002487800ef
:1044c00010c0b30005f1b70000f1b7002ac8a8007a
:1044d000000006002ac8a9000051e20006003200d0
:1044e0002ac8a800000006008140e800e1cf400093
:1044f00003003a00040037000001780011c0b30047
:104500003204e000f8ff3a0010888800014178008a
:10451000401021000248780010c0b30005f1b70038
:1045200000f1b7002ac8a800000006002ac8a900a8
:104530000051e200060032002ac8a8000000060070
:104540008140e800e1cf400003003a00040037005a
:104550000001780011c0b3003204e000f8ff3a0017
:10456000108888000141780040102100024878003e
:104570000571ef0010c0b30000f1b7002ac8a80011
:10458000000006002ac8a900e08880000000e000c2
:10459000040032001004e00002003d002ac8a80018
:1045a0000000060000d1bf00e34f500002003a00b7
:1045b0000071ef00020037000004e00002003a0042
:1045c0002ac8a80000000600e24f500008003a0088
:1045d0008041eb000001eb0011c0b30026fc070096
:1045e000e088880030c0b30000f1b7003300370026
:1045f000e14f500031003a0004d1bf008041780003
:1046000001c4b300814f50000100360081417800a1
:104610000340500004f1b700e0a92100c0888800e1
:104620000551e200030032000304e0000c003a00f0
:10463000130037000304e00011003200034078004b
:1046400012888000c1888000924878001831ec0000
:104650000231ec000040e900f9ff3a0008003700a1
:104660000340780012888000c1888000924878005a
:104670001831ec000231ec000040e900f9ff3a008b
:104680000451e20008003a0000c4b30080cf51009a
:1046900003003a0020c0b30000f1b7000200370069
:1046a00030c0b30000f1b700e2a9210011c0b3008f
:1046b00020c0b300f0fb0700e08888002ac8a800eb
:1046c00000000600a5fe37000000060000000600fe
:1046d00000000600bbfe37000000060018ff370090
:1046e000c0878000e10f50000a003a00d0878000a8
:1046f000e10f500007003a002ac8a9009024a90041
:10470000fa30ef00ca44a8002a31ef00ca44a900d9
:104710002ac8a80000000600e30f50000a0032007b
:1047200051072000810f500003003200e10f5000bc
:1047300006003a0002003700e2ff070003003700de
:10474000e6ff070001003700e2ff07001000050048
:10475000fa30ef000001eb008000eb004007200082
:10476000edff07008a84a900000120004024880092
:10477000000006008a84a8000001200000268800ae
:1047800010002000d08788000001eb008000eb00c3
:1047900050072000e0ff3700881f7800c0a52100e7
:1047a0001070a000e224ef00e424ef0008c0210014
:1047b000020620008000eb000800780090ef070060
:1047c000ca24a8000040eb0001a92100804878001d
:1047d00031a921008048780011a921008048780083
:1047e00041a921008048780021a921008048780053
:1047f00051a9210080487800220020008000eb00b1
:10480000e0a821007eef0700ca24a9007000440040
:1048100070d38800388888004888880080a82100e4
:1048200010417800e10f210082487800fe50e2003c
:1048300003003a0000012000e087880006003700ee
:1048400012002000e10f210010002000b2ff07003d
:1048500000022000e08788004f0478000000060076
:104860000200fa00881f780080a8210011c0b30060
:1048700090cf10000e003a000080e9001040780050
:104880007f4060000a003a00c0a521001070a0001f
:1048900070a8210032c0b300904f110003003a000d
:1048a00010002000c087880001003700f830ef00ba
:1048b00080a821001004e000c6003a000080e90052
:1048c000104078007f406000e24f5000c1003a0085
:1048d000a0a82100104078006f406000bd003200a9
:1048e000a0a82100104078006f4060000080fb000d
:1048f000e20f5000b7003c0000022000fc10e30073
:10490000b4003a00c0a521001070a000a0a82100aa
:104910001004e0000f00350010417800ef40610006
:104920008180fb008180400002a6210081004100bf
:1049300091007800e1bf9f00104078006f40600058
:104940000080fb0031a92100008040001044780065
:104950000f003700a0a8210010417800ef4061004f
:104960008180fb0081804000e2a62100810041009f
:1049700091007800e1bf9f00104078006f40600018
:104980000080fb0001a92100008040001044780055
:104990000808a30004003a004ff897000034a10073
:1049a000c0ff9f0003003700cff897000134a0003c
:1049b000c1ff9f00a0a821001004e00009003500fd
:1049c000104078006f4060000080fb000000400055
:1049d00001a62100008040006fb99700020878000e
:1049e00009003700a0a82100104078006f40600047
:1049f0000080fb0000004000e1a621000080400094
:104a0000efb897000108780070a8210032c0b30009
:104a1000904f11001e003a006fb897001004e0009c
:104a200011003d00a0a821001004e000070035009f
:104a3000104078006f4060000080fb0031a9210029
:104a4000008040001014a00007003700a0a821003b
:104a5000104078006f4060000080fb0001a9210039
:104a6000008040001014a0006fb897009080fb00f9
:104a7000104190004811dd00828070004108b300b1
:104a800001487800c808de00114098005100370046
:104a90004ff897000034a200c0ff9f00efb89700c6
:104aa0001104e0000d003d001180fb001141900059
:104ab0004811dd00020070000070a1000060a0003d
:104ac000804878004800de009040980022002000d6
:104ad0005000200010ff0700080037001181fb0084
:104ae000114090004800dd00000071000060a0004f
:104af000804878004800de0090409800cff897008a
:104b00000134a200c1ff9f000818a30003003a006f
:104b10006fb897001004e0001e003d00a0a821001f
:104b20001004e00007003500104078006f4060007e
:104b30000080fb0031a92100008040001014a1007a
:104b400007003700a0a82100104078006f406000e7
:104b50000080fb0001a92100008040001014a1008a
:104b6000efb897001180fb00114190004811dd0063
:104b7000b003b20000007100804878004800de00f9
:104b8000904098002200200050002000e2fe070024
:104b9000080037009080fb00104190004811dd00b4
:104ba000b103b2008100710001487800c808de003e
:104bb00011409800a0a82100104078006f406000cc
:104bc0000080fb0000004000014e2000010040007a
:104bd0001014a1004f0478000080fa0000000600c5
:104be00060a8210001c6b30010c060003e003a007a
:104bf00070a821001080fb008000eb00eb0f50003c
:104c0000e08f580038003e00000601001b0037000e
:104c10001b0037003400370019003700320037001e
:104c2000060037000a0037002b0037000a00370063
:104c300008003700130037001e003700c0a5210010
:104c40001070a00080002000e087880000000600af
:104c5000a0f73700d0fe3700e00f2100d0d2880047
:104c6000c0a521001000a00012c0b3008080e800a1
:104c7000824878001070a00000000600cdf73700d1
:104c8000f7fe3700a0a821009080fb00a0a521001e
:104c9000e2a82100010841000080e8001000a00007
:104ca00012c0b3008080e800824878001070a00035
:104cb00000000600c0a521001070a000a0a82100df
:104cc0001080fb00e1a821000080400081a82100a5
:104cd00011487800000006000001eb008000eb00a6
:104ce000200020008cfe0700000006000a71ef0083
:104cf000f430ef00f630ef00f230ef001031ef004b
:104d00000b71ef00e0a62100900078001181fb00fc
:104d100091429000c82add0085027100f4f72f004f
:104d200084826200f30f2000114178000041eb0003
:104d300083c86200c82ade001143900095409800a5
:104d40001034a200900078001183fb009142900083
:104d5000c82add0085027300848262001143780056
:104d600083c86200c82ade00114390009540980075
:104d70001034a200408880009082fb009040900098
:104d8000c808dd00818072000482600090407800d5
:104d9000034862004822de009040900014409800d2
:104da000c0a52100024878000000eb00f0d2880086
:104db00081a62100804878000100e800904078003a
:104dc000024878000000e80090407800024878002f
:104dd00083ff07000001eb008000eb0030002000a3
:104de0004dfe070086fc3700d0c2b30012f1b700b9
:104df0000ed1bf00b00fb2002b003a000ed1bf00a1
:104e00000000d000801fb20001c02100010040005e
:104e100030888800408888000871aa00c1c3b300a8
:104e200010c16000e8c05000814f51001d003a00e1
:104e300061a821008102780068824000c041900092
:104e40008381fb00504190004811dd000281710018
:104e500092587800c04190008381fb00504190003f
:104e60004811dd00028171000201e800c04190009c
:104e7000424098004811de00d04190005240980016
:104e8000848f5000edff3a0030888000c0409000d1
:104e900045409800c82ade00d04090005540980058
:104ea00092ff3700f9fb37000ed1bf00b00fb20000
:104eb000e80f500001003a009df7070000000600cf
:104ec0003600f800809fbe00829fbe00849fbe0017
:104ed000869fbe00881f78003200f8003400f8007a
:104ee00010002000a0018800002020009001880010
:104ef00000000000e0878000e10f500006003a004b
:104f0000f00f200000268800c204a800c284a80078
:104f100020002000e08788008884ab000500320074
:104f20008a84ab0003003200000120004024880086
:104f300007fe07009024ab00020032000ac8a90057
:104f40006a003700c004ab0008003200c204ab00a6
:104f5000060032005af907002ac8a80040002000c5
:104f6000e08788001000200000268800c084ab0085
:104f700005003200c284ab0003003200fdfd0700d3
:104f80000001200000268800c044ab000e00320063
:104f9000c244ab0004003200120020008000eb008d
:104fa00030072000dcfd07004000200000268800bc
:104fb0001251e200010032001271ed001251e200c4
:104fc00001003a00e3fa0700c0e4ab00030032003e
:104fd000c2e4ab000100320039f70700c024ab0087
:104fe0000a003200c224ab00080032001200200088
:104ff0008000eb00f0ff2700c7fd0700f00f200046
:10500000202688002000200000268800e0878000fd
:10501000e30f500002003e000ac8a9003300370029
:10502000c264ab003000320048c0b300c064ab00c3
:1050300003003a002c003700c064ab002a003200a5
:10504000402680000ef1b7000ed1bf000080fb00ab
:105050004400de000ff1b700800020000026880029
:105060000ed1bf000038a3000b003a000fd1bf00e3
:105070000080fb0031a92100008040001041780031
:10508000e14061000104a200104178000204a10087
:10509000014871000a0037000fd1bf000080fb00fb
:1050a00001a921000080400010417800e14061002a
:1050b0000104a200104178000204a100014871001f
:1050c0000f51e20002003a0047ff070004003700da
:1050d0000001eb00e1102100200720008efd0700f9
:1050e0000844e900d4ff3a000ac8a9003400f900d6
:1050f0003200f9004f0478004f03be004f02be009b
:105100004f01be004f00be003600f900004006000f
:1051100060eea800f3ef2f0002e620001289610084
:10512000f2fb2f0004e62000140a6100106ea900b3
:10513000146ea800104ea900144ea80029f1b70063
:10514000d00120001013880062a2a8008180fb001b
:10515000618060000000a2004800dd0014138000a0
:10516000848161008301700013138800c508dd008d
:105170000104b20010138000000161000281700080
:10518000121388006322a90060c2a90061e2a8008e
:10519000000005002951e20006003200b2ff2f0096
:1051a00003e120009309610043e1200093096100bd
:1051b0000500370072ff2f0003e120009309610012
:1051c00043e1200093096100421380000104e000e4
:1051d0000f0032000142e9000482fb000402e800f3
:1051e0008000eb000181fb00020140009281fb0086
:1051f000431388006002ab00feff320043138000bf
:10520000034978008100e800848f5000f5ff3a00e0
:105210002951e20003003200104ea900144ea800ec
:1052200000000600106ea900146ea8000000060021
:105230000000050000000500889fbe000041eb0053
:10524000824078000000eb008ff707008044eb00fd
:105250000b00370009417800884078000000eb001f
:1052600089f707000844e800e84f5400f9ff3a00c6
:105270008944e80000c4b30080cf5400020032002b
:105280000044eb00f3ff37002771ef002871ef00b7
:105290004f04be000000060027f1b700014178006e
:1052a000801221000248780000000600f0bf2f00a5
:1052b000302eb600342eb600f0ef2f00302eb600a0
:1052c000342eb600f0df2f00302eb600342eb6009c
:1052d000f07f2f00302eb600342eb600007620006e
:1052e000b110200062ec0700356ea80000fc2c0015
:1052f000a10620005eec070000c3b300f1f6070032
:1053000000c3b300eff6070010c0b300edf60700ce
:10531000007e26005103200055ec070000ccb300ae
:10532000e8f6070000ccb300e6f6070020c3b300a0
:10533000e4f6070060c3b300e2f60700001721009f
:10534000110020004aec070020c0b300ddf6070082
:1053500000c4b300dbf6070000c8b300d9f60700ad
:1053600000c8b300d7f6070000fc2c00a1062000ff
:105370003fec0700b0ff07008040eb0001407800e1
:10538000c5ff0700506ea900546ea800000006007b
:10539000889fbe008a9fbe008244780068c4400097
:1053a000634540000a80fb004400de008045780031
:1053b0006f45650088407800eaf607000904e000c0
:1053c000050032000a85fb00010028000a0dde00fe
:1053d00000007500050037000a85fb000100280069
:1053e0000a0dde000a85ea000a0060000841780024
:1053f0008b40780024f707004f05be004f04be0025
:1054000000000600ee874700889fbe008a9fbe000e
:105410008c9fbe008e1f78000247780093f79f0094
:1054200068444700e3c040008184fb00c44cde00b8
:10543000efc06000acc0b300014656008c06fb0014
:10544000f10320000d09dd000281ea00d2b79f00c0
:105450000d01ea00e2b79f00820178000389de00b7
:105460000281ea00c2b79f0070814600f2b79f0038
:105470008208dd008180ea00b1b79f00a2c0b300be
:105480000440bc0071bd28008105410072474700ff
:105490005b85fb000c04e0000e00350088407800be
:1054a00009407800aff607009ff197000304e00081
:1054b00002003a00dfb09700010060000d55dd00ea
:1054c000000075000841780089407800eef607007a
:1054d000270037008840780009407800a1f60700cf
:1054e0001ff197000204e00010003a00cfb19700ce
:1054f000030060006fb197008250de0000807000f2
:105500000841780089407800dff607008941e8000b
:1055100083f79f00884078000340780091f60700e9
:10552000bfb09700010060000b0037006fb197001b
:105530008250de00008070000841780089407800c9
:10554000d1f607008941e80083f79f008840780082
:105550000340780083f60700ffb097000155dd0097
:105560000a007000084178008ff09700c6f6070027
:105570000844e8008e4f5400c5ff3a004f077800fa
:105580004f06be004f05be004f04be00ef00b10045
:1055900000000600ec4f50000d003200ed4f5000af
:1055a00009003200ea4f50000a003a002771ef006c
:1055b0002851ec0028f1b700e44f50002b003600d2
:1055c0002871ef00000006002771ef0000000600c0
:1055d00019ff37000004e00007003d0001cbb300d5
:1055e000814f500003003200f1cdb300814f5000d5
:1055f0001e003a00f0c1b3008112210091407800f2
:10560000e4cf5000010036002871ef007112210034
:1056100091407800f3cf5000010036002771ef0071
:105620008212210012417800ea11b90071122100a2
:1056300091407800e60ab900840078008041eb00d0
:1056400070ff07002751ec0027f1b700f34f50001f
:10565000060036002771ef002851ec0028f1b70052
:10566000e44f5000010036002871ef0000000600f2
:10567000889fbe0080047800194078000004e00094
:105680000b0032000100e000090032000104e900d3
:10569000c0ff0700594078000004e0000400320019
:1056a0000800e000020032000804e900f8ff3700bb
:1056b0004f04be0000000600506ea9000004e00088
:1056c00002003200546ea80000000600546ea900cb
:1056d00000000600881f7800354ea9008170800008
:1056e00000f02f0001007000807088000044eb0083
