:1020000007EF10F0FFFFFFFF5B825B9211008EEF86
:1020100069F000FE141E001E0000009090F89690DB
:10202000F89690001C00001C000000182422FF42BB
:1020300042840810103C1008041C22221CC0308C62
:102040004240800000100C00000C10100C805C223C
:1020500062920C80000C101010100C08101E00F082
:102060000C021C6080020CF080601C04140E14042E
:102070000000000000404040F84040400000000CDC
:1020800000000000708080808000000000001000D0
:10209000C0380618040000FC02020202FC0C1010FA
:1020A00010100C0804FE00001C0C020282423C10BE
:1020B00018141010100C02222222DC0C1010101028
:1020C0000C8040300804FE0004040404041C04389E
:1020D00016121212E20C1010101804F844222222D8
:1020E000C40C101010100C020202E21A0600001CB0
:1020F000000000DC22222222DC0C101010100C3C0C
:1021000042424222FC0810101008040810087040D7
:10211000A0A0101008000000040408909090909077
:1021200090000000000000081010A0A04008040467
:102130000000000C028242221C000014000000E09B
:102140001804C422121212A2720408F00C30404C7F
:10215000909090889C90504C200080E09C829CE065
:102160008000180400000000000418FE2222222231
:1021700022DC1C10101010100CF8040202020204E1
:10218000080408101010100804FE020202020204E3
:10219000F81C10101010100804FE22222222222205
:1021A0001C101010101010FE2222222222021C00ED
:1021B0000000000000F804020202424244C8040881
:1021C00010101010100804FE2020202020FE1C00FB
:1021D000000000001CFE1C00000000FE0C1010108F
:1021E0000CFE804020508804021C000000000408FF
:1021F00010FE0000000000001C101010101010FE57
:102200000C30C000C0300CFE1C000004180400009C
:102210001CFE0418608000FE1C00000004081CF86E
:1022200004020202020204F8040810101010100840
:1022300004FE42424242423C1C000000000000F802
:1022400004020202020204F8040810101014081C10
:1022500010FE424242C242423C1C00000000040800
:10226000101C22222242428C0C10101010100C0262
:102270000202FE0202020000001C000000FE00003C
:10228000000000FE0408101010080406186080000A
:10229000806018060000000418040000000638C022
:1022A00000C03C023CC000C0380600000418040016
:1022B00000000418040000020C906060900C0210F2
:1022C0000C000000040C1002041820C020180402A6
:1022D000000000001C0000000000028242221A06DA
:1022E000021018141010101010FE02FC800638C0E6
:1022F000000000041802FE80FC201C021C200000CC
:10230000000000000000000000000080808080804D
:10231000808080020400001088484848F00C1010AB
:1023200010081CFE10080808F01C081010100CF013
:10233000080808100C10101008F008080810FE0C0F
:10234000101010081CF048484848700C101010106D
:102350000808FC0A0A001C0000F008080810F84CE5
:10236000909090887CFE10080808F01C0000000087
:102370001CFA1C00FA807CFE8040A010081C0000A3
:10238000000C10FE1CF8100808F0100808F01C00E3
:1023900000001C0000001CF810080808F01C0000D9
:1023A00000001CF008080808F00C101010100CF8C1
:1023B00010080808F0FC081010100CF008080810AD
:1023C000F80C10101008FCF81008081C0000003071
:1023D00048484890081010100C08FE0808001C100F
:1023E00010F800000000F80C101010081C18608095
:1023F000008060180000041804000018E000E018D5
:10240000E000E0180004180400041804000830C0BC
:10241000C03008100C00000C10186080008060189C
:1024200000808C700C0000080888681808101814C8
:10243000101010807C02007C80FEFC027C80807C7E
:10244000004020206040402000000000000000FC10
:102450000404040404FC1C10101010101C010308D8
:10246000070A080103030507010401040603060621
:102470000706060606060101060606060D090708F8
:1024800008070709070105080709070907090807D9
:102490000707090D080908020402050802060605D7
:1024A00006060406060102060109060606060405DC
:1024B00004060709060706030103070702070E0BB8
:1024C000130F020606080C020602070C070C0C0C80
:1024D0000C0C0C0C0C02020C0C0C0C170F0E100F39
:1024E0000E0C100E020A0F0B110E110E110F0F0E13
:1024F0000E0F1911100E0507050A0F040C0B0B0B1C
:102500000C070B0A02050B02120A0C0B0B060B0739
:102510000A0B130B0B0B0802080D040B16132018E3
:10252000040A0A0D13040B040B120A1312131213DC
:10253000121212040413131312251B161918161362
:102540001A17041018121B171B161B191716171B26
:10255000271B1A16080B0811170812121112120C59
:102560001211040911041C111212120B110B111378
:102570001D1213120C030C1441726934302E62695F
:102580006E0041726931342E62696E0041726932A7
:10259000342E62696E004C61796F757400202222BE
:1025A0003A003B0A007D0A0022002C007B0000FF5D
:1025B000000E506E000E4F6E000E546E000E536EE5
:1025C0004B504C10D8B494EF1AF04B50DB5D4C508C
:1025D000DC59D8A094EF1AF0FF0E4B244B6EFF0E7F
:1025E0004C204C6E4BC001F04CC002F0000E046E4B
:1025F000090E036EEFEC71F0330E0124D96E060E56
:102600000220DA6EDF50216E4BC001F04CC002F0A8
:10261000000E046E090E036EEFEC71F0340E01240F
:10262000D96E060E0220DA6EDF50226E4BC001F02A
:102630004CC002F0000E046E090E036EEFEC71F058
:10264000320E0124D96E060E0220DA6EDF5015EC30
:1026500072F04BC001F04CC002F0000E046E090E87
:10266000036EEFEC71F0360E0124D96E060E0220D7
:10267000DA6EDF50216E4BC001F04CC002F0000E4C
:10268000046E090E036EEFEC71F0370E0124D96E63
:10269000060E0220DA6EDF50226E4BC001F04CC0F5
:1026A00002F0000E046E090E036EEFEC71F0350EB1
:1026B0000124D96E060E0220DA6EDF5028EC72F08B
:1026C000000E4B24D96E050E4C20DA6E000E4B2402
:1026D000D96E050E4C20DA6EDE04D8A488D1000E27
:1026E000546E000E536EA00E4B24D96E030E4C2078
:1026F000DA6EDF50D8A438D04BC001F04CC002F0E5
:10270000000E046E090E036EEFEC71F0360E01241C
:10271000D96E060E0220DA6EDF50216E4BC001F03A
:102720004CC002F0000E046E090E036EEFEC71F067
:10273000370E0124D96E060E0220DA6EDF50226EAB
:102740004BC001F04CC002F0000E046E090E036E87
:10275000EFEC71F0350E0124D96E060E0220DA6E10
:10276000DF5015EC72F0CED0A00E4B24D96E030EC4
:102770004C20DA6E010EDF64C5D0A00E4B24D96E5A
:10278000030E4C20DA6EDF500001606FD89060338A
:102790006051616B626B615D536E6251D8A06205DE
:1027A000546E000E0301E46F000EE56F000EE66F3D
:1027B000000EE76F82D0D8904B34D96E4C34DA6E6D
:1027C000500ED926020EDA22DECF60F0DDCF61F0A6
:1027D000535000016025216E54506121226ED89023
:1027E0004B34D96E4C34DA6E930ED926010EDA22B0
:1027F000DECF62F0DDCF63F053506225236E54507C
:102800006321246ED8904B34D96E4C34DA6E000EAE
:10281000D926020EDA22DECF64F0DDCF65F0D89043
:102820004B34D96E4C34DA6E500ED926020EDA22B1
:10283000DECF66F0DDCF67F05350665F5450675BC4
:1028400064516625256E65516721266ED8904B34FC
:10285000D96E4C34DA6EA00ED926020EDA22DECF03
:1028600068F0DDCF69F0D8904B34D96E4C34DA6E15
:10287000930ED926010EDA22DECF6AF0DDCF6BF09F
:1028800053506A5F54506B5B68516A25276E6951DB
:102890006B21286E010E296E000E2A6E36EC6FF049
:1028A000010E5324536E000E5420546E010E03018A
:1028B000E427000EE523E623E723A00E4B24D96E80
:1028C000030E4C20DA6EDF500001606FFF0E6025B2
:1028D000616F626BFF0E6223636B62BF63076351BC
:1028E000646F61510301E45D000162510301E55928
:1028F000000163510301E659000164510301E759E6
:10290000D8A059D7D8904B34D96E4C34DA6E500ECB
:10291000D926020EDA22DECF60F0DDCF61F053500F
:1029200000016025216E54506121226ED8904B34F5
:10293000D96E4C34DA6E930ED926010EDA22DECF30
:1029400062F0DDCF63F053506225236E5450632153
:10295000246ED8904B34D96E4C34DA6E000ED926E2
:10296000020EDA22DECF64F0DDCF65F0D8904B3472
:10297000D96E4C34DA6E500ED926020EDA22DECF32
:1029800066F0DDCF67F05350665F5450675B64516B
:102990006625256E65516721266ED8904B34D96E19
:1029A0004C34DA6EA00ED926020EDA22DECF68F0A1
:1029B000DDCF69F0D8904B34D96E4C34DA6E930E7B
:1029C000D926010EDA22DECF6AF0DDCF6BF053504C
:1029D0006A5F54506B5B68516A25276E69516B21A1
:1029E000286E000E296E000E2A6E36EC6FF0000E77
:1029F0004B24D96E050E4C20DA6E020EDE18D8A4D8
:102A0000BED1000E546E000E536EA00E4B24D96E34
:102A1000030E4C20DA6EDF50D8A438D04BC001F042
:102A20004CC002F0000E046E090E036EEFEC71F064
:102A3000360E0124D96E060E0220DA6EDF50216EAA
:102A40004BC001F04CC002F0000E046E090E036E84
:102A5000EFEC71F0370E0124D96E060E0220DA6E0B
:102A6000DF50226E4BC001F04CC002F0000E046E2D
:102A7000090E036EEFEC71F0350E0124D96E060ECF
:102A80000220DA6EDF5015EC72F0E9D0A00E4B2474
:102A9000D96E030E4C20DA6E010EDF64E0D0A00E7A
:102AA0004B24D96E030E4C20DA6EDF500001606FAC
:102AB000D89060336051616B626B615D536E62519F
:102AC000D8A06205546E000E0301E06F000EE16FA6
:102AD000000EE26F000EE36F9DD0D8904B34D96E9C
:102AE0004C34DA6E500ED926020EDA22DECF60F0B8
:102AF000DDCF61F0535000016025216E54506121FB
:102B0000226ED8904B34D96E4C34DA6E930ED9269F
:102B1000010EDA22DECF62F0DDCF63F05350622582
:102B2000236E54506321246ED8904B34D96E4C34AC
:102B3000DA6E000ED926020EDA22DECF64F0DDCF87
:102B400065F0D8904B34D96E4C34DA6E500ED926DD
:102B5000020EDA22DECF66F0DDCF67F05350665FFB
:102B60005450675B64516625256E65516721266E5A
:102B7000D8904B34D96E4C34DA6EA00ED926020EA2
:102B8000DA22DECF68F0DDCF69F0D8904B34D96E11
:102B90004C34DA6E930ED926010EDA22DECF6AF0BB
:102BA000DDCF6BF053506A5F54506B5B68516A2500
:102BB000276E69516B21286ED8904B34D96E4C34F6
:102BC000DA6EA00ED926020EDA22DECF6CF0DDCF4F
:102BD0006DF053506C5F54506D5BD8906D336C3317
:102BE000D8906D336C336CC029F06DC02AF0010EA3
:102BF0002B6E000E2C6E07EC6FF0010E5324536EFB
:102C0000000E5420546E010E0301E027000EE12354
:102C1000E223E323A00E4B24D96E030E4C20DA6E80
:102C2000DF500001606FFF0E6025616F626BFF0E69
:102C30006223636B62BF63076351646F6151030179
:102C4000E05D000162510301E1590001635103019C
:102C5000E259000164510301E359D8A03ED7D8904E
:102C60004B34D96E4C34DA6E500ED926020EDA226D
:102C7000DECF60F0DDCF61F0535000016025216EA2
:102C800054506121226ED8904B34D96E4C34DA6E98
:102C9000930ED926010EDA22DECF62F0DDCF63F08B
:102CA00053506225236E54506321246ED8904B34C8
:102CB000D96E4C34DA6E000ED926020EDA22DECF3F
:102CC00064F0DDCF65F0D8904B34D96E4C34DA6EB9
:102CD000500ED926020EDA22DECF66F0DDCF67F085
:102CE0005350665F5450675B64516625256E65518D
:102CF0006721266ED8904B34D96E4C34DA6EA00E14
:102D0000D926020EDA22DECF68F0DDCF69F0D89046
:102D10004B34D96E4C34DA6E930ED926010EDA227A
:102D2000DECF6AF0DDCF6BF053506A5F54506B5BBF
:102D300068516A25276E69516B21286ED8904B34F3
:102D4000D96E4C34DA6EA00ED926020EDA22DECF0E
:102D50006CF0DDCF6DF053506C5F54506D5BD890CC
:102D60006D336C33D8906D336C336CC029F06DC00B
:102D70002AF0000E2B6E000E2C6E07EC6FF0000E8A
:102D80004B24D96E050E4C20DA6E030EDE18D8A443
:102D9000A0D1000E546E000E536EA00E4B24D96EBF
:102DA000030E4C20DA6EDF50D8A438D04BC001F0AF
:102DB0004CC002F0000E046E090E036EEFEC71F0D1
:102DC000360E0124D96E060E0220DA6EDF50216E17
:102DD0004BC001F04CC002F0000E046E090E036EF1
:102DE000EFEC71F0370E0124D96E060E0220DA6E78
:102DF000DF50226E4BC001F04CC002F0000E046E9A
:102E0000090E036EEFEC71F0350E0124D96E060E3B
:102E10000220DA6EDF5015EC72F0DAD0A00E4B24EF
:102E2000D96E030E4C20DA6E010EDF64D1D0A00EF5
:102E30004B24D96E030E4C20DA6EDF500001606F18
:102E4000D89060336051616B626B615D536E62510B
:102E5000D8A06205546E000E0301DC6F000EDD6F1A
:102E6000000EDE6F000EDF6F8ED0D8904B34D96E1F
:102E70004C34DA6E500ED926020EDA22DECF60F024
:102E8000DDCF61F0D8904B34D96E4C34DA6E000E41
:102E9000D926020EDA22DECF62F0DDCF63F0D890C1
:102EA00000016331656F6231646F60516425216E8A
:102EB00061516521226ED8904B34D96E4C34DA6E54
:102EC000930ED926010EDA22DECF66F0DDCF67F051
:102ED000D8904B34D96E4C34DA6EA00ED926020E3F
:102EE000DA22DECF68F0DDCF69F0D89069316B6F00
:102EF00068316A6F66516A25236E67516B21246EB3
:102F0000D8904B34D96E4C34DA6E000ED926020EAE
:102F1000DA22DECF6CF0DDCF6DF053506C5F545091
:102F20006D5BD8906D316E6F6C31256E6EC026F082
:102F3000D8904B34D96E4C34DA6EA00ED926020EDE
:102F4000DA22DECF70F0DDCF71F05350705F545055
:102F5000715BD8907131726F7031276E72C028F03A
:102F6000010E296E000E2A6E42EC6EF0010E532403
:102F7000536E000E5420546E010E0301DC27000E28
:102F8000DD23DE23DF23A00E4B24D96E030E4C205D
:102F9000DA6EDF500001606FFF0E6025616F626BBB
:102FA000FF0E6223636B62BF63076351646F6151FD
:102FB0000301DC5D000162510301DD590001635131
:102FC0000301DE59000164510301DF59D8A04DD738
:102FD000D8904B34D96E4C34DA6E500ED926020E8E
:102FE000DA22DECF60F0DDCF61F0D8904B34D96EBD
:102FF0004C34DA6E000ED926020EDA22DECF62F0F1
:10300000DDCF63F0D89000016331656F6231646F8A
:1030100060516425216E61516521226ED8904B3438
:10302000D96E4C34DA6E930ED926010EDA22DECF39
:1030300066F0DDCF67F0D8904B34D96E4C34DA6E41
:10304000A00ED926020EDA22DECF68F0DDCF69F0BD
:10305000D89069316B6F68316A6F66516A25236E4B
:1030600067516B21246ED8904B34D96E4C34DA6E94
:10307000000ED926020EDA22DECF6CF0DDCF6DF025
:1030800053506C5F54506D5BD8906D316E6F6C31E6
:10309000256E6EC026F0D8904B34D96E4C34DA6E63
:1030A000A00ED926020EDA22DECF70F0DDCF71F04D
:1030B0005350705F5450715BD8907131726F7031A2
:1030C000276E72C028F0000E296E000E2A6E42ECA8
:1030D0006EF0000E4B24D96E050E4C20DA6E040EF5
:1030E000DE18D8A43ED1A00E4B24D96E030E4C207E
:1030F000DA6EDF500001606FD89060336051616B11
:10310000626B615D536E6251D8A06205546E000E11
:103110000301D86F000ED96F000EDA6F000EDB6F5F
:1031200001D1D8904B34D96E4C34DA6EA00ED9262A
:10313000020EDA22DE50DE10D8B418D0D8904B340C
:10314000D96E4C34DA6E000ED926020EDA22D890EF
:103150004B34E16E4C34E26EA00EE126020EE22208
:10316000DE50E65CDE50E658D8B068D0D8904B34DC
:10317000D96E4C34DA6E500ED926020EDA22DECF2A
:103180003CF0DDCF3DF0D8904B34D96E4C34DA6E44
:10319000930ED926010EDA22DECF60F0DDCF61F08A
:1031A0005350000160253E6E545061213F6ED8900F
:1031B0004B34D96E4C34DA6E000ED926020EDA2268
:1031C000DECF62F0DDCF63F0D8904B34D96E4C3453
:1031D000DA6E500ED926020EDA22DECF64F0DDCF91
:1031E00065F062516425406E63516521416ED8904F
:1031F0004B34D96E4C34DA6EA00ED926020EDA2288
:10320000DECF66F0DDCF67F0D8904B34D96E4C340A
:10321000DA6E930ED926010EDA22DECF68F0DDCF0A
:1032200069F0665168276751692353506825426EDB
:1032300054506921436E0DEC70F067D0D8904B3438
:10324000D96E4C34DA6E500ED926020EDA22DECF59
:1032500060F0DDCF61F05350000160253C6E5450AA
:1032600061213D6ED8904B34D96E4C34DA6E930E9A
:10327000D926010EDA22DECF3EF0DDCF3FF0D89026
:103280004B34D96E4C34DA6E000ED926020EDA2297
:10329000DECF62F0DDCF63F0D8904B34D96E4C3482
:1032A000DA6E500ED926020EDA22DECF64F0DDCFC0
:1032B00065F0625164276351652353506425406E65
:1032C00054506521416ED8904B34D96E4C34DA6E2F
:1032D000A00ED926020EDA22DECF66F0DDCF67F02F
:1032E000D8904B34D96E4C34DA6E930ED926010E39
:1032F000DA22DECF68F0DDCF69F066516825426ED4
:1033000067516921436E0DEC70F0010E5324536E2A
:10331000000E5420546E010E0301D827000ED9234D
:10332000DA23DB23A00E4B24D96E030E4C20DA6E79
:10333000DF500001606F60C061F0626B636B646BB3
:1033400061510301D85D000162510301D9590001A7
:1033500063510301DA59000164510301DB59D8A01C
:10336000E0D6000E4B24D96E050E4C20DA6E080E06
:10337000DE18D8A4D9D04BC001F04CC002F0000E2A
:10338000046E090E036EEFEC71F0360E0124D96E57
:10339000060E0220DA6EDF50216E4BC001F04CC0E9
:1033A00002F0000E046E090E036EEFEC71F0370EA2
:1033B0000124D96E060E0220DA6EDF50226E4BC059
:1033C00001F04CC002F0000E046E090E036EEFEC2B
:1033D00071F0350E0124D96E060E0220DA6EDF5030
:1033E00002EC72F04BC001F04CC002F0000E046E13
:1033F000090E036EEFEC71F0320E0124D96E060E49
:103400000220DA6EDF50D8B455D0E80E256E050ED6
:10341000266E000E286E140E276ED8904B34D96E8F
:103420004C34DA6E500ED926020EDA22DECF29F0A5
:10343000DDCF2AF0D8904B34D96E4C34DA6E930E2F
:10344000D926010EDA22DECF2BF0DDCF2CF0D8907A
:103450004B34D96E4C34DA6E000ED926020EDA22C5
:10346000DECF2DF0DDCF2EF0D8904B34D96E4C341A
:10347000DA6EA00ED926020EDA22DECF2FF0DDCFD3
:1034800030F0000E316E4BC001F04CC002F0000E67
:10349000046E090E036EEFEC71F0330E0124D96E49
:1034A000060E0220DA6EDF50326E000E336E62ECD2
:1034B0006FF03AD0E80E256E050E266E000E286ECF
:1034C000140E276ED8904B34D96E4C34DA6E500EF1
:1034D000D926020EDA22DECF29F0DDCF2AF0D890ED
:1034E0004B34D96E4C34DA6E930ED926010EDA22A3
:1034F000DECF2BF0DDCF2CF0000E2D6E4BC001F097
:103500004CC002F0000E046E090E036EEFEC71F079
:10351000330E0124D96E060E0220DA6EDF502E6EB5
:10352000000E2F6E59EC70F04C5004E1150E4B5C00
:10353000D8A01200140E0101F7250001606F000EE3
:103540000101F8210001616F4B50605D4C506159E1
:10355000D8A01200FF0E4B244B6EFF0E4C204C6E79
:103560004BC001F04CC002F0000E046E0C0E036E56
:10357000EFEC71F0210E0124D96E030E0220DA6EF9
:10358000DF50216E4BC001F04CC002F0000E046E03
:103590000C0E036EEFEC71F0220E0124D96E030EB7
:1035A0000220DA6EDF50226E4BC001F04CC002F0F8
:1035B000000E046E0C0E036EEFEC71F0200E012471
:1035C000D96E030E0220DA6EDF5015EC72F04BC09C
:1035D00001F04CC002F0000E046E0C0E036EEFEC16
:1035E00071F0240E0124D96E030E0220DA6EDF5032
:1035F000216E4BC001F04CC002F0000E046E0C0EA8
:10360000036EEFEC71F0250E0124D96E030E02203B
:10361000DA6EDF50226E4BC001F04CC002F0000E9B
:10362000046E0C0E036EEFEC71F0230E0124D96EC4
:10363000030E0220DA6EDF5028EC72F0000E4B24ED
:10364000D96E050E4C20DA6E000E4B24D96E050E95
:103650004C20DA6EDE04D8A44BEF1FF0000E546E3F
:10366000000E536EA00E4B24D96E030E4C20DA6E62
:10367000DF50D8A438D04BC001F04CC002F0000E8F
:10368000046E0C0E036EEFEC71F0240E0124D96E63
:10369000030E0220DA6EDF50216E4BC001F04CC0E9
:1036A00002F0000E046E0C0E036EEFEC71F0250EAE
:1036B0000124D96E030E0220DA6EDF50226E4BC059
:1036C00001F04CC002F0000E046E0C0E036EEFEC25
:1036D00071F0230E0124D96E030E0220DA6EDF5042
:1036E00015EC72F0CED0A00E4B24D96E030E4C20F8
:1036F000DA6E010EDF64C5D0A00E4B24D96E030E26
:103700004C20DA6EDF500001606FD890603360515A
:10371000616B626B615D536E6251D8A06205546E3D
:10372000000E0301D46F000ED56F000ED66F000E91
:10373000D76F82D0D8904B34D96E4C34DA6E500E9D
:10374000D926020EDA22DECF60F0DDCF61F05350D1
:1037500000016025216E54506121226ED8904B34B7
:10376000D96E4C34DA6E930ED926010EDA22DECFF2
:1037700062F0DDCF63F053506225236E5450632115
:10378000246ED8904B34D96E4C34DA6E000ED926A4
:10379000020EDA22DECF64F0DDCF65F0D8904B3434
:1037A000D96E4C34DA6E500ED926020EDA22DECFF4
:1037B00066F0DDCF67F05350665F5450675B64512D
:1037C0006625256E65516721266ED8904B34D96EDB
:1037D0004C34DA6EA00ED926020EDA22DECF68F063
:1037E000DDCF69F0D8904B34D96E4C34DA6E930E3D
:1037F000D926010EDA22DECF6AF0DDCF6BF053500E
:103800006A5F54506B5B68516A25276E69516B2162
:10381000286E010E296E000E2A6E36EC6FF0010E36
:103820005324536E000E5420546E010E0301D4270E
:10383000000ED523D623D723A00E4B24D96E030E1A
:103840004C20DA6EDF500001606FFF0E6025616F63
:10385000626BFF0E6223636B62BF63076351646F29
:1038600061510301D45D000162510301D55900018A
:1038700063510301D659000164510301D759D8A0FF
:1038800059D7D8904B34D96E4C34DA6E500ED926B5
:10389000020EDA22DECF60F0DDCF61F0535000017E
:1038A0006025216E54506121226ED8904B34D96E20
:1038B0004C34DA6E930ED926010EDA22DECF62F096
:1038C000DDCF63F053506225236E54506321246E84
:1038D000D8904B34D96E4C34DA6E000ED926020ED5
:1038E000DA22DECF64F0DDCF65F0D8904B34D96EAC
:1038F0004C34DA6E500ED926020EDA22DECF66F094
:10390000DDCF67F05350665F5450675B64516625A6
:10391000256E65516721266ED8904B34D96E4C3494
:10392000DA6EA00ED926020EDA22DECF68F0DDCFE5
:1039300069F0D8904B34D96E4C34DA6E930ED92698
:10394000010EDA22DECF6AF0DDCF6BF053506A5FF2
:1039500054506B5B68516A25276E69516B21286E44
:10396000000E296E000E2A6E36EC6FF0CF0E4B243F
:10397000D96E010E4C20DA6EDF50D8B48CD24BC019
:1039800001F04CC002F0000E046E0C0E036EEFEC62
:1039900071F02A0E0124D96E030E0220DA6EDF5078
:1039A000216E4BC001F04CC002F0000E046E0C0EF4
:1039B000036EEFEC71F02B0E0124D96E030E022082
:1039C000DA6EDF50226E4BC001F04CC002F0000EE8
:1039D000046E0C0E036EEFEC71F0290E0124D96E0B
:1039E000030E0220DA6EDF5015EC72F0A00E4B24AD
:1039F000D96E030E4C20DA6EDF500001606FD89054
:103A000060336051536E546AD8904B34D96E4C3445
:103A1000DA6E500ED926020EDA22DECF60F0DDCF4C
:103A200061F05350605F5450615B010E60253C6E45
:103A3000000E61213D6ED8904B34D96E4C34DA6E55
:103A4000A00ED926020EDA22DECF62F0DDCF63F0BF
:103A5000D8904B34D96E4C34DA6E930ED926010EC1
:103A6000DA22DECF64F0DDCF65F062516427635166
:103A700065235350642754506523010E64253E6E20
:103A8000000E65213F6ED8904B34D96E4C34DA6EFF
:103A9000000ED926020EDA22DECF66F0DDCF67F007
:103AA000D8904B34D96E4C34DA6E500ED926020EB3
:103AB000DA22DECF68F0DDCF69F066516827675102
:103AC00069235350682754506923010E6825406EBE
:103AD000000E6921416ED8904B34D96E4C34DA6EA9
:103AE000A00ED926020EDA22DECF6AF0DDCF6BF00F
:103AF000D8904B34D96E4C34DA6E930ED926010E21
:103B0000DA22DECF6CF0DDCF6DF06A516C276B519D
:103B10006D2353506C2754506D23010E6C25426E5B
:103B2000000E6D21436E0DEC70F0D8904B34D96EC1
:103B30004C34DA6E500ED926020EDA22DECF60F057
:103B4000DDCF61F053500001605F5450615B020EA5
:103B500060253C6E000E61213D6ED8904B34D96ECD
:103B60004C34DA6EA00ED926020EDA22DECF62F0D5
:103B7000DDCF63F0D8904B34D96E4C34DA6E930EAF
:103B8000D926010EDA22DECF64F0DDCF65F0625176
:103B90006427635165235350642754506523020EF4
:103BA00064253E6E000E65213F6ED8904B34D96E71
:103BB0004C34DA6E000ED926020EDA22DECF66F021
:103BC000DDCF67F0D8904B34D96E4C34DA6E500E9E
:103BD000D926020EDA22DECF68F0DDCF69F0665119
:103BE0006827675169235350682754506923020E90
:103BF0006825406E000E6921416ED8904B34D96E15
:103C00004C34DA6EA00ED926020EDA22DECF6AF02C
:103C1000DDCF6BF0D8904B34D96E4C34DA6E930E06
:103C2000D926010EDA22DECF6CF0DDCF6DF06A51BD
:103C30006C276B516D2353506C2754506D23020E2B
:103C40006C25426E000E6D21436E0DEC70F0D89025
:103C50004B34D96E4C34DA6E000ED926020EDA22BD
:103C6000DECF60F0DDCF61F0D8904B34D96E4C34AC
:103C7000DA6E500ED926020EDA22DECF62F0DDCFE8
:103C800063F0000160516227615163235350622742
:103C900054506323010E62253C6E000E63213D6E7D
:103CA000D8904B34D96E4C34DA6E930ED926010E6F
:103CB000DA22DECF64F0DDCF65F05350645F5450FC
:103CC000655B010E64253E6E000E65213F6ED89047
:103CD0004B34D96E4C34DA6E000ED926020EDA223D
:103CE000DECF66F0DDCF67F0D8904B34D96E4C3420
:103CF000DA6E500ED926020EDA22DECF68F0DDCF62
:103D000069F06651682767516923535068275450FA
:103D10006923010E6825406E000E6921416ED8901E
:103D20004B34D96E4C34DA6EA00ED926020EDA224C
:103D3000DECF6AF0DDCF6BF0D8904B34D96E4C34C7
:103D4000DA6E930ED926010EDA22DECF6CF0DDCFCB
:103D50006DF06A516C276B516D2353506C27545092
:103D60006D23010E6C25426E000E6D21436E0DEC2D
:103D700070F0D8904B34D96E4C34DA6E000ED926E0
:103D8000020EDA22DECF60F0DDCF61F0D8904B3446
:103D9000D96E4C34DA6E500ED926020EDA22DECFFE
:103DA00062F0DDCF63F0000160516227615163234F
:103DB0005350622754506323020E62253C6E000E5E
:103DC00063213D6ED8904B34D96E4C34DA6E930E2D
:103DD000D926010EDA22DECF64F0DDCF65F0535034
:103DE000645F5450655B020E64253E6E000E6521D3
:103DF0003F6ED8904B34D96E4C34DA6E000ED92613
:103E0000020EDA22DECF66F0DDCF67F0D8904B34B9
:103E1000D96E4C34DA6E500ED926020EDA22DECF7D
:103E200068F0DDCF69F06651682767516923535008
:103E3000682754506923020E6825406E000E6921E0
:103E4000416ED8904B34D96E4C34DA6EA00ED92620
:103E5000020EDA22DECF6AF0DDCF6BF0D8904B3461
:103E6000D96E4C34DA6E930ED926010EDA22DECFEB
:103E70006CF0DDCF6DF06A516C276B516D235350A0
:103E80006C2754506D23020E6C25426E000E6D217E
:103E9000436E0DEC70F0000E4B24D96E050E4C20D5
:103EA000DA6E020EDE18D8A482D3CF0E4B24D96E60
:103EB000010E4C20DA6EDF50D8B484D14BC001F033
:103EC0004CC002F0000E046E0C0E036EEFEC71F0AD
:103ED0002A0E0124D96E030E0220DA6EDF50216E05
:103EE0004BC001F04CC002F0000E046E0C0E036ECD
:103EF000EFEC71F02B0E0124D96E030E0220DA6E66
:103F0000DF50226E4BC001F04CC002F0000E046E78
:103F10000C0E036EEFEC71F0290E0124D96E030E26
:103F20000220DA6EDF5015EC72F0A00E4B24D96E31
:103F3000030E4C20DA6EDF500001606FD8906033C2
:103F40006051536E546AD8904B34D96E4C34DA6E4B
:103F5000500ED926020EDA22DECF60F0DDCF61F0FE
:103F60005350605F5450615B010E6025216E000E5E
:103F70006121226ED8904B34D96E4C34DA6E930E98
:103F8000D926010EDA22DECF62F0DDCF63F0535086
:103F9000625F5450635B010E6225236E000E632145
:103FA000246ED8904B34D96E4C34DA6E000ED9267C
:103FB000020EDA22DECF64F0DDCF65F0D8904B340C
:103FC000D96E4C34DA6E500ED926020EDA22DECFCC
:103FD00066F0DDCF67F06451662765516723535063
:103FE000662754506723010E6625256E000E672153
:103FF000266ED8904B34D96E4C34DA6EA00ED9268A
:10400000020EDA22DECF68F0DDCF69F0D8904B34B3
:10401000D96E4C34DA6E930ED926010EDA22DECF39
:104020006AF0DDCF6BF068516A2769516B235350FA
:104030006A2754506B23010E6A25276E000E6B21F0
:10404000286ED8904B34D96E4C34DA6EA00ED92637
:10405000020EDA22DECF6CF0DDCF6DF053506C270C
:1040600054506D23D8906D336C33D8906D336C33CE
:104070006CC029F06DC02AF0010E2B6E000E2C6E64
:1040800007EC6FF0D8904B34D96E4C34DA6E500E8A
:10409000D926020EDA22DECF60F0DDCF61F0535078
:1040A0000001605F5450615B020E6025216E000EBE
:1040B0006121226ED8904B34D96E4C34DA6E930E57
:1040C000D926010EDA22DECF62F0DDCF63F0535045
:1040D000625F5450635B020E6225236E000E632103
:1040E000246ED8904B34D96E4C34DA6E000ED9263B
:1040F000020EDA22DECF64F0DDCF65F0D8904B34CB
:10410000D96E4C34DA6E500ED926020EDA22DECF8A
:1041100066F0DDCF67F06451662765516723535021
:10412000662754506723020E6625256E000E672110
:10413000266ED8904B34D96E4C34DA6EA00ED92648
:10414000020EDA22DECF68F0DDCF69F0D8904B3472
:10415000D96E4C34DA6E930ED926010EDA22DECFF8
:104160006AF0DDCF6BF068516A2769516B235350B9
:104170006A2754506B23020E6A25276E000E6B21AE
:10418000286ED8904B34D96E4C34DA6EA00ED926F6
:10419000020EDA22DECF6CF0DDCF6DF053506C27CB
:1041A00054506D23D8906D336C33D8906D336C338D
:1041B0006CC029F06DC02AF0010E2B6E000E2C6E23
:1041C00007EC6FF0000E546E000E536EA00E4B24E1
:1041D000D96E030E4C20DA6EDF50D8A438D04BC015
:1041E00001F04CC002F0000E046E0C0E036EEFECFA
:1041F00071F0240E0124D96E030E0220DA6EDF5016
:10420000216E4BC001F04CC002F0000E046E0C0E8B
:10421000036EEFEC71F0250E0124D96E030E02201F
:10422000DA6EDF50226E4BC001F04CC002F0000E7F
:10423000046E0C0E036EEFEC71F0230E0124D96EA8
:10424000030E0220DA6EDF5015EC72F020D14BC065
:1042500001F04CC002F0000E046E0C0E036EEFEC89
:1042600071F0210E0124D96E030E0220DA6EDF50A8
:10427000216E4BC001F04CC002F0000E046E0C0E1B
:10428000036EEFEC71F0220E0124D96E030E0220B2
:10429000DA6EDF50226E4BC001F04CC002F0000E0F
:1042A000046E0C0E036EEFEC71F0200E0124D96E3B
:1042B000030E0220DA6EDF5015EC72F0A00E4B24D4
:1042C000D96E030E4C20DA6E010EDF64E0D0A00E32
:1042D0004B24D96E030E4C20DA6EDF500001606F64
:1042E000D89060336051616B626B615D536E625157
:1042F000D8A06205546E000E0301D06F000ED16F7E
:10430000000ED26F000ED36F9DD0D8904B34D96E73
:104310004C34DA6E500ED926020EDA22DECF60F06F
:10432000DDCF61F0535000016025216E54506121B2
:10433000226ED8904B34D96E4C34DA6E930ED92657
:10434000010EDA22DECF62F0DDCF63F0535062253A
:10435000236E54506321246ED8904B34D96E4C3464
:10436000DA6E000ED926020EDA22DECF64F0DDCF3F
:1043700065F0D8904B34D96E4C34DA6E500ED92695
:10438000020EDA22DECF66F0DDCF67F05350665FB3
:104390005450675B64516625256E65516721266E12
:1043A000D8904B34D96E4C34DA6EA00ED926020E5A
:1043B000DA22DECF68F0DDCF69F0D8904B34D96EC9
:1043C0004C34DA6E930ED926010EDA22DECF6AF073
:1043D000DDCF6BF053506A5F54506B5B68516A25B8
:1043E000276E69516B21286ED8904B34D96E4C34AE
:1043F000DA6EA00ED926020EDA22DECF6CF0DDCF07
:104400006DF053506C5F54506D5BD8906D336C33CE
:10441000D8906D336C336CC029F06DC02AF0010E5A
:104420002B6E000E2C6E07EC6FF0010E5324536EB2
:10443000000E5420546E010E0301D027000ED1232C
:10444000D223D323A00E4B24D96E030E4C20DA6E58
:10445000DF500001606FFF0E6025616F626BFF0E21
:104460006223636B62BF63076351646F6151030131
:10447000D05D000162510301D15900016351030174
:10448000D259000164510301D359D8A03ED7D89026
:104490004B34D96E4C34DA6E500ED926020EDA2225
:1044A000DECF60F0DDCF61F0535000016025216E5A
:1044B00054506121226ED8904B34D96E4C34DA6E50
:1044C000930ED926010EDA22DECF62F0DDCF63F043
:1044D00053506225236E54506321246ED8904B3480
:1044E000D96E4C34DA6E000ED926020EDA22DECFF7
:1044F00064F0DDCF65F0D8904B34D96E4C34DA6E71
:10450000500ED926020EDA22DECF66F0DDCF67F03C
:104510005350665F5450675B64516625256E655144
:104520006721266ED8904B34D96E4C34DA6EA00ECB
:10453000D926020EDA22DECF68F0DDCF69F0D890FE
:104540004B34D96E4C34DA6E930ED926010EDA2232
:10455000DECF6AF0DDCF6BF053506A5F54506B5B77
:1045600068516A25276E69516B21286ED8904B34AB
:10457000D96E4C34DA6EA00ED926020EDA22DECFC6
:104580006CF0DDCF6DF053506C5F54506D5BD89084
:104590006D336C33D8906D336C336CC029F06DC0C3
:1045A0002AF0000E2B6E000E2C6E07EC6FF0000E42
:1045B0004B24D96E050E4C20DA6E030EDE18D8A4FB
:1045C00076D2CF0E4B24D96E010E4C20DA6EDF501E
:1045D000D8B4CDD04BC001F04CC002F0000E046E38
:1045E0000C0E036EEFEC71F02A0E0124D96E030E4F
:1045F0000220DA6EDF50216E4BC001F04CC002F099
:10460000000E046E0C0E036EEFEC71F02B0E012405
:10461000D96E030E0220DA6EDF50226E4BC001F01D
:104620004CC002F0000E046E0C0E036EEFEC71F045
:10463000290E0124D96E030E0220DA6EDF5015EC2C
:1046400072F0A00E4B24D96E030E4C20DA6EDF50B0
:104650000001606FD89060336051536E546AD890F7
:104660004B34D96E4C34DA6E500ED926020EDA2253
:10467000DECF60F0DDCF61F0D8904B34D96E4C3492
:10468000DA6E000ED926020EDA22DECF62F0DDCF1E
:1046900063F0D8906331656F6231646F6051642755
:1046A00061516523020E6425216E000E6521226E84
:1046B000D8904B34D96E4C34DA6E930ED926010E55
:1046C000DA22DECF66F0DDCF67F0D8904B34D96EBA
:1046D0004C34DA6EA00ED926020EDA22DECF68F054
:1046E000DDCF69F0D89069316B6F68316A6F6651C0
:1046F0006A2767516B23020E6A25236E000E6B2119
:10470000246ED8904B34D96E4C34DA6E000ED92614
:10471000020EDA22DECF6CF0DDCF6DF053506C2745
:1047200054506D23D8906D316E6F6C31256E6EC014
:1047300026F0D8904B34D96E4C34DA6EA00ED926C0
:10474000020EDA22DECF70F0DDCF71F05350702709
:1047500054507123D8907131726F7031276E72C0CE
:1047600028F0000E296E010E2A6E42EC6EF0000E4B
:10477000546E000E536EA00E4B24D96E030E4C20C7
:10478000DA6EDF50D8A438D04BC001F04CC002F034
:10479000000E046E0C0E036EEFEC71F0240E01247B
:1047A000D96E030E0220DA6EDF50216E4BC001F08D
:1047B0004CC002F0000E046E0C0E036EEFEC71F0B4
:1047C000250E0124D96E030E0220DA6EDF50226E10
:1047D0004BC001F04CC002F0000E046E0C0E036ED4
:1047E000EFEC71F0230E0124D96E030E0220DA6E75
:1047F000DF5015EC72F0DAD0A00E4B24D96E030E08
:104800004C20DA6E010EDF64D1D0A00E4B24D96E9D
:10481000030E4C20DA6EDF500001606FD8906033D9
:104820006051616B626B615D536E6251D8A062052D
:10483000546E000E0301CC6F000ECD6F000ECE6FD4
:10484000000ECF6F8ED0D8904B34D96E4C34DA6EC8
:10485000500ED926020EDA22DECF60F0DDCF61F0F5
:10486000D8904B34D96E4C34DA6E000ED926020E35
:10487000DA22DECF62F0DDCF63F0D8900001633141
:10488000656F6231646F60516425216E61516521ED
:10489000226ED8904B34D96E4C34DA6E930ED926F2
:1048A000010EDA22DECF66F0DDCF67F0D8904B3410
:1048B000D96E4C34DA6EA00ED926020EDA22DECF83
:1048C00068F0DDCF69F0D89069316B6F68316A6F3D
:1048D00066516A25236E67516B21246ED8904B3444
:1048E000D96E4C34DA6E000ED926020EDA22DECFF3
:1048F0006CF0DDCF6DF053506C5F54506D5BD89011
:104900006D316E6F6C31256E6EC026F0D8904B34D1
:10491000D96E4C34DA6EA00ED926020EDA22DECF22
:1049200070F0DDCF71F05350705F5450715BD890D0
:104930007131726F7031276E72C028F0010E296ECE
:10494000000E2A6E42EC6EF0010E5324536E000EE0
:104950005420546E010E0301CC27000ECD23CE232C
:10496000CF23A00E4B24D96E030E4C20DA6EDF50FD
:104970000001606FFF0E6025616F626BFF0E6223A6
:10498000636B62BF63076351646F61510301CC5D68
:10499000000162510301CD59000163510301CE5959
:1049A000000164510301CF59D8A04DD7D8904B34A2
:1049B000D96E4C34DA6E500ED926020EDA22DECFD2
:1049C00060F0DDCF61F0D8904B34D96E4C34DA6EA4
:1049D000000ED926020EDA22DECF62F0DDCF63F0C0
:1049E000D89000016331656F6231646F6051642556
:1049F000216E61516521226ED8904B34D96E4C34B2
:104A0000DA6E930ED926010EDA22DECF66F0DDCF04
:104A100067F0D8904B34D96E4C34DA6EA00ED9269C
:104A2000020EDA22DECF68F0DDCF69F0D89069316E
:104A30006B6F68316A6F66516A25236E67516B210F
:104A4000246ED8904B34D96E4C34DA6E000ED926D1
:104A5000020EDA22DECF6CF0DDCF6DF053506C5FCA
:104A600054506D5BD8906D316E6F6C31256E6EC099
:104A700026F0D8904B34D96E4C34DA6EA00ED9267D
:104A8000020EDA22DECF70F0DDCF71F05350705F8E
:104A90005450715BD8907131726F7031276E72C053
:104AA00028F0000E296E000E2A6E42EC6EF0000E09
:104AB0004B24D96E050E4C20DA6E040EDE18D8A4F5
:104AC000BBEF31F0B00E0001606FFF0E616F500E52
:104AD000626F030E636F6051622761516323D89048
:104AE0004B34D96E4C34DA6ED890D936DA366251FE
:104AF000D9266351DA22DECF01F0DECF02F0DECF1D
:104B000003F0DECF04F0B00E646FFF0E656F000E91
:104B1000666F030E676F6451662765516723D890EF
:104B20004B34D96E4C34DA6ED890D936DA366651B9
:104B3000D9266751DA22DECF05F0DECF06F0DECFD0
:104B400007F0DECF08F0F9EC6CF0D8B0BBEF31F035
:104B5000B00E606FFF0E616F500E626F030E636FD9
:104B60006051622761516323D8904B34D96E4C3425
:104B7000DA6ED890D936DA366251D9266351DA2204
:104B8000DECF15F0DECF16F0DECF17F0DECF18F057
:104B9000000E116E000E126E800E136E3F0E146E1C
:104BA0007DEC70F011C01DF012C01EF013C01FF09C
:104BB00014C020F0D8904B34D96E4C34DA6EA00E6D
:104BC000D926020EDA22DECF64F0DDCF65F0CF0EFB
:104BD0004B24D96E010E4C20DA6EDF500001666F57
:104BE0006651645F000E655B64C001F065C002F051
:104BF000036A046A000EEEEC68F001C019F002C00E
:104C00001AF003C01BF004C01CF01EEC61F019C0C8
:104C100032F01AC033F01BC034F01CC035F05CEC2D
:104C20006BF032C04FF033C050F0B00E0001606F37
:104C3000FF0E616F000E626F030E636F605162279B
:104C400061516323D8904B34D96E4C34DA6ED890CE
:104C5000D936DA366251D9266351DA22DECF15F021
:104C6000DECF16F0DECF17F0DECF18F0000E116E9B
:104C7000000E126E800E136E3F0E146E7DEC70F0FF
:104C800011C01DF012C01EF013C01FF014C020F0A0
:104C9000D8904B34D96E4C34DA6EA00ED926020E61
:104CA000DA22DECF64F0DDCF65F0CF0E4B24D96E73
:104CB000010E4C20DA6EDF500001666F6651645FB2
:104CC000000E655B64C001F065C002F0036A046A0F
:104CD000000EEEEC68F001C019F002C01AF003C03B
:104CE0001BF004C01CF01EEC61F019C032F01AC0B9
:104CF00033F01BC034F01CC035F05CEC6BF032C0FC
:104D000051F033C052F04BC001F04CC002F0000E25
:104D1000046E0C0E036EEFEC71F0240E0124D96EBC
:104D2000030E0220DA6EDF50216E4BC001F04CC042
:104D300002F0000E046E0C0E036EEFEC71F0250E07
:104D40000124D96E030E0220DA6EDF50226E4BC0B2
:104D500001F04CC002F0000E046E0C0E036EEFEC7E
:104D600071F0230E0124D96E030E0220DA6EDF509B
:104D700015EC72F04BC001F04CC002F0000E046E56
:104D80000C0E036EEFEC71F0240E0124D96E030EAD
:104D90000220DA6EDF50216E4BC001F04CC002F0F1
:104DA000000E046E0C0E036EEFEC71F0250E012464
:104DB000D96E030E0220DA6EDF50226E4BC001F076
:104DC0004CC002F0000E046E0C0E036EEFEC71F09E
:104DD000230E0124D96E030E0220DA6EDF5028EC78
:104DE00072F0000E016E000E026E800E036E3F0E1A
:104DF000046EB00E0001606FFF0E616F000E626FF7
:104E0000030E636F6051622761516323D8904B3466
:104E1000D96E4C34DA6ED890D936DA366251D9264A
:104E20006351DA22DECF05F0DECF06F0DECF07F0E9
:104E3000DECF08F0F4EC6AF0D8B0D1D1D8904B3482
:104E4000D96E4C34DA6E500ED926020EDA22DECF3D
:104E500021F0DDCF22F0D8904B34D96E4C34DA6E8D
:104E6000930ED926010EDA22DECF23F0DDCF24F017
:104E7000D8904B34D96E4C34DA6E000ED926020E1F
:104E8000DA22DECF60F0DDCF61F0D8904B34D96EFE
:104E90004C34DA6E500ED926020EDA22DECF62F0E2
:104EA000DDCF63F060516225256E61516321266E6E
:104EB000D8904B34D96E4C34DA6EA00ED926020E3F
:104EC000DA22DECF64F0DDCF65F0D8904B34D96EB6
:104ED0004C34DA6E930ED926010EDA22DECF66F05C
:104EE000DDCF67F064516625276E65516721286E16
:104EF000000E296E000E2A6E36EC6FF04BC001F0EA
:104F00004CC002F0000E046E0C0E036EEFEC71F05C
:104F10002A0E0124D96E030E0220DA6EDF50216EB4
:104F20004BC001F04CC002F0000E046E0C0E036E7C
:104F3000EFEC71F02B0E0124D96E030E0220DA6E15
:104F4000DF50226E4BC001F04CC002F0000E046E28
:104F50000C0E036EEFEC71F0290E0124D96E030ED6
:104F60000220DA6EDF5015EC72F0D8904B34D96E17
:104F70004C34DA6E500ED926020EDA22DECF60F003
:104F8000DDCF61F0D8904B34D96E4C34DA6E000E20
:104F9000D926020EDA22DECF62F0DDCF63F0D890A0
:104FA00000016331656F6231646FA00E4B24D96ECE
:104FB000030E4C20DA6EDF50666FD8906633665170
:104FC000645F000E655B60516425216E615165214F
:104FD000226ED8904B34D96E4C34DA6E930ED926AB
:104FE000010EDA22DECF23F0DDCF24F0D8904B344F
:104FF000D96E4C34DA6E500ED926020EDA22DECF8C
:1050000067F0DDCF68F0D8904B34D96E4C34DA6E4F
:10501000000ED926020EDA22DECF69F0DDCF6AF06B
:10502000D8906A316C6F69316B6FA00E4B24D96ECA
:10503000030E4C20DA6EDF506D6FD8906D336D51DA
:105040006B27000E6C2367516B25256E68516C2110
:10505000266ED8904B34D96E4C34DA6EA00ED92619
:10506000020EDA22DECF6EF0DDCF6FF0D8904B3437
:10507000D96E4C34DA6E930ED926010EDA22DECFC9
:1050800070F0DDCF71F06E517025276E6F51712178
:10509000286E000E296E010E2A6E36EC6FF04BC0A2
:1050A00001F04CC002F0000E046E0C0E036EEFEC2B
:1050B00071F0210E0124D96E030E0220DA6EDF504A
:1050C000216E4BC001F04CC002F0000E046E0C0EBD
:1050D000036EEFEC71F0220E0124D96E030E022054
:1050E000DA6EDF50226E4BC001F04CC002F0000EB1
:1050F000046E0C0E036EEFEC71F0200E0124D96EDD
:10510000030E0220DA6EDF5015EC72F0D8904B34AB
:10511000D96E4C34DA6E500ED926020EDA22DECF6A
:1051200021F0DDCF22F0D8904B34D96E4C34DA6EBA
:10513000930ED926010EDA22DECF60F0DDCF61F0CA
:105140004F5000016025236E50506121246ED8908D
:105150004B34D96E4C34DA6E000ED926020EDA22A8
:10516000DECF62F0DDCF63F0D8904B34D96E4C3493
:10517000DA6E500ED926020EDA22DECF64F0DDCFD1
:1051800065F062516425256E63516521266ED890C5
:105190004B34D96E4C34DA6E930ED926010EDA22D6
:1051A000DECF66F0DDCF67F0CF0E4B24D96E010E57
:1051B0004C20DA6EDF50686F696B66516827675163
:1051C00069234F506825276E50506921286E000EC4
:1051D000296E010E2A6E36EC6FF082EF31F04F50DF
:1051E000515C50505258D8B006D051504F5C4D6E63
:1051F0005250505805D04F50515C4D6E505052583F
:105200004E6ECF0E4B24D96E010E4C20DA6EDF505D
:10521000606F616B60514D5C61514E58D8A055D3A1
:10522000D8904B34D96E4C34DA6E500ED926020E1B
:10523000DA22DECF21F0DDCF22F0D8904B34D96EC8
:105240004C34DA6E930ED926010EDA22DECF60F0EE
:10525000DDCF61F051506025236E52506121246EE4
:10526000D8904B34D96E4C34DA6E500ED926020EDB
:10527000DA22DECF62F0DDCF63F0D8904B34D96E06
:105280004C34DA6E000ED926020EDA22DECF64F03C
:10529000DDCF65F0D8906531676F6431666FA00E21
:1052A0004B24D96E030E4C20DA6EDF50686FD89015
:1052B00068336851665F000E675B62516625256E34
:1052C00063516721266ED8904B34D96E4C34DA6E18
:1052D000930ED926010EDA22DECF69F0DDCF6AF017
:1052E000CF0E4B24D96E010E4C20DA6EDF506B6F5F
:1052F0006C6B69516B276A516C2351506B25276E7B
:1053000052506C21286E000E296E010E2A6E36EC6A
:105310006FF0D8904B34D96E4C34DA6E500ED926DB
:10532000020EDA22DECF60F0DDCF61F0D8904B3490
:10533000D96E4C34DA6E000ED926020EDA22DECF98
:1053400062F0DDCF63F0D89000016331656F6231A8
:10535000646FA00E4B24D96E030E4C20DA6EDF5022
:10536000666FD890663366516427000E65236051DE
:105370006425216E61516521226ED8904B34D96E1F
:105380004C34DA6E930ED926010EDA22DECF67F0A6
:10539000DDCF68F051506725236E52506821246E8E
:1053A000D8904B34D96E4C34DA6E000ED926020EEA
:1053B000DA22DECF69F0DDCF6AF0D8904B34D96EB7
:1053C0004C34DA6E500ED926020EDA22DECF6BF0A4
:1053D000DDCF6CF069516B25256E6A516C21266E0C
:1053E000D8904B34D96E4C34DA6E930ED926010E18
:1053F000DA22DECF6DF0DDCF6EF0CF0E4B24D96E0A
:10540000010E4C20DA6EDF506F6F706B6D516F279D
:105410006E51702351506F25276E52507021286EA7
:10542000000E296E010E2A6E36EC6FF04F50515C63
:1054300050505258D8B0C5D04BC001F04CC002F00B
:10544000000E046E0C0E036EEFEC71F02A0E0124B8
:10545000D96E030E0220DA6EDF50216E4BC001F0D0
:105460004CC002F0000E046E0C0E036EEFEC71F0F7
:105470002B0E0124D96E030E0220DA6EDF50226E4D
:105480004BC001F04CC002F0000E046E0C0E036E17
:10549000EFEC71F0290E0124D96E030E0220DA6EB2
:1054A000DF5015EC72F0D8904B34D96E4C34DA6E74
:1054B000500ED926020EDA22DECF60F0DDCF61F089
:1054C000D8904B34D96E4C34DA6E000ED926020EC9
:1054D000DA22DECF62F0DDCF63F0D89000016331D5
:1054E000656F6231646FA00E4B24D96E030E4C20A1
:1054F000DA6EDF50666FD89066336651645F000ED7
:10550000655B60516425216E61516521226ED890E2
:105510004B34D96E4C34DA6E930ED926010EDA2252
:10552000DECF23F0DDCF24F0D8904B34D96E4C344D
:10553000DA6E500ED926020EDA22DECF67F0DDCF0A
:1055400068F0D8904B34D96E4C34DA6E000ED92600
:10555000020EDA22DECF69F0DDCF6AF0D8906A3130
:105560006C6F69316B6FA00E4B24D96E030E4C200B
:10557000DA6EDF506D6FD8906D336D516B27000E72
:105580006C2367516B25256E68516C21266ED8906F
:105590004B34D96E4C34DA6E930ED926010EDA22D2
:1055A000DECF6EF0DDCF6FF04F506E25276E50507E
:1055B0006F21286E000E296E010E2A6E36EC6FF0F8
:1055C000E4D04BC001F04CC002F0000E046E0C0E93
:1055D000036EEFEC71F0270E0124D96E030E02204A
:1055E000DA6EDF50216E4BC001F04CC002F0000EAD
:1055F000046E0C0E036EEFEC71F0280E0124D96ED0
:10560000030E0220DA6EDF50226E4BC001F04CC058
:1056100002F0000E046E0C0E036EEFEC71F0260E1D
:105620000124D96E030E0220DA6EDF5015EC72F001
:10563000D8904B34D96E4C34DA6E500ED926020E07
:10564000DA22DECF60F0DDCF61F0D8904B34D96E36
:105650004C34DA6E000ED926020EDA22DECF62F06A
:10566000DDCF63F0D89000016331656F6231646F04
:10567000A00E4B24D96E030E4C20DA6EDF50666FFD
:10568000D89066336651645F000E655B6051642597
:10569000216E61516521226ED8904B34D96E4C3405
:1056A000DA6E930ED926010EDA22DECF67F0DDCF57
:1056B00068F0CF0E4B24D96E010E4C20DA6EDF500D
:1056C000696F6A6B6751692768516A234F50692572
:1056D000236E50506A21246ED8904B34D96E4C34CE
:1056E000DA6E500ED926020EDA22DECF6BF0DDCF55
:1056F0006CF0D8904B34D96E4C34DA6E000ED9264B
:10570000020EDA22DECF6DF0DDCF6EF0D8906E3172
:10571000706F6D316F6FA00E4B24D96E030E4C204D
:10572000DA6EDF50716FD890713371516F27000EB0
:1057300070236B516F25256E6C517021266ED890A9
:105740004B34D96E4C34DA6EA00ED926020EDA2212
:10575000DECF72F0DDCF73F0D8904B34D96E4C347D
:10576000DA6E930ED926010EDA22DECF74F0DDCF89
:1057700075F072517425276E73517521286E000ED5
:10578000296E010E2A6E36EC6FF04BC001F04CC052
:1057900002F0000E046E0C0E036EEFEC71F0210EA1
:1057A0000124D96E030E0220DA6EDF50216E4BC049
:1057B00001F04CC002F0000E046E0C0E036EEFEC14
:1057C00071F0220E0124D96E030E0220DA6EDF5032
:1057D000226E4BC001F04CC002F0000E046E0C0EA5
:1057E000036EEFEC71F0200E0124D96E030E02203F
:1057F000DA6EDF5015EC72F0D8904B34D96E4C3421
:10580000DA6E500ED926020EDA22DECF21F0DDCF7D
:1058100022F0D8904B34D96E4C34DA6E930ED926E0
:10582000010EDA22DECF60F0DDCF61F04F500001D3
:105830006025236E50506121246ED8904B34D96E70
:105840004C34DA6E000ED926020EDA22DECF62F078
:10585000DDCF63F0D8904B34D96E4C34DA6E500EF5
:10586000D926020EDA22DECF64F0DDCF65F0625178
:105870006425256E63516521266ED8904B34D96E10
:105880004C34DA6E930ED926010EDA22DECF66F0A2
:10589000DDCF67F0CF0E4B24D96E010E4C20DA6EAF
:1058A000DF50686F696B66516827675169234F50F5
:1058B0006825276E50506921286E000E296E010E52
:1058C0002A6E36EC6FF082EF31F04F50515C505041
:1058D0005258D8B072D2D8904B34D96E4C34DA6E5C
:1058E000500ED926020EDA22DECF21F0DDCF22F0D3
:1058F000D8904B34D96E4C34DA6E930ED926010E03
:10590000DA22DECF60F0DDCF61F051506025236EEA
:1059100052506121246ED8904B34D96E4C34DA6EDB
:10592000500ED926020EDA22DECF62F0DDCF63F010
:10593000D8904B34D96E4C34DA6E000ED926020E54
:10594000DA22DECF64F0DDCF65F0D8906531676F85
:105950006431666FA00E4B24D96E030E4C20DA6EB4
:10596000DF50686FD89068336851665F000E675BE0
:1059700062516625256E63516721266ED8904B349F
:10598000D96E4C34DA6E930ED926010EDA22DECFB0
:1059900069F0DDCF6AF05150692752506A234D50AB
:1059A0006925276E4E506A21286E000E296E010E61
:1059B0002A6E36EC6FF0D8904B34D96E4C34DA6ED8
:1059C000500ED926020EDA22DECF60F0DDCF61F074
:1059D000D8904B34D96E4C34DA6E000ED926020EB4
:1059E000DA22DECF62F0DDCF63F0D89000016331C0
:1059F000656F6231646FA00E4B24D96E030E4C208C
:105A0000DA6EDF50666FD890663366516427000EF9
:105A1000652360516425216E61516521226ED89005
:105A20004B34D96E4C34DA6E930ED926010EDA223D
:105A3000DECF67F0DDCF68F051506725236E5250FE
:105A40006821246ED8904B34D96E4C34DA6E000E37
:105A5000D926020EDA22DECF69F0DDCF6AF0D890C7
:105A60004B34D96E4C34DA6E500ED926020EDA223F
:105A7000DECF6BF0DDCF6CF069516B25256E6A517E
:105A80006C21266ED8904B34D96E4C34DA6E930E5E
:105A9000D926010EDA22DECF6DF0DDCF6EF0515047
:105AA0006D2752506E234D506D25276E4E506E213E
:105AB000286E000E296E010E2A6E36EC6FF04BC078
:105AC00001F04CC002F0000E046E0C0E036EEFEC01
:105AD00071F02A0E0124D96E030E0220DA6EDF5017
:105AE000216E4BC001F04CC002F0000E046E0C0E93
:105AF000036EEFEC71F02B0E0124D96E030E022021
:105B0000DA6EDF50226E4BC001F04CC002F0000E86
:105B1000046E0C0E036EEFEC71F0290E0124D96EA9
:105B2000030E0220DA6EDF5015EC72F0D8904B3481
:105B3000D96E4C34DA6E500ED926020EDA22DECF40
:105B400060F0DDCF61F0D8904B34D96E4C34DA6E12
:105B5000000ED926020EDA22DECF62F0DDCF63F02E
:105B6000D89000016331656F6231646FA00E4B24E1
:105B7000D96E030E4C20DA6EDF50666FD890663314
:105B80006651645F000E655B60516425216E615152
:105B90006521226ED8904B34D96E4C34DA6E930E58
:105BA000D926010EDA22DECF67F0DDCF68F0515042
:105BB0006725236E52506821246ED8904B34D96EDD
:105BC0004C34DA6E500ED926020EDA22DECF69F09E
:105BD000DDCF6AF0D8904B34D96E4C34DA6E000EBB
:105BE000D926020EDA22DECF6BF0DDCF6CF0D89032
:105BF0006C316E6F6B316D6FA00E4B24D96E030E3E
:105C00004C20DA6EDF506F6FD8906F336F516D2775
:105C1000000E6E2369516D25256E6A516E21266E28
:105C2000D8904B34D96E4C34DA6E930ED926010ECF
:105C3000DA22DECF70F0DDCF71F051507027525074
:105C400071234D507025276E4E507121286E000E25
:105C5000296E010E2A6E36EC6FF04BC001F04CC07D
:105C600002F0000E046E0C0E036EEFEC71F0210ECC
:105C70000124D96E030E0220DA6EDF50216E4BC074
:105C800001F04CC002F0000E046E0C0E036EEFEC3F
:105C900071F0220E0124D96E030E0220DA6EDF505D
:105CA000226E4BC001F04CC002F0000E046E0C0ED0
:105CB000036EEFEC71F0200E0124D96E030E02206A
:105CC000DA6EDF5015EC72F0D8904B34D96E4C344C
:105CD000DA6E500ED926020EDA22DECF21F0DDCFA9
:105CE00022F0D8904B34D96E4C34DA6E930ED9260C
:105CF000010EDA22DECF60F0DDCF61F0CF0E4B2453
:105D0000D96E010E4C20DA6EDF500001626F636BBA
:105D10004D50625F4E50635B605162276151632357
:105D20004F506225236E50506321246ED8904B341F
:105D3000D96E4C34DA6E000ED926020EDA22DECF8E
:105D400064F0DDCF65F0D8904B34D96E4C34DA6E08
:105D5000500ED926020EDA22DECF66F0DDCF67F0D4
:105D600064516625256E65516721266ED8904B34A7
:105D7000D96E4C34DA6E930ED926010EDA22DECFBC
:105D800068F0DDCF69F0CF0E4B24D96E010E4C20A8
:105D9000DA6EDF506A6F6B6B68516A2769516B234B
:105DA0004F506A25276E50506B21286E000E296EC9
:105DB000010E2A6E36EC6FF0A5D2D8904B34D96E16
:105DC0004C34DA6E500ED926020EDA22DECF21F0E4
:105DD000DDCF22F0D8904B34D96E4C34DA6E930E6E
:105DE000D926010EDA22DECF60F0DDCF61F0CF0ED2
:105DF0004B24D96E010E4C20DA6EDF50626F636B5C
:105E0000605162276151632351506225236E5250C5
:105E10006321246ED8904B34D96E4C34DA6E500E18
:105E2000D926020EDA22DECF64F0DDCF65F0D890FD
:105E30004B34D96E4C34DA6E000ED926020EDA22BB
:105E4000DECF66F0DDCF67F0D8906731696F6631DD
:105E5000686FA00E4B24D96E030E4C20DA6EDF5013
:105E60006A6FD8906A336A51685F000E695B64514B
:105E70006825256E65516921266ED8904B34D96E00
:105E80004C34DA6E930ED926010EDA22DECF6BF097
:105E9000DDCF6CF0CF0E4B24D96E010E4C20DA6EA4
:105EA000DF506D6F6E6B4D506D5F4E506E5B6B5182
:105EB0006D276C516E2351506D25276E52506E2107
:105EC000286E000E296E010E2A6E36EC6FF0D89007
:105ED0004B34D96E4C34DA6E500ED926020EDA22CB
:105EE000DECF60F0DDCF61F0D8904B34D96E4C340A
:105EF000DA6E000ED926020EDA22DECF62F0DDCF96
:105F000063F0D89000016331656F6231646FA00E59
:105F10004B24D96E030E4C20DA6EDF50666FD8909A
:105F2000663366516427000E652360516425216E37
:105F300061516521226ED8904B34D96E4C34DA6EA3
:105F4000930ED926010EDA22DECF67F0DDCF68F09E
:105F5000CF0E4B24D96E010E4C20DA6EDF50696FE4
:105F60006A6B4D50695F4E506A5B67516927685193
:105F70006A2351506925236E52506A21246ED890AD
:105F80004B34D96E4C34DA6E000ED926020EDA226A
:105F9000DECF6BF0DDCF6CF0D8904B34D96E4C3443
:105FA000DA6E500ED926020EDA22DECF6DF0DDCF8A
:105FB0006EF06B516D25256E6C516E21266ED8905A
:105FC0004B34D96E4C34DA6E930ED926010EDA2298
:105FD000DECF6FF0DDCF70F0CF0E4B24D96E010E07
:105FE0004C20DA6EDF50716F726B6F5171277051F8
:105FF000722351507125276E52507221286E000E67
:10600000296E010E2A6E36EC6FF04BC001F04CC0C9
:1060100002F0000E046E0C0E036EEFEC71F0270E12
:106020000124D96E030E0220DA6EDF50216E4BC0C0
:1060300001F04CC002F0000E046E0C0E036EEFEC8B
:1060400071F0280E0124D96E030E0220DA6EDF50A3
:10605000226E4BC001F04CC002F0000E046E0C0E1C
:10606000036EEFEC71F0260E0124D96E030E0220B0
:10607000DA6EDF5015EC72F0D8904B34D96E4C3498
:10608000DA6E500ED926020EDA22DECF60F0DDCFB6
:1060900061F0D8904B34D96E4C34DA6E000ED926AC
:1060A000020EDA22DECF62F0DDCF63F0D89000017D
:1060B0006331656F6231646FA00E4B24D96E030E9D
:1060C0004C20DA6EDF50666FD89066336651645F9D
:1060D000000E655B60516425216E61516521226E61
:1060E000D8904B34D96E4C34DA6E930ED926010E0B
:1060F000DA22DECF67F0DDCF68F0CF0E4B24D96E09
:10610000010E4C20DA6EDF50696F6A6B4D50695F8B
:106110004E506A5B6751692768516A23515069255F
:10612000236E52506A21246ED8904B34D96E4C3471
:10613000DA6E500ED926020EDA22DECF6BF0DDCFFA
:106140006CF0D8904B34D96E4C34DA6E000ED926F0
:10615000020EDA22DECF6DF0DDCF6EF0D8906E3118
:10616000706F6D316F6FA00E4B24D96E030E4C20F3
:10617000DA6EDF50716FD890713371516F27000E56
:1061800070236B516F25256E6C517021266ED8904F
:106190004B34D96E4C34DA6E930ED926010EDA22C6
:1061A000DECF72F0DDCF73F0CF0E4B24D96E010E2F
:1061B0004C20DA6EDF50746F756B72517427735117
:1061C000752351507425276E52507521286E000E8C
:1061D000296E010E2A6E36EC6FF04BC001F04CC0F8
:1061E00002F0000E046E0C0E036EEFEC71F0210E47
:1061F0000124D96E030E0220DA6EDF50216E4BC0EF
:1062000001F04CC002F0000E046E0C0E036EEFECB9
:1062100071F0220E0124D96E030E0220DA6EDF50D7
:10622000226E4BC001F04CC002F0000E046E0C0E4A
:10623000036EEFEC71F0200E0124D96E030E0220E4
:10624000DA6EDF5015EC72F0D8904B34D96E4C34C6
:10625000DA6E500ED926020EDA22DECF21F0DDCF23
:1062600022F0D8904B34D96E4C34DA6E930ED92686
:10627000010EDA22DECF60F0DDCF61F04F50000179
:106280006025236E50506121246ED8904B34D96E16
:106290004C34DA6E000ED926020EDA22DECF62F01E
:1062A000DDCF63F0D8904B34D96E4C34DA6E500E9B
:1062B000D926020EDA22DECF64F0DDCF65F062511E
:1062C0006425256E63516521266ED8904B34D96EB6
:1062D0004C34DA6E930ED926010EDA22DECF66F048
:1062E000DDCF67F04F506627505067234D5066252D
:1062F000276E4E506721286E000E296E010E2A6E01
:1063000036EC6FF0B00E0001606FFF0E616F500E43
:10631000626F030E636F6051622761516323D890EF
:106320004B34D96E4C34DA6ED890D936DA366251A5
:10633000D9266351DA22B00E646FFF0E656F000E2E
:10634000666F030E676F6451662765516723D890A7
:106350004B34E16E4C34E26ED890E136E236665151
:10636000E1266751E222DECFE6FFDECFE6FFDECF99
:10637000E6FFDECFE6FF000E4B24D96E050E4C2063
:10638000DA6E050EDE18D8A4F9EF3DF0B00E00016C
:10639000606FFF0E616F500E626F030E636F60518E
:1063A000622761516323D8904B34D96E4C34DA6E36
:1063B000D890D936DA366251D9266351DA22DECF47
:1063C00001F0DECF02F0DECF03F0DECF04F0B00E3E
:1063D000646FFF0E656F000E666F030E676F64518A
:1063E000662765516723D8904B34D96E4C34DA6EEA
:1063F000D890D936DA366651D9266751DA22DECFFF
:1064000005F0DECF06F0DECF07F0DECF08F0F9ECC6
:106410006CF0D8B0F9EF3DF0B00E606FFF0E616F19
:10642000500E626F030E636F6051622761516323E8
:10643000D8904B34D96E4C34DA6ED890D936DA36DF
:106440006251D9266351DA22DECF1DF0DECF1EF075
:10645000DECF1FF0DECF20F0D8904B34D96E4C3415
:10646000DA6E000ED926020EDA22DECF64F0DDCF1E
:1064700065F0CF0E4B24D96E010E4C20DA6EDF5042
:10648000666F6651645F000E655B64C001F065C0B5
:1064900002F0036A046A000EEEEC68F001C019F025
:1064A00002C01AF003C01BF004C01CF01EEC61F027
:1064B00019C032F01AC033F01BC034F01CC035F0E4
:1064C0005CEC6BF032C051F033C052F0B00E000102
:1064D000606FFF0E616F000E626F030E636F60519D
:1064E000622761516323D8904B34D96E4C34DA6EF5
:1064F000D890D936DA366251D9266351DA22DECF06
:106500001DF0DECF1EF0DECF1FF0DECF20F0D890E2
:106510004B34D96E4C34DA6E000ED926020EDA22D4
:10652000DECF64F0DDCF65F0CF0E4B24D96E010EC7
:106530004C20DA6EDF50666F6651645F000E655B5B
:1065400064C001F065C002F0036A046A000EEEEC5C
:1065500068F001C019F002C01AF003C01BF004C0BB
:106560001CF01EEC61F019C032F01AC033F01BC0F1
:1065700034F01CC035F05CEC6BF032C04FF033C02F
:1065800050F04BC001F04CC002F0000E046E0C0E37
:10659000036EEFEC71F0240E0124D96E030E02207D
:1065A000DA6EDF50216E4BC001F04CC002F0000EDD
:1065B000046E0C0E036EEFEC71F0250E0124D96E03
:1065C000030E0220DA6EDF50226E4BC001F04CC089
:1065D00002F0000E046E0C0E036EEFEC71F0230E51
:1065E0000124D96E030E0220DA6EDF5015EC72F032
:1065F0004BC001F04CC002F0000E046E0C0E036E96
:10660000EFEC71F0240E0124D96E030E0220DA6E35
:10661000DF50216E4BC001F04CC002F0000E046E42
:106620000C0E036EEFEC71F0250E0124D96E030EF3
:106630000220DA6EDF50226E4BC001F04CC002F037
:10664000000E046E0C0E036EEFEC71F0230E0124AD
:10665000D96E030E0220DA6EDF5028EC72F0000EC5
:10666000016E000E026E800E036E3F0E046EB00EC1
:106670000001606FFF0E616F000E626F030E636FAB
:106680006051622761516323D8904B34D96E4C34EA
:10669000DA6ED890D936DA366251D9266351DA22C9
:1066A000DECF05F0DECF06F0DECF07F0DECF08F05C
:1066B000F4EC6AF0D8B0D1D1D8904B34D96E4C34C8
:1066C000DA6E500ED926020EDA22DECF21F0DDCFAF
:1066D00022F0D8904B34D96E4C34DA6E930ED92612
:1066E000010EDA22DECF23F0DDCF24F0D8904B3438
:1066F000D96E4C34DA6E000ED926020EDA22DECFC5
:1067000060F0DDCF61F0D8904B34D96E4C34DA6E46
:10671000500ED926020EDA22DECF62F0DDCF63F012
:1067200060516225256E61516321266ED8904B34ED
:10673000D96E4C34DA6EA00ED926020EDA22DECFE4
:1067400064F0DDCF65F0D8904B34D96E4C34DA6EFE
:10675000930ED926010EDA22DECF66F0DDCF67F088
:1067600064516625276E65516721286E000E296EDB
:10677000000E2A6E36EC6FF04BC001F04CC002F0F8
:10678000000E046E0C0E036EEFEC71F02A0E012465
:10679000D96E030E0220DA6EDF50216E4BC001F07D
:1067A0004CC002F0000E046E0C0E036EEFEC71F0A4
:1067B0002B0E0124D96E030E0220DA6EDF50226EFA
:1067C0004BC001F04CC002F0000E046E0C0E036EC4
:1067D000EFEC71F0290E0124D96E030E0220DA6E5F
:1067E000DF5015EC72F0D8904B34D96E4C34DA6E21
:1067F000500ED926020EDA22DECF21F0DDCF22F0B4
:10680000D8904B34D96E4C34DA6E930ED926010EE3
:10681000DA22DECF60F0DDCF61F0D8904B34D96E54
:106820004C34DA6EA00ED926020EDA22DECF62F0E8
:10683000DDCF63F0D89000016331656F6231646F22
:10684000A00E4B24D96E030E4C20DA6EDF50666F1B
:10685000D89066336651645F000E655B60516425B5
:10686000236E61516521246ED8904B34D96E4C341F
:10687000DA6E000ED926020EDA22DECF67F0DDCF07
:1068800068F0D8904B34D96E4C34DA6E500ED9265D
:10689000020EDA22DECF69F0DDCF6AF0675169259A
:1068A000256E68516A21266ED8904B34D96E4C34CF
:1068B000DA6E930ED926010EDA22DECF6BF0DDCF31
:1068C0006CF0D8904B34D96E4C34DA6EA00ED926C9
:1068D000020EDA22DECF6DF0DDCF6EF0D8906E3191
:1068E000706F6D316F6FA00E4B24D96E030E4C206C
:1068F000DA6EDF50716FD890713371516F27000ECF
:1069000070236B516F25276E6C517021286E000E1D
:10691000296E010E2A6E36EC6FF04BC001F04CC0B0
:1069200002F0000E046E0C0E036EEFEC71F0210EFF
:106930000124D96E030E0220DA6EDF50216E4BC0A7
:1069400001F04CC002F0000E046E0C0E036EEFEC72
:1069500071F0220E0124D96E030E0220DA6EDF5090
:10696000226E4BC001F04CC002F0000E046E0C0E03
:10697000036EEFEC71F0200E0124D96E030E02209D
:10698000DA6EDF5015EC72F0D8904B34D96E4C347F
:10699000DA6E500ED926020EDA22DECF60F0DDCF9D
:1069A00061F0515000016025216E52506121226E2C
:1069B000D8904B34D96E4C34DA6E930ED926010E32
:1069C000DA22DECF23F0DDCF24F0D8904B34D96E1D
:1069D0004C34DA6E500ED926020EDA22DECF62F087
:1069E000DDCF63F0CF0E4B24D96E010E4C20DA6E52
:1069F000DF50646F656B62516427635165235150AA
:106A00006425256E52506521266ED8904B34D96E80
:106A10004C34DA6EA00ED926020EDA22DECF66F0F2
:106A2000DDCF67F0D8904B34D96E4C34DA6E930ECC
:106A3000D926010EDA22DECF68F0DDCF69F066518B
:106A40006825276E67516921286E000E296E010E98
:106A50002A6E36EC6FF0C0EF3DF051504F5C525053
:106A60005058D8B006D04F50515C4D6E50505258CF
:106A700005D051504F5C4D6E525050584E6ECF0E57
:106A80004B24D96E010E4C20DA6EDF50606F616BC3
:106A900060514D5C61514E58D8A055D3D8904B34BD
:106AA000D96E4C34DA6E500ED926020EDA22DECFC1
:106AB00060F0DDCF61F04F506025216E50506121B4
:106AC000226ED8904B34D96E4C34DA6E930ED926A0
:106AD000010EDA22DECF23F0DDCF24F0D8904B3444
:106AE000D96E4C34DA6E500ED926020EDA22DECF81
:106AF00062F0DDCF63F0CF0E4B24D96E010E4C2037
:106B0000DA6EDF50646F656B6251642763516523F1
:106B10004F506425256E50506521266ED8904B3419
:106B2000D96E4C34DA6E930ED926010EDA22DECFFE
:106B300066F0DDCF67F0D8904B34D96E4C34DA6E06
:106B4000A00ED926020EDA22DECF68F0DDCF69F082
:106B5000D89069316B6F68316A6FA00E4B24D96E83
:106B6000030E4C20DA6EDF506C6FD8906C336C5192
:106B70006A5F000E6B5B66516A25276E67516B2159
:106B8000286E000E296E010E2A6E36EC6FF0D8903A
:106B90004B34D96E4C34DA6E500ED926020EDA22FE
:106BA000DECF60F0DDCF61F04F5000016025216E37
:106BB00050506121226ED8904B34D96E4C34DA6E2D
:106BC000930ED926010EDA22DECF62F0DDCF63F01C
:106BD000D8904B34D96E4C34DA6EA00ED926020E02
:106BE000DA22DECF64F0DDCF65F0D8906531676FD3
:106BF0006431666FA00E4B24D96E030E4C20DA6E02
:106C0000DF50686FD890683368516627000E67239D
:106C100062516625236E63516721246ED8904B34F0
:106C2000D96E4C34DA6E500ED926020EDA22DECF3F
:106C300069F0DDCF6AF0CF0E4B24D96E010E4C20E7
:106C4000DA6EDF506B6F6C6B69516B276A516C2386
:106C50004F506B25256E50506C21266ED8904B34CA
:106C6000D96E4C34DA6EA00ED926020EDA22DECFAF
:106C70006DF0DDCF6EF0D8904B34D96E4C34DA6EB7
:106C8000930ED926010EDA22DECF6FF0DDCF70F041
:106C90006D516F25276E6E517021286E000E296E82
:106CA000010E2A6E36EC6FF051504F5C5250505826
:106CB000D8B0C5D04BC001F04CC002F0000E046E3D
:106CC0000C0E036EEFEC71F0270E0124D96E030E4B
:106CD0000220DA6EDF50216E4BC001F04CC002F092
:106CE000000E046E0C0E036EEFEC71F0280E012402
:106CF000D96E030E0220DA6EDF50226E4BC001F017
:106D00004CC002F0000E046E0C0E036EEFEC71F03E
:106D1000260E0124D96E030E0220DA6EDF5015EC28
:106D200072F0D8904B34D96E4C34DA6E500ED926AE
:106D3000020EDA22DECF21F0DDCF22F0D8904B34E4
:106D4000D96E4C34DA6E930ED926010EDA22DECFDC
:106D500060F0DDCF61F0D8904B34D96E4C34DA6EF0
:106D6000A00ED926020EDA22DECF62F0DDCF63F06C
:106D7000D89000016331656F6231646FA00E4B24BF
:106D8000D96E030E4C20DA6EDF50666FD8906633F2
:106D90006651645F000E655B60516425236E61512E
:106DA0006521246ED8904B34D96E4C34DA6E500E77
:106DB000D926020EDA22DECF67F0DDCF68F051501F
:106DC0006725256E52506821266ED8904B34D96EB7
:106DD0004C34DA6E930ED926010EDA22DECF69F03A
:106DE000DDCF6AF0D8904B34D96E4C34DA6EA00EF9
:106DF000D926020EDA22DECF6BF0DDCF6CF0D89010
:106E00006C316E6F6B316D6FA00E4B24D96E030E1B
:106E10004C20DA6EDF506F6FD8906F336F516D2753
:106E2000000E6E2369516D25276E6A516E21286E02
:106E3000000E296E010E2A6E36EC6FF0E4D04BC0C6
:106E400001F04CC002F0000E046E0C0E036EEFEC6D
:106E500071F02A0E0124D96E030E0220DA6EDF5083
:106E6000216E4BC001F04CC002F0000E046E0C0EFF
:106E7000036EEFEC71F02B0E0124D96E030E02208D
:106E8000DA6EDF50226E4BC001F04CC002F0000EF3
:106E9000046E0C0E036EEFEC71F0290E0124D96E16
:106EA000030E0220DA6EDF5015EC72F0D8904B34EE
:106EB000D96E4C34DA6E500ED926020EDA22DECFAD
:106EC00060F0DDCF61F0CF0E4B24D96E010E4C2067
:106ED000DA6EDF500001626F636B605162276151AF
:106EE000632351506225216E52506321226ED89047
:106EF0004B34D96E4C34DA6E930ED926010EDA2259
:106F0000DECF64F0DDCF65F0D8904B34D96E4C34D1
:106F1000DA6EA00ED926020EDA22DECF66F0DDCFC1
:106F200067F0D8906731696F6631686FA00E4B24A7
:106F3000D96E030E4C20DA6EDF506A6FD8906A3338
:106F40006A51685F000E695B64516825236E655164
:106F50006921246ED8904B34D96E4C34DA6E000E11
:106F6000D926020EDA22DECF6BF0DDCF6CF0D8909E
:106F70004B34D96E4C34DA6E500ED926020EDA221A
:106F8000DECF6DF0DDCF6EF06B516D25256E6C514F
:106F90006E21266ED8904B34D96E4C34DA6E930E37
:106FA000D926010EDA22DECF6FF0DDCF70F0D89057
:106FB0004B34D96E4C34DA6EA00ED926020EDA228A
:106FC000DECF71F0DDCF72F0D8907231746F713115
:106FD000736FA00E4B24D96E030E4C20DA6EDF5077
:106FE000756FD890753375517327000E74236F51E8
:106FF0007325276E70517421286E000E296E010EC4
:107000002A6E36EC6FF04BC001F04CC002F0000E5F
:10701000046E0C0E036EEFEC71F0210E0124D96E9C
:10702000030E0220DA6EDF50216E4BC001F04CC01F
:1070300002F0000E046E0C0E036EEFEC71F0220EE7
:107040000124D96E030E0220DA6EDF50226E4BC08F
:1070500001F04CC002F0000E046E0C0E036EEFEC5B
:1070600071F0200E0124D96E030E0220DA6EDF507B
:1070700015EC72F0D8904B34D96E4C34DA6E500E59
:10708000D926020EDA22DECF60F0DDCF61F051505A
:1070900000016025216E52506121226ED8904B3440
:1070A000D96E4C34DA6E930ED926010EDA22DECF79
:1070B00023F0DDCF24F0D8904B34D96E4C34DA6E07
:1070C000500ED926020EDA22DECF62F0DDCF63F059
:1070D000CF0E4B24D96E010E4C20DA6EDF50646F58
:1070E000656B625164276351652351506425256E99
:1070F00052506521266ED8904B34D96E4C34DA6EDE
:10710000A00ED926020EDA22DECF66F0DDCF67F0C0
:10711000D8904B34D96E4C34DA6E930ED926010ECA
:10712000DA22DECF68F0DDCF69F066516825276E80
:1071300067516921286E000E296E010E2A6E36EC09
:107140006FF0C0EF3DF051504F5C52505058D8B0E6
:1071500072D2D8904B34D96E4C34DA6E500ED92698
:10716000020EDA22DECF60F0DDCF61F04F506025F5
:10717000216E50506121226ED8904B34D96E4C3420
:10718000DA6E930ED926010EDA22DECF23F0DDCFA0
:1071900024F0D8904B34D96E4C34DA6E500ED92688
:1071A000020EDA22DECF62F0DDCF63F04F506227AD
:1071B000505063234D506225256E4E506321266E3C
:1071C000D8904B34D96E4C34DA6E930ED926010E1A
:1071D000DA22DECF64F0DDCF65F0D8904B34D96E83
:1071E0004C34DA6EA00ED926020EDA22DECF66F01B
:1071F000DDCF67F0D8906731696F6631686FA00E98
:107200004B24D96E030E4C20DA6EDF506A6FD89093
:107210006A336A51685F000E695B64516825276EA6
:1072200065516921286E000E296E010E2A6E36EC1A
:107230006FF0D8904B34D96E4C34DA6E500ED9269C
:10724000020EDA22DECF60F0DDCF61F04F50000198
:107250006025216E50506121226ED8904B34D96E3A
:107260004C34DA6E930ED926010EDA22DECF62F0AC
:10727000DDCF63F0D8904B34D96E4C34DA6EA00E6B
:10728000D926020EDA22DECF64F0DDCF65F0D89089
:107290006531676F6431666FA00E4B24D96E030EA3
:1072A0004C20DA6EDF50686FD890683368516627DB
:1072B000000E672362516625236E63516721246E99
:1072C000D8904B34D96E4C34DA6E500ED926020E5B
:1072D000DA22DECF69F0DDCF6AF04F5069275050D7
:1072E0006A234D506925256E4E506A21266ED8902E
:1072F0004B34D96E4C34DA6EA00ED926020EDA2247
:10730000DECF6BF0DDCF6CF0D8904B34D96E4C34BF
:10731000DA6E930ED926010EDA22DECF6DF0DDCFC4
:107320006EF06B516D25276E6C516E21286E000E2C
:10733000296E010E2A6E36EC6FF04BC001F04CC086
:1073400002F0000E046E0C0E036EEFEC71F0270ECF
:107350000124D96E030E0220DA6EDF50216E4BC07D
:1073600001F04CC002F0000E046E0C0E036EEFEC48
:1073700071F0280E0124D96E030E0220DA6EDF5060
:10738000226E4BC001F04CC002F0000E046E0C0ED9
:10739000036EEFEC71F0260E0124D96E030E02206D
:1073A000DA6EDF5015EC72F0D8904B34D96E4C3455
:1073B000DA6E500ED926020EDA22DECF60F0DDCF73
:1073C00061F04F5000016025216E50506121226E06
:1073D000D8904B34D96E4C34DA6E930ED926010E08
:1073E000DA22DECF62F0DDCF63F0D8904B34D96E75
:1073F0004C34DA6EA00ED926020EDA22DECF64F00B
:10740000DDCF65F0D8906531676F6431666FA00E8F
:107410004B24D96E030E4C20DA6EDF50686FD89083
:1074200068336851665F000E675B62516625236EA4
:1074300063516721246ED8904B34D96E4C34DA6E88
:10744000500ED926020EDA22DECF69F0DDCF6AF0C7
:107450004F50692750506A234D506925256E4E5074
:107460006A21266ED8904B34D96E4C34DA6E930E66
:10747000D926010EDA22DECF6BF0DDCF6CF0D8908A
:107480004B34D96E4C34DA6EA00ED926020EDA22B5
:10749000DECF6DF0DDCF6EF0D8906E31706F6D3154
:1074A0006F6FA00E4B24D96E030E4C20DA6EDF50A6
:1074B000716FD890713371516F27000E70236B512B
:1074C0006F25276E6C517021286E000E296E010EFB
:1074D0002A6E36EC6FF04BC001F04CC002F0000E8B
:1074E000046E0C0E036EEFEC71F0210E0124D96EC8
:1074F000030E0220DA6EDF50216E4BC001F04CC04B
:1075000002F0000E046E0C0E036EEFEC71F0220E12
:107510000124D96E030E0220DA6EDF50226E4BC0BA
:1075200001F04CC002F0000E046E0C0E036EEFEC86
:1075300071F0200E0124D96E030E0220DA6EDF50A6
:1075400015EC72F0D8904B34D96E4C34DA6E500E84
:10755000D926020EDA22DECF60F0DDCF61F0CF0E49
:107560004B24D96E010E4C20DA6EDF500001626FA1
:10757000636B4D50625F4E50635B60516227615197
:10758000632351506225216E52506321226ED890A0
:107590004B34D96E4C34DA6E930ED926010EDA22B2
:1075A000DECF23F0DDCF24F0D8904B34D96E4C34AD
:1075B000DA6E500ED926020EDA22DECF64F0DDCF6D
:1075C00065F0CF0E4B24D96E010E4C20DA6EDF50E1
:1075D000666F676B64516627655167235150662556
:1075E000256E52506721266ED8904B34D96E4C349C
:1075F000DA6EA00ED926020EDA22DECF68F0DDCFD9
:1076000069F0D8904B34D96E4C34DA6E930ED9268B
:10761000010EDA22DECF6AF0DDCF6BF068516A2509
:10762000276E69516B21286E000E296E010E2A6E9D
:1076300036EC6FF0A5D2D8904B34D96E4C34DA6E5C
:10764000500ED926020EDA22DECF60F0DDCF61F0D7
:10765000CF0E4B24D96E010E4C20DA6EDF50626FD4
:10766000636B60516227615163234F506225216E25
:1076700050506321226ED8904B34D96E4C34DA6E60
:10768000930ED926010EDA22DECF23F0DDCF24F0CF
:10769000D8904B34D96E4C34DA6E500ED926020E87
:1076A000DA22DECF64F0DDCF65F0CF0E4B24D96E49
:1076B000010E4C20DA6EDF50666F676B4D50665FCF
:1076C0004E50675B64516627655167234F506625AE
:1076D000256E50506721266ED8904B34D96E4C34AD
:1076E000DA6E930ED926010EDA22DECF68F0DDCFF6
:1076F00069F0D8904B34D96E4C34DA6EA00ED9268E
:10770000020EDA22DECF6AF0DDCF6BF0D8906B315B
:107710006D6F6A316C6FA00E4B24D96E030E4C2036
:10772000DA6EDF506E6FD8906E336E516C5F000E64
:107730006D5B68516C25276E69516D21286E000EB6
:10774000296E010E2A6E36EC6FF0D8904B34D96E4C
:107750004C34DA6E500ED926020EDA22DECF60F0FB
:10776000DDCF61F0CF0E4B24D96E010E4C20DA6EC6
:10777000DF500001626F636B4D50625F4E50635B80
:1077800060516227615163234F506225216E505032
:107790006321226ED8904B34D96E4C34DA6E930E3E
:1077A000D926010EDA22DECF64F0DDCF65F0D89065
:1077B0004B34D96E4C34DA6EA00ED926020EDA2282
:1077C000DECF66F0DDCF67F0D8906731696F663144
:1077D000686FA00E4B24D96E030E4C20DA6EDF507A
:1077E0006A6FD8906A336A516827000E6923645122
:1077F0006825236E65516921246ED8904B34D96E6B
:107800004C34DA6E500ED926020EDA22DECF6BF03F
:10781000DDCF6CF0CF0E4B24D96E010E4C20DA6E0A
:10782000DF506D6F6E6B6B516D276C516E234F5037
:107830006D25256E50506E21266ED8904B34D96E32
:107840004C34DA6EA00ED926020EDA22DECF6FF0AB
:10785000DDCF70F0D8904B34D96E4C34DA6E930E85
:10786000D926010EDA22DECF71F0DDCF72F06F5132
:107870007125276E70517221286E000E296E010E3F
:107880002A6E36EC6FF04BC001F04CC002F0000ED7
:10789000046E0C0E036EEFEC71F02A0E0124D96E0B
:1078A000030E0220DA6EDF50216E4BC001F04CC097
:1078B00002F0000E046E0C0E036EEFEC71F02B0E56
:1078C0000124D96E030E0220DA6EDF50226E4BC007
:1078D00001F04CC002F0000E046E0C0E036EEFECD3
:1078E00071F0290E0124D96E030E0220DA6EDF50EA
:1078F00015EC72F0D8904B34D96E4C34DA6E500ED1
:10790000D926020EDA22DECF60F0DDCF61F0CF0E95
:107910004B24D96E010E4C20DA6EDF500001626FED
:10792000636B4D50625F4E50635B605162276151E3
:1079300063234F506225216E50506321226ED890F0
:107940004B34D96E4C34DA6E930ED926010EDA22FE
:10795000DECF64F0DDCF65F0D8904B34D96E4C3477
:10796000DA6EA00ED926020EDA22DECF66F0DDCF67
:1079700067F0D8906731696F6631686FA00E4B244D
:10798000D96E030E4C20DA6EDF506A6FD8906A33DE
:107990006A51685F000E695B64516825236E65510A
:1079A0006921246ED8904B34D96E4C34DA6E500E67
:1079B000D926020EDA22DECF6BF0DDCF6CF0CF0ECF
:1079C0004B24D96E010E4C20DA6EDF506D6F6E6B5A
:1079D0006B516D276C516E234F506D25256E5050A5
:1079E0006E21266ED8904B34D96E4C34DA6E930EDD
:1079F000D926010EDA22DECF6FF0DDCF70F0D890FD
:107A00004B34D96E4C34DA6EA00ED926020EDA222F
:107A1000DECF71F0DDCF72F0D8907231746F7131BA
:107A2000736FA00E4B24D96E030E4C20DA6EDF501C
:107A3000756FD890753375517327000E74236F518D
:107A40007325276E70517421286E000E296E010E69
:107A50002A6E36EC6FF04BC001F04CC002F0000E05
:107A6000046E0C0E036EEFEC71F0210E0124D96E42
:107A7000030E0220DA6EDF50216E4BC001F04CC0C5
:107A800002F0000E046E0C0E036EEFEC71F0220E8D
:107A90000124D96E030E0220DA6EDF50226E4BC035
:107AA00001F04CC002F0000E046E0C0E036EEFEC01
:107AB00071F0200E0124D96E030E0220DA6EDF5021
:107AC00015EC72F0D8904B34D96E4C34DA6E500EFF
:107AD000D926020EDA22DECF60F0DDCF61F0515000
