:1020000007EF10F0FFFFFFFF5F825F92110013EFF9
:1020100066F00003090E0B1010030606080B0307F9
:1020200003070B070B0B0C0B0B0B0B0B03030C0C1D
:102030000C0D16110E0F0E0D0C100D030B0E0C11C6
:102040000D100D110E0E0D0D11170E0F0E060706B9
:102050000C0E060C0C0B0C0B080C0B03060A0311E0
:102060000B0D0C0C070B070B0B130B0D0A070307CB
:102070000C00000000000000000000000000000054
:102080000000000000000000000000000000000050
:102090000000000000000000000000000000000040
:1020A0000000084172694232342E62696E004C6150
:1020B000796F7574002022223A003B0A007D0A00E5
:1020C00022002C007B0000FF000E636F000E626F89
:1020D000000E676F000E666F3C503D10D8B404EFE1
:1020E00018F03C50EA5D3D50EB59D8A004EF18F0D1
:1020F000FF0E3C243C6EFF0E3D203D6E3CC001F0C7
:102100003DC002F0000E046E090E036EE2EC6FF0AB
:102110003D0E0124D96E060E0220DA6EDF501F6ECE
:102120003CC001F03DC002F0000E046E090E036ECB
:10213000E2EC6FF03E0E0124D96E060E0220DA6E3C
:10214000DF50206E3CC001F03DC002F0000E046E76
:10215000090E036EE2EC6FF03C0E0124D96E060E00
:102160000220DA6EDF5008EC70F03CC001F03DC098
:1021700002F0000E046E090E036EE2EC6FF0400EEA
:102180000124D96E060E0220DA6EDF501F6E3CC0AD
:1021900001F03DC002F0000E046E090E036EE2EC89
:1021A0006FF0410E0124D96E060E0220DA6EDF5068
:1021B000206E3CC001F03DC002F0000E046E090E1E
:1021C000036EE2EC6FF03F0E0124D96E060E022082
:1021D000DA6EDF501BEC70F0500E3C24D96E040E0A
:1021E0003D20DA6E500E3C24D96E040E3D20DA6E8E
:1021F000DE04D8A481D1000E0001676F000E666F67
:10220000930E3C24D96E010E3D20DA6EDF50D8A427
:1022100038D03CC001F03DC002F0000E046E090E43
:10222000036EE2EC6FF0400E0124D96E060E022020
:10223000DA6EDF501F6E3CC001F03DC002F0000EB0
:10224000046E090E036EE2EC6FF0410E0124D96EAC
:10225000060E0220DA6EDF50206E3CC001F03DC059
:1022600002F0000E046E090E036EE2EC6FF03F0EFA
:102270000124D96E060E0220DA6EDF5008EC70F0F1
:10228000C6D0930E3C24D96E010E3D20DA6E010EAD
:10229000DF64BDD0930E3C24D96E010E3D20DA6E72
:1022A000DF503E6ED8903E323E503F6A406A3F5CFF
:1022B000666F4050D8A04004676F000E0201F86FAF
:1022C000000EF96F000EFA6F000EFB6F83D0D890EE
:1022D0003C34D96E3D34DA6E000ED926020EDA2275
:1022E000DECF3EF0DDCF3FF0000166513E241F6E91
:1022F00067513F20206ED8903C34D96E3D34DA6E61
:10230000500ED926020EDA22DECF40F0DDCF41F0AA
:1023100066514024216E67514120226ED8903C3492
:10232000D96E3D34DA6E000ED926030EDA22DECFE6
:1023300042F0DDCF43F0D8903C34D96E3D34DA6EB4
:10234000000ED926020EDA22DECF44F0DDCF45F0B2
:102350006651445E6751455A42504424236E4350AF
:102360004520246ED8903C34D96E3D34DA6EA00EF0
:10237000D926020EDA22DECF46F0DDCF47F0D89024
:102380003C34D96E3D34DA6E500ED926020EDA2274
:10239000DECF48F0DDCF49F06651485E6751495ABB
:1023A00046504824256E47504920266E010E276E60
:1023B000000E286E1CEC6DF0010E00016625666FA4
:1023C000000E6721676F010E0201F827000EF92346
:1023D000FA23FB23930E3C24D96E010E3D20DA6EC6
:1023E000DF503E6EFF0E3E243F6E406AFF0E4022DD
:1023F000416A40BE41064150426E3F50F85D405038
:10240000F9594150FA594250FB59D8A060D7D89099
:102410003C34D96E3D34DA6E000ED926020EDA2233
:10242000DECF3EF0DDCF3FF0000166513E241F6E4F
:1024300067513F20206ED8903C34D96E3D34DA6E1F
:10244000500ED926020EDA22DECF40F0DDCF41F069
:1024500066514024216E67514120226ED8903C3451
:10246000D96E3D34DA6E000ED926030EDA22DECFA5
:1024700042F0DDCF43F0D8903C34D96E3D34DA6E73
:10248000000ED926020EDA22DECF44F0DDCF45F071
:102490006651445E6751455A42504424236E43506E
:1024A0004520246ED8903C34D96E3D34DA6EA00EAF
:1024B000D926020EDA22DECF46F0DDCF47F0D890E3
:1024C0003C34D96E3D34DA6E500ED926020EDA2233
:1024D000DECF48F0DDCF49F06651485E6751495A7A
:1024E00046504824256E47504920266E000E276E20
:1024F000000E286E1CEC6DF0500E3C24D96E040EBC
:102500003D20DA6E020EDE18D8A4B7D1000E00010D
:10251000676F000E666F930E3C24D96E010E3D204E
:10252000DA6EDF50D8A438D03CC001F03DC002F0D4
:10253000000E046E090E036EE2EC6FF0400E0124F3
:10254000D96E060E0220DA6EDF501F6E3CC001F01D
:102550003DC002F0000E046E090E036EE2EC6FF057
:10256000410E0124D96E060E0220DA6EDF50206E75
:102570003CC001F03DC002F0000E046E090E036E77
:10258000E2EC6FF03F0E0124D96E060E0220DA6EE7
:10259000DF5008EC70F0E1D0930E3C24D96E010EB0
:1025A0003D20DA6E010EDF64D8D0930E3C24D96E44
:1025B000010E3D20DA6EDF503E6ED8903E323E5026
:1025C0003F6A406A3F5C666F4050D8A04004676F26
:1025D000000E0201F46F000EF56F000EF66F000E94
:1025E000F76F9ED0D8903C34D96E3D34DA6E000E31
:1025F000D926020EDA22DECF3EF0DDCF3FF0000119
:1026000066513E241F6E67513F20206ED8903C34A7
:10261000D96E3D34DA6E500ED926020EDA22DECFA4
:1026200040F0DDCF41F066514024216E67514120DA
:10263000226ED8903C34D96E3D34DA6E000ED92625
:10264000030EDA22DECF42F0DDCF43F0D8903C34E7
:10265000D96E3D34DA6E000ED926020EDA22DECFB4
:1026600044F0DDCF45F06651445E6751455A425013
:102670004424236E43504520246ED8903C34D96EB8
:102680003D34DA6EA00ED926020EDA22DECF46F0F5
:10269000DDCF47F0D8903C34D96E3D34DA6E500E21
:1026A000D926020EDA22DECF48F0DDCF49F066519E
:1026B000485E6751495A46504824256E4750492084
:1026C000266ED8903C34D96E3D34DA6EA00ED926F1
:1026D000020EDA22DECF4AF0DDCF4BF066514A5EC1
:1026E00067514B5AD8904B324A32D8904B324A32CB
:1026F0004AC027F04BC028F0010E296E000E2A6E4A
:10270000BCEC6CF0010E00016625666F000E6721BF
:10271000676F010E0201F427000EF523F623F7235D
:10272000930E3C24D96E010E3D20DA6EDF503E6ED2
:10273000FF0E3E243F6E406AFF0E4022416A40BEBB
:1027400041064150426E3F50F45D4050F5594150B2
:10275000F6594250F759D8A045D7D8903C34D96E95
:102760003D34DA6E000ED926020EDA22DECF3EF0BC
:10277000DDCF3FF0000166513E241F6E67513F20C0
:10278000206ED8903C34D96E3D34DA6E500ED92686
:10279000020EDA22DECF40F0DDCF41F06651402458
:1027A000216E67514120226ED8903C34D96E3D3461
:1027B000DA6E000ED926030EDA22DECF42F0DDCF2C
:1027C00043F0D8903C34D96E3D34DA6E000ED926F1
:1027D000020EDA22DECF44F0DDCF45F06651445ED2
:1027E0006751455A42504424236E43504520246E7D
:1027F000D8903C34D96E3D34DA6EA00ED926020E44
:10280000DA22DECF46F0DDCF47F0D8903C34D96EE7
:102810003D34DA6E500ED926020EDA22DECF48F0B1
:10282000DDCF49F06651485E6751495A4650482409
:10283000256E47504920266ED8903C34D96E3D34E1
:10284000DA6EA00ED926020EDA22DECF4AF0DDCFF4
:102850004BF066514A5E67514B5AD8904B324A3220
:10286000D8904B324A324AC027F04BC028F0000EB5
:10287000296E000E2A6EBCEC6CF0500E3C24D96E12
:10288000040E3D20DA6E030EDE18D8A499D1000E96
:102890000001676F000E666F930E3C24D96E010E27
:1028A0003D20DA6EDF50D8A438D03CC001F03DC0E6
:1028B00002F0000E046E090E036EE2EC6FF0400EA3
:1028C0000124D96E060E0220DA6EDF501F6E3CC066
:1028D00001F03DC002F0000E046E090E036EE2EC42
:1028E0006FF0410E0124D96E060E0220DA6EDF5021
:1028F000206E3CC001F03DC002F0000E046E090ED7
:10290000036EE2EC6FF03F0E0124D96E060E02203A
:10291000DA6EDF5008EC70F0D2D0930E3C24D96E02
:10292000010E3D20DA6E010EDF64C9D0930E3C2407
:10293000D96E010E3D20DA6EDF503E6ED8903E32E9
:102940003E503F6A406A3F5C666F4050D8A04004EA
:10295000676F000E0201F06F000EF16F000EF26F54
:10296000000EF36F8FD0D8903C34D96E3D34DA6EC0
:10297000000ED926020EDA22DECF3EF0DDCF3FF088
:10298000D8903C34D96E3D34DA6E000ED926030E51
:10299000DA22DECF40F0DDCF41F0D8904130436EF7
:1029A0004030426E3E5042241F6E3F504320206E06
:1029B000D8903C34D96E3D34DA6E500ED926020ED2
:1029C000DA22DECF44F0DDCF45F0D8903C34D96E2A
:1029D0003D34DA6EA00ED926020EDA22DECF46F0A2
:1029E000DDCF47F0D8904730496E4630486E4450AE
:1029F0004824216E45504920226ED8903C34D96E2F
:102A00003D34DA6E000ED926030EDA22DECF4AF00C
:102A1000DDCF4BF0000166514A5E67514B5AD890AA
:102A20004B304C6E4A30236E4CC024F0D8903C346E
:102A3000D96E3D34DA6EA00ED926020EDA22DECF30
:102A40004EF0DDCF4FF066514E5E67514F5AD89031
:102A50004F30506E4E30256E50C026F0010E276E5E
:102A6000000E286E23EC6CF0010E00016625666FE7
:102A7000000E6721676F010E0201F027000EF1239F
:102A8000F223F323930E3C24D96E010E3D20DA6E1F
:102A9000DF503E6EFF0E3E243F6E406AFF0E402226
:102AA000416A40BE41064150426E3F50F05D405089
:102AB000F1594150F2594250F359D8A054D7D89007
:102AC0003C34D96E3D34DA6E000ED926020EDA227D
:102AD000DECF3EF0DDCF3FF0D8903C34D96E3D34B0
:102AE000DA6E000ED926030EDA22DECF40F0DDCFFB
:102AF00041F0D8904130436E4030426E3E50422407
:102B00001F6E3F504320206ED8903C34D96E3D3428
:102B1000DA6E500ED926020EDA22DECF44F0DDCF77
:102B200045F0D8903C34D96E3D34DA6EA00ED926EB
:102B3000020EDA22DECF46F0DDCF47F0D8904730E4
:102B4000496E4630486E44504824216E4550492015
:102B5000226ED8903C34D96E3D34DA6E000ED92600
:102B6000030EDA22DECF4AF0DDCF4BF000016651D2
:102B70004A5E67514B5AD8904B304C6E4A30236EA8
:102B80004CC024F0D8903C34D96E3D34DA6EA00E9F
:102B9000D926020EDA22DECF4EF0DDCF4FF066519D
:102BA0004E5E67514F5AD8904F30506E4E30256E62
:102BB00050C026F0000E276E000E286E23EC6CF03D
:102BC000500E3C24D96E040E3D20DA6E040EDE1841
:102BD000D8A437D1930E3C24D96E010E3D20DA6E75
:102BE000DF503E6ED8903E323E503F6A406A3F5CB6
:102BF0000001666F4050D8A04004676F000E0301CB
:102C0000CC6F000ECD6F000ECE6F000ECF6F02D1D5
:102C1000D8903C34D96E3D34DA6EA00ED926020E1F
:102C2000DA22DE50DE10D8B418D0D8903C34D96EF9
:102C30003D34DA6E000ED926030EDA22D8903C34E9
:102C4000E16E3D34E26EA00EE126020EE222DE507D
:102C5000E65CDE50E658D8B068D0D8903C34D96EE7
:102C60003D34DA6E000ED926020EDA22DECF1FF0D6
:102C7000DDCF20F0D8903C34D96E3D34DA6E500E62
:102C8000D926020EDA22DECF3EF0DDCF3FF0000182
:102C900066513E24216E67513F20226ED8903C340D
:102CA000D96E3D34DA6E000ED926030EDA22DECF5D
:102CB00040F0DDCF41F0D8903C34D96E3D34DA6E2F
:102CC000000ED926020EDA22DECF42F0DDCF43F02D
:102CD00040504224236E41504320246ED8903C340F
:102CE000D96E3D34DA6EA00ED926020EDA22DECF7E
:102CF00044F0DDCF45F0D8903C34D96E3D34DA6EE7
:102D0000500ED926020EDA22DECF46F0DDCF47F094
:102D1000445046264550472266514624256E675149
:102D20004720266EF3EC6DF067D0D8903C34D96E16
:102D30003D34DA6E000ED926020EDA22DECF3EF0E6
:102D4000DDCF3FF0000166513E241F6E67513F20EA
:102D5000206ED8903C34D96E3D34DA6E500ED926B0
:102D6000020EDA22DECF21F0DDCF22F0D8903C3403
:102D7000D96E3D34DA6E000ED926030EDA22DECF8C
:102D800040F0DDCF41F0D8903C34D96E3D34DA6E5E
:102D9000000ED926020EDA22DECF42F0DDCF43F05C
:102DA000405042264150432266514224236E6751CF
:102DB0004320246ED8903C34D96E3D34DA6EA00E98
:102DC000D926020EDA22DECF44F0DDCF45F0D890CE
:102DD0003C34D96E3D34DA6E500ED926020EDA221A
:102DE000DECF46F0DDCF47F044504624256E4550F7
:102DF0004720266EF3EC6DF0010E00016625666F2C
:102E0000000E6721676F010E0301CC27000ECD2352
:102E1000CE23CF23930E3C24D96E010E3D20DA6ED3
:102E2000DF503E6E3EC03FF0406A416A426A3F500A
:102E3000CC5D4050CD594150CE594250CF59D8A0C9
:102E4000E7D6500E3C24D96E040E3D20DA6E080EF3
:102E5000DE18D8A4D9D03CC001F03DC002F0000E6D
:102E6000046E090E036EE2EC6FF0400E0124D96E81
:102E7000060E0220DA6EDF501F6E3CC001F03DC02E
:102E800002F0000E046E090E036EE2EC6FF0410ECC
:102E90000124D96E060E0220DA6EDF50206E3CC08F
:102EA00001F03DC002F0000E046E090E036EE2EC6C
:102EB0006FF03F0E0124D96E060E0220DA6EDF504D
:102EC000F5EC6FF03CC001F03DC002F0000E046E66
:102ED000090E036EE2EC6FF03C0E0124D96E060E73
:102EE0000220DA6EDF50D8B455D0E40E236E030E04
:102EF000246E000E266E140E256ED8903C34D96ECA
:102F00003D34DA6E000ED926020EDA22DECF27F02B
:102F1000DDCF28F0D8903C34D96E3D34DA6E500EB7
:102F2000D926020EDA22DECF29F0DDCF2AF0D890A2
:102F30003C34D96E3D34DA6E000ED926030EDA2207
:102F4000DECF2BF0DDCF2CF0D8903C34D96E3D3461
:102F5000DA6EA00ED926020EDA22DECF2DF0DDCFFA
:102F60002EF0000E2F6E3CC001F03DC002F0000EAE
:102F7000046E090E036EE2EC6FF03D0E0124D96E73
:102F8000060E0220DA6EDF50306E000E316E48EC15
:102F90006DF03AD0E40E236E030E246E000E266E02
:102FA000140E256ED8903C34D96E3D34DA6E000E86
:102FB000D926020EDA22DECF27F0DDCF28F0D89016
:102FC0003C34D96E3D34DA6E500ED926020EDA2228
:102FD000DECF29F0DDCF2AF0000E2B6E3CC001F0D1
:102FE0003DC002F0000E046E090E036EE2EC6FF0BD
:102FF0003D0E0124D96E060E0220DA6EDF502C6ED3
:10300000000E2D6E65EC6EF03D5004E1150E3C5C3B
:10301000D8A01200140E0101DD253E6E000EDE2147
:103020003F6E3C503E5C3D503F58D8A01200FF0E12
:103030003C243C6EFF0E3D203D6E3CC001F03DC087
:1030400002F0000E046E0C0E036EE2EC6FF0110E37
:103050000124D96E040E0220DA6EDF501F6E3CC0D0
:1030600001F03DC002F0000E046E0C0E036EE2ECA7
:103070006FF0120E0124D96E040E0220DA6EDF50BA
:10308000206E3CC001F03DC002F0000E046E0C0E3C
:10309000036EE2EC6FF0100E0124D96E040E0220D4
:1030A000DA6EDF5008EC70F03CC001F03DC002F079
:1030B000000E046E0C0E036EE2EC6FF0140E012491
:1030C000D96E040E0220DA6EDF501F6E3CC001F094
:1030D0003DC002F0000E046E0C0E036EE2EC6FF0C9
:1030E000150E0124D96E040E0220DA6EDF50206E18
:1030F0003CC001F03DC002F0000E046E0C0E036EE9
:10310000E2EC6FF0130E0124D96E040E0220DA6E89
:10311000DF501BEC70F0500E3C24D96E040E3D20A5
:10312000DA6E500E3C24D96E040E3D20DA6EDE04B9
:10313000D8A4B1EF1CF0000E0001676F000E666F9F
:10314000930E3C24D96E010E3D20DA6EDF50D8A4D8
:1031500038D03CC001F03DC002F0000E046E0C0EF1
:10316000036EE2EC6FF0140E0124D96E040E0220FF
:10317000DA6EDF501F6E3CC001F03DC002F0000E61
:10318000046E0C0E036EE2EC6FF0150E0124D96E86
:10319000040E0220DA6EDF50206E3CC001F03DC00C
:1031A00002F0000E046E0C0E036EE2EC6FF0130ED4
:1031B0000124D96E040E0220DA6EDF5008EC70F0A4
:1031C000C6D0930E3C24D96E010E3D20DA6E010E5E
:1031D000DF64BDD0930E3C24D96E010E3D20DA6E23
:1031E000DF503E6ED8903E323E503F6A406A3F5CB0
:1031F000666F4050D8A04004676F000E0301C86F8F
:10320000000EC96F000ECA6F000ECB6F83D0D8902E
:103210003C34D96E3D34DA6E000ED926020EDA2225
:10322000DECF3EF0DDCF3FF0000166513E241F6E41
:1032300067513F20206ED8903C34D96E3D34DA6E11
:10324000500ED926020EDA22DECF40F0DDCF41F05B
:1032500066514024216E67514120226ED8903C3443
:10326000D96E3D34DA6E000ED926030EDA22DECF97
:1032700042F0DDCF43F0D8903C34D96E3D34DA6E65
:10328000000ED926020EDA22DECF44F0DDCF45F063
:103290006651445E6751455A42504424236E435060
:1032A0004520246ED8903C34D96E3D34DA6EA00EA1
:1032B000D926020EDA22DECF46F0DDCF47F0D890D5
:1032C0003C34D96E3D34DA6E500ED926020EDA2225
:1032D000DECF48F0DDCF49F06651485E6751495A6C
:1032E00046504824256E47504920266E010E276E11
:1032F000000E286E1CEC6DF0010E00016625666F55
:10330000000E6721676F010E0301C827000EC92355
:10331000CA23CB23930E3C24D96E010E3D20DA6ED6
:10332000DF503E6EFF0E3E243F6E406AFF0E40228D
:10333000416A40BE41064150426E3F50C85D405018
:10334000C9594150CA594250CB59D8A060D7D890DA
:103350003C34D96E3D34DA6E000ED926020EDA22E4
:10336000DECF3EF0DDCF3FF0000166513E241F6E00
:1033700067513F20206ED8903C34D96E3D34DA6ED0
:10338000500ED926020EDA22DECF40F0DDCF41F01A
:1033900066514024216E67514120226ED8903C3402
:1033A000D96E3D34DA6E000ED926030EDA22DECF56
:1033B00042F0DDCF43F0D8903C34D96E3D34DA6E24
:1033C000000ED926020EDA22DECF44F0DDCF45F022
:1033D0006651445E6751455A42504424236E43501F
:1033E0004520246ED8903C34D96E3D34DA6EA00E60
:1033F000D926020EDA22DECF46F0DDCF47F0D89094
:103400003C34D96E3D34DA6E500ED926020EDA22E3
:10341000DECF48F0DDCF49F06651485E6751495A2A
:1034200046504824256E47504920266E000E276ED0
:10343000000E286E1CEC6DF0A70E3C24D96E010E18
:103440003D20DA6EDF50D8B48CD23CC001F03DC0D4
:1034500002F0000E046E0C0E036EE2EC6FF01A0E1A
:103460000124D96E040E0220DA6EDF501F6E3CC0BC
:1034700001F03DC002F0000E046E0C0E036EE2EC93
:103480006FF01B0E0124D96E040E0220DA6EDF509D
:10349000206E3CC001F03DC002F0000E046E0C0E28
:1034A000036EE2EC6FF0190E0124D96E040E0220B7
:1034B000DA6EDF5008EC70F0930E3C24D96E010EEA
:1034C0003D20DA6EDF503E6ED8903E323E50000115
:1034D000666F676BD8903C34D96E3D34DA6E000E5F
:1034E000D926020EDA22DECF3EF0DDCF3FF0665164
:1034F0003E5E67513F5A010E3E241F6E000E3F2074
:10350000206ED8903C34D96E3D34DA6EA00ED926A8
:10351000020EDA22DECF40F0DDCF41F0D8903C340D
:10352000D96E3D34DA6E500ED926020EDA22DECF85
:1035300042F0DDCF43F040504226415043226651D5
:10354000422667514322010E4224216E000E432081
:10355000226ED8903C34D96E3D34DA6E000ED926F6
:10356000030EDA22DECF44F0DDCF45F0D8903C34B4
:10357000D96E3D34DA6E000ED926020EDA22DECF85
:1035800046F0DDCF47F0445046264550472266516D
:10359000462667514722010E4624236E000E47201F
:1035A000246ED8903C34D96E3D34DA6EA00ED92604
:1035B000020EDA22DECF48F0DDCF49F0D8903C345D
:1035C000D96E3D34DA6E500ED926020EDA22DECFE5
:1035D0004AF0DDCF4BF048504A2649504B22665105
:1035E0004A2667514B22010E4A24256E000E4B20BD
:1035F000266EF3EC6DF0D8903C34D96E3D34DA6E23
:10360000000ED926020EDA22DECF3EF0DDCF3FF0EB
:10361000000166513E5E67513F5A020E3E241F6E06
:10362000000E3F20206ED8903C34D96E3D34DA6EC7
:10363000A00ED926020EDA22DECF40F0DDCF41F017
:10364000D8903C34D96E3D34DA6E500ED926020E35
:10365000DA22DECF42F0DDCF43F040504226415027
:1036600043226651422667514322020E4224216EB4
:10367000000E4320226ED8903C34D96E3D34DA6E71
:10368000000ED926030EDA22DECF44F0DDCF45F05E
:10369000D8903C34D96E3D34DA6E000ED926020E35
:1036A000DA22DECF46F0DDCF47F0445046264550C3
:1036B00047226651462667514722020E4624236E52
:1036C000000E4720246ED8903C34D96E3D34DA6E1B
:1036D000A00ED926020EDA22DECF48F0DDCF49F067
:1036E000D8903C34D96E3D34DA6E500ED926020E95
:1036F000DA22DECF4AF0DDCF4BF048504A2649505F
:103700004B2266514A2667514B22020E4A24256EEF
:10371000000E4B20266EF3EC6DF0D8903C34D96E41
:103720003D34DA6E000ED926030EDA22DECF3EF0EB
:10373000DDCF3FF0D8903C34D96E3D34DA6E000EC8
:10374000D926020EDA22DECF40F0DDCF41F03E5026
:1037500040263F50412200016651402667514122D8
:10376000010E40241F6E000E4120206ED8903C3484
:10377000D96E3D34DA6E500ED926020EDA22DECF33
:1037800042F0DDCF43F06651425E6751435A010E6D
:103790004224216E000E4320226ED8903C34D96E14
:1037A0003D34DA6E000ED926030EDA22DECF44F065
:1037B000DDCF45F0D8903C34D96E3D34DA6E000E42
:1037C000D926020EDA22DECF46F0DDCF47F0445094
:1037D0004626455047226651462667514722010E2C
:1037E0004624236E000E4720246ED8903C34D96EB8
:1037F0003D34DA6EA00ED926020EDA22DECF48F072
:10380000DDCF49F0D8903C34D96E3D34DA6E500E9D
:10381000D926020EDA22DECF4AF0DDCF4BF0485037
:103820004A2649504B2266514A2667514B22010EC7
:103830004A24256E000E4B20266EF3EC6DF0D890D6
:103840003C34D96E3D34DA6E000ED926030EDA22EE
:10385000DECF3EF0DDCF3FF0D8903C34D96E3D3422
:10386000DA6E000ED926020EDA22DECF40F0DDCF6E
:1038700041F03E5040263F50412200016651402613
:1038800067514122020E40241F6E000E4120206E1F
:10389000D8903C34D96E3D34DA6E500ED926020EE3
:1038A000DA22DECF42F0DDCF43F06651425E67514F
:1038B000435A020E4224216E000E4320226ED890FD
:1038C0003C34D96E3D34DA6E000ED926030EDA226E
:1038D000DECF44F0DDCF45F0D8903C34D96E3D3496
:1038E000DA6E000ED926020EDA22DECF46F0DDCFE8
:1038F00047F04450462645504722665146266751B8
:103900004722020E4624236E000E4720246ED890D4
:103910003C34D96E3D34DA6EA00ED926020EDA227E
:10392000DECF48F0DDCF49F0D8903C34D96E3D343D
:10393000DA6E500ED926020EDA22DECF4AF0DDCF43
:103940004BF048504A2649504B2266514A2667514F
:103950004B22020E4A24256E000E4B20266EF3ECFD
:103960006DF0500E3C24D96E040E3D20DA6E020E2E
:10397000DE18D8A47CD3A70E3C24D96E010E3D20BE
:10398000DA6EDF50D8B484D13CC001F03DC002F003
:10399000000E046E0C0E036EE2EC6FF01A0E0124A2
:1039A000D96E040E0220DA6EDF501F6E3CC001F0AB
:1039B0003DC002F0000E046E0C0E036EE2EC6FF0E0
:1039C0001B0E0124D96E040E0220DA6EDF50206E29
:1039D0003CC001F03DC002F0000E046E0C0E036E00
:1039E000E2EC6FF0190E0124D96E040E0220DA6E9B
:1039F000DF5008EC70F0930E3C24D96E010E3D2090
:103A0000DA6EDF503E6ED8903E323E500001666F57
:103A1000676BD8903C34D96E3D34DA6E000ED926EF
:103A2000020EDA22DECF3EF0DDCF3FF066513E5E81
:103A300067513F5A010E3E241F6E000E3F20206E3C
:103A4000D8903C34D96E3D34DA6E500ED926020E31
:103A5000DA22DECF40F0DDCF41F06651405E6751A3
:103A6000415A010E4024216E000E4120226ED89052
:103A70003C34D96E3D34DA6E000ED926030EDA22BC
:103A8000DECF42F0DDCF43F0D8903C34D96E3D34E8
:103A9000DA6E000ED926020EDA22DECF44F0DDCF38
:103AA00045F0425044264350452266514426675112
:103AB0004522010E4424236E000E4520246ED8902A
:103AC0003C34D96E3D34DA6EA00ED926020EDA22CD
:103AD000DECF46F0DDCF47F0D8903C34D96E3D3490
:103AE000DA6E500ED926020EDA22DECF48F0DDCF94
:103AF00049F04650482647504922665148266751AA
:103B00004922010E4824256E000E4920266ED890C9
:103B10003C34D96E3D34DA6EA00ED926020EDA227C
:103B2000DECF4AF0DDCF4BF066514A2667514B227B
:103B3000D8904B324A32D8904B324A324AC027F0A2
:103B40004BC028F0010E296E000E2A6EBCEC6CF002
:103B5000D8903C34D96E3D34DA6E000ED926020E70
:103B6000DA22DECF3EF0DDCF3FF0000166513E5E4F
:103B700067513F5A020E3E241F6E000E3F20206EFA
:103B8000D8903C34D96E3D34DA6E500ED926020EF0
:103B9000DA22DECF40F0DDCF41F06651405E675162
:103BA000415A020E4024216E000E4120226ED89010
:103BB0003C34D96E3D34DA6E000ED926030EDA227B
:103BC000DECF42F0DDCF43F0D8903C34D96E3D34A7
:103BD000DA6E000ED926020EDA22DECF44F0DDCFF7
:103BE00045F04250442643504522665144266751D1
:103BF0004522020E4424236E000E4520246ED890E8
:103C00003C34D96E3D34DA6EA00ED926020EDA228B
:103C1000DECF46F0DDCF47F0D8903C34D96E3D344E
:103C2000DA6E500ED926020EDA22DECF48F0DDCF52
:103C300049F0465048264750492266514826675168
:103C40004922020E4824256E000E4920266ED89087
:103C50003C34D96E3D34DA6EA00ED926020EDA223B
:103C6000DECF4AF0DDCF4BF066514A2667514B223A
:103C7000D8904B324A32D8904B324A324AC027F061
:103C80004BC028F0010E296E000E2A6EBCEC6CF0C1
:103C9000000E0001676F000E666F930E3C24D96E14
:103CA000010E3D20DA6EDF50D8A438D03CC001F0C0
:103CB0003DC002F0000E046E0C0E036EE2EC6FF0DD
:103CC000140E0124D96E040E0220DA6EDF501F6E2E
:103CD0003CC001F03DC002F0000E046E0C0E036EFD
:103CE000E2EC6FF0150E0124D96E040E0220DA6E9C
:103CF000DF50206E3CC001F03DC002F0000E046EAB
:103D00000C0E036EE2EC6FF0130E0124D96E040E5C
:103D10000220DA6EDF5008EC70F019D13CC001F0DF
:103D20003DC002F0000E046E0C0E036EE2EC6FF06C
:103D3000110E0124D96E040E0220DA6EDF501F6EC0
:103D40003CC001F03DC002F0000E046E0C0E036E8C
:103D5000E2EC6FF0120E0124D96E040E0220DA6E2E
:103D6000DF50206E3CC001F03DC002F0000E046E3A
:103D70000C0E036EE2EC6FF0100E0124D96E040EEF
:103D80000220DA6EDF5008EC70F0930E3C24D96EFE
:103D9000010E3D20DA6E010EDF64D9D0930E3C2473
:103DA000D96E010E3D20DA6EDF503E6ED8903E3265
:103DB0003E503F6A406A3F5C0001666F4050D8A0A9
:103DC0004004676F000E0301C46F000EC56F000E44
:103DD000C66F000EC76F9ED0D8903C34D96E3D346C
:103DE000DA6E000ED926020EDA22DECF3EF0DDCFEB
:103DF0003FF0000166513E241F6E67513F20206E48
:103E0000D8903C34D96E3D34DA6E500ED926020E6D
:103E1000DA22DECF40F0DDCF41F066514024216E42
:103E200067514120226ED8903C34D96E3D34DA6E11
:103E3000000ED926030EDA22DECF42F0DDCF43F0AA
:103E4000D8903C34D96E3D34DA6E000ED926020E7D
:103E5000DA22DECF44F0DDCF45F06651445E675193
:103E6000455A42504424236E43504520246ED89036
:103E70003C34D96E3D34DA6EA00ED926020EDA2219
:103E8000DECF46F0DDCF47F0D8903C34D96E3D34DC
:103E9000DA6E500ED926020EDA22DECF48F0DDCFE0
:103EA00049F06651485E6751495A46504824256E8C
:103EB00047504920266ED8903C34D96E3D34DA6E96
:103EC000A00ED926020EDA22DECF4AF0DDCF4BF06B
:103ED00066514A5E67514B5AD8904B324A32D8905D
:103EE0004B324A324AC027F04BC028F0010E296EEF
:103EF000000E2A6EBCEC6CF0010E00016625666FA8
:103F0000000E6721676F010E0301C427000EC52351
:103F1000C623C723930E3C24D96E010E3D20DA6ED2
:103F2000DF503E6EFF0E3E243F6E406AFF0E402281
:103F3000416A40BE41064150426E3F50C45D405010
:103F4000C5594150C6594250C759D8A045D7D890F5
:103F50003C34D96E3D34DA6E000ED926020EDA22D8
:103F6000DECF3EF0DDCF3FF0000166513E241F6EF4
:103F700067513F20206ED8903C34D96E3D34DA6EC4
:103F8000500ED926020EDA22DECF40F0DDCF41F00E
:103F900066514024216E67514120226ED8903C34F6
:103FA000D96E3D34DA6E000ED926030EDA22DECF4A
:103FB00042F0DDCF43F0D8903C34D96E3D34DA6E18
:103FC000000ED926020EDA22DECF44F0DDCF45F016
:103FD0006651445E6751455A42504424236E435013
:103FE0004520246ED8903C34D96E3D34DA6EA00E54
:103FF000D926020EDA22DECF46F0DDCF47F0D89088
:104000003C34D96E3D34DA6E500ED926020EDA22D7
:10401000DECF48F0DDCF49F06651485E6751495A1E
:1040200046504824256E47504920266ED8903C348F
:10403000D96E3D34DA6EA00ED926020EDA22DECF1A
:104040004AF0DDCF4BF066514A5E67514B5AD8902B
:104050004B324A32D8904B324A324AC027F04BC0DA
:1040600028F0000E296E000E2A6EBCEC6CF0500E8B
:104070003C24D96E040E3D20DA6E030EDE18D8A45F
:104080006FD2A70E3C24D96E010E3D20DA6EDF50B0
:10409000D8B4CDD03CC001F03DC002F0000E046E9B
:1040A0000C0E036EE2EC6FF01A0E0124D96E040EB2
:1040B0000220DA6EDF501F6E3CC001F03DC002F0FE
:1040C000000E046E0C0E036EE2EC6FF01B0E01246A
:1040D000D96E040E0220DA6EDF50206E3CC001F073
:1040E0003DC002F0000E046E0C0E036EE2EC6FF0A9
:1040F000190E0124D96E040E0220DA6EDF5008EC8E
:1041000070F0930E3C24D96E010E3D20DA6EDF5024
:104110003E6ED8903E323E500001666F676BD8907D
:104120003C34D96E3D34DA6E000ED926020EDA2206
:10413000DECF3EF0DDCF3FF0D8903C34D96E3D3439
:10414000DA6E000ED926030EDA22DECF40F0DDCF84
:1041500041F0D8904130436E4030426E3E5042268E
:104160003F504322020E42241F6E000E4320206E59
:10417000D8903C34D96E3D34DA6E500ED926020EFA
:10418000DA22DECF44F0DDCF45F0D8903C34D96E52
:104190003D34DA6EA00ED926020EDA22DECF46F0CA
:1041A000DDCF47F0D8904730496E4630486E4450D6
:1041B000482645504922020E4824216E000E49200F
:1041C000226ED8903C34D96E3D34DA6E000ED9267A
:1041D000030EDA22DECF4AF0DDCF4BF066514A26DD
:1041E00067514B22D8904B304C6E4A30236E4CC0F6
:1041F00024F0D8903C34D96E3D34DA6EA00ED92626
:10420000020EDA22DECF4EF0DDCF4FF066514E26A1
:1042100067514F22D8904F30506E4E30256E50C0AF
:1042200026F0000E276E010E286E23EC6CF0000EB7
:104230000001676F000E666F930E3C24D96E010E6D
:104240003D20DA6EDF50D8A438D03CC001F03DC02C
:1042500002F0000E046E0C0E036EE2EC6FF0140E12
:104260000124D96E040E0220DA6EDF501F6E3CC0AE
:1042700001F03DC002F0000E046E0C0E036EE2EC85
:104280006FF0150E0124D96E040E0220DA6EDF5095
:10429000206E3CC001F03DC002F0000E046E0C0E1A
:1042A000036EE2EC6FF0130E0124D96E040E0220AF
:1042B000DA6EDF5008EC70F0D2D0930E3C24D96E49
:1042C000010E3D20DA6E010EDF64C9D0930E3C244E
:1042D000D96E010E3D20DA6EDF503E6ED8903E3230
:1042E0003E503F6A406A3F5C666F4050D8A0400431
:1042F000676F000E0301C06F000EC16F000EC26F2A
:10430000000EC36F8FD0D8903C34D96E3D34DA6E36
:10431000000ED926020EDA22DECF3EF0DDCF3FF0CE
:10432000D8903C34D96E3D34DA6E000ED926030E97
:10433000DA22DECF40F0DDCF41F0D8904130436E3D
:104340004030426E3E5042241F6E3F504320206E4C
:10435000D8903C34D96E3D34DA6E500ED926020E18
:10436000DA22DECF44F0DDCF45F0D8903C34D96E70
:104370003D34DA6EA00ED926020EDA22DECF46F0E8
:10438000DDCF47F0D8904730496E4630486E4450F4
:104390004824216E45504920226ED8903C34D96E75
:1043A0003D34DA6E000ED926030EDA22DECF4AF053
:1043B000DDCF4BF0000166514A5E67514B5AD890F1
:1043C0004B304C6E4A30236E4CC024F0D8903C34B5
:1043D000D96E3D34DA6EA00ED926020EDA22DECF77
:1043E0004EF0DDCF4FF066514E5E67514F5AD89078
:1043F0004F30506E4E30256E50C026F0010E276EA5
:10440000000E286E23EC6CF0010E00016625666F2D
:10441000000E6721676F010E0301C027000EC12344
:10442000C223C323930E3C24D96E010E3D20DA6EC5
:10443000DF503E6EFF0E3E243F6E406AFF0E40226C
:10444000416A40BE41064150426E3F50C05D4050FF
:10445000C1594150C2594250C359D8A054D7D890DD
:104460003C34D96E3D34DA6E000ED926020EDA22C3
:10447000DECF3EF0DDCF3FF0D8903C34D96E3D34F6
:10448000DA6E000ED926030EDA22DECF40F0DDCF41
:1044900041F0D8904130436E4030426E3E5042244D
:1044A0001F6E3F504320206ED8903C34D96E3D346F
:1044B000DA6E500ED926020EDA22DECF44F0DDCFBE
:1044C00045F0D8903C34D96E3D34DA6EA00ED92632
:1044D000020EDA22DECF46F0DDCF47F0D89047302B
:1044E000496E4630486E44504824216E455049205C
:1044F000226ED8903C34D96E3D34DA6E000ED92647
:10450000030EDA22DECF4AF0DDCF4BF00001665118
:104510004A5E67514B5AD8904B304C6E4A30236EEE
:104520004CC024F0D8903C34D96E3D34DA6EA00EE5
:10453000D926020EDA22DECF4EF0DDCF4FF06651E3
:104540004E5E67514F5AD8904F30506E4E30256EA8
:1045500050C026F0000E276E000E286E23EC6CF083
:10456000500E3C24D96E040E3D20DA6E040EDE1887
:10457000D8A40FEF2FF0B00E3E6EFF0E3F6E000E70
:10458000406E040E416E3E5040263F504122D8906E
:104590003C34D96E3D34DA6ED890D936DA36405094
:1045A000D9264150DA22DECF01F0DECF02F0DECF95
:1045B00003F0DECF04F0B00E426EFF0E436E500EDD
:1045C000446E030E456E4250442643504522D89017
:1045D0003C34D96E3D34DA6ED890D936DA36445050
:1045E000D9264550DA22DECF05F0DECF06F0DECF49
:1045F00007F0DECF08F027EC6BF0D8B00FEF2FF00C
:10460000B00E3E6EFF0E3F6E000E406E040E416E09
:104610003E5040263F504122D8903C34D96E3D3424
:10462000DA6ED890D936DA364050D9264150DA229F
:10463000DECF15F0DECF16F0DECF17F0DECF18F0AC
:10464000000E116E000E126E800E136E3F0E146E71
:1046500089EC6EF011C01DF012C01EF013C01FF0E7
:1046600014C020F0D8903C34D96E3D34DA6EA00EE0
:10467000D926020EDA22DECF42F0DDCF43F0A70EBC
:104680003C24D96E010E3D20DA6EDF50446E44505A
:10469000425E000E435A42C001F043C002F0036A7A
:1046A000046A000E73EC65F001C019F002C01AF044
:1046B00003C01BF004C01CF016EC5FF019C032F010
:1046C0001AC033F01BC034F01CC035F0ECEC68F0BD
:1046D00032C062F033C063F0B00E3E6EFF0E3F6E2C
:1046E000500E406E030E416E3E5040263F50412218
:1046F000D8903C34D96E3D34DA6ED890D936DA365B
:104700004050D9264150DA22DECF15F0DECF16F028
:10471000DECF17F0DECF18F0000E116E000E126E15
:10472000800E136E3F0E146E89EC6EF011C01DF0FA
:1047300012C01EF013C01FF014C020F0D8903C34FB
:10474000D96E3D34DA6EA00ED926020EDA22DECF03
:1047500042F0DDCF43F0A70E3C24D96E010E3D2080
:10476000DA6EDF50446E4450425E000E435A42C03F
:1047700001F043C002F0036A046A000E73EC65F0B6
:1047800001C019F002C01AF003C01BF004C01CF0F5
:1047900016EC5FF019C032F01AC033F01BC034F0D1
:1047A0001CC035F0ECEC68F032C064F033C065F04A
:1047B0003CC001F03DC002F0000E046E0C0E036E12
:1047C000E2EC6FF0140E0124D96E040E0220DA6EB2
:1047D000DF501F6E3CC001F03DC002F0000E046EC1
:1047E0000C0E036EE2EC6FF0150E0124D96E040E70
:1047F0000220DA6EDF50206E3CC001F03DC002F0B6
:10480000000E046E0C0E036EE2EC6FF0130E01242A
:10481000D96E040E0220DA6EDF5008EC70F03CC056
:1048200001F03DC002F0000E046E0C0E036EE2ECCF
:104830006FF0140E0124D96E040E0220DA6EDF50E0
:104840001F6E3CC001F03DC002F0000E046E0C0E65
:10485000036EE2EC6FF0150E0124D96E040E0220F7
:10486000DA6EDF50206E3CC001F03DC002F0000E59
:10487000046E0C0E036EE2EC6FF0130E0124D96E81
:10488000040E0220DA6EDF501BEC70F0000E016E99
:10489000000E026E800E036E3F0E046EB00E3E6E72
:1048A000FF0E3F6E500E406E030E416E3E5040268E
:1048B0003F504122D8903C34D96E3D34DA6ED890C6
:1048C000D936DA364050D9264150DA22DECF05F00B
:1048D000DECF06F0DECF07F0DECF08F084EC68F024
:1048E000D8B0D0D1D8903C34D96E3D34DA6E000EB9
:1048F000D926020EDA22DECF1FF0DDCF20F0D890CD
:104900003C34D96E3D34DA6E500ED926020EDA22CE
:10491000DECF21F0DDCF22F0D8903C34D96E3D348B
:10492000DA6E000ED926030EDA22DECF3EF0DDCF9E
:104930003FF0D8903C34D96E3D34DA6E000ED92663
:10494000020EDA22DECF40F0DDCF41F03E504024AF
:10495000236E3F504120246ED8903C34D96E3D34B4
:10496000DA6EA00ED926020EDA22DECF42F0DDCFBB
:1049700043F0D8903C34D96E3D34DA6E500ED926CF
:10498000020EDA22DECF44F0DDCF45F0425044245F
:10499000256E43504520266E000E276E000E286EB1
:1049A0001CEC6DF03CC001F03DC002F0000E046E46
:1049B0000C0E036EE2EC6FF01A0E0124D96E040E99
:1049C0000220DA6EDF501F6E3CC001F03DC002F0E5
:1049D000000E046E0C0E036EE2EC6FF01B0E012451
:1049E000D96E040E0220DA6EDF50206E3CC001F05A
:1049F0003DC002F0000E046E0C0E036EE2EC6FF090
:104A0000190E0124D96E040E0220DA6EDF5008EC74
:104A100070F0D8903C34D96E3D34DA6E000ED92651
:104A2000020EDA22DECF3EF0DDCF3FF0D8903C34EC
:104A3000D96E3D34DA6E000ED926030EDA22DECFAF
:104A400040F0DDCF41F0D8904130436E4030426EAF
:104A5000930E3C24D96E010E3D20DA6EDF50446E79
:104A6000D89044324450425E000E435A3E50422495
:104A70001F6E3F504320206ED8903C34D96E3D3499
:104A8000DA6E500ED926020EDA22DECF21F0DDCF0B
:104A900022F0D8903C34D96E3D34DA6E000ED9261F
:104AA000020EDA22DECF45F0DDCF46F0D8903C345E
:104AB000D96E3D34DA6E000ED926030EDA22DECF2F
:104AC00047F0DDCF48F0D89048304A6E4730496E05
:104AD000930E3C24D96E010E3D20DA6EDF504B6EF2
:104AE000D8904B324B504926000E4A22455049245B
:104AF000236E46504A20246ED8903C34D96E3D3403
:104B0000DA6EA00ED926020EDA22DECF4CF0DDCF0F
:104B10004DF0D8903C34D96E3D34DA6E500ED92623
:104B2000020EDA22DECF4EF0DDCF4FF04C504E2495
:104B3000256E4D504F20266E000E276E010E286EFA
:104B40001CEC6DF03CC001F03DC002F0000E046EA4
:104B50000C0E036EE2EC6FF0110E0124D96E040E00
:104B60000220DA6EDF501F6E3CC001F03DC002F043
:104B7000000E046E0C0E036EE2EC6FF0120E0124B8
:104B8000D96E040E0220DA6EDF50206E3CC001F0B8
:104B90003DC002F0000E046E0C0E036EE2EC6FF0EE
:104BA000100E0124D96E040E0220DA6EDF5008ECDC
:104BB00070F0D8903C34D96E3D34DA6E000ED926B0
:104BC000020EDA22DECF1FF0DDCF20F0D8903C3489
:104BD000D96E3D34DA6E500ED926020EDA22DECFBF
:104BE0003EF0DDCF3FF0000162513E24216E635163
:104BF0003F20226ED8903C34D96E3D34DA6E000EE0
:104C0000D926030EDA22DECF40F0DDCF41F0D89076
:104C10003C34D96E3D34DA6E000ED926020EDA220B
:104C2000DECF42F0DDCF43F040504224236E4150AE
:104C30004320246ED8903C34D96E3D34DA6E500E49
:104C4000D926020EDA22DECF44F0DDCF45F0A70EE2
:104C50003C24D96E010E3D20DA6EDF50466E476A65
:104C6000445046264550472262514624256E6351E2
:104C70004720266E000E276E010E286E1CEC6DF08C
:104C8000D7EF2EF000016251645D63516559D8B0D1
:104C900006D06451625D606F6551635905D0625101
:104CA000645D606F63516559616FA70E3C24D96ED6
:104CB000010E3D20DA6EDF503E6E3F6A3E50605D71
:104CC0003F506159D8A056D3D8903C34D96E3D346A
:104CD000DA6E000ED926020EDA22DECF1FF0DDCF0B
:104CE00020F0D8903C34D96E3D34DA6E500ED9267F
:104CF000020EDA22DECF3EF0DDCF3FF064513E24DB
:104D0000216E65513F20226ED8903C34D96E3D34DF
:104D1000DA6E000ED926020EDA22DECF40F0DDCFA9
:104D200041F0D8903C34D96E3D34DA6E000ED9266D
:104D3000030EDA22DECF42F0DDCF43F0D8904330CD
:104D4000456E4230446E930E3C24D96E010E3D20D8
:104D5000DA6EDF50466ED89046324650445E000E02
:104D6000455A40504424236E41504520246ED8902B
:104D70003C34D96E3D34DA6E500ED926020EDA225A
:104D8000DECF47F0DDCF48F0A70E3C24D96E010EF0
:104D90003D20DA6EDF50496E4A6A47504926485036
:104DA0004A2264514924256E65514A20266E000E20
:104DB000276E010E286E1CEC6DF0D8903C34D96E35
:104DC0003D34DA6E000ED926020EDA22DECF3EF036
:104DD000DDCF3FF0D8903C34D96E3D34DA6E000E12
:104DE000D926030EDA22DECF40F0DDCF41F0D89095
:104DF0004130436E4030426E930E3C24D96E010E1A
:104E00003D20DA6EDF50446ED89044324450422642
:104E1000000E43223E5042241F6E3F504320206E1E
:104E2000D8903C34D96E3D34DA6E500ED926020E3D
:104E3000DA22DECF45F0DDCF46F000016451452493
:104E4000216E65514620226ED8903C34D96E3D3497
:104E5000DA6E000ED926030EDA22DECF47F0DDCF60
:104E600048F0D8903C34D96E3D34DA6E000ED92625
:104E7000020EDA22DECF49F0DDCF4AF04750492456
:104E8000236E48504A20246ED8903C34D96E3D346D
:104E9000DA6E500ED926020EDA22DECF4BF0DDCFCD
:104EA0004CF0A70E3C24D96E010E3D20DA6EDF5087
:104EB0004D6E4E6A4B504D264C504E2264514D243F
:104EC000256E65514E20266E000E276E010E286E4F
:104ED0001CEC6DF000016251645D63516559D8B0FE
:104EE000C5D03CC001F03DC002F0000E046E0C0EB7
:104EF000036EE2EC6FF01A0E0124D96E040E02204C
:104F0000DA6EDF501F6E3CC001F03DC002F0000EB3
:104F1000046E0C0E036EE2EC6FF01B0E0124D96ED2
:104F2000040E0220DA6EDF50206E3CC001F03DC05E
:104F300002F0000E046E0C0E036EE2EC6FF0190E20
:104F40000124D96E040E0220DA6EDF5008EC70F0F6
:104F5000D8903C34D96E3D34DA6E000ED926020E5C
:104F6000DA22DECF3EF0DDCF3FF0D8903C34D96E70
:104F70003D34DA6E000ED926030EDA22DECF40F081
:104F8000DDCF41F0D8904130436E4030426E930EF9
:104F90003C24D96E010E3D20DA6EDF50446ED8906D
:104FA00044324450425E000E435A3E5042241F6E2B
:104FB0003F504320206ED8903C34D96E3D34DA6E99
:104FC000500ED926020EDA22DECF21F0DDCF22F0FC
:104FD000D8903C34D96E3D34DA6E000ED926020EDC
:104FE000DA22DECF45F0DDCF46F0D8903C34D96EE2
:104FF0003D34DA6E000ED926030EDA22DECF47F0FA
:10500000DDCF48F0D89048304A6E4730496E930E55
:105010003C24D96E010E3D20DA6EDF504B6ED890E5
:105020004B324B504926000E4A2245504924236EEC
:1050300046504A20246ED8903C34D96E3D34DA6E06
:10504000500ED926020EDA22DECF4CF0DDCF4DF025
:10505000000162514C24256E63514D20266E000ED6
:10506000276E010E286E1CEC6DF0E4D03CC001F000
:105070003DC002F0000E046E0C0E036EE2EC6FF009
:10508000170E0124D96E040E0220DA6EDF501F6E57
:105090003CC001F03DC002F0000E046E0C0E036E29
:1050A000E2EC6FF0180E0124D96E040E0220DA6EC5
:1050B000DF50206E3CC001F03DC002F0000E046ED7
:1050C0000C0E036EE2EC6FF0160E0124D96E040E86
:1050D0000220DA6EDF5008EC70F0D8903C34D96EC4
:1050E0003D34DA6E000ED926020EDA22DECF3EF013
:1050F000DDCF3FF0D8903C34D96E3D34DA6E000EEF
:10510000D926030EDA22DECF40F0DDCF41F0D89071
:105110004130436E4030426E930E3C24D96E010EF6
:105120003D20DA6EDF50446ED89044324450425EE7
:10513000000E435A3E5042241F6E3F504320206EC3
:10514000D8903C34D96E3D34DA6E500ED926020E1A
:10515000DA22DECF45F0DDCF46F0A70E3C24D96E33
:10516000010E3D20DA6EDF50476E486A45504726F3
:1051700046504822000162514724216E6351482065
:10518000226ED8903C34D96E3D34DA6E000ED926AA
:10519000020EDA22DECF49F0DDCF4AF0D8903C345F
:1051A000D96E3D34DA6E000ED926030EDA22DECF38
:1051B0004BF0DDCF4CF0D8904C304E6E4B304D6EF6
:1051C000930E3C24D96E010E3D20DA6EDF504F6EF7
:1051D000D8904F324F504D26000E4E2249504D244C
:1051E000236E4A504E20246ED8903C34D96E3D3404
:1051F000DA6EA00ED926020EDA22DECF50F0DDCF15
:1052000051F0D8903C34D96E3D34DA6E500ED92628
:10521000020EDA22DECF52F0DDCF53F0505052248E
:10522000256E51505320266E000E276E010E286EFB
:105230001CEC6DF03CC001F03DC002F0000E046EAD
:105240000C0E036EE2EC6FF0110E0124D96E040E09
:105250000220DA6EDF501F6E3CC001F03DC002F04C
:10526000000E046E0C0E036EE2EC6FF0120E0124C1
:10527000D96E040E0220DA6EDF50206E3CC001F0C1
:105280003DC002F0000E046E0C0E036EE2EC6FF0F7
:10529000100E0124D96E040E0220DA6EDF5008ECE5
:1052A00070F0D8903C34D96E3D34DA6E000ED926B9
:1052B000020EDA22DECF1FF0DDCF20F0D8903C3492
:1052C000D96E3D34DA6E500ED926020EDA22DECFC8
:1052D0003EF0DDCF3FF0000162513E24216E63516C
:1052E0003F20226ED8903C34D96E3D34DA6E000EE9
:1052F000D926030EDA22DECF40F0DDCF41F0D89080
:105300003C34D96E3D34DA6E000ED926020EDA2214
:10531000DECF42F0DDCF43F040504224236E4150B7
:105320004320246ED8903C34D96E3D34DA6E500E52
:10533000D926020EDA22DECF44F0DDCF45F0A70EEB
:105340003C24D96E010E3D20DA6EDF50466E476A6E
:10535000445046264550472262514624256E6351EB
:105360004720266E000E276E010E286E1CEC6DF095
:10537000D7EF2EF06251645D63516559D8B072D297
:10538000D8903C34D96E3D34DA6E000ED926020E28
:10539000DA22DECF1FF0DDCF20F0D8903C34D96E7A
:1053A0003D34DA6E500ED926020EDA22DECF3EF000
:1053B000DDCF3FF064513E24216E65513F20226EC7
:1053C000D8903C34D96E3D34DA6E000ED926020EE8
:1053D000DA22DECF40F0DDCF41F0D8903C34D96EF8
:1053E0003D34DA6E000ED926030EDA22DECF42F00B
:1053F000DDCF43F0D8904330456E4230446E930E7B
:105400003C24D96E010E3D20DA6EDF50466ED890F6
:1054100046324650445E000E455A40504424236EA6
:1054200041504520246ED8903C34D96E3D34DA6E1C
:10543000500ED926020EDA22DECF47F0DDCF48F03B
:10544000645147266551482260514724256E6151B9
:105450004820266E000E276E010E286E1CEC6DF0A3
:10546000D8903C34D96E3D34DA6E000ED926020E47
:10547000DA22DECF3EF0DDCF3FF0D8903C34D96E5B
:105480003D34DA6E000ED926030EDA22DECF40F06C
:10549000DDCF41F0D8904130436E4030426E930EE4
:1054A0003C24D96E010E3D20DA6EDF50446ED89058
:1054B000443244504226000E43223E5042241F6E86
:1054C0003F504320206ED8903C34D96E3D34DA6E84
:1054D000500ED926020EDA22DECF45F0DDCF46F09F
:1054E000000164514524216E65514620226ED890FA
:1054F0003C34D96E3D34DA6E000ED926030EDA2222
:10550000DECF47F0DDCF48F0D8903C34D96E3D3443
:10551000DA6E000ED926020EDA22DECF49F0DDCF98
:105520004AF047504924236E48504A20246ED890B0
:105530003C34D96E3D34DA6E500ED926020EDA2292
:10554000DECF4BF0DDCF4CF064514B2665514C2241
:1055500060514B24256E61514C20266E000E276E43
:10556000010E286E1CEC6DF03CC001F03DC002F055
:10557000000E046E0C0E036EE2EC6FF01A0E0124A6
:10558000D96E040E0220DA6EDF501F6E3CC001F0AF
:105590003DC002F0000E046E0C0E036EE2EC6FF0E4
:1055A0001B0E0124D96E040E0220DA6EDF50206E2D
:1055B0003CC001F03DC002F0000E046E0C0E036E04
:1055C000E2EC6FF0190E0124D96E040E0220DA6E9F
:1055D000DF5008EC70F0D8903C34D96E3D34DA6E70
:1055E000000ED926020EDA22DECF3EF0DDCF3FF0EC
:1055F000D8903C34D96E3D34DA6E000ED926030EB5
:10560000DA22DECF40F0DDCF41F0D8904130436E5A
:105610004030426E930E3C24D96E010E3D20DA6E6E
:10562000DF50446ED89044324450425E000E435ADC
:105630003E5042241F6E3F504320206ED8903C3491
:10564000D96E3D34DA6E500ED926020EDA22DECF44
:1056500045F0DDCF46F0000164514524216E6551CF
:105660004620226ED8903C34D96E3D34DA6E000E5E
:10567000D926020EDA22DECF47F0DDCF48F0D890EF
:105680003C34D96E3D34DA6E000ED926030EDA2290
:10569000DECF49F0DDCF4AF0D8904A304C6E493029
:1056A0004B6E930E3C24D96E010E3D20DA6EDF5016
:1056B0004D6ED8904D324D504B26000E4C22475027
:1056C0004B24236E48504C20246ED8903C34D96E25
:1056D0003D34DA6E500ED926020EDA22DECF4EF0BD
:1056E000DDCF4FF064514E2665514F2260514E245C
:1056F000256E61514F20266E000E276E010E286E1A
:105700001CEC6DF03CC001F03DC002F0000E046ED8
:105710000C0E036EE2EC6FF0110E0124D96E040E34
:105720000220DA6EDF501F6E3CC001F03DC002F077
:10573000000E046E0C0E036EE2EC6FF0120E0124EC
:10574000D96E040E0220DA6EDF50206E3CC001F0EC
:105750003DC002F0000E046E0C0E036EE2EC6FF022
:10576000100E0124D96E040E0220DA6EDF5008EC10
:1057700070F0D8903C34D96E3D34DA6E000ED926E4
:10578000020EDA22DECF1FF0DDCF20F0D8903C34BD
:10579000D96E3D34DA6E500ED926020EDA22DECFF3
:1057A0003EF0DDCF3FF0A70E3C24D96E010E3D2028
:1057B000DA6EDF50406E416A00016051405E615117
:1057C000415A3E5040263F50412262514024216EB2
:1057D00063514120226ED8903C34D96E3D34DA6E4C
:1057E000000ED926030EDA22DECF42F0DDCF43F0E1
:1057F000D8903C34D96E3D34DA6E000ED926020EB4
:10580000DA22DECF44F0DDCF45F042504424236E4F
:1058100043504520246ED8903C34D96E3D34DA6E26
:10582000500ED926020EDA22DECF46F0DDCF47F049
:10583000A70E3C24D96E010E3D20DA6EDF50486E73
:10584000496A465048264750492262514824256EED
:1058500063514920266E000E276E010E286E1CEC47
:105860006DF0A5D2D8903C34D96E3D34DA6E000E7E
:10587000D926020EDA22DECF1FF0DDCF20F0D8903D
:105880003C34D96E3D34DA6E500ED926020EDA223F
:10589000DECF3EF0DDCF3FF0A70E3C24D96E010EE7
:1058A0003D20DA6EDF50406E416A3E5040263F5048
:1058B000412264514024216E65514120226ED890CE
:1058C0003C34D96E3D34DA6E000ED926020EDA224F
:1058D000DECF42F0DDCF43F0D8903C34D96E3D347A
:1058E000DA6E000ED926030EDA22DECF44F0DDCFC9
:1058F00045F0D8904530476E4430466E930E3C24B8
:10590000D96E010E3D20DA6EDF50486ED8904832D5
:105910004850465E000E475A42504624236E43507C
:105920004720246ED8903C34D96E3D34DA6E500E48
:10593000D926020EDA22DECF49F0DDCF4AF0A70EDB
:105940003C24D96E010E3D20DA6EDF504B6E4C6A5E
:1059500060514B5E61514C5A49504B264A504C2283
:1059600064514B24256E65514C20266E000E276E27
:10597000010E286E1CEC6DF0D8903C34D96E3D348D
:10598000DA6E000ED926020EDA22DECF3EF0DDCF2F
:105990003FF0D8903C34D96E3D34DA6E000ED926F3
:1059A000030EDA22DECF40F0DDCF41F0D890413057
:1059B000436E4030426E930E3C24D96E010E3D2062
:1059C000DA6EDF50446ED890443244504226000EC6
:1059D00043223E5042241F6E3F504320206ED890F9
:1059E0003C34D96E3D34DA6E500ED926020EDA22DE
:1059F000DECF45F0DDCF46F0A70E3C24D96E010E78
:105A00003D20DA6EDF50476E486A00016051475E04
:105A10006151485A45504726465048226451472410
:105A2000216E65514820226ED8903C34D96E3D34A9
:105A3000DA6E000ED926030EDA22DECF49F0DDCF72
:105A40004AF0D8903C34D96E3D34DA6E000ED92637
:105A5000020EDA22DECF4BF0DDCF4CF049504B2462
:105A6000236E4A504C20246ED8903C34D96E3D347D
:105A7000DA6E500ED926020EDA22DECF4DF0DDCFDF
:105A80004EF0A70E3C24D96E010E3D20DA6EDF5099
:105A90004F6E506A4D504F264E50502264514F2445
:105AA000256E65515020266E000E276E010E286E61
:105AB0001CEC6DF03CC001F03DC002F0000E046E25
:105AC0000C0E036EE2EC6FF0170E0124D96E040E7B
:105AD0000220DA6EDF501F6E3CC001F03DC002F0C4
:105AE000000E046E0C0E036EE2EC6FF0180E012433
:105AF000D96E040E0220DA6EDF50206E3CC001F039
:105B00003DC002F0000E046E0C0E036EE2EC6FF06E
:105B1000160E0124D96E040E0220DA6EDF5008EC56
:105B200070F0D8903C34D96E3D34DA6E000ED92630
:105B3000020EDA22DECF3EF0DDCF3FF0D8903C34CB
:105B4000D96E3D34DA6E000ED926030EDA22DECF8E
:105B500040F0DDCF41F0D8904130436E4030426E8E
:105B6000930E3C24D96E010E3D20DA6EDF50446E58
:105B7000D89044324450425E000E435A3E50422474
:105B80001F6E3F504320206ED8903C34D96E3D3478
:105B9000DA6E500ED926020EDA22DECF45F0DDCFC6
:105BA00046F0A70E3C24D96E010E3D20DA6EDF5080
:105BB000476E486A00016051475E6151485A45503E
:105BC00047264650482264514724216E655148209B
:105BD000226ED8903C34D96E3D34DA6E000ED92650
:105BE000020EDA22DECF49F0DDCF4AF0D8903C3405
:105BF000D96E3D34DA6E000ED926030EDA22DECFDE
:105C00004BF0DDCF4CF0D8904C304E6E4B304D6E9B
:105C1000930E3C24D96E010E3D20DA6EDF504F6E9C
:105C2000D8904F324F504D26000E4E2249504D24F1
:105C3000236E4A504E20246ED8903C34D96E3D34A9
:105C4000DA6E500ED926020EDA22DECF50F0DDCF0A
:105C500051F0A70E3C24D96E010E3D20DA6EDF50C4
:105C6000526E536A5050522651505322645152245E
:105C7000256E65515320266E000E276E010E286E8C
:105C80001CEC6DF03CC001F03DC002F0000E046E53
:105C90000C0E036EE2EC6FF0110E0124D96E040EAF
:105CA0000220DA6EDF501F6E3CC001F03DC002F0F2
:105CB000000E046E0C0E036EE2EC6FF0120E012467
:105CC000D96E040E0220DA6EDF50206E3CC001F067
:105CD0003DC002F0000E046E0C0E036EE2EC6FF09D
:105CE000100E0124D96E040E0220DA6EDF5008EC8B
:105CF00070F0D8903C34D96E3D34DA6E000ED9265F
:105D0000020EDA22DECF1FF0DDCF20F0D8903C3437
:105D1000D96E3D34DA6E500ED926020EDA22DECF6D
:105D20003EF0DDCF3FF0000162513E24216E635111
:105D30003F20226ED8903C34D96E3D34DA6E000E8E
:105D4000D926030EDA22DECF40F0DDCF41F0D89025
:105D50003C34D96E3D34DA6E000ED926020EDA22BA
:105D6000DECF42F0DDCF43F040504224236E41505D
:105D70004320246ED8903C34D96E3D34DA6E500EF8
:105D8000D926020EDA22DECF44F0DDCF45F0625193
:105D900044266351452260514424256E61514520BB
:105DA000266E000E276E010E286E1CEC6DF0B00EF4
:105DB0003E6EFF0E3F6E000E406E040E416E3E5072
:105DC00040263F504122D8903C34D96E3D34DA6EA3
:105DD000D890D936DA364050D9264150DA22B00E62
:105DE000426EFF0E436E500E446E030E456E4250DF
:105DF000442643504522D8903C34E16E3D34E26E57
:105E0000D890E136E2364450E1264550E222DECF1A
:105E1000E6FFDECFE6FFDECFE6FFDECFE6FF500E89
:105E20003C24D96E040E3D20DA6E050EDE18D8A48F
:105E30004AEF3BF0B00E3E6EFF0E3F6E000E406E1E
:105E4000040E416E3E5040263F504122D8903C34D3
:105E5000D96E3D34DA6ED890D936DA364050D9262C
:105E60004150DA22DECF01F0DECF02F0DECF03F0C8
:105E7000DECF04F0B00E426EFF0E436E500E446E45
:105E8000030E456E4250442643504522D8903C3480
:105E9000D96E3D34DA6ED890D936DA364450D926E8
:105EA0004550DA22DECF05F0DECF06F0DECF07F078
:105EB000DECF08F027EC6BF0D8B04AEF3BF0B00E25
:105EC0003E6EFF0E3F6E000E406E040E416E3E5061
:105ED00040263F504122D8903C34D96E3D34DA6E92
:105EE000D890D936DA364050D9264150DA22DECF62
:105EF0001DF0DECF1EF0DECF1FF0DECF20F0D890F9
:105F00003C34D96E3D34DA6E000ED926030EDA2207
:105F1000DECF42F0DDCF43F0A70E3C24D96E010E58
:105F20003D20DA6EDF50446E4450425E000E435A0C
:105F300042C001F043C002F0036A046A000E73EC31
:105F400065F001C019F002C01AF003C01BF004C0D4
:105F50001CF016EC5FF019C032F01AC033F01BC011
:105F600034F01CC035F0ECEC68F032C064F033C0A3
:105F700065F0B00E3E6EFF0E3F6E500E406E030E8B
:105F8000416E3E5040263F504122D8903C34D96E5D
:105F90003D34DA6ED890D936DA364050D9264150A1
:105FA000DA22DECF1DF0DECF1EF0DECF1FF0DECF17
:105FB00020F0D8903C34D96E3D34DA6E000ED926EC
:105FC000030EDA22DECF42F0DDCF43F0A70E3C24F1
:105FD000D96E010E3D20DA6EDF50446E4450425EB1
:105FE000000E435A42C001F043C002F0036A046A43
:105FF000000E73EC65F001C019F002C01AF003C086
:106000001BF004C01CF016EC5FF019C032F01AC08F
:1060100033F01BC034F01CC035F0ECEC68F032C03B
:1060200062F033C063F03CC001F03DC002F0000EEE
:10603000046E0C0E036EE2EC6FF0140E0124D96EA8
:10604000040E0220DA6EDF501F6E3CC001F03DC02E
:1060500002F0000E046E0C0E036EE2EC6FF0150EF3
:106060000124D96E040E0220DA6EDF50206E3CC08F
:1060700001F03DC002F0000E046E0C0E036EE2EC67
:106080006FF0130E0124D96E040E0220DA6EDF5079
:1060900008EC70F03CC001F03DC002F0000E046E50
:1060A0000C0E036EE2EC6FF0140E0124D96E040E98
:1060B0000220DA6EDF501F6E3CC001F03DC002F0DE
:1060C000000E046E0C0E036EE2EC6FF0150E012450
:1060D000D96E040E0220DA6EDF50206E3CC001F053
:1060E0003DC002F0000E046E0C0E036EE2EC6FF089
:1060F000130E0124D96E040E0220DA6EDF501BEC61
:1061000070F0000E016E000E026E800E036E3F0EE8
:10611000046EB00E3E6EFF0E3F6E500E406E030ECC
:10612000416E3E5040263F504122D8903C34D96EBB
:106130003D34DA6ED890D936DA364050D9264150FF
:10614000DA22DECF05F0DECF06F0DECF07F0DECFBD
:1061500008F084EC68F0D8B0D0D1D8903C34D96E37
:106160003D34DA6E000ED926020EDA22DECF1FF0A1
:10617000DDCF20F0D8903C34D96E3D34DA6E500E2D
:10618000D926020EDA22DECF21F0DDCF22F0D89020
:106190003C34D96E3D34DA6E000ED926030EDA2275
:1061A000DECF3EF0DDCF3FF0D8903C34D96E3D34A9
:1061B000DA6E000ED926020EDA22DECF40F0DDCFF5
:1061C00041F03E504024236E3F504120246ED89031
:1061D0003C34D96E3D34DA6EA00ED926020EDA2296
:1061E000DECF42F0DDCF43F0D8903C34D96E3D3461
:1061F000DA6E500ED926020EDA22DECF44F0DDCF61
:1062000045F042504424256E43504520266E000E32
:10621000276E000E286E1CEC6DF03CC001F03DC0F6
:1062200002F0000E046E0C0E036EE2EC6FF01A0E1C
:106230000124D96E040E0220DA6EDF501F6E3CC0BE
:1062400001F03DC002F0000E046E0C0E036EE2EC95
:106250006FF01B0E0124D96E040E0220DA6EDF509F
:10626000206E3CC001F03DC002F0000E046E0C0E2A
:10627000036EE2EC6FF0190E0124D96E040E0220B9
:10628000DA6EDF5008EC70F0D8903C34D96E3D34B3
:10629000DA6E000ED926020EDA22DECF1FF0DDCF35
:1062A00020F0D8903C34D96E3D34DA6E500ED926A9
:1062B000020EDA22DECF3EF0DDCF3FF0D8903C3444
:1062C000D96E3D34DA6EA00ED926020EDA22DECF68
:1062D00040F0DDCF41F0D8904130436E4030426E07
:1062E000930E3C24D96E010E3D20DA6EDF50446ED1
:1062F000D89044324450425E000E435A3E504224ED
:10630000216E3F504320226ED8903C34D96E3D34EC
:10631000DA6E000ED926030EDA22DECF45F0DDCF8D
:1063200046F0D8903C34D96E3D34DA6E000ED92652
:10633000020EDA22DECF47F0DDCF48F04550472489
:10634000236E46504820246ED8903C34D96E3D349C
:10635000DA6E500ED926020EDA22DECF49F0DDCFFA
:106360004AF0D8903C34D96E3D34DA6EA00ED9266E
:10637000020EDA22DECF4BF0DDCF4CF0D8904C305D
:106380004E6E4B304D6E930E3C24D96E010E3D2067
:10639000DA6EDF504F6ED8904F324F504D26000EC0
:1063A0004E2249504D24256E4A504E20266E000E36
:1063B000276E010E286E1CEC6DF03CC001F03DC054
:1063C00002F0000E046E0C0E036EE2EC6FF0110E84
:1063D0000124D96E040E0220DA6EDF501F6E3CC01D
:1063E00001F03DC002F0000E046E0C0E036EE2ECF4
:1063F0006FF0120E0124D96E040E0220DA6EDF5007
:10640000206E3CC001F03DC002F0000E046E0C0E88
:10641000036EE2EC6FF0100E0124D96E040E022020
:10642000DA6EDF5008EC70F0D8903C34D96E3D3411
:10643000DA6E000ED926020EDA22DECF3EF0DDCF74
:106440003FF0000164513E241F6E65513F20206ED5
:10645000D8903C34D96E3D34DA6E500ED926020EF7
:10646000DA22DECF21F0DDCF22F0D8903C34D96E95
:106470003D34DA6E000ED926020EDA22DECF40F06D
:10648000DDCF41F0A70E3C24D96E010E3D20DA6E1F
:10649000DF50426E436A40504226415043226451CD
:1064A0004224236E65514320246ED8903C34D96E2B
:1064B0003D34DA6EA00ED926020EDA22DECF44F089
:1064C000DDCF45F0D8903C34D96E3D34DA6E500EB5
:1064D000D926020EDA22DECF46F0DDCF47F0445057
:1064E0004624256E45504720266E000E276E010E6D
:1064F000286E1CEC6DF012EF3BF000016451625D00
:1065000065516359D8B006D06251645D606F6351C4
:10651000655905D06451625D606F65516359616F63
:10652000A70E3C24D96E010E3D20DA6EDF503E6E80
:106530003F6A3E50605D3F506159D8A056D3D89015
:106540003C34D96E3D34DA6E000ED926020EDA22C2
:10655000DECF3EF0DDCF3FF062513E241F6E63512F
:106560003F20206ED8903C34D96E3D34DA6E500E08
:10657000D926020EDA22DECF21F0DDCF22F0D8902C
:106580003C34D96E3D34DA6E000ED926020EDA2282
:10659000DECF40F0DDCF41F0A70E3C24D96E010ED6
:1065A0003D20DA6EDF50426E436A40504226415031
:1065B000432262514224236E63514320246ED890BB
:1065C0003C34D96E3D34DA6E500ED926020EDA22F2
:1065D000DECF44F0DDCF45F0D8903C34D96E3D3469
:1065E000DA6EA00ED926020EDA22DECF46F0DDCF1B
:1065F00047F0D8904730496E4630486E930E3C24A1
:10660000D96E010E3D20DA6EDF504A6ED8904A32C4
:106610004A50485E000E495A44504824256E455061
:106620004920266E000E276E010E286E1CEC6DF0C0
:10663000D8903C34D96E3D34DA6E000ED926020E65
:10664000DA22DECF3EF0DDCF3FF0000162513E2482
:106650001F6E63513F20206ED8903C34D96E3D347C
:10666000DA6E500ED926020EDA22DECF40F0DDCFF0
:1066700041F0D8903C34D96E3D34DA6EA00ED92664
:10668000020EDA22DECF42F0DDCF43F0D890433065
:10669000456E4230446E930E3C24D96E010E3D206F
:1066A000DA6EDF50466ED890463246504426000ED1
:1066B000452240504424216E41504520226ED890FE
:1066C0003C34D96E3D34DA6E000ED926020EDA2241
:1066D000DECF47F0DDCF48F0A70E3C24D96E010E87
:1066E0003D20DA6EDF50496E4A6A475049264850CD
:1066F0004A2262514924236E63514A20246ED89065
:106700003C34D96E3D34DA6EA00ED926020EDA2260
:10671000DECF4BF0DDCF4CF0D8903C34D96E3D3419
:10672000DA6E500ED926020EDA22DECF4DF0DDCF22
:106730004EF04B504D24256E4C504E20266E000ED0
:10674000276E010E286E1CEC6DF000016451625D35
:1067500065516359D8B0C5D03CC001F03DC002F0CE
:10676000000E046E0C0E036EE2EC6FF0170E0124A7
:10677000D96E040E0220DA6EDF501F6E3CC001F0AD
:106780003DC002F0000E046E0C0E036EE2EC6FF0E2
:10679000180E0124D96E040E0220DA6EDF50206E2E
:1067A0003CC001F03DC002F0000E046E0C0E036E02
:1067B000E2EC6FF0160E0124D96E040E0220DA6EA0
:1067C000DF5008EC70F0D8903C34D96E3D34DA6E6E
:1067D000000ED926020EDA22DECF1FF0DDCF20F028
:1067E000D8903C34D96E3D34DA6E500ED926020E64
:1067F000DA22DECF3EF0DDCF3FF0D8903C34D96EC8
:106800003D34DA6EA00ED926020EDA22DECF40F039
:10681000DDCF41F0D8904130436E4030426E930E50
:106820003C24D96E010E3D20DA6EDF50446ED890C4
:1068300044324450425E000E435A3E504224216E80
:106840003F504320226ED8903C34D96E3D34DA6EEE
:10685000000ED926020EDA22DECF45F0DDCF46F05B
:10686000000164514524236E65514620246ED89062
:106870003C34D96E3D34DA6E500ED926020EDA223F
:10688000DECF47F0DDCF48F0D8903C34D96E3D34B0
:10689000DA6EA00ED926020EDA22DECF49F0DDCF65
:1068A0004AF0D8904A304C6E49304B6E930E3C24DF
:1068B000D96E010E3D20DA6EDF504D6ED8904D320C
:1068C0004D504B26000E4C2247504B24256E48500D
:1068D0004C20266E000E276E010E286E1CEC6DF00B
:1068E000E4D03CC001F03DC002F0000E046E0C0E7E
:1068F000036EE2EC6FF01A0E0124D96E040E022032
:10690000DA6EDF501F6E3CC001F03DC002F0000E99
:10691000046E0C0E036EE2EC6FF01B0E0124D96EB8
:10692000040E0220DA6EDF50206E3CC001F03DC044
:1069300002F0000E046E0C0E036EE2EC6FF0190E06
:106940000124D96E040E0220DA6EDF5008EC70F0DC
:10695000D8903C34D96E3D34DA6E000ED926020E42
:10696000DA22DECF3EF0DDCF3FF0A70E3C24D96E19
:10697000010E3D20DA6EDF50406E416A3E504026E7
:106980003F5041220001645140241F6E6551412057
:10699000206ED8903C34D96E3D34DA6E500ED92634
:1069A000020EDA22DECF42F0DDCF43F0D8903C3445
:1069B000D96E3D34DA6EA00ED926020EDA22DECF71
:1069C00044F0DDCF45F0D8904530476E4430466EF8
:1069D000930E3C24D96E010E3D20DA6EDF50486ED6
:1069E000D89048324850465E000E475A42504624DE
:1069F000216E43504720226ED8903C34D96E3D34EE
:106A0000DA6E000ED926030EDA22DECF49F0DDCF92
:106A10004AF0D8903C34D96E3D34DA6E000ED92657
:106A2000020EDA22DECF4BF0DDCF4CF049504B2482
:106A3000236E4A504C20246ED8903C34D96E3D349D
:106A4000DA6E500ED926020EDA22DECF4DF0DDCFFF
:106A50004EF0D8903C34D96E3D34DA6EA00ED92673
:106A6000020EDA22DECF4FF0DDCF50F0D89050305A
:106A7000526E4F30516E930E3C24D96E010E3D2064
:106A8000DA6EDF50536ED890533253505126000EB9
:106A900052224D505124256E4E505220266E000E2B
:106AA000276E010E286E1CEC6DF03CC001F03DC05D
:106AB00002F0000E046E0C0E036EE2EC6FF0110E8D
:106AC0000124D96E040E0220DA6EDF501F6E3CC026
:106AD00001F03DC002F0000E046E0C0E036EE2ECFD
:106AE0006FF0120E0124D96E040E0220DA6EDF5010
:106AF000206E3CC001F03DC002F0000E046E0C0E92
:106B0000036EE2EC6FF0100E0124D96E040E022029
:106B1000DA6EDF5008EC70F0D8903C34D96E3D341A
:106B2000DA6E000ED926020EDA22DECF3EF0DDCF7D
:106B30003FF0000164513E241F6E65513F20206EDE
:106B4000D8903C34D96E3D34DA6E500ED926020E00
:106B5000DA22DECF21F0DDCF22F0D8903C34D96E9E
:106B60003D34DA6E000ED926020EDA22DECF40F076
:106B7000DDCF41F0A70E3C24D96E010E3D20DA6E28
:106B8000DF50426E436A40504226415043226451D6
:106B90004224236E65514320246ED8903C34D96E34
:106BA0003D34DA6EA00ED926020EDA22DECF44F092
:106BB000DDCF45F0D8903C34D96E3D34DA6E500EBE
:106BC000D926020EDA22DECF46F0DDCF47F0445060
:106BD0004624256E45504720266E000E276E010E76
:106BE000286E1CEC6DF012EF3BF06451625D655154
:106BF0006359D8B072D2D8903C34D96E3D34DA6E35
:106C0000000ED926020EDA22DECF3EF0DDCF3FF0B5
:106C100062513E241F6E63513F20206ED8903C3459
:106C2000D96E3D34DA6E500ED926020EDA22DECF4E
:106C300021F0DDCF22F0D8903C34D96E3D34DA6EAD
:106C4000000ED926020EDA22DECF40F0DDCF41F071
:106C5000625140266351412260514024236E6151AC
:106C60004120246ED8903C34D96E3D34DA6E500EFB
:106C7000D926020EDA22DECF42F0DDCF43F0D890E3
:106C80003C34D96E3D34DA6EA00ED926020EDA22DB
:106C9000DECF44F0DDCF45F0D8904530476E44302C
:106CA000466E930E3C24D96E010E3D20DA6EDF5005
:106CB000486ED89048324850465E000E475A4250BF
:106CC0004624256E43504720266E000E276E010E87
:106CD000286E1CEC6DF0D8903C34D96E3D34DA6EE1
:106CE000000ED926020EDA22DECF3EF0DDCF3FF0D5
:106CF000000162513E241F6E63513F20206ED890E8
:106D00003C34D96E3D34DA6E500ED926020EDA22AA
:106D1000DECF40F0DDCF41F0D8903C34D96E3D3429
:106D2000DA6EA00ED926020EDA22DECF42F0DDCFD7
:106D300043F0D8904330456E4230446E930E3C246D
:106D4000D96E010E3D20DA6EDF50466ED890463285
:106D500046504426000E452240504424216E4150A6
:106D60004520226ED8903C34D96E3D34DA6E000E48
:106D7000D926020EDA22DECF47F0DDCF48F062518D
:106D800047266351482260514724236E61514820B1
:106D9000246ED8903C34D96E3D34DA6EA00ED926DC
:106DA000020EDA22DECF49F0DDCF4AF0D8903C3433
:106DB000D96E3D34DA6E500ED926020EDA22DECFBD
:106DC0004BF0DDCF4CF049504B24256E4A504C20FF
:106DD000266E000E276E010E286E1CEC6DF03CC076
:106DE00001F03DC002F0000E046E0C0E036EE2ECEA
:106DF0006FF0170E0124D96E040E0220DA6EDF50F8
:106E00001F6E3CC001F03DC002F0000E046E0C0E7F
:106E1000036EE2EC6FF0180E0124D96E040E02200E
:106E2000DA6EDF50206E3CC001F03DC002F0000E73
:106E3000046E0C0E036EE2EC6FF0160E0124D96E98
:106E4000040E0220DA6EDF5008EC70F0D8903C346B
:106E5000D96E3D34DA6E000ED926020EDA22DECF6C
:106E60003EF0DDCF3FF0000162513E241F6E6351C2
:106E70003F20206ED8903C34D96E3D34DA6E500EEF
:106E8000D926020EDA22DECF40F0DDCF41F0D890D5
:106E90003C34D96E3D34DA6EA00ED926020EDA22C9
:106EA000DECF42F0DDCF43F0D8904330456E423024
:106EB000446E930E3C24D96E010E3D20DA6EDF50F5
:106EC000466ED89046324650445E000E455A4050B9
:106ED0004424216E41504520226ED8903C34D96E16
:106EE0003D34DA6E000ED926020EDA22DECF47F0EC
:106EF000DDCF48F062514726635148226051472454
:106F0000236E61514820246ED8903C34D96E3D34B4
:106F1000DA6E500ED926020EDA22DECF49F0DDCF2E
:106F20004AF0D8903C34D96E3D34DA6EA00ED926A2
:106F3000020EDA22DECF4BF0DDCF4CF0D8904C3091
:106F40004E6E4B304D6E930E3C24D96E010E3D209B
:106F5000DA6EDF504F6ED8904F324F504D26000EF4
:106F60004E2249504D24256E4A504E20266E000E6A
:106F7000276E010E286E1CEC6DF03CC001F03DC088
:106F800002F0000E046E0C0E036EE2EC6FF0110EB8
:106F90000124D96E040E0220DA6EDF501F6E3CC051
:106FA00001F03DC002F0000E046E0C0E036EE2EC28
:106FB0006FF0120E0124D96E040E0220DA6EDF503B
:106FC000206E3CC001F03DC002F0000E046E0C0EBD
:106FD000036EE2EC6FF0100E0124D96E040E022055
:106FE000DA6EDF5008EC70F0D8903C34D96E3D3446
:106FF000DA6E000ED926020EDA22DECF3EF0DDCFA9
:107000003FF0A70E3C24D96E010E3D20DA6EDF5012
:10701000406E416A00016051405E6151415A3E50EC
:1070200040263F504122645140241F6E655141204B
:10703000206ED8903C34D96E3D34DA6E500ED9268D
:10704000020EDA22DECF21F0DDCF22F0D8903C34E0
:10705000D96E3D34DA6E000ED926020EDA22DECF6A
:1070600042F0DDCF43F0A70E3C24D96E010E3D2047
:10707000DA6EDF50446E456A425044264350452242
:1070800064514424236E65514520246ED8903C34CD
:10709000D96E3D34DA6EA00ED926020EDA22DECF8A
:1070A00046F0DDCF47F0D8903C34D96E3D34DA6EEF
:1070B000500ED926020EDA22DECF48F0DDCF49F09D
:1070C00046504824256E47504920266E000E276EF4
:1070D000010E286E1CEC6DF0A5D2D8903C34D96E10
:1070E0003D34DA6E000ED926020EDA22DECF3EF0F3
:1070F000DDCF3FF0A70E3C24D96E010E3D20DA6EA5
:10710000DF50406E416A3E5040263F50412262515E
:1071100040241F6E63514120206ED8903C34D96EBC
:107120003D34DA6E500ED926020EDA22DECF21F07F
:10713000DDCF22F0D8903C34D96E3D34DA6E000EAB
:10714000D926020EDA22DECF42F0DDCF43F0A70EC1
:107150003C24D96E010E3D20DA6EDF50446E456A44
:107160006051445E6151455A425044264350452285
:1071700062514424236E63514520246ED8903C34E0
:10718000D96E3D34DA6E500ED926020EDA22DECFE9
:1071900046F0DDCF47F0D8903C34D96E3D34DA6EFE
:1071A000A00ED926020EDA22DECF48F0DDCF49F05C
:1071B000D89049304B6E48304A6E930E3C24D96EBD
:1071C000010E3D20DA6EDF504C6ED8904C324C50A0
:1071D0004A5E000E4B5A46504A24256E47504B20BB
:1071E000266E000E276E010E286E1CEC6DF0D890F6
:1071F0003C34D96E3D34DA6E000ED926020EDA2206
:10720000DECF3EF0DDCF3FF0A70E3C24D96E010E5D
:107210003D20DA6EDF50406E416A00016051405EF1
:107220006151415A3E5040263F5041226251402414
:107230001F6E63514120206ED8903C34D96E3D348E
:10724000DA6E500ED926020EDA22DECF42F0DDCF02
:1072500043F0D8903C34D96E3D34DA6EA00ED92676
:10726000020EDA22DECF44F0DDCF45F0D890453073
:10727000476E4430466E930E3C24D96E010E3D207D
:10728000DA6EDF50486ED890483248504626000EDD
:10729000472242504624216E43504720226ED89008
:1072A0003C34D96E3D34DA6E000ED926020EDA2255
:1072B000DECF49F0DDCF4AF0A70E3C24D96E010E97
:1072C0003D20DA6EDF504B6E4C6A49504B264A50D7
:1072D0004C2262514B24236E63514C20246ED89073
:1072E0003C34D96E3D34DA6EA00ED926020EDA2275
:1072F000DECF4DF0DDCF4EF0D8903C34D96E3D342A
:10730000DA6E500ED926020EDA22DECF4FF0DDCF34
:1073100050F04D504F24256E4E505020266E000EDA
:10732000276E010E286E1CEC6DF03CC001F03DC0D4
:1073300002F0000E046E0C0E036EE2EC6FF01A0EFB
:107340000124D96E040E0220DA6EDF501F6E3CC09D
:1073500001F03DC002F0000E046E0C0E036EE2EC74
:107360006FF01B0E0124D96E040E0220DA6EDF507E
:10737000206E3CC001F03DC002F0000E046E0C0E09
:10738000036EE2EC6FF0190E0124D96E040E022098
:10739000DA6EDF5008EC70F0D8903C34D96E3D3492
:1073A000DA6E000ED926020EDA22DECF3EF0DDCFF5
:1073B0003FF0A70E3C24D96E010E3D20DA6EDF505F
:1073C000406E416A00016051405E6151415A3E5039
:1073D00040263F504122625140241F6E635141209C
:1073E000206ED8903C34D96E3D34DA6E500ED926DA
:1073F000020EDA22DECF42F0DDCF43F0D8903C34EB
:10740000D96E3D34DA6EA00ED926020EDA22DECF16
:1074100044F0DDCF45F0D8904530476E4430466E9D
:10742000930E3C24D96E010E3D20DA6EDF50486E7B
:10743000D89048324850465E000E475A4250462483
:10744000216E43504720226ED8903C34D96E3D3493
:10745000DA6E000ED926020EDA22DECF49F0DDCF39
:107460004AF0A70E3C24D96E010E3D20DA6EDF50A3
:107470004B6E4C6A49504B264A504C2262514B2469
:10748000236E63514C20246ED8903C34D96E3D3429
:10749000DA6E500ED926020EDA22DECF4DF0DDCFA5
:1074A0004EF0D8903C34D96E3D34DA6EA00ED92619
:1074B000020EDA22DECF4FF0DDCF50F0D890503000
:1074C000526E4F30516E930E3C24D96E010E3D200A
:1074D000DA6EDF50536ED890533253505126000E5F
:1074E00052224D505124256E4E505220266E000ED1
:1074F000276E010E286E1CEC6DF03CC001F03DC003
:1075000002F0000E046E0C0E036EE2EC6FF0110E32
:107510000124D96E040E0220DA6EDF501F6E3CC0CB
:1075200001F03DC002F0000E046E0C0E036EE2ECA2
:107530006FF0120E0124D96E040E0220DA6EDF50B5
:10754000206E3CC001F03DC002F0000E046E0C0E37
:10755000036EE2EC6FF0100E0124D96E040E0220CF
:10756000DA6EDF5008EC70F0D8903C34D96E3D34C0
:10757000DA6E000ED926020EDA22DECF3EF0DDCF23
:107580003FF0000164513E241F6E65513F20206E84
:10759000D8903C34D96E3D34DA6E500ED926020EA6
:1075A000DA22DECF21F0DDCF22F0D8903C34D96E44
:1075B0003D34DA6E000ED926020EDA22DECF40F01C
:1075C000DDCF41F064514026655141226051402495
:1075D000236E61514120246ED8903C34D96E3D34E5
:1075E000DA6EA00ED926020EDA22DECF42F0DDCF0F
:1075F00043F0D8903C34D96E3D34DA6E500ED92623
:10760000020EDA22DECF44F0DDCF45F042504424B2
:10761000256E43504520266E000E276E010E286E03
:107620001CEC6DF0B00E3E6EFF0E3F6E000E406E15
:10763000040E416E3E5040263F504122D8903C34CB
:10764000D96E3D34DA6ED890D936DA364050D92624
:107650004150DA22B00E426EFF0E436E500E446E61
:10766000030E456E4250442643504522D8903C3488
:10767000E16E3D34E26ED890E136E2364450E126C8
:107680004550E222DECFE6FFDECFE6FFDECFE6FFAB
:10769000DECFE6FF500E3C24D96E040E3D20DA6E9C
:1076A000060EDE18D8A4E9EF44F0B00E3E6EFF0ED1
:1076B0003F6E000E406E040E416E3E5040263F501D
:1076C0004122D8903C34D96E3D34DA6ED890D93608
:1076D000DA364050D9264150DA22DECF01F0DECF33
:1076E00002F0DECF03F0DECF04F0B00E426EFF0EEC
:1076F000436E500E446E030E456E42504426435076
:107700004522D8903C34D96E3D34DA6ED890D936C3
:10771000DA364450D9264550DA22DECF05F0DECFE6
:1077200006F0DECF07F0DECF08F027EC6BF0D8B024
:10773000E9EF44F0B00E3E6EFF0E3F6E000E406E5D
:10774000040E416E3E5040263F504122D8903C34BA
:10775000D96E3D34DA6ED890D936DA364050D92613
:107760004150DA22DECF15F0DECF16F0DECF17F073
:10777000DECF18F0000E116E000E126E800E136E2A
:107780003F0E146E89EC6EF011C01DF012C01EF099
:1077900013C01FF014C020F0D8903C34D96E3D3493
:1077A000DA6EA00ED926020EDA22DECF42F0DDCF4D
:1077B00043F0A70E3C24D96E010E3D20DA6EDF5057
:1077C000446E4450425E000E435A42C001F043C032
:1077D00002F0036A046A000E73EC65F001C019F050
:1077E00002C01AF003C01BF004C01CF016EC5FF0DE
:1077F00019C032F01AC033F01BC034F01CC035F091
:10780000ECEC68F032C064F033C065F0B00E3E6E50
:10781000FF0E3F6E500E406E030E416E3E504026EE
:107820003F504122D8903C34D96E3D34DA6ED89026
:10783000D936DA364050D9264150DA22DECF15F05B
:10784000DECF16F0DECF17F0DECF18F0000E116E8F
:10785000000E126E800E136E3F0E146E89EC6EF0E9
:1078600011C01DF012C01EF013C01FF014C020F094
:10787000D8903C34D96E3D34DA6EA00ED926020E73
:10788000DA22DECF42F0DDCF43F0A70E3C24D96EE2
:10789000010E3D20DA6EDF50446E4450425E000E11
:1078A000435A42C001F043C002F0036A046A000E6A
:1078B00073EC65F001C019F002C01AF003C01BF0B0
:1078C00004C01CF016EC5FF019C032F01AC033F09F
:1078D0001BC034F01CC035F0ECEC68F032C062F034
:1078E00033C063F03CC001F03DC002F0000E046EF6
:1078F0000C0E036EE2EC6FF0140E0124D96E040E30
:107900000220DA6EDF501F6E3CC001F03DC002F075
:10791000000E046E0C0E036EE2EC6FF0150E0124E7
:10792000D96E040E0220DA6EDF50206E3CC001F0EA
:107930003DC002F0000E046E0C0E036EE2EC6FF020
:10794000130E0124D96E040E0220DA6EDF5008EC0B
:1079500070F03CC001F03DC002F0000E046E0C0E51
:10796000036EE2EC6FF0140E0124D96E040E0220B7
:10797000DA6EDF501F6E3CC001F03DC002F0000E19
:10798000046E0C0E036EE2EC6FF0150E0124D96E3E
:10799000040E0220DA6EDF50206E3CC001F03DC0C4
:1079A00002F0000E046E0C0E036EE2EC6FF0130E8C
:1079B0000124D96E040E0220DA6EDF501BEC70F049
:1079C000000E016E000E026E800E036E3F0E046EFE
:1079D000B00E3E6EFF0E3F6E500E406E030E416EB7
:1079E0003E5040263F504122D8903C34D96E3D3421
:1079F000DA6ED890D936DA364050D9264150DA229C
:107A0000DECF05F0DECF06F0DECF07F0DECF08F0E8
:107A100084EC68F0D8B04DEF41F03CC001F03DC0BF
:107A200002F0000E046E0C0E036EE2EC6FF0140E0A
:107A30000124D96E040E0220DA6EDF501F6E3CC0A6
:107A400001F03DC002F0000E046E0C0E036EE2EC7D
:107A50006FF0150E0124D96E040E0220DA6EDF508D
:107A6000206E3CC001F03DC002F0000E046E0C0E12
:107A7000036EE2EC6FF0130E0124D96E040E0220A7
:107A8000DA6EDF5008EC70F03CC001F03DC002F04F
:107A9000000E046E0C0E036EE2EC6FF0140E012467
:107AA000D96E040E0220DA6EDF501F6E3CC001F06A
:107AB0003DC002F0000E046E0C0E036EE2EC6FF09F
:107AC000150E0124D96E040E0220DA6EDF50206EEE
:107AD0003CC001F03DC002F0000E046E0C0E036EBF
