:020000040000fa
:04005c00fc020000a2
:020000040000fa
:04007c00fc02000082
:020000040000fa
:04000c00fc020000f2
:020000040000fa
:0400b400fc0200004a
:020000040000fa
:0400b000fc0200004e
:020000040000fa
:04014000fc020000bd
:020000040000fa
:04010800fc020000f5
:020000040000fa
:04010400fc020000f9
:020000040000fa
:04014400fc020000b9
:020000040000fa
:04007000fc0200008e
:020000040000fa
:04007400fc0200008a
:020000040000fa
:04013400fc020000c9
:020000040000fa
:04011400fc020000e9
:020000040000fa
:04011800fc020000e5
:020000040000fa
:04003800fc020000c6
:020000040000fa
:04020800fc020000f4
:020000040000fa
:04020c00fc020000f0
:020000040000fa
:04023000fc020000cc
:020000040000fa
:04023400fc020000c8
:020000040000fa
:04023800fc020000c4
:020000040000fa
:04006000fc0200009e
:020000040000fa
:04008800fc02000076
:020000040000fa
:0400b800fc02000046
:020000040000fa
:0400e000fc0200001e
:020000040000fa
:04011c00fc020000e1
:020000040000fa
:04013800fc020000c5
:020000040000fa
:04013c00fc020000c1
:020000040000fa
:04020000fc020000fc
:020000040000fa
:04020400fc020000f8
:020000040000fa
:04001c00fc020000e2
:020000040000fa
:04001000fc020000ee
:020000040000fa
:04021c00fc020000e0
:020000040000fa
:04022400fc020000d8
:020000040000fa
:04022c00fc020000d0
:020000040000fa
:04024400fc020000b8
:020000040000fa
:04024c00fc020000b0
:020000040000fa
:04025400fc020000a8
:020000040000fa
:04025c00fc020000a0
:020000040000fa
:04002c00fc020000d2
:020000040000fa
:04003c00fc020000c2
:020000040000fa
:0400bc00fc02000042
:020000040000fa
:0400c000fc0200003e
:020000040000fa
:0400c400fc0200003a
:020000040000fa
:0400c800fc02000036
:020000040000fa
:04008000fc0200007e
:020000040000fa
:04008400fc0200007a
:020000040000fa
:04019c00fc02000061
:020000040000fa
:04026000fc0200009c
:020000040000fa
:04002800fc020000d6
:020000040000fa
:04007800fc02000086
:020000040000fa
:04009c00fc02000062
:020000040000fa
:0400fc00fc02000002
:020000040000fa
:04010000fc020000fd
:020000040000fa
:0401b800fc02000045
:020000040000fa
:0401bc00fc02000041
:020000040000fa
:0401c000fc0200003d
:020000040000fa
:0401c400fc02000039
:020000040000fa
:0401c800fc02000035
:020000040000fa
:0401cc00fc02000031
:020000040000fa
:0401d000fc0200002d
:020000040000fa
:0401d400fc02000029
:020000040000fa
:0401d800fc02000025
:020000040000fa
:0401dc00fc02000021
:020000040000fa
:0401e000fc0200001d
:020000040000fa
:0401e400fc02000019
:020000040000fa
:0401e800fc02000015
:020000040000fa
:0401ec00fc02000011
:020000040000fa
:0401f000fc0200000d
:020000040000fa
:0401f400fc02000009
:020000040000fa
:0401f800fc02000005
:020000040000fa
:0401fc00fc02000001
:020000040000fa
:04023c00fc020000c0
:020000040000fa
:04012400fc020000d9
:020000040000fa
:04012800fc020000d5
:020000040000fa
:04014800fc020000b5
:020000040000fa
:04015000fc020000ad
:020000040000fa
:04015800fc020000a5
:020000040000fa
:04015c00fc020000a1
:020000040000fa
:04016000fc0200009d
:020000040000fa
:04016400fc02000099
:020000040000fa
:04016800fc02000095
:020000040000fa
:04017800fc02000085
:020000040000fa
:04017c00fc02000081
:020000040000fa
:0401b000fc0200004d
:020000040000fa
:0401b400fc02000049
:020000040000fa
:04026400fc02000098
:020000040000fa
:04006c00fc02000092
:020000040000fa
:0400f000fc0200000e
:020000040000fa
:04001800fc020000e6
:020000040000fa
:04006400fc0200009a
:020000040000fa
:04021800fc020000e4
:020000040000fa
:04022000fc020000dc
:020000040000fa
:04022800fc020000d4
:020000040000fa
:04024000fc020000bc
:020000040000fa
:04024800fc020000b4
:020000040000fa
:04025000fc020000ac
:020000040000fa
:04025800fc020000a4
:020000040000fa
:04003000fc020000ce
:020000040000fa
:04004000fc020000be
:020000040000fa
:04008c00fc02000072
:020000040000fa
:04009000fc0200006e
:020000040000fa
:0400cc00fc02000032
:020000040000fa
:0400d000fc0200002e
:020000040000fa
:0400d400fc0200002a
:020000040000fa
:0400d800fc02000026
:020000040000fa
:04019800fc02000065
:020000040000fa
:04000800fc020000f6
:020000040000fa
:0400dc00fc02000022
:020000040000fa
:0401a000fc0200005d
:020000040000fa
:0401a400fc02000059
:020000040000fa
:0401a800fc02000055
:020000040000fa
:0401ac00fc02000051
:020000040000fa
:04014c00fc020000b1
:020000040000fa
:04010c00fc020000f1
:020000040000fa
:04011000fc020000ed
:020000040000fa
:04015400fc020000a9
:020000040000fa
:04012000fc020000dd
:020000040000fa
:04002400fc020000da
:020000040000fa
:04006800fc02000096
:020000040000fa
:0400ec00fc02000012
:020000040000fa
:04004c00fc020000b2
:020000040000fa
:04005000fc020000ae
:020000040000fa
:0400a800fc02000056
:020000040000fa
:0400ac00fc02000052
:020000040000fa
:04019000fc0200006d
:020000040000fa
:04019400fc02000069
:020000040000fa
:04021000fc020000ec
:020000040000fa
:04021400fc020000e8
:020000040000fa
:04002000fc020000de
:020000040000fa
:04001400fc020000ea
:020000040000fa
:04003400fc020000ca
:020000040000fa
:04004400fc020000ba
:020000040000fa
:04004800fc020000b6
:020000040000fa
:04009400fc0200006a
:020000040000fa
:04009800fc02000066
:020000040000fa
:0400e400fc0200001a
:020000040000fa
:0400e800fc02000016
:020000040000fa
:0400f400fc0200000a
:020000040000fa
:0400f800fc02000006
:020000040000fa
:04012c00fc020000d1
:020000040000fa
:04005400fc020000aa
:020000040000fa
:04005800fc020000a6
:020000040000fa
:04013000fc020000cd
:020000040000fa
:0400a000fc0200005e
:020000040000fa
:0400a400fc0200005a
:020000040000fa
:04016c00fc02000091
:020000040000fa
:04017000fc0200008d
:020000040000fa
:04017400fc02000089
:020000040000fa
:04018400fc02000079
:020000040000fa
:04018800fc02000075
:020000040000fa
:04018c00fc02000071
:020000040000fa
:04018000fc0200007d
:020000040000fa
:080000000002040000000000f2
:020000040000fa
:10040000ef0121000eff27000e0188000000000010
:10041000000020000000e000020032000001200087
:10042000200288000c00070000fa200001002000d4
:100430001d000700000020000000e0000200320064
:100440000000020000000000220f02000000000077
:100450000040da000000fe00200020000000e00064
:100460000200320010002000900188000000060009
:10047000f03fb1000180b10006003500ee03090035
:1004800000000000403fb1000180b100fbff3d00d3
:100490001000b000203fb0000200350000800900cd
:1004a0000000000000000600a10288008000780023
:1004b0000000eb001a003700e280400054a0b400b6
:1004c0009101ba00e280400054a0b4009102ba0049
:1004d000e280400054a0b4000002eb00472bde0095
:1004e000f507b200a6018800602ce10008003a0080
:1004f0000049eb000201e800020039003420ec0062
:1005000002f0a0008301e900f9ff3e00040037007b
:100510006128e100010032000082eb000b000700bf
:1005200011c3ba001101ba000604e00003003a004a
:100530000200e000e0ff3a0000000600f607b2000b
:10054000a602880082007800f5ff370004d0a300df
:10055000e20f49001c003900810278003549ba00d9
:100560000201e800020039003420ec0002f0a00093
:100570008301e9000f0032002549ba000201e800ba
:10058000020039003420ec0002f0a0008301e900f1
:10059000080032000400e0000600320015c9ba006d
:1005a0000201e800020039003420ec0002f0a00053
:1005b0008301e9008180e80054a0b4000300e0005a
:1005c000e2ff3a00000006009102ba0005597800e7
:1005d0008301e900f7ff3200c82ade0005597800e0
:1005e0008301e900f3ff32000400e000f1ff320074
:1005f00011d9ba00eeff37000040da000000fe001b
:10060000839f68000100e00002003d0060001000d0
:10061000e08018000300e00002003d0060011100ce
:10062000e0811900de0007004f00e00002003b00ff
:1006300060001000e08018000000060003f0a20037
:10064000889fbe008a9fbe008c1f7800e4000700d0
:10065000eb0033006450e1004f0032006420e10001
:100660005200320003826c0007003b000905d000f5
:100670000306d000820f54000c065d000200390012
:100680000200320089017800030678008582550057
:1006900004003d000003fd008103fd008502ea0027
:1006a0008b854200840f720002003b006000100046
:1006b000e08018006011b8000005eb007a28e10026
:1006c0000a00390006007800c75ddd00f707b200b8
:1006d000878075002d003700828171000a01780043
:1006e000610560008180d1000080d3008502e900af
:1006f000f9ff3b00060440008784480002003b00ed
:1007000060041400e0841c000988a3000700320084
:100710008a81710082817100610164008904d100c5
:100720000884d3008b05e800170037000978a30080
:1007300013003a000b00e000130034008b05e900c1
:100740000804440089844c000a4474000978a3001a
:100750000d003a000b00e000070034008b05e900b3
:100760000804440089844c0001003a000b0020007a
:100770000978a300f7ff32000001eb000200370008
:10078000828171000a017800ad0007000cf0a7001b
:1007900001f0a000a30037006420e10002003a004d
:1007a000838f6c00a30033000801be000200be006e
:1007b0009c003700889fbe008a9fbe008c1f780077
:1007c000870007008e00330003866c006450e10050
:1007d000240032006420e100270032006150e10073
:1007e000220032006120e100210032008b854200ae
:1007f000eb07b1000134b800003ab8000804420029
:1008000089844a00013ab8000030b800888040006e
:1008100009014a00040033000000400081804800c4
:10082000020149008b05e900c909dd008301700060
:100830000100320013002000c814de004814dd005f
:100840004709de001200b200c808de00088470000c
:100850007b00070001f0a1000cf0a70001f0a00050
:10086000700037006120e100720032000801be0014
:100870000200be00f7ff37006150e100fcff3a00c4
:100880006c003700889fbe008a9fbe008c1f7800d6
:10089000530007005a00330003866c006450e100e7
:1008a0002e0032006420e100330032006150e1008c
:1008b0002f0032006120e1003100320085855500b3
:1008c000eb07b000090020000804200005003700f5
:1008d0000804440089844c000a00310006034300e8
:1008e00087834b000001530081815b00f8ff3300d8
:1008f0000203be000800a0000804440089844c00e4
:10090000f6ff3900c639dd008301730001003200b3
:10091000130020008904d1000884d3000998a300a3
:10092000050032000800a7000300a0008904d100e0
:100930000884d3008b05e8008904d1000884d30023
:100940000001eb000281d2003d00070001f0a10090
:100950000cf0a70001f0a000320037006420e10095
:10096000340032000801be000200be00f7ff37006d
:100970006120e1002f0032006000b800f3ff370073
:100980000000200001f82700f0ff37004f89de004b
:1009900082017800500037006011b8005e00370017
:1009a0006022b800060220000000d0008180d20042
:1009b0000482d2008582d2000000a0000202520010
:1009c00083825a00030031000202420083824a00ff
:1009d0000000a1000603e900f3ff3a000000060052
:1009e0000004be007b0007000003be000405be003b
:1009f0000200be0077000700844f7500000006006b
:100a00000200be006450e100050036006420e100f1
:100a1000020036000968a30001003a000800be0089
:100a20000160a0004f0678004f05be004f04be00d5
:100a300000000600f0ff2f00f1ff2700f9ff37004c
:100a400081002000618055000b003d000b0020005c
:100a500061fe2f000100e1001d0034008281710061
:100a6000610164008904d1000884d3000000e8001b
:100a7000faff3a007100200061006400030070007a
:100a8000020060000900320061044400e0844c0070
:100a90000988a500050032008b05e8006808e10020
:100aa00002003a008904d1000884d300f20f20002c
:100ab0000258e10005003d00c75ddd00f907b20006
:100ac0008980750008007800000006000bf82700f8
:100ad0008b00780000000500881f78000304780070
:100ae0000300e00007003d0060001000e0801800f7
:100af00060011900e081190002003b0001f02d00a7
:100b0000030037000400070008f0a70001f0a00070
:100b10004f04780000000600889fbe008a9fbe0038
:100b2000008270000402710004827100260032000d
:100b30000004be000200be006011b8006b09200076
:100b4000950220000182cf000a0039000541b10062
:100b50000082cf00070039000541b1000982cf00b3
:100b6000040039000541b1000882cf0001003900be
:100b70000541b10005425200120032000a003b005c
:100b800082817100610164008100d1000080d30086
:100b90008984d3000884d3008b05e8000442e80070
:100ba000f7ff3a00070037000804440089844c002e
:100bb00000004800818048008b05e9000442e900fc
:100bc000f9ff3a009eff07004f05be004f04be002c
:100bd00000000600c70ade00f107b200f50fb20000
:100be00008003200e1cf4200020032000170a00094
:100bf00024000500810f7000010032000408050088
:100c000044000500810f700002003a001400050046
:100c10008502e9000000400081c04800fcff3b0065
:080c20000170a0002400050092
:020000040000fa
:0200000401f009
:04000800cfff000026
:020000040000fa
:0200000401f009
:04000c00fbff0000f6
:020000040000fa
:0200000401f009
:040010001eff0000cf
:020000040000fa
:0200000401f009
:040014007aff00006f
:020000040000fa
:0200000401f009
:04001800efff0000f6
:020000040000fa
:0200000401f009
:04001c00dfff000002
:020000040000fa
:0200000401f009
:04002000cfff00000e
:020000040000fa
:0200000401f009
:0400240055ff000084
:020000040000fa
:100c28000001eb000100e000080032001004e000c1
:100c380003003a00050037005004e00003003200ca
:100c48000201e800828f5000fbff3e00020078009e
:100c5800000006000500e000250032000100e00069
:100c68000c0032001004e0000a0032008003780013
:100c78000003eb00020037005704e00003003200d5
:100c88000603e800868f5000fbff3e00820f5300ea
:100c980002003e00004aeb00150037008280410048
:100ca800810f530001003e0082015300858f5100df
:100cb80001003600850178008000eb000300e000a9
:100cc800070032000200400004037800305b78001f
:100cd8008100e800818f5100fcff3e00830078000e
:100ce800818f520002003600810042008048eb00ec
:100cf80004007800000006000001780081027800f6
:100d08006000b8000500e00046003200124078009c
:100d180001cdb30081404000e9cf50000c003600ff
:100d2800d1c2b300814f500019003a0004003700c7
:100d3800d4c2b300844f500017003a0001003700b6
:100d48008001eb008301e80017c0b3000200370000
:100d58008001eb008043eb006000b800838f5200f5
:100d68002a00360003014100124278006000b800f2
:100d7800f6c2b300864f52002400360090c3b30079
:100d8800804f52000e0036006000b8001f00370088
:100d9800820078008001eb008301e800838f520015
:100da8001f0036005140780004cdb30004424000d3
:100db800e94f5200deff3e008043eb00e9ff3700b9
:100dc8006000b800ea0bb9006a00b800810043006f
:100dd8000482fb000403b1004fa3de0000004200c0
:100de80081004b008301e800838f52000700360022
:100df80052427800f6c2b300864f52000300360014
:100e08006a434300864f5200eeff36000704e000b5
:100e18000400320060001000e080180000000600a6
:100e28006000b80000000600010161008180ea004e
:100e38009080600001087100000006000282ea004c
:100e480091086200028161001002620004087100ca
:100e580000000600908060000281fb000208de00ae
:100e68000000060091087100100161000380fb007a
:100e78000010de0000000600889fbe008044780055
:100e88000904e000080032000044eb000060fe00a6
:100e9800001721001100200073fd07000844e80036
:100ea80088cf5400f9ff3e004f04be000000060042
:100eb800889fbe008a1f7800004578008044eb00b8
:100ec8000a04e0000a003a000b00370010c0b30023
:100ed800e9ff07000804e800703e2000800f540076
:100ee800faff3a008944e800894f550002003600ad
:100ef8000004eb00f5ff37004f0578004f04be00f3
:100f080000000600889fbe0000047800f00f200053
:100f1800800f540007003600a05b24000100200069
:100f280051fd0700f80fb100f00f2000800f5400aa
:100f3800f9ff3e000800e000070032000880fb00cf
:100f48006104b8006104200081c9b9000140b800fb
:100f58008100410044fd07004f04be000000060068
:100f6800881f780000047800f00f2000800f5400dc
:100f78000700360000e92500011120003afd0700ae
:100f8800f80fb100f00f2000800f5400f9ff3e0069
:100f98000800e000050032000884fb00001721006b
:100fa8000040b800810044002ffd07004f0478007e
:100fb80000000600881f780000047800f00f200069
:100fc800800f54000600360000c0eb00aaff07009f
:100fd800f80fb100f00f2000800f5400faff3e0018
:100fe8000800e0000200320008407800a2ff070075
:100ff8004f04780000000600881f7800000478007d
:10100800f00f2000800f540007003600002826004b
:10101800117f220014fd0700f80fb100f00f200027
:10102800800f5400f9ff3e000800e0000a0032007b
:101038000880fb008000eb0003d821008389b900f9
:10104800c44220008482b900040141000300b800b2
:101058008100410004fd07004f04780000000600ed
:10106800881f780000047800f00f2000800f5400db
:101078000600360000c0eb008dff0700f80fb10036
:10108800f00f2000800f5400faff3e000800e00037
:10109800020032000840780085ff07004f047800fe
:1010a80000000600889fbe008a9fbe008c1f780043
:1010b80000057800820478000306780004047800ac
:1010c8000a007800d6fe0700800578008c007800ba
:1010d80009007800d2fe07008080eb00888f550059
:1010e800140036008000eb008801450001814400af
:1010f8009341780092cf510006003a008100e80041
:10110800808f500007003a006100100088004000fe
:10111800080037000100e00002003200010454001a
:101128008000eb000804e800888f5500eeff3e00c1
:101138008080eb00010078004f0678004f05be0064
:101148004f04be0000000600e6874700889fbe00e7
:101158008a9fbe008c9fbe008e1f78008006780094
:101168000106780082057800030578008404780079
:1011780085bf9f00f6b79f008a0078000b007800b3
:10118800a7fe0700000778000fb897000048eb009b
:101198000004eb000900e0000900320008027800b2
:1011a8008a0178000b0178008c0078000d00780027
:1011b800bcff07000e0440008904e900f7ff3a006d
:1011c800080278008a0178000b0178008c0078000a
:1011d8000d007800b3ff07000000e00007003200b0
:1011e800ffb297000fba97008801500008017800f5
:1011f8008c0078000d00780096fe07004f077800f5
:101208004f06be004f05be004f04be006f00b10080
:1012180000000600f6874700889fbe008a9fbe0030
:101228008c9fbe008e1f78008004780002467800ec
:1012380003077800840678000900780078fe070024
:10124800800578000b00e0002e0032000005eb005e
:101258000040eb000004eb00b94078008ccf500050
:1012680011003a000080fb0002c0b3002002b10068
:101278008277780041012000e0fd2f000f00400038
:101288009dfe07000001be008a00450081804600df
:10129800820878000a05e8008e0f55001900320010
:1012a8000040eb0007003700f24f500005003e00f9
:1012b8000081fb00814178002202b1008377790028
:1012c8000040e8000804e800888f5500e2ff3e006f
:1012d8000004e0000b0032000080fb0002c0b300f5
:1012e8002002b1008277780041012000e0fd2f0044
:1012f8000f00400080fe07000a0545008a86460068
:10130800800e78004f0778004f06be004f05be00dc
:101318004f04be006f01b100000006000000fa0093
:10132800889fbe008a9fbe008c1f78000604be00fe
:101338006fb59700ffb597000605550087855d00d6
:10134800020050008380580080dbb9008a8eb90003
:101358000c0343000050b800810043000201520012
:1013680083815a00a4fc07000000440081804c00df
:101378004f0678004f05be004f04be000080fa00fb
:10138800000006000400fa00889fbe008a9fbe0085
:101398008c9fbe000204be0084bf9f0095bf9f00c3
:1013a8000606be000801be00a2fc07000005be003c
:1013b8000c01be003fb09700cfb097009dfc07001e
:1013c8000001be000a00be00f8fc07000005be00d0
:1013d8000801be000fb897009fb8970095fc07005a
:1013e8000001be000a00be0024fd07000c01be007b
:1013f80091fc07004f06be004f05be004f04be001b
:101408000080fa000000060020aea90024aea80063
:10141800208ea80070ff2f00202eb600242eb600c4
:1014280000f82f00c806b6004001b3004036880017
:10143800f00f2c00213480000101600001502000d1
:1014480082807000213488008606b6000160200082
:101458008080700031348800c0012000101288009c
:1014680042a2a80042c2a9004302a8004322a90040
:1014780040c2a90041e2a8001000050041e2a9000d
:1014880020aea800208ea800206ea800000006004c
:10149800411280000080fb00401288004002ab002f
:1014a800feff320040128000000006008080fb0032
:1014b800918088000004e00003003a00b001200099
:1014c8009080880049003700e14f500003003a003f
:1014d800e00120009080880044003700e24f50006f
:1014e80003003a00b0002000908088003f003700d9
:1014f800e34f500003003a0030002000908088003d
:101508003a003700e44f500003003a006001200021
:101518009080880035003700e54f500003003a00fe
:10152800d00120009080880030003700e64f50003e
:1015380003003a00e0002000908088002b0037006c
:10154800e74f500003003a00a00020009080880078
:1015580026003700e84f500003003a0060002000e2
:101568009080880021003700e94f500003003a00be
:1015780090012000908088001c003700ea4f50003e
:1015880003003a00500120009080880017003700bf
:10159800eb4f500003003a00c00120009080880003
:1015a80012003700ec4f500003003a008001200081
:1015b800908088000d003700ed4f500003003a007e
:1015c800400120009080880008003700ee4f50004e
:1015d80003003a00000120009080880003003700d3
:1015e800ef4f500001003a001230ef0041e2a9002d
:1015f80000fe2f004222b600908080007f0060002d
:101608004222b70041e2a800000006007eff070062
:1016180010000500889fbe008a1f78000205780028
:101628000041eb00810f55000c003e0012c0b300d2
:101638000a00e00009003200000478008004eb0092
:101648001840780092ff0700005c78008904e800e1
:10165800890f5500faff3e0012c0b300024078001f
:101668004f0578004f04be000000060083ff3700d6
:10167800e14f500005003e000080fb0000004000e4
:101688006200210000004100010878000000060007
:10169800308088004180880000000600308080008b
:1016a800418080000000060030808000418080007a
:1016b8000000060006f0b700014278007000210023
:1016c80004487800824078008000210001487800b2
:1016d8000340780009f0b700000006008040780059
:1016e8000000eb00e1cf500005003e008180fb00c8
:1016f80081804000600021008100400011007800d6
:1017080000000600e34f500004003e000080fb008c
:101718006200210000004100014878000000060036
:10172800804078000040eb00e3cf500004003e000a
:101738008180fb006000210081004000114078009a
:101748000000060030808800418088000000060004
:10175800b1ff2f0000e22000108860002071800097
:1017680001006000107188000000060000000600fb
:1017780000000600204ea900207180000020a00073
:10178800107188000000060001002000000005001c
:10179800881f78004801210030c4b300004c78004d
:1017a8000800e80011012100914078000148780004
:1017b8000000e8000101210091407800014878000c
:1017c8000000e800f100210091407800014878000d
:1017d8000000e800e100210091407800014878000d
:1017e800dbff070052002000a1002000080078005d
:1017f80088ff0700dfff07004f047800000006009d
:1018080001ff07001170ef001070ef000f70ef007c
:101818000e70ef00deff0700010020000000050049
:10182800889fbe008a1f7800c9ff070010d0bf003c
:101838000028a3000d003a004001210081c0b30038
:101848000148780012002000a100200071ff070065
:1018580006003700c02b20000100200002fb070013
:101868000804e90002003a00240037000871220049
:1018780083c0b3000210200001e3200020e3200011
:1018880078fd0700e10f5000f2ff32004801210007
:101898000040eb00004c78008804e800804c780099
:1018a8000885e800004d780032002000a1002000e3
:1018b8000800780057ff0700184178009940780021
:1018c8001a4078008041eb007aff0700a9ff070063
:1018d80075ff0700f2ff2f00f3072000820f50006a
:1018e800838f5800060034000200200003f02f0008
:1018f8000000410081804900010037006000b80005
:101908004f0578004f04be000000060001002000cb
:10191800000005000100200000000500889fbe00af
:101928008a9fbe00beff07000001be001101210012
:10193800914078008100d100e7806000e4cf50003a
:101948001300320006003e00e2cf50001f003200b4
:101958000c003e00e1cf500019003a0006003700a5
:10196800e6cf5000100032000c003900e7cf5000dd
:1019780013003a000f0037000a0020000b00240073
:10198800140037000a0020000b1024001100370053
:101998000a0020000b1824000e0037000a0020005f
:1019a8000b2024000b0037000a0020000b2824001d
:1019b800080037000a0020000b302400050037001b
:1019c8000a0020000bf82300020037000a0020005c
:1019d8000b0824000200be00eafb070002002e00ec
:1019e8002359240071fb07000004be0002002000f8
:1019f80003a824000a00be006cfb07000001be001b
:101a08000800be009dfb07004f05be004f04be0046
:101a180000000600010020000000050000417800d9
:101a28006000b800e34f51001c003e0063016100f4
:101a38004411dd000274a0001101210091407800da
:101a4800010fb2000280fb00808f500012003200ac
:101a580011d0bf006f4060000041710082407800e3
:101a6800100121000148780039ff070040012100da
:101a780001c4b300014878008000e8001201210089
:101a8800124178008248780022002000a10020003e
:101a9800e0fe070037ff070061ff070000000600af
:101aa8009eff070002002000a3472400e1fa070078
:101ab80092f626006307240070fb3700889fbe005b
:101ac8008a1f78000144780088407800d3ff070017
:101ad8000ac1b300e44f54001300320009003e006d
:101ae8004ac0b300e24f54000f0032008ac0b3006e
:101af8000d003e002ac0b300e14f540009003a002f
:101b0800090037000ac4b300e64f5400060032004b
:101b18000ac2b300040039000ac8b300e74f5400f2
:101b2800010032001ac0b30096fb07000200200033
:101b3800034023001dfb0700f22621003300240088
:101b48001afb07000004be000a80fb008000eb00bf
:101b58008ffb07000001be000800be0047fb07001e
:101b68004f0578004f04be00000006000100200069
:101b78000000050080417800014278006000b8004c
:101b8800e3cf510046003e00e34f520044003e00c0
:101b980084cf5100420032000304e00008003a00fc
:101ba800e24f520010003200e34f520003003200af
:101bb800e14f520034003a003a00370002c2b30045
:101bc800e1cf510009003a00e24f520037003200dd
:101bd800e34f52000a00320002c6b3000404e000da
:101be800020032002a00370002c1b300e2cf5100e0
:101bf80006003a00e34f520027003a00020037007f
:101c080002c4b3000100370002c5b300e3cf51009e
:101c180004003a006000b800e24f520020003a0089
:101c280002c7b3001101210091407800010fb200f2
:101c38000280fb00808f50001200320011d0bf00dc
:101c48006f4060000041710082407800100121005f
:101c580001487800befe07004001210001c4b3001e
:101c6800014878008000e800120121001241780044
:101c78008248780022002000a100200065fe0700ad
:101c8800bcfe0700e6fe370001002000000005004a
:101c980001002000000005000100200000000500f0
:101ca800000006000041eb00d0ff370002c3b3007c
:101cb800d6ff3700889fbe008a1f7800024478004c
:101cc80008417800abff07000ac1b300e44f540095
:101cd8001300320009003e004ac0b300e24f54002e
:101ce8000f0032008ac0b3000d003e002ac0b300c6
:101cf800e14f540009003a00090037000ac4b30054
:101d0800e64f5400060032000ac2b300040039004e
:101d18000ac8b300e74f5400010032001ac0b300ec
:101d280018fb070002002000034023009ffa070069
:101d3800f2262100330024009cfa07000004be00ac
:101d48000a80fb008000eb0011fb07000001be00c9
:101d58000800be00c9fa07004f0578004f04be000e
:101d680000000600881f7800a7fd070000e62a008b
:101d7800a1002000bcf9070075fe070048012100fa
:101d880060c0b300004c780012002000a1002000c1
:101d9800080078001ffe070076fe070000e62a000c
:101da800a1002000b0f907001170ef001101210017
:101db8009140780010012100014878001070ef0070
:101dc80001012100914078000001210001487800bc
:101dd80001012100914078000001210001487800ac
:101de8001050a8000f70ef000fd0a8000f90a800a7
:101df8000f10a8000e70ef0000c6b3000e70b700f9
:101e08000e90a800e100210091407800e000210038
:101e1800014878005efe070080c0b300004c7800df
:101e280012002000a100200008007800f9fd07003a
:101e38000040eb004f047800000006001e2eef0063
:101e48002e2eef003e2eef004e2eef006e2eef00ee
:101e580000f82f00ce06b6009007b3007036880051
:101e680040042000303a8800f0f32f004427b600e1
:101e780000fe2f004427b6004827ef0040a7a9001e
:101e8800a1092000320020008007200033742000c0
:101e980080497800814978008249780071052000de
:101ea800120020006004200023742000804978007c
:101eb800814978008249780001002700103a8000a3
:101ec8008080600000002300808f5000faff3a00f5
:101ed80042a7ab00feff3200104c2200c03a880037
:101ee80070002000d03a880059e7a80059c7ab0015
:101ef800feff32009bff07008040eb0001407800a6
:101f0800c6fe07008040eb0001407800ebfe0700aa
:101f18000041eb0011c0b3000240780015ff070034
:101f28000041eb0011c0b3000240780061ff0700d8
:081f3800dbfe0700ffff37008c
:020000040000fa
:101f4000141000000a0000008000000012100000c1
:101f500002000000820000001c00000000100000d1
:0c1f6000120000008000000000000000e3
:00000001FF
