:0400000080311B2808
:100008007E1480312000911E19282100911E192884
:10001800003081314A21803170082000CF004F081C
:10002800D00050088131BC2191127E100900803126
:100038001D2820308400003085002F3083311C2398
:100048008031A030840000308500483083311C2383
:1000580080312030840001308500283083311C2312
:100068007E1020008231D32ADD01DE01DF01E001AC
:10007800E101CC01DC015928823154228031510838
:10008800520403194F288131F52180315108DB00D2
:100098005B08DD00592801308231E6228031600892
:1000A800013EE0000030613DE1005D0A031964286B
:1000B8005A086102031D622859086002031C40287F
:1000C8005D0A03198428D5288231542280310030F2
:1000D8005202033003195102031C7A288131F52199
:1000E80080315108DB005B08DE0084280130823152
:1000F800E62280316008013EE0000030613DE10009
:100108005E08031D8F285A086102031D8D285908AF
:100118006002031C68285E0A031DD5288131F52179
:1001280080315108DB005B08A0008131F521803166
:100138005108DB005B08A1002108FE3EDB005B08DC
:10014800CC004C085F020318D32882315422803136
:1001580000305202033003195102031CC8288131B0
:10016800F52180315108DB005F08223E86008701B7
:100178005B0881005F08013EDB005B08DF0012308E
:100188005F020318D528A52801308231E622803184
:100198006008013EE0000030613DE100A528DC0177
:1001A800DC0A5C080800E500E401E7015E08023E9D
:1001B800DF005F08E6006608DF005F08D1005D0821
:1001C800E0006008D2005E08E1006108D30065081D
:1001D800823125228031E2006208E400FF30D1003C
:1001E8000030D200833122238031FF302000D1003B
:1001F8000030D20083312223803120006508DF00DF
:10020800E0015F08D1006008D200833122238031E9
:1002180020006608DF00E0015F08D1006008D20016
:1002280083312223803120005D08DF00E0015F0870
:10023800D1006008D20083312223803120005E087B
:10024800670203183C296708D43E86008701010825
:10025800DF00E0015F08D1006008D200833122236B
:10026800803120006708013EDF005F08E70022298F
:100278006408DF00E0015F08D1006008D200833124
:10028800222380318331282301300800FC0000300C
:10029800FA000230FB00F801F501F901F4017C0ACB
:1002A800031D5829F501F50A7908031D8E297508DB
:1002B800031D81297C08031D6429F901F90A812994
:1002C800F601F7010130F6070030F73D00307702FC
:1002D800043003197602031C66297808013EF200EF
:1002E8007208F80064307806031D81297C08FF3EF7
:1002F800F2007208FC006400F80100302000911A36
:100308000130FD007D08031958290230F2007208F7
:10031800F900582902307906031DB7290030230057
:100328001D190130FD007D0803199F2919080030A7
:10033800FA000430B62900309D180130FD007D0810
:100348000319AC291D121D160030FA000830B62911
:10035800FA01FB017A081904F2007B08F30072081D
:10036800FA007308FB007B08F1007A08F000080027
:10037800F2004808013EF5000030493DF600003023
:100388007602203003197502031CCC29F501F60109
:1003980047087606031DD229460875060319E12980
:1003A8007208F0004808A03E8600870170088100A6
:1003B8007608C9007508C80008004608013EF30021
:1003C8000030473DF40000307402203003197302F6
:1003D800031CF029F301F4017408C7007308C60070
:1003E800D42949084706031DFB294808460603196E
:1003F8001C2A4608A03E860087010108D300D401C4
:100408005308D5005408D6004608013ED7000030EE
:10041800473DD80000305802203003195702031C0A
:10042800172AD701D8015808C7005708C600202A3C
:10043800FF30D5000030D6005608D2005508D1004C
:100448000800D800DC015208D400D501580851072B
:10045800D600D701D70D54085607DA005508573D7E
:10046800DB0053085C0203184E2A5C08D43E860061
:10047800870101085A07D4005B0803185B0AD500F6
:100488005408DA005508DB005C08013ED400540823
:10049800DC00352A5A09D4005408D9005908080044
:1004A80049084702031D5A2A480846020318622AC7
:1004B80046084802D5004708493B752A47084902BB
:1004C800031D682A460848020318772A4608480286
:1004D800D3004708493BD4005308203ED5000030DC
:1004E800543DD600792AD501D6015608D2005508C0
:1004F800D10008000A340A347D340A340A344D34F1
:1005080058345F3455344134523454345F344934A8
:100518004E3454345F34463455344E3443345F34A7
:1005280045344E3444340A3400342000E900DD01F7
:10053800DD0ADE0169088031D72082311430D90004
:100548000030DA0080313820E8006808EA006A08DC
:1005580008004D3458345F34553449344E345434DB
:1005680038342034463443344C345F3452345834AD
:100578003B340A340A34003469346634203428346D
:100588004D3458345F3455344134523454345F3424
:1005980049344E3454345F344334483400342300EF
:1005A8008C018D018F019001C030210095008331AD
:1005B8003123823183312E238231013082319922D5
:1005C8008231E52AD20001302000D202520A0319F2
:1005D800080007302000D1006030890BF12AD10BC8
:1005E800F12A0032E72A23001E150A309B009D01DC
:1005F8009D179E161D16210091160B178B170800C4
:100608005F3444344534543429340A347B340A344E
:100618000A3400345F34463455344E3443340A3493
:100628000A3400345F3443344C3452343B3400349D
:10063800640080010131890B1D2B0034111E222B0F
:10064800510823009A0008002000C801C901C6010A
:0C065800C70108008231F72208000800EA
:020000040001F9
:04000E00E2CFFFDE60
:00000001FF
