:100000000C944C020C946D020C946D020C946D02D5
:100010000C946D020C946D020C946D020C946D02A4
:100020000C946D020C946D020C946D020C946D0294
:100030000C946D020C946D020C946D020C946D0284
:100040000C946D020C946D020C946D020C946D0274
:100050000C946D020C946D020C946D020C946D0264
:100060000C946D020C94C9180C946D020C946D02E2
:100070000C946D020C946D020C946D020C946D0244
:100080000C946D020C946D020C946D020C946D0234
:100090000C9451180C946D020C946D020C946D022A
:1000A0000C946D020C946D020C946D020C946D0214
:1000B0000C946D020C946D020C946D020C946D0204
:1000C0000C946D020C946D020C946D020C947918D2
:1000D0000C946D020C946D020C94A1180C946D029A
:1000E0000C946D024E0C570C600C690C720C7B0C5E
:1000F000840C950CA60CB70CD90CE20CEB0CF40C90
:10010000FD0C0E0D210D320D450D4E0D660D6F0DC2
:10011000780D810D8A0D930D9C0DA50DAE0DB70DBB
:10012000CF0DD80DE10DEA0DF30DFC0D050E0E0EF1
:10013000170E200E380E410E4A0E5B0E6C0E7D0E11
:100140008E0E9F0EB00EC10E160F1A0F1F0F250F29
:10015000280F2B0F2E0F390F430F4E0F6A0F6F0F03
:10016000750F7B0F840F8C0F940F9E0FA70FAD0F91
:10017000C30FC60FC90FCD0FD20FD80FDE0FE30F7D
:10018000E90FEF0F08100B10111017101C102210A0
:1001900025102A102E1037104E10511054106210D6
:1001A0006D10781082108D109810A2105F156215D6
:1001B000651568156B156E157115741586158915FD
:1001C0008C158F159215951598159B15AF15B215B1
:1001D000B515B815BB15BE15C115C415D615D9155D
:1001E000DC15DF15E215E515E815EB1509160916FE
:1001F000101610161016171617161E163616361667
:100200003D163D163D1644164416441660166416F7
:10021000681670167816801685168A16A116A91605
:10022000B116B916C116C916D116D9160C94C11536
:100230000C946E150C94AD0F0C9498100C941A0F2E
:100240000C948C150C944E0F0C94CD0F0C948615B9
:100250000C948D100C9462100C94E30F0C941C10F1
:100260000C94600C0C94D1160C94A9160C94AE0D41
:100270000C94B9160C94C60F0C9498150C94DF15B9
:100280000C94B70D0C946A0F0C94D9150C94780D3E
:100290000C947D0E0C948E0E0C94C30F0C94B00E27
:1002A0000C949E0F0C9485160C94EA0D0C947B0C08
:1002B0000C9482100C94DC150C9408100C94170EFE
:1002C0000C949B150C94E5150C94E90F0C94951562
:1002D0000C9462150C9417160C945F150C9444162C
:1002E0000C94D20F0C9489150C94D6150C947B0F9A
:1002F0000C94A1160C94390F0C94EB150C94C415A6
:100300000C9480160C94380E0C9437100C94C90F72
:100310000C94200E0C94EF0F0C946F0F0C942B0F79
:100320000C94690C0C944E100C94720C0C945B0E93
:100330000C94FC0D0C949F0E0C94750F0C94C91624
:100340000C94D80D0C94210D0C944E0C0C94840F2D
:100350000C94AF150C9471150C94B5150C94570CA6
:100360000C94A2100C9492150C94E2150C94701637
:100370000C948A0D0C948A160C9422100C94BE15C1
:100380000C949C0D0C948F150C942A100C94BB1596
:100390000C94D80F0C94160F0C94FD0C0C94B21501
:1003A0000C944A0E0C94CF0D0C94D90C0C9410168E
:1003B0000C94050E0C94660D0C94B1160C943D161D
:1003C0000C94280F0C9474150C9409160C940E0DB3
:1003D0000C940B100C9454100C94430F0C94F30DCC
:1003E0000C94810D0C94320D0C94C10E0C9460167B
:1003F0000C9478100C94840C0C94B70C0C94681624
:100400000C9478160C946C0E0C94F40C0C946815E7
:100410000C9411100C94E10D0C94E20C0C94250F2B
:100420000C941F0F0C946B150C94EB0C0C94410E58
:100430000C94C1160C942E0F0C9465150C94A50DFC
:100440000C9417100C942E100C94A70F0C94930D71
:100450000C9425100C94450D0C9451100C94950C93
:100460000C94DE0F0C946D100C9436160C94E81559
:100470000C948C0F0C946F0D0C941E160C94940F0E
:100480000C94A60C0C94D9160C94B8150C940E0E62
:100490000C9464160C944E0D11241FBECFEFD1E2C4
:1004A000DEBFCDBF00E00CBF12E0A0E0B2E0EAE3A7
:1004B000F2E300E00BBF02C007900D92A830B10735
:1004C000D9F725E0A8E0B2E001C01D92A63AB20734
:1004D000E1F70E9417180C941B190C9400002CEFE4
:1004E00033E08F3F910539F030F0F9013197F1F7A2
:1004F0008F5F9109F6CF009731F0880F991F880F11
:10050000991F0197F1F70895982F977090933703EB
:1005100090934F04883040F480917B00877F8093D4
:100520007B0080E390E007C080917B00886080932F
:100530007B0087E091E09093390380933803E0914A
:100540003803F091390381E090E000904F0402C03D
:10055000880F991F0A94E2F7809590818923808300
:10056000606860937A0080913703806230E4439F33
:10057000A0011124482B40937C00222331F034E069
:10058000239FC00111240197F1F780917A008064C4
:1005900080937A00089590917A0096FDFCCF88238D
:1005A00071F020917800809179002295269526950A
:1005B000237034E0839FC0011124822B0895809121
:1005C000790090E00895EAE7F0E080818F778083FA
:1005D00008958CE08093B8001092B900089584EAE1
:1005E0008093BC008FEF9FEF9093A1058093A005AF
:1005F0008091BC0087FD0DC08091A0059091A10560
:100600009C01215031093093A1052093A005892B2D
:1006100079F708958093BB0088E290E00197F1F7A5
:1006200084E88093BC008FEF9FEF9093A1058093A7
:10063000A0058091BC0087FF06C08091B900887F2B
:10064000883179F41EC08091A0059091A1059C018C
:10065000215031093093A1052093A005892B49F73A
:10066000ECCF8091B900887F883259F08091B90031
:10067000887F803431F09091B900987F81E0903587
:1006800009F480E00895882311F084E801C084EC27
:100690008093BC008FEF9FEF9093A1058093A005FE
:1006A0008091BC0087FF03C08091BB0008958091BA
:1006B000A0059091A1059C01215031093093A1051D
:1006C0002093A005892B61F7EFCF809311058091CE
:1006D0000802811105C081E0809308020E94E902AE
:1006E00081E00895EF92FF920F931F93CF93DF93D2
:1006F0006417750718F480E090E023C0EA018C01CC
:100700000E94EF0280911105880F81600E940A0308
:100710008111F1CF780100E010E0C017D10769F036
:100720000F5F1F4F81E0C017D10709F080E00E94E2
:100730004303F70181937F01F0CF84E98093BC00EC
:10074000CE01DF91CF911F910F91FF90EF9008950F
:10075000DF92EF92FF920F931F93CF93DF938C0161
:10076000EA0157FF03C0DF77D12C02C0DD24D39408
:100770006C177D0718F480E090E021C00E94EF0222
:1007800080911105880F0E940A038111F4CF78012E
:1007900000E010E0C017D10741F0F70181917F011F
:1007A0000E940A03882339F0E801DD2039F084E94A
:1007B0008093BC0003C00F5F1F4FECCFCE01DF91D1
:1007C000CF911F910F91FF90EF90DF900895279A9E
:1007D0002F9884B58C7B84BD84B5816884BD0895D1
:1007E00084B58F7784BD279808959D9AA59884B580
:1007F0008C7E84BD84B5816284BD089584B58F7D6F
:1008000084BD9D980895611581E07807D1F058F472
:100810006830710591F06034710589F061307105BF
:10082000B1F481E115C06E3F8FEF780771F058F495
:100830006115744061F485E10BC082E109C083E178
:1008400007C084E105C086E103C087E101C080E103
:1008500085BD0895259A2D98E0E8F0E080818C7B95
:1008600080838081806880830895E0E8F0E0808163
:100870008F77808325980895269A2E98E0E8F0E0F7
:1008800080818C7E80838081806280830895E0E80F
:10089000F0E080818F7D808326980895279A2F9895
:1008A000E0E8F0E08081887F8083808188608083B9
:1008B0000895E0E8F0E08081877F8083279808959D
:1008C0009093870080938600611581E07807D1F0CE
:1008D00058F46830710591F06034710589F0613029
:1008E0007105B1F481E115C06E3F8FEF780771F0AB
:1008F00058F46115744061F485E10BC082E109C0D0
:1009000083E107C084E105C086E103C087E101C03F
:1009100080E1809381000895249A2C98E0EBF0E028
:1009200080818C7B80838081816880830895E0EB67
:10093000F0E080818F77808324980895E1E0F1E0F2
:10094000808180648083E2E0F1E080818F7B80831E
:10095000E0EBF0E080818C7E808380818162808307
:100960000895E0EBF0E080818F7D8083E1E0F1E0AD
:1009700080818F7B80830895611581E07807D1F0B5
:1009800058F46830710591F06034710589F0613078
:100990007105B1F481E115C06E3F8FEF780771F0FA
:1009A00058F46115744061F485E10BC082E109C01F
:1009B00083E107C084E105C086E103C087E101C08F
:1009C00080E18093B10008956B9A7398E0E9F0E0BC
:1009D00080818C7B80838081806880830895E0E9BA
:1009E000F0E080818F7780836B9808956C9A74987B
:1009F000E0E9F0E080818C7E80838081806280836A
:100A00000895E0E9F0E080818F7D80836C980895FF
:100A10006D9A7598E0E9F0E08081887F808380811D
:100A2000886080830895E0E9F0E08081877F80839B
:100A30006D9808959093970080939600611581E0DA
:100A40007807D1F058F46830710591F06034710581
:100A500089F061307105B1F481E115C06E3F8FEF0F
:100A6000780771F058F46115744061F485E10BC0AA
:100A700082E109C083E107C084E105C086E103C0CB
:100A800087E101C080E1809391000895E1E0F1E009
:100A9000808188608083E2E0F1E08081877F8083CD
:100AA000E0EAF0E080818C7B8083808180688083B5
:100AB0000895E0EAF0E080818F778083E1E0F1E063
:100AC0008081877F80830895E1E0F1E0808180610B
:100AD0008083E2E0F1E080818F7E8083E0EAF0E0D5
:100AE00080818C7E80838081806280830895E0EAAB
:100AF000F0E080818F7D8083E1E0F1E080818F7E76
:100B000080830895E1E0F1E0808180628083E2E00B
:100B1000F1E080818F7D8083E2EAF0E08081887F50
:100B200080838081886080830895E2EAF0E080819C
:100B3000877F8083E1E0F1E080818F7D808308956D
:100B40009093A7008093A600611581E07807D1F00B
:100B500058F46830710591F06034710589F06130A6
:100B60007105B1F481E115C06E3F8FEF780771F028
:100B700058F46115744061F485E10BC082E109C04D
:100B800083E107C084E105C086E103C087E101C0BD
:100B900080E18093A1000895EAE0F1E0808188601F
:100BA0008083EBE0F1E08081877F8083E0E2F1E009
:100BB00080818C7B80838081806880830895E0E2DF
:100BC000F1E080818F778083EAE0F1E08081877FA8
:100BD00080830895EAE0F1E0808180618083EBE02A
:100BE000F1E080818F7E8083E0E2F1E080818C7E85
:100BF00080838081806280830895E0E2F1E08081DB
:100C00008F7D8083EAE0F1E080818F7E808308958C
:100C1000EAE0F1E0808180628083EBE0F1E08081B6
:100C20008F7D8083E0E2F1E08081887F8083808116
:100C3000886080830895E0E2F1E08081877F80838F
:100C4000EAE0F1E080818F7D808308959093270111
:100C500080932601611581E07807D1F058F468305F
:100C6000710591F06034710589F061307105B1F45E
:100C700081E115C06E3F8FEF780771F058F4611570
:100C8000744061F485E10BC082E109C083E107C0D3
:100C900084E105C086E103C087E101C080E1809363
:100CA00021010895239A2B9A2498259A2D9881E062
:100CB0000895282F98E080E0880F27FF02C02B9A24
:100CC00001C02B984091000230E0341719F0000069
:100CD0003F5FFBCF2D9A4091000230E0341719F0AE
:100CE00000003F5FFBCF2D9835B134B11C99816076
:100CF000220F915009F708950F931F93CF93DF931D
:100D00006417750770F0EC018C01040F151FC017F4
:100D1000D10729F088810E9459068993F8CF81E094
:100D200001C080E0DF91CF911F910F910895A0EC59
:100D3000B0E01C92E1ECF0E0108286E08093C2000B
:100D400080E18093C4001092C5008C9182608C93E6
:100D500080818061808380818860808380818F77BB
:100D6000808308959091C00095FFFCCF8093C600CA
:100D70000895382F20E08F3FB1F0332381F04115E3
:100D8000510551F42F5F283261F43150A89540E1AC
:100D900050E090E020E008C04150510904C091E0CB
:100DA00003C040E150E090E06091C00067FD03C0E7
:100DB000992309F306C08091C00084FF04C080918C
:100DC000C6008FEF06C08091C00083FDF8CF8091F0
:100DD000C60090E00895A8ECB0E01C92E9ECF0E0C9
:100DE000108286E08093CA0080E18093CC0010924C
:100DF000CD008C9182608C93808180618083808122
:100E00008860808380818F77808308951092C800E6
:100E10001092C90008959091C80095FFFCCF80936F
:100E2000CE000895382F20E08F3FB1F0332381F0BA
:100E30004115510551F42F5F283261F43150A895C6
:100E400040E150E090E020E008C04150510904C06A
:100E500091E003C040E150E090E06091C80067FD80
:100E600003C0992309F306C08091C80084FF04C021
:100E70008091CE008FEF06C08091C80083FDF8CF2F
:100E80008091CE0090E00895CF93DF938930D8F51C
:100E9000882381F0813089F0823091F0833091F0A5
:100EA000843091F0853091F0863091F0873091F068
:100EB000D3E011C0D0E4C3E00FC0D0EAC1E00CC061
:100EC000DFEC09C0D7E607C0D3E305C0D9E103C012
:100ED000D0E101C0D8E0C0E00E9406071092C8002F
:100EE0001092C90086E08093CA00D093CC00C093D2
:100EF000CD008091C90080618093C9008091C900B4
:100F000088608093C900DF91CF910895A0EDB0E093
:100F10001C92E1EDF0E0108286E08093D20080E147
:100F20008093D4001092D5008C9182608C93808144
:100F30008061808380818860808380818F778083D7
:100F400008951092D0001092D10008959091D00091
:100F500095FFFCCF8093D6000895382F20E08F3F77
:100F6000B1F0332381F04115510551F42F5F283240
:100F700061F43150A89540E150E090E020E008C0D5
:100F80004150510904C091E003C040E150E090E0BD
:100F90006091D00067FD03C0992309F306C08091DA
:100FA000D00084FF04C08091D6008FEF06C08091EE
:100FB000D00083FDF8CF8091D60090E00895CF93C4
:100FC000DF938930D8F5882381F0813089F0823031
:100FD00091F0833091F0843091F0853091F086303B
:100FE00091F0873091F0D3E011C0D0E4C3E00FC09E
:100FF000D0EAC1E00CC0DFEC09C0D7E607C0D3E3FC
:1010000005C0D9E103C0D0E101C0D8E0C0E00E9432
:10101000A1071092D0001092D10086E08093D200F8
:10102000D093D400C093D5008091D100806180938B
:10103000D1008091D10088608093D100DF91CF9161
:101040000895A0E3B1E01C92E1E3F1E0108286E0B4
:101050008093320180E180933401109235018C91AC
:1010600082608C93808180618083808188608083AE
:1010700080818F7780830895109230011092310122
:1010800008959091300195FFFCCF8093360108952B
:10109000382F20E08F3FB1F0332381F04115510507
:1010A00051F42F5F283261F43150A89540E150E0AF
:1010B00090E020E008C04150510904C091E003C015
:1010C00040E150E090E06091300167FD03C099235A
:1010D00009F306C08091300184FF04C0809136017D
:1010E0008FEF06C08091300183FDF8CF80913601EB
:1010F00090E00895CF93DF938930D8F5882381F06D
:10110000813089F0823091F0833091F0843091F019
:10111000853091F0863091F0873091F0D3E011C0A6
:10112000D0E4C3E00FC0D0EAC1E00CC0DFEC09C0DE
:10113000D7E607C0D3E305C0D9E103C0D0E101C0C1
:10114000D8E0C0E00E943C081092300110923101BA
:1011500086E080933201D0933401C09335018091B1
:1011600031018061809331018091310188608093E9
:101170003101DF91CF910895209128023091290209
:1011800080912602909127028217930748F480915C
:10119000280290912902209126023091270215C041
:1011A00020912802309129028091260290912702F5
:1011B0002817390768F4809128029091290220911C
:1011C00026023091270280589F4F821B930B08956F
:1011D00080E090E0089520912802309129022F5F4D
:1011E0003F4F2038310510F020E030E040912602DA
:1011F000509127022417350769F0E0912802F091F9
:101200002902E254FC4F8083309329022093280264
:1012100081E0089580E00895209126023091270210
:10122000809128029091290228173907C1F0E09196
:101230002602F0912702E254FC4F808190E0209139
:101240002602309127022F5F3F4F2038310510F0E2
:1012500020E030E0309327022093260208958FEF9C
:1012600090E008952091240230912502809122027D
:10127000909123028217930748F480912402909161
:101280002502209122023091230215C020912402D0
:10129000309125028091220290912302281739076C
:1012A00068F48091240290912502209122023091CD
:1012B000230280589F4F821B930B089580E090E09B
:1012C000089520912402309125022F5F3F4F20384E
:1012D000310510F020E030E04091220250912302CD
:1012E0002417350769F0E0912402F0912502E65CAD
:1012F000FC4F8083309325022093240281E00895DF
:1013000080E00895209122023091230280912402EE
:101310009091250228173907C1F0E0912202F0913F
:101320002302E65CFC4F808190E020912202309104
:1013300023022F5F3F4F2038310510F020E030E0CE
:10134000309323022093220208958FEF90E00895B6
:10135000209120023091210280911E0290911F0263
:101360008217930748F480912002909121022091E6
:101370001E0230911F0215C02091200230912102DF
:1013800080911E0290911F022817390768F48091FE
:1013900020029091210220911E0230911F0280585C
:1013A0009F4F821B930B089580E090E00895209159
:1013B0002002309121022F5F3F4F2038310510F07D
:1013C00020E030E040911E0250911F0224173507A3
:1013D00069F0E0912002F0912102E65EFA4F8083ED
:1013E000309321022093200281E0089580E0089547
:1013F00020911E0230911F028091200290912102C3
:1014000028173907C1F0E0911E02F0911F02E65E35
:10141000FA4F808190E020911E0230911F022F5FD1
:101420003F4F2038310510F020E030E030931F02AC
:1014300020931E0208958FEF90E0089510921D02F0
:101440000C941B0681E080931D028FEF90E0909337
:1014500027018093260181E1809321010C940806E5
:1014600010921C020C94FD0581E080931C028FEF0A
:1014700090E0909327018093260181E180932101E0
:101480000C94EA0510921B020C94DF0581E0809316
:101490001B028FEF90E0909327018093260181E15A
:1014A000809321010C94CC0510921A020C9495059E
:1014B00081E080931A028FEF90E09093A7008093D1
:1014C000A60081E18093A1000C948205109219027C
:1014D0000C94770581E0809319028FEF90E0909350
:1014E000A7008093A60081E18093A1000C9464057D
:1014F000109218020C94590581E0809318028FEF26
:1015000090E09093A7008093A60081E18093A100D2
:101510000C944605109217020C94130581E08093F9
:1015200017028FEF90E0909397008093960081E1EF
:10153000809391000C940805109216020C940105FA
:1015400081E0809316028FEF90E090939700809354
:10155000960081E1809391000C94F604109215029C
:101560000C94EF0481E0809315028FEF90E090934C
:1015700097008093960081E1809391000C94E4049D
:10158000109214020C94B10481E08093140281E162
:101590008093B1000C949E04109213020C94970453
:1015A00081E08093130281E18093B1000C948C045C
:1015B000109212020C94590481E0809312028FEF72
:1015C00090E0909387008093860081E18093810072
:1015D0000C944E04109211020C94470481E0809305
:1015E00011028FEF90E0909387008093860081E155
:1015F000809381000C943C04109210020C943504EA
:1016000081E0809310028FEF90E0909387008093A9
:10161000860081E1809381000C942A0420910E02BF
:1016200030910F0280910B0290910C028217930768
:1016300048F480910E0290910F0220910B0230919C
:101640000C0215C020910E0230910F0280910B0206
:1016500090910C022817390768F480910E0290913E
:101660000F0220910B0230910C0280589F4F821B79
:10167000930B089580E090E0089520910E02309140
:101680000F022F5F3F4F2038310510F020E030E08F
:1016900040910B0250910C022417350769F0E0913C
:1016A0000E02F0910F02E35AFB4F808330930F023A
:1016B00020930E0281E0089580E0089520910B02AE
:1016C00030910C0280910E0290910F022817390779
:1016D000C1F0E0910B02F0910C02E35AFB4F8081C4
:1016E00090E020910B0230910C022F5F3F4F203889
:1016F000310510F020E030E030930C0220930B0213
:1017000008958FEF90E00895CF92DF92EF92FF92CD
:101710000F931F93CF93DF937C01142FD22E0130B0
:1017200011F410920D02C0910D02D0E00E940E0B38
:10173000082FC12C80910D02811708F047C00023AB
:1017400009F442C081E0D81203C00E945E0B10C0B1
:1017500080910B0290910C028C0F9D1F8038910597
:1017600010F080589109FC01E35AFB4F80812196CB
:1017700090910D02F701E90FF11D908189130FC0BF
:1017800080910D028F5F80930D0280910D021813DE
:1017900019C010920D02CC24C39410E013C0909194
:1017A0000D02992379F010920D0290910D02F7012C
:1017B000E90FF11D9081891305C080910D028F5FA3
:1017C00080930D020150B6CF10E0B4CF8C2DDF9185
:1017D000CF911F910F91FF90EF90DF90CF900895E0
:1017E00010920A020C94FE0381E080930A0281E1C8
:1017F00085BD0C94F503109209020C94F00381E06E
:101800008093090281E185BD0C94E7030F931F9338
:10181000CF93DF93EC018C01040F111DC017D1078A
:1018200029F0899190E00E94B206F8CFDF91CF9124
:101830001F910F91089580E00E9412070C94D70920
:10184000CF92DF92EF92FF920F931F93CF93DF938C
:101850001092BD031092BC030E945E0B8093FD04A6
:101860008091FD04803821F0813809F4CDC29BC4F9
:101870000E945E0B8093E4040E945E0B8093E5045B
:101880008091E40490E08A30910508F082C0FC0168
:101890008827EE58FF4F8F4F0C941319689A809148
:1018A000E504882311F0709A74C0709872C0699A28
:1018B0008091E504882311F0719A6BC0719869C01A
:1018C0006A9A8091E504882311F0729A62C0729836
:1018D00060C06D9A8091E504882311F0759A59C013
:1018E000759857C09D9A8091E504882311F0A59AB8
:1018F00050C0A5984EC06B9A8091E504882311F0E2
:10190000739A47C0739845C08091010188608093A5
:1019100001018091E504882321F080910201886013
:1019200036C080910201877F32C0809101018061C1
:10193000809301018091E504882321F080910201C8
:10194000806125C0809102018F7E21C080910101BC
:101950008062809301018091E504882321F08091C9
:101960000201806214C0809102018F7D10C08091BD
:1019700001018064809301018091E504882321F0B6
:1019800080910201806403C0809102018F7B80936B
:101990000201E091E4048E2F90E0FC013A97EA30D6
:1019A000F10508F083C08827E458FF4F8F4F0C944F
:1019B0001319249A8091E504882311F02C9A76C09B
:1019C0002C9874C0259A8091E504882311F02D9AF3
:1019D0006DC02D986BC0269A8091E504882311F084
:1019E0002E9A64C02E9862C0279A8091E5048823BD
:1019F00011F02F9A5BC02F9859C08091040182602A
:101A0000809304018091E504882321F080910501F1
:101A1000826010C0809105018D7F0CC0809104010F
:101A20008160809304018091E504882331F08091E6
:101A3000050181608093050139C0809105018E7F89
:101A4000F9CF809101018260809301018091E504CA
:101A5000882321F080910201826010C080910201F0
:101A60008D7F0CC080910101816080930101809184
:101A7000E504882331F080910201816080930201A6
:101A800015C0809102018E7FF9CF539A8091E504B1
:101A9000882311F05B9A0AC05B9808C0529A809123
:101AA000E504882311F05A9A01C05A98E091E404A1
:101AB0008E2F90E0FC017497EA30F10508F05FC0CA
:101AC0008827EA57FF4F8F4F0C941319519A809132
:101AD000E504882311F0599A52C0599850C0509A81
:101AE0008091E504882311F0589A49C0589847C05E
:101AF000089A8091E504882311F0109A40C010984C
:101B00003EC0099A8091E504882311F0119A37C0EC
:101B1000119835C00A9A8091E504882311F0129A31
:101B20002EC012982CC00B9A8091E504882311F0E6
:101B3000139A25C0139823C00C9A8091E50488233A
:101B400011F0149A1CC014981AC00D9A8091E504E3
:101B5000882311F0159A13C0159811C00E9A809120
:101B6000E504882311F0169A0AC0169808C00F9A47
:101B70008091E504882311F0179A01C01798E0912D
:101B8000E4048E2F90E0FC017E97EA30F10508F026
:101B90005FC08827E057FF4F8F4F0C9413193F9A6F
:101BA0008091E504882311F0479A52C0479850C0AD
:101BB0003E9A8091E504882311F0469A49C04698E0
:101BC00047C03D9A8091E504882311F0459A40C0B2
:101BD00045983EC03C9A8091E504882311F0449AD0
:101BE00037C0449835C03B9A8091E504882311F0B2
:101BF000439A2EC043982CC03A9A8091E5048823DA
:101C000011F0429A25C0429823C0399A8091E50488
:101C1000882311F0419A1CC041981AC0389A8091CB
:101C2000E504882311F0409A13C0409811C0579AD8
:101C30008091E504882311F05F9A0AC05F9808C07C
:101C40009A9A8091E504882311F0A29A01C0A29883
:101C5000E091E4048E2F90E0FC01B897EA30F105A2
:101C600008F0A1C08827E656FF4F8F4F0C94131938
:101C7000999A8091E504882311F0A19A94C0A198C3
:101C800092C0989A8091E504882311F0A09A8BC0A5
:101C9000A09889C080910A01806880930A01809190
:101CA000E504882321F080910B0180687AC080913F
:101CB0000B018F7776C080910A01806480930A01BE
:101CC0008091E504882321F080910B01806469C034
:101CD00080910B018F7B65C080910A0180628093A7
:101CE0000A018091E504882321F080910B01806234
:101CF00058C080910B018F7D54C080910A01806192
:101D000080930A018091E504882321F080910B01E2
:101D1000806147C080910B018F7E43C080910A0192
:101D2000886080930A018091E504882321F08091E6
:101D30000B01886036C080910B01877F32C0809193
:101D40000A01846080930A018091E504882321F0D0
:101D500080910B01846025C080910B018B7F21C095
:101D600080910A01826080930A018091E5048823B2
:101D700021F080910B01826014C080910B018D7F56
:101D800010C080910A01816080930A018091E5046E
:101D9000882321F080910B01816003C080910B01A9
:101DA0008E7F80930B018091E404833391F018F4CB
:101DB000823331F0F8C18433A9F08533E1F0F3C107
:101DC000239A8091E504882311F02B9AECC12B987B
:101DD000EAC1229A8091E504882311F02A9AE3C18E
:101DE0002A98E1C1219A8091E504882311F0299A6B
:101DF000DAC12998D8C1209A8091E504882311F08E
:101E0000289AD1C12898CFC10E945E0B8093E40428
:101E10008091E40490E08A30910508F04BC0FC0109
:101E20008827EC55FF4F8F4F0C94131968988CB18D
:101E300081703EC069988CB18695817039C06A986E
:101E40008CB182FB882780F933C06D988CB122C099
:101E50009D9882B31FC06B988CB107C0809101011F
:101E6000877F809301018091000183FB882780F99F
:101E70001FC0809101018F7E80930101809100013C
:101E80008295817015C0809101018F7D8093010141
:101E90008091000185FB882780F90AC080910101AB
:101EA0008F7B809301018091000186FB882780F958
:101EB00080932C02E091E4048E2F90E0FC013A978D
:101EC000EA30F10508F050C08827E255FF4F8F4FE8
:101ED0000C941319249883B18295817043C025987E
:101EE00083B185FB882780F93DC0269883B186FBA6
:101EF000882780F937C0279883B1807890E0880FD1
:101F0000892F881F990B2EC0809104018D7F8093AB
:101F10000401809103010FC0809104018E7F8093A2
:101F200004018091030111C0809101018D7F809394
:101F30000101809100018695817014C0809101019A
:101F40008E7F809301018091000181700BC05398B6
:101F500089B183FB882780F905C0529889B182FB3B
:101F6000882780F980932C02E091E4048E2F90E082
:101F7000FC017497EA30F105E0F58827E854FF4F3B
:101F80008F4F0C941319519889B109C0509889B199
:101F900002C0089880B181702AC0099880B18695E6
:101FA000817025C00A9880B182FB882780F91FC004
:101FB0000B9880B183FB882780F919C00C9880B1F9
:101FC0008295817014C00D9880B185FB882780F9B7
:101FD0000EC00E9880B186FB882780F908C00F9844
:101FE00080B1807890E0880F892F881F990B8093AB
:101FF0002C02E091E4048E2F90E0FC017E97EA3001
:10200000F105E0F58827EE53FF4F8F4F0C9413191D
:102010003F9886B125C03E9886B186FB882780F917
:102020002BC03D9886B185FB882780F925C03C9858
:1020300086B18295817020C03B9886B183FB88274A
:1020400080F91AC03A9886B114C0399886B186953D
:10205000817012C0389886B181700EC0579889B1CE
:10206000807890E0880F892F881F990B05C09A9877
:1020700082B382FB882780F980932C02E091E404EC
:102080008E2F90E0FC01B897EA30F10508F064C0AB
:102090008827E453FF4F8F4F0C941319999882B3FC
:1020A0004EC0989882B355C080910A018F77809373
:1020B0000A0180910901807890E0880F892F881F9C
:1020C000990B48C080910A018F7B80930A0180910F
:1020D000090186FB882780F93DC080910A018F7D28
:1020E00080930A018091090185FB882780F932C01D
:1020F00080910A018F7E80930A0180910901829567
:10210000817028C080910A01877F80930A018091A5
:10211000090183FB882780F91DC080910A018B7F0C
:1021200080930A018091090182FB882780F912C0FF
:1021300080910A018D7F80930A0180910901869523
:10214000817008C080910A018E7F80930A0180917E
:102150000901817080932C028091E404833389F01B
:1021600040F48233D1F4239883B183FB882780F92C
:1021700012C0843361F0853381F4209883B181707B
:102180000AC0229883B182FB882780F904C0219875
:1021900083B18695817080932C0281E090E09093CA
:1021A000BD038093BC038091FD04843A09F4E5C02B
:1021B00050F4833809F46CC0833A09F4CBC08238F8
:1021C00009F014C30CC0863A09F4F1C108F460C1E7
:1021D000873A09F4F1C1883A09F472C207C30E9430
:1021E0005E0B8093E4048091E4048830E8F420914D
:1021F000E40440B381E090E0BC0102C0660F771FA9
:102200002A95E2F79B0120953095242320BB30913D
:10221000E40421B302C0880F991F3A95E2F7809534
:102220009095822381BB22C03091E4044091070144
:10223000385081E090E0BC0102C0660F771F3A95EC
:10224000E2F79B01209530952423209307012091EC
:10225000E40430910801285002C0880F991F2A9584
:10226000E2F78095909583238093080120910102E5
:10227000409102028091E40465E00E94840280E0C3
:102280000E94CB02C82F0E94E302C0932C02FDC023
:102290000E945E0B8093E4048091E4048830E8F4AB
:1022A0002091E40440B381E090E0BC0102C0660FDD
:1022B000771F2A95E2F79B0120953095242320BBB8
:1022C0003091E40421B302C0880F991F3A95E2F7D8
:1022D00080959095822381BB22C03091E404409187
:1022E0000701385081E090E0BC0102C0660F771F03
:1022F0003A95E2F79B01209530952423209307011E
:102300002091E40430910801285002C0880F991FE1
:102310002A95E2F780959095832380930801209178
:102320000102409102028091E40465E00E9484026F
:1023300081E00E94CB02D82FC92F0E94E302D093E4
:102340002D02C0932C0282E090E09093BD03809315
:10235000BC034CC20E945E0B8093E4048091E404B1
:10236000843008F043C28091E404823009F43EC214
:102370008091E4048093020239C20E945E0B809334
:10238000E4040E945E0B8093E5040E945E0B809340
:10239000E6048091E50480932C028091E404883067
:1023A000E8F42091E40440B381E090E0BC0102C075
:1023B000660F771F2A95E2F79B012095309524231D
:1023C00020BB3091E40421B302C0880F991F3A95D5
:1023D000E2F780959095822381BB22C03091E4047E
:1023E00040910701385081E090E0BC0102C0660FC7
:1023F000771F3A95E2F79B0120953095242320938F
:1024000007012091E40430910801285002C0880F90
:10241000991F2A95E2F78095909583238093080170
:1024200020910102409102028091E40465E00E9443
:102430008402C12CD12C76018091E5049FEF980F86
:102440009093E5048823A1F080E00E94CB02C80E9F
:10245000D91EE11CF11C8091E604882369F3809168
:10246000E60474E0879FC00111240197F1F7E4CFDF
:102470000E94E30220912C0230E040E050E0C701CE
:10248000B6010E94F11820932C0281E090E05DCF0C
:102490000E945E0B8093E4040E945E0B8093E5042F
:1024A0000E945E0B8093E6048091E50480932C02E9
:1024B0008091E4048830E8F42091E40440B381E0A2
:1024C00090E0BC0102C0660F771F2A95E2F79B01DE
:1024D00020953095242320BB3091E40421B302C021
:1024E000880F991F3A95E2F780959095822381BBDA
:1024F00022C03091E40440910701385081E090E01F
:10250000BC0102C0660F771F3A95E2F79B01209548
:1025100030952423209307012091E4043091080191
:10252000285002C0880F991F2A95E2F78095909550
:10253000832380930801209101024091020280913F
:10254000E40465E00E948402C12CD12C76018091C4
:10255000E5049FEF980F9093E5048823A1F081E0B4
:102560000E94CB02C80ED91EE11CF11C8091E6042A
:10257000882369F38091E60474E0879FC0011124E9
:102580000197F1F7E4CF0E94E30220912C0230E0A2
:1025900040E050E0C701B6010E94F11820932D02DF
:1025A000BB27A52F942F832F80932C02CCCE0E9483
:1025B0005E0B809301021AC10E945E0B8093E404BB
:1025C0000E945E0B8093E5040E945E0B8093E604FC
:1025D0000E945E0B8093E7042091E6048091E7045B
:1025E00090E0922B90939B0580939A058091E40450
:1025F0008830E8F42091E40440B381E090E0BC012D
:1026000002C0660F771F2A95E2F79B01209530954F
:10261000242320BB3091E40421B302C0880F991F0A
:102620003A95E2F780959095822381BB22C0309144
:10263000E40440910701385081E090E0BC0102C001
:10264000660F771F3A95E2F79B012095309524237A
:10265000209307012091E40430910801285002C022
:10266000880F991F2A95E2F7809590958323809390
:10267000080120910102409102028091E40465E08A
:102680000E948402C0E0D0E08091E50490E0C81789
:10269000D90708F0A5C080E00E94CB02FE01E45DEE
:1026A000FD4F808380919A0590919B05892B31F095
:1026B00080919A0590919B050E946F022196E4CF2C
:1026C0000E945E0B8093E4040E945E0B8093E504FD
:1026D0000E945E0B8093E6040E945E0B8093E704E9
:1026E0002091E6048091E70490E0922B90939B0563
:1026F00080939A058091E4048830E8F42091E40402
:1027000040B381E090E0BC0102C0660F771F2A95BC
:10271000E2F79B0120953095242320BB3091E404FF
:1027200021B302C0880F991F3A95E2F780959095E2
:10273000822381BB22C03091E404409107013850CC
:1027400081E090E0BC0102C0660F771F3A95E2F786
:102750009B01209530952423209307012091E404C8
:1027600030910801285002C0880F991F2A95E2F77E
:1027700080959095832380930801209101024091D8
:1027800002028091E40465E00E948402EE24E39456
:10279000F12C00E010E08091E50490E0E801CC0F1E
:1027A000DD1F08171907E0F481E00E94CB02C45D29
:1027B000DD4F9883F701E45DFD4F808380919A059A
:1027C00090919B05892B31F080919A0590919B0502
:1027D0000E946F020F5F1F4F72E0E70EF11CDBCF0C
:1027E0000E94E302D093BD03C093BC038091FD041B
:1027F000853841F130F4843809F059C00E945206FE
:1028000056C08638A1F18A3A09F051C00E945E0B89
:102810008093E4040E945E0B8093E5040E945E0BAB
:102820008093E604C091E5048091E604D0E0DC2FBB
:10283000CC27C80FD11DD093BD03C093BC0300E0CB
:1028400010E022C00E945E0B8093E4040E945E0BA5
:102850008093E5048091E5040E94590680932C0240
:1028600081E090E09093BD038093BC0320C00E9460
:102870005E0B8093E4040E945E0B8093E5048091DC
:10288000E5048093000213C00C171D0749F00E9455
:102890005E0BF801E45DFD4F80830F5F1F4FF4CFA7
:1028A000A8016FEF70E08CE292E00E947C068091BC
:1028B000FD048B3809F454C0E8F4883809F44DC09D
:1028C00080F4873809F0DAC00E945E0B8093E4043C
:1028D0000E945E0B8093E5040E94E9028091E5046A
:1028E00062C08938D1F18A3809F0C8C084E9809380
:1028F000BC00C4C08B3A09F444C080F48C3809F0A1
:10290000BDC00E945E0B8093E4040E945E0B809326
:10291000E5048091E5040E9443032EC08C3A09F43B
:1029200051C08D3A09F0AAC00E945E0B8093E40466
:102930000E945E0B8093E5040E945E0B8093E60488
:10294000C091E5048091E604D0E0DC2FCC27C80FCD
:10295000D11D7E01E894F7F865C00E94EF028EC099
:102960000E945E0B8093E4040E945E0B8093E5045A
:102970008091E5040E940A0380932C0281E090E09C
:1029800079C00E945E0B8093E4040E945E0B8093EA
:10299000E5040E945E0B8093E6048091E5040E94AA
:1029A00065038091E604823041F0833041F088E491
:1029B0008093B8001092B90061C08CE0F9CF1092FA
:1029C000B800F8CF0E945E0B8093E4040E945E0B77
:1029D0008093E5040E945E0B8093E6044091E50439
:1029E0008091E60450E0542F4427480F511DCA013E
:1029F00002969093BD038093BC036FEF70E08CE26E
:102A000092E00E947203E091BC03F091BD03E65D89
:102A1000FD4F9083E091BC03F091BD03E55DFD4F58
:102A200080832CC08091BC039091BD038E159F05BF
:102A3000A0F40091BC031091BD030E945E0BF8014D
:102A4000E45DFD4F80838091BC039091BD030196AE
:102A50009093BD038093BC03E5CFAE016FEF70E0B0
:102A60008CE292E00E94A80390932C0280932D02A6
:102A700082E090E09093BD038093BC038091FD04BD
:102A80008E3809F45BC018F48D3841F099C18F3845
:102A900009F4A4C0803909F4FEC092C10E945E0B03
:102AA0008093E4048091E40490E088309105F0F490
:102AB000FC018827EA52FF4F8F4F0C9413190E9494
:102AC000FF0B14C00E94F40B11C00E94000B0EC03B
:102AD0000E94EE0A0BC00E94DC0A08C00E94D00AC5
:102AE00005C00E94C40A02C00E94B20AE091E40438
:102AF0008E2F90E0FC013897E830F10508F060C1B6
:102B00008827E252FF4F8F4F0C9413190E94A00A9E
:102B100057C10E948E0A54C10E947C0A51C10E9472
:102B20006A0A4EC10E94580A4BC10E94460A48C117
:102B30000E94340A45C10E94220A42C10E945E0BD3
:102B40008093E4048091E40490E088309105F0F4EF
:102B5000FC018827EA51FF4F8F4F0C9413190E94F4
:102B6000FB0B14C00E94F00B11C00E94FC0A0EC0A7
:102B70000E94EA0A0BC00E94D80A08C00E94CC0A30
:102B800005C00E94C00A02C00E94AE0AE091E4049F
:102B90008E2F90E0FC013897E830F10508F010C165
:102BA0008827E251FF4F8F4F0C9413190E949C0A03
:102BB00007C10E948A0A04C10E94780A01C10E94CA
:102BC000660AFEC00E94540AFBC00E94420AF8C076
:102BD0000E94300AF5C00E941E0AF2C00E945E0BDD
:102BE0008093E4040E945E0B8093E5040E945E0BD8
:102BF0008093E6048091E40490E08830910520F50C
:102C0000FC016091E5048827EA50FF4F8F4F0C9438
:102C100013198091E60470E090E00E94030414C050
:102C20008091E60470E090E00E9460040DC0809105
:102C3000E60470E090E00E94BC0406C08091E604C7
:102C400070E090E00E941A05E091E4048E2F90E07D
:102C5000FC013897E830F10508F0B2C06091E50456
:102C60008827E250FF4F8F4F0C9413198091E60490
:102C700070E090E00E941A05A3C08091E60470E025
:102C800090E00E94A0059CC08091E60470E090E076
:102C90000E94260695C00E945E0B8093E4040E9469
:102CA0005E0B8093E5048091E40490E08830910508
:102CB000C0F5FC018827EA5FFE4F8F4F0C94131973
:102CC0008091E50487BD2DC08091E50488BD29C0B1
:102CD0008091E50490E0909389008093880021C062
:102CE0008091E50490E090938B0080938A0019C056
:102CF0008091E50490E090938D0080938C0011C04A
:102D00008091E5048093B3000CC08091E50480932A
:102D1000B40007C08091E50490E0909399008093FF
:102D20009800E091E4048E2F90E0FC013897E830A1
:102D3000F10508F045C08827E25FFE4F8F4F0C94E5
:102D400013198091E50490E090939B0080939A0082
:102D500037C08091E50490E090939D0080939C00A3
:102D60002FC08091E50490E09093A9008093A80083
:102D700027C08091E50490E09093AB008093AA0077
:102D80001FC08091E50490E09093AD008093AC006B
:102D900017C08091E50490E0909329018093280169
:102DA0000FC08091E50490E090932B0180932A015D
:102DB00007C08091E50490E090932D0180932C0151
:102DC0008091FD04833909F452C028F4813951F00F
:102DD000823969F196C0843909F45CC0853909F4F7
:102DE00074C08FC00E945E0B8093E4048091E40461
:102DF000813059F0823091F40E94210878948091BA
:102E000031018068809331017CC00E9486077894EC
:102E10008091D10080688093D10073C00E94EB063E
:102E200078948091C90080688093C9006AC00E942C
:102E30005E0B8093E4040E945E0B8093E504809116
:102E4000E404813041F0823061F48091E50490E047
:102E50000E94410856C08091E50490E00E94A607B8
:102E600050C08091E50490E00E940B074AC00E9488
:102E70005E0B8093E4048091E404813029F0823079
:102E800031F40E94BC0818C00E94320915C00E948B
:102E9000A80912C00E945E0B8093E4048091E404B0
:102EA000813029F0823031F40E940C0905C00E9463
:102EB000820902C00E94F80980932C0281E090E010
:102EC0009093BD038093BC031CC00E945E0B809353
:102ED000E4040E945E0B8093E5048091E404813059
:102EE00039F0823051F48091E5040E947A0809C0DB
:102EF0008091E5040E94DF0704C08091E5040E94F0
:102F000044078091FD04813AA9F1823A09F061C039
:102F10000E945E0B8093E4040E945E0B8093E504A4
:102F20008091E40490E090939B0580939A058091B2
:102F30009A0590919B05982F882790939B058093E5
:102F40009A052091E50480919A0590919B05822B2A
:102F500090939B0580939A05E0919A05F0919B05CB
:102F6000808180932C0281E090E09093BD03809358
:102F7000BC032FC00E945E0B8093E4040E945E0B92
:102F80008093E5040E945E0B8093E6048091E40444
:102F900090E090939B0580939A0580919A0590917B
:102FA0009B05982F882790939B0580939A052091E5
:102FB000E50480919A0590919B05822B90939B0547
:102FC00080939A05E0919A05F0919B058091E60423
:102FD00080838091FD0490E00E94B2068091BC0342
:102FE0009091BD03892B51F04091BC035091BD03DA
:102FF00068EE73E08CE292E00E94060C80E0DF91C4
:10300000CF911F910F91FF90EF90DF90CF90089597
:1030100080E00E94AD070C94610980E00E94B9062F
:103020000C943D0B80E00E9448080C94EB0815BE00
:1030300014BE0FB6F894A8958091600088618093C3
:103040006000109260000FBE1DBA10922A020E940A
:10305000970678948091C10080688093C100809128
:103060002A0201E0882379F020E042E063E070E08A
:1030700083E092E00E94840B882389F30E94200C55
:1030800010922A02ECCF21E041E062E070E086E09D
:1030900092E00E94840B882311F381E080932A023E
:1030A000DECF1F920F920FB60F9211240BB60F9224
:1030B0002F933F934F935F936F937F938F939F9340
:1030C000AF93BF93EF93FF930E941B0CFF91EF917F
:1030D000BF91AF919F918F917F916F915F914F9130
:1030E0003F912F910F900BBE0F900FBE0F901F902E
:1030F00018951F920F920FB60F9211240BB60F92D4
:103100002F933F934F935F936F937F938F939F93EF
:10311000AF93BF93EF93FF930E940818FF91EF9135
:10312000BF91AF919F918F917F916F915F914F91DF
:103130003F912F910F900BBE0F900FBE0F901F90DD
:1031400018951F920F920FB60F9211240BB60F9283
:103150002F933F934F935F936F937F938F939F939F
:10316000AF93BF93EF93FF930E941218FF91EF91DB
:10317000BF91AF919F918F917F916F915F914F918F
:103180003F912F910F900BBE0F900FBE0F901F908D
:1031900018951F920F920FB60F9211240BB60F9233
:1031A0002F933F934F935F936F937F938F939F934F
:1031B000AF93BF93EF93FF930E940D18FF91EF9190
:1031C000BF91AF919F918F917F916F915F914F913F
:1031D0003F912F910F900BBE0F900FBE0F901F903D
:1031E0001895A1E21A2EAA1BBB1BFD010DC0AA1F38
:1031F000BB1FEE1FFF1FA217B307E407F50720F060
:10320000A21BB30BE40BF50B661F771F881F991FDA
:103210001A9469F760957095809590959B01AC0123
:10322000BD01CF010895EE0FFF1F881F8BBF0790D0
:0A323000F691E02D1994F894FFCFF9
:08323A001F0A013B0A003A00E3
:00000001FF
