:100000000C940A010C9427010C9427010C942701ED
:100010000C9427010C9427010C9427010C942701C0
:100020000C9427010C9427010C9427010C94E10EE9
:100030000C946A0F0C9427010C9427010C9427014F
:100040000C9427010C9427010C94BD0E0C942701ED
:100050000C9427010C9427010C9427010C94270180
:100060000C9427010C942701FA03FC03FE030004FF
:100070000204050407043D04400443044604490403
:100080004C044F04EB07F407FD0706080F08180897
:1000900021082A0833083C0852085B0864086D08E8
:1000A00076087F08880891089A08A308BC08BF084A
:1000B000C208C808CE08D308D908DF08E808EC0849
:1000C000FF080209050908090B090F0914091A0993
:1000D0002009250941097709780B780B780B780BF3
:1000E000780B780B780B780B780B780B780B780BF8
:1000F000780B780B780BAD09CA09340AA00AA50A57
:10010000050B930D960D990D9C0DB80DBB0DC20DF1
:10011000C50DCA0D005EBCE2613FDD83C29C7E203E
:10012000A3FD1F419DC3217FFCA2401E5F01E3BDD3
:100130003E6082DC237D9FC1421CFEA0E1BF5D03C7
:1001400080DE3C62BEE0025CDF81633D7C22C09EBB
:100150001D43A1FF4618FAA427799BC584DA3866A7
:10016000E5BB5907DB856739BAE406581947A5FB93
:100170007826C49A653BD987045AB8E6A7F91B4587
:10018000C6987A24F8A6441A99C7257B3A6486D87B
:100190005B05E7B98CD2306EEDB3510F4E10F2AC67
:1001A0002F7193CD114FADF3702ECC92D38D6F3153
:1001B000B2EC0E50AFF1134DCE90722C6D33D18F47
:1001C0000C52B0EE326C8ED0530DEFB1F0AE4C123B
:1001D00091CF2D73CA947628ABF517490856B4EA27
:1001E0006937D58B5709EBB536688AD495CB297713
:1001F000F4AA4816E9B7550B88D6346A2B7597C907
:100200004A14F6A8742AC896154BA9F7B6E80A54FA
:10021000D7896B3511241FBECFEFD8E0DEBFCDBF2D
:1002200011E0A0E0B1E0EAEEF0E202C005900D922C
:10023000AA30B107D9F723E0AAE0B1E001C01D92CE
:10024000A53EB207E1F70E948E0E0C9473100C9439
:1002500000002CEF33E08F3F910539F030F0F901C9
:100260003197F1F78F5F9109F6CF009731F0880F42
:10027000991F880F991F0197F1F70895E7E2F0E0C1
:10028000F0931D02E0931C02E1E0F0E0082E01C0B3
:10029000EE0F0A94EAF7E09597B1E923E7B96068B1
:1002A00060937A0030E4439FA00111248062482BC0
:1002B00040937C00222331F034E0239FC0011124BD
:1002C0000197F1F7089590917A00906490937A00E5
:1002D00090917A0096FDFCCF882371F020917800F0
:1002E00080917900229526952695237034E0839F8E
:1002F000C0011124822B08958091790090E0089527
:10030000EAE7F0E080818F77808308958CE0809326
:10031000B8001092B900089584EA8093BC008FEF72
:100320009FEF9093E4038093E3038091BC0087FDEB
:100330000DC08091E3039091E4039C0121503109A9
:100340003093E4032093E303892B79F70895809396
:10035000BB0088E290E00197F1F784E88093BC004D
:100360008FEF9FEF9093E4038093E3038091BC00B1
:1003700087FF06C08091B900887F883179F41EC05C
:100380008091E3039091E4039C0121503109309363
:10039000E4032093E303892B49F7ECCF8091B90064
:1003A000887F883259F08091B900887F803431F09D
:1003B0009091B900987F81E0903509F480E008952C
:1003C000882311F084E801C084EC8093BC008FEF97
:1003D0009FEF9093E4038093E3038091BC0087FF39
:1003E00003C08091BB0008958091E3039091E403E2
:1003F0009C01215031093093E4032093E303892BBE
:1004000061F7EFCFEF92FF920F931F93CF93DF939C
:100410006417750718F480E090E023C0EA018C01AE
:100420000E948C018091D703880F81600E94A701F0
:100430008111F1CF780100E010E0C017D10769F019
:100440000F5F1F4F81E0C017D10709F080E00E94C5
:10045000E001F70181937F01F0CF84E98093BC0034
:10046000CE01DF91CF911F910F91FF90EF900895F2
:10047000DF92EF92FF920F931F93CF93DF938C0144
:10048000EA0157FF03C0DF77D12C02C0DD24D394EB
:100490006C177D0718F480E090E021C00E948C0169
:1004A0008091D703880F0E94A7018111F4CF7801B2
:1004B00000E010E0C017D10741F0F70181917F0102
:1004C0000E94A701882339F0E801DD2039F084E992
:1004D0008093BC0003C00F5F1F4FECCFCE01DF91B4
:1004E000CF911F910F91FF90EF90DF900895569A52
:1004F0005E9884B58C7B84BD84B5816884BD089585
:1005000084B58F7784BD56980895559A5D9884B5C3
:100510008C7E84BD84B5816284BD089584B58F7D51
:1005200084BD55980895611581E07807D1F058F49D
:100530006830710591F06034710589F061307105A2
:10054000B1F481E115C06E3F8FEF780771F058F478
:100550006115744061F485E10BC082E109C083E15B
:1005600007C084E105C086E103C087E101C080E1E6
:1005700085BD0895219A2998E0E8F0E080818C7B80
:1005800080838081806880830895E0E8F0E0808146
:100590008F77808321980895229A2A98E0E8F0E0E6
:1005A00080818C7E80838081806280830895E0E8F2
:1005B000F0E080818F7D808322980895909387005A
:1005C00080938600611581E07807D1F058F4683097
:1005D000710591F06034710589F061307105B1F4F5
:1005E00081E115C06E3F8FEF780771F058F4611507
:1005F000744061F485E10BC082E109C083E107C06A
:1006000084E105C086E103C087E101C080E18093F9
:1006100081000895239A2B98E0EBF0E080818C7B99
:1006200080838081816880830895E0EBF0E08081A1
:100630008F77808323980895539A5B98E0EBF0E0DE
:1006400080818C7E80838081816280830895E0EB4D
:10065000F0E080818F7D808353980895611581E05B
:100660007807D1F058F46830710591F06034710565
:1006700089F061307105B1F481E115C06E3F8FEFF3
:10068000780771F058F46115744061F485E10BC08E
:1006900082E109C083E107C084E105C086E103C0AF
:1006A00087E101C080E18093B1000895239A2B9ADD
:1006B0002498259A2D9881E00895282F98E080E0CD
:1006C000880F27FF02C02B9A01C02B984091000190
:1006D00030E0341719F000003F5FFBCF2D9A4091B6
:1006E000000130E0341719F000003F5FFBCF2D9878
:1006F00035B134B11C998160220F915009F70895EA
:100700000F931F93CF93DF936417750770F0EC017D
:100710008C01040F151FC017D10729F088810E9492
:100720005D038993F8CF81E001C080E0DF91CF9134
:100730001F910F910895A0ECB0E01C92E1ECF0E065
:10074000108286E08093C20080E18093C400109202
:10075000C5008C9182608C938081806180838081D0
:100760008860808380818F77808308959091C00016
:1007700095FFFCCF8093C6000895382F20E08F3F6F
:10078000B1F0332381F04115510551F42F5F283228
:1007900061F43150A89540E150E090E020E008C0BD
:1007A0004150510904C091E003C040E150E090E0A5
:1007B0006091C00067FD03C0992309F306C08091D2
:1007C000C00084FF04C08091C6008FEF06C08091F6
:1007D000C00083FDF8CF8091C60090E00895482FB7
:1007E00050E0FA013197E730F105A0F4EC5CFF4FDF
:1007F0000C946D10539807C0549805C0559803C0C9
:10080000569801C0579899B109C0209801C0219805
:1008100093B104C0529899B1883078F4409119018D
:1008200021E030E0B90102C0660F771F8A95E2F738
:10083000CB0180958423809319010895883088F432
:1008400090E02DE5629FB0011124880F991FFC01F3
:10085000E451FD4F71836083FC01E456FC4F7183CA
:1008600060830895482F50E0FA013197E730F10591
:10087000C8F4E55CFF4F0C946D10539A5B9816C05A
:10088000549A5C9813C0559A5D9810C0569A5E9819
:100890000DC0579A5F980AC0209A289807C0219ADD
:1008A000299804C0529A5A98883070F440911901DE
:1008B00021E030E0B90102C0660F771F8A95E2F7A8
:1008C000CB01842B8093190108958DE590E09093DE
:1008D0000201809301011092170180E89EE22091AD
:1008E0001701283008F5E0911701F0E0EE0FFF1F27
:1008F000E451FD4F91838083E0911701F0E0EE0F0A
:10090000FF1FE456FC4F91838083E0911701F0E0D4
:10091000EE0FFF1FEF53FC4F118210822091170141
:100920002F5F20931701DBCF109217018CE9809382
:10093000890080E48093880081E08093D203109244
:10094000800080916F00826080936F0089E08093C7
:10095000810080916F00846080936F008091D2034A
:1009600081608093D20378940895E091B5038E2737
:10097000E82FF0E0EC5EFE4FE491E093B5030895BC
:10098000CF93529A5A9880EE91E00E942901529892
:1009900089B188E191E00197F1F75298C9B18AE9EC
:1009A00091E00E942901C2FB882780F9CF91089528
:1009B000529A5A9888E190E00197F1F7529889B1DC
:1009C00080911601811104C084E290E00197F1F753
:1009D000529889B1ECEDF0E03197F1F782FB88276E
:1009E00080F90895CF9310922202C0E080912202F4
:1009F000883058F40E94D804C6958111C06880914F
:100A000022028F5F80932202F1CF8C2F0E94B504C7
:100A10008C2FCF910895883168F4683058F4E62F10
:100A2000F0E098E0899FE00DF11D1124EC5DFD4F91
:100A3000808108958FEF0895529A5A9880FF09C0D7
:100A400088E190E00197F1F7529A5A9A80E091E09C
:100A500008C080EF90E00197F1F7529A5A9A88E225
:100A600090E00197F1F70895CF93C82F10921F02DD
:100A700080911F02883050F48C2F0E941C05C6956F
:100A800080911F028F5F80931F02F2CF529889B12D
:100A9000CF9108950E94C0048CEC0C943405EF9221
:100AA000FF920F931F93CF93DF93C82F8B01109268
:100AB000B5030E94C00485E50E9434058C2F0E9476
:100AC000B5048C2F0E943405E8010A5F1F4F7E0198
:100AD00089910E94B504F70180810E943405C017F6
:100AE000D107A9F78091B503DF91CF911F910F91A5
:100AF000FF90EF900C9434057F928F929F92AF926B
:100B0000BF92CF92DF92EF92FF920F931F93CF93FA
:100B1000DF93912CB12CA12C882483947724739497
:100B20001092B4030E94C004811185C080EF0E941E
:100B3000340500E010E0E12CF12CD0E0F801E250A7
:100B4000FD4F6F010E94D804C82F0E94D804880F5F
:100B50008C2B81305CF083308CF1833039F48091C0
:100B6000160181116AC080921601DACF8A2D90E0B9
:100B70002091E9023091EA02821793077CF4F60192
:100B8000808190E00E2C02C0959587950A94E2F73B
:100B900080FD13C0BA2C992493940DC02091E902D2
:100BA0003091EA028217930741F09093EA02809312
:100BB000E9027092B403C0E001C0C1E0D695C11152
:100BC000D0688C2F0E941C05A394FFEFEF1AFF0A38
:100BD00088E0E816F10409F0B5CFF801E250FD4FC6
:100BE000D0830F5F1F4F0830110509F0A4CF80910B
:100BF000B40381110BC0992049F081E08093B403C4
:100C00008B2D90E09093EA028093E9021092B50355
:100C1000C0E0D0E0FE01E250FD4F80810E94B504AB
:100C20002196C830D105B1F78091B503882339F0FA
:100C30008091B50305C081E003C082E001C080E07F
:100C4000DF91CF911F910F91FF90EF90DF90CF90A8
:100C5000BF90AF909F908F907F900895CF93DF9338
:100C60008FEF9FEF9093EA028093E90281E08093F7
:100C7000B4030E94C004811128C0C0E0D0E08C2FD2
:100C80009091B403992321F1C831D105E1F00E947C
:100C90007C0581111CC0AE0183E0440F551F8A956D
:100CA000E1F780E090E0FA01E80FF91FDC01A250C3
:100CB000BD4F2C91EC5DFD4F20830196883091054E
:100CC00091F72196DCCF88E103C081E001C080E08C
:100CD00080931501DF91CF910895529889B10895BD
:100CE000109214010C94270381E08093140181E198
:100CF0008093B1000C941C03109213010C94150303
:100D000081E08093130181E18093B1000C940A0388
:100D1000109212010C94D70281E08093120185EBAE
:100D200090E0909387008093860081E1809381001A
:100D30000C94CC02109211010C94C50281E08093B6
:100D4000110185EB90E0909387008093860081E10C
:100D5000809381000C94BA0220910F013091100110
:100D600080910C0190910D018217930748F48091B6
:100D70000F019091100120910C0130910D0115C0CF
:100D800020910F013091100180910C0190910D0183
:100D90002817390768F480910F0190911001209174
:100DA0000C0130910D0180589F4F821B930B0895C9
:100DB00080E090E0089520910F01309110012F5FA5
:100DC0003F4F2038310510F020E030E040910C0119
:100DD00050910D012417350769F0E0910F01F09152
:100DE0001001EA5FFC4F80833093100120930F01C4
:100DF00081E0089580E0089520910C0130910D016B
:100E000080910F019091100128173907C1F0E091EE
:100E10000C01F0910D01EA5FFC4F808190E0209180
:100E20000C0130910D012F5F3F4F2038310510F03C
:100E300020E030E030930D0120930C0108958FEFF6
:100E400090E00895CF92DF92EF92FF920F931F935D
:100E5000CF93DF937C01142FD22E013011F4109226
:100E60000E01C0910E01D0E00E94AC06082FC12CEB
:100E700080910E01811708F047C0002309F442C099
:100E800081E0D81203C00E94FC0610C080910C01C2
:100E900090910D018C0F9D1F8038910510F08058A6
:100EA0009109FC01EA5FFC4F8081219690910E012F
:100EB000F701E90FF11D908189130FC080910E0198
:100EC0008F5F80930E0180910E01181319C010924C
:100ED0000E01CC24C39410E013C090910E0199230D
:100EE00079F010920E0190910E01F701E90FF11DBA
:100EF0009081891305C080910E018F5F80930E0150
:100F00000150B6CF10E0B4CF8C2DDF91CF911F915F
:100F10000F91FF90EF90DF90CF90089510920B010A
:100F20000C948E0281E080930B0181E185BD0C94CD
:100F3000850210920A010C94800281E080930A01DC
:100F400081E185BD0C9477020F931F93CF93DF93BC
:100F5000EC018C01040F111DC017D10729F08991F4
:100F600090E00E94B603F8CFDF91CF911F910F91CF
:100F70000895CF92DF92EF92FF920F931F93CF933A
:100F8000DF9300D000D000D0CDB7DEB710922102A1
:100F9000109220020E94FC068093B2038091B2035B
:100FA000803821F0813809F4D7C05CC10E94FC066A
:100FB000809390030E94FC0680939103E09190033C
:100FC0008E2F90E08A30910508F05EC0FC01EE5B48
:100FD000FF4F0C946D10509A80919103882311F06B
:100FE000589A52C0589850C0519A809191038823C2
:100FF00011F0599A49C0599847C0529A809191036B
:10100000882311F05A9A40C05A983EC0539A809152
:101010009103882311F05B9A37C05B9835C0549ACE
:1010200080919103882311F05C9A2EC05C982CC0AB
:10103000559A80919103882311F05D9A25C05D989F
:1010400023C0569A80919103882311F05E9A1CC0A8
:101050005E981AC0579A80919103882311F05F9A85
:1010600013C05F9811C0209A80919103882311F0DA
:10107000289A0AC0289808C0219A80919103882351
:1010800011F0299A01C02998E09190038E2F90E0E9
:10109000FC013A97EA30F10508F0E4C0E45BFF4F49
:1010A0000C946D10229A80919103882311F02A9A52
:1010B000D9C02A98D7C0239A80919103882311F030
:1010C0002B9AD0C02B98CEC0249A8091910388236C
:1010D00011F02C9AC7C02C98C5C0259A8091910315
:1010E000882311F02D9ABEC02D98BCC0389A8091EB
:1010F0009103882311F0409AB5C04098B3C0399A43
:1011000080919103882311F0419AACC04198AAC004
:101110003A9A80919103882311F0429AA3C0429891
:10112000A1C03B9A80919103882311F0439A9AC001
:10113000439898C03C9A80919103882311F0449A77
:1011400091C044988FC03D9A80919103882311F0FB
:10115000459A88C0459886C00E94FC0680939003FB
:10116000E09190038E2F90E08A309105D8F5FC0134
:10117000EA5AFF4F0C946D10509889B12BC05198CA
:1011800089B12CC0529889B182FB882780F928C088
:10119000539889B183FB882780F922C0549889B17C
:1011A000829581701DC0559889B185FB882780F98B
:1011B00017C0569889B186FB882780F911C05798C7
:1011C00089B1807890E0880F892F881F990B08C01B
:1011D000209883B1817004C0219883B18695817075
:1011E00080931A01E09190038E2F90E0FC013A97D2
:1011F000EA30F10588F5E05AFF4F0C946D10229803
:1012000083B114C0239883B117C0249883B11AC046
:10121000259883B11CC0389886B181701BC039985D
:1012200086B18695817016C03A9886B182FB882770
:1012300080F910C03B9886B183FB882780F90AC0EB
:101240003C9886B18295817005C03D9886B185FB3A
:10125000882780F980931A0181E090E09093210221
:1012600080932002E091B2038E2F90E0FC01E258BF
:10127000F109E731F10508F03BC2E659FF4F0C9444
:101280006D100E94FC06809390039091900327B10B
:101290009F7301E010E0A80102C0440F551F9A950A
:1012A000E2F7CA0180959095822387B990919003C7
:1012B00028B19F73B80102C0660F771F9A95E2F7B5
:1012C000CB0180959095822388B9209103014091AC
:1012D00004018091900365E00E943E0180E00E943D
:1012E0006301F82E0E948001F0921A01FDC10E9454
:1012F000FC06809390033091900347B13F7381E0E7
:1013000090E0BC0102C0660F771F3A95E2F79B019F
:1013100020953095242327B92091900338B12F735D
:1013200002C0880F991F2A95E2F780959095832334
:1013300088B920910301409104018091900365E0F8
:101340000E943E0181E00E9463018C010E948001A5
:1013500000931B0110931A01F0C00E94FC068093B9
:10136000900380919003843008F0C2C18091900373
:10137000823009F4BDC180919003809304012091D3
:1013800003014091040165E080E00E943E010E945B
:101390008001AEC10E94FC06809390030E94FC066F
:1013A000809391030E94FC068093920380919103A5
:1013B00080931A013091900347B13F7381E090E030
:1013C000BC0102C0660F771F3A95E2F79B0120959A
:1013D0003095242327B92091900338B12F7302C090
:1013E000880F991F2A95E2F780959095832388B9F5
:1013F00020910301409104018091900365E00E94D7
:101400003E01C12CD12C7601809191039FEF980F62
:10141000909391038823A1F080E00E946301C80E9D
:10142000D91EE11CF11C80919203882369F38091FD
:10143000920374E0879FC00111240197F1F7E4CF74
:101440000E94800120911A0130E040E050E0C70185
:10145000B6010E944B1020931A0181E090E0909316
:1014600021028093200244C10E94FC0680939003D5
:101470000E94FC06809391030E94FC0680939203D5
:101480008091910380931A013091900347B13F738B
:1014900081E090E0BC0102C0660F771F3A95E2F749
:1014A0009B0120953095242327B92091900338B1D2
:1014B0002F7302C0880F991F2A95E2F780959095A7
:1014C000832388B920910301409104018091900306
:1014D00065E00E943E01C12CD12C760180919103E0
:1014E0009FEF980F909391038823A1F081E00E94D1
:1014F0006301C80ED91EE11CF11C80919203882360
:1015000069F38091920374E0879FC00111240197D1
:10151000F1F7E4CF0E94800120911A0130E040E011
:1015200050E0C701B6010E944B1020931B01BB275E
:10153000A52F942F832F80931A0182E090E08FCF04
:101540000E94FC0680930301D3C00E94FC06809396
:1015500090030E94FC06809391030E94FC068093F6
:1015600092030E94FC068093930320919203809142
:10157000930390E0922B9093DE038093DD033091F0
:10158000900347B13F7381E090E0BC0102C0660F59
:10159000771F3A95E2F79B0120953095242327B9D0
:1015A0002091900338B12F7302C0880F991F2A959C
:1015B000E2F780959095832388B9209103014091AB
:1015C00004018091900365E00E943E0100E010E07C
:1015D0008091910390E00817190708F083C080E01C
:1015E0000E946301F801E65EFE4F80838091DD0377
:1015F0009091DE03892B31F08091DD039091DE0321
:101600000E9429010F5F1F4FE3CF0E94FC068093C9
:1016100090030E94FC06809391030E94FC06809335
:1016200092030E94FC068093930320919203809181
:10163000930390E0922B9093DE038093DD0330912F
:10164000900347B13F7381E090E0BC0102C0660F98
:10165000771F3A95E2F79B0120953095242327B90F
:101660002091900338B12F7302C0880F991F2A95DB
:10167000E2F780959095832388B9209103014091EA
:1016800004018091900365E00E943E01CC24C39444
:10169000D12CE12CF12C8091910390E08701000F77
:1016A000111FE816F906F0F481E00E946301F801C9
:1016B000E65EFE4F9083F601E65EFE4F80838091EA
:1016C000DD039091DE03892B31F08091DD03909151
:1016D000DE030E9429017FEFE71AF70A82E0C80EB5
:1016E000D11CD9CF0E9480011093210200932002C7
:1016F0008091B203853841F130F4843809F05AC042
:101700000E94560357C08638A1F18A3A09F052C0A8
:101710000E94FC06809390030E94FC068093910334
:101720000E94FC06809392030091910380919203A2
:1017300010E0102F0027080F111D109321020093B5
:101740002002E12CF12C22C00E94FC068093900321
:101750000E94FC0680939103809191030E945D0397
:1017600080931A0181E090E09093210280932002FF
:1017700021C00E94FC06809390030E94FC06809387
:101780009103809191038093000114C0E016F1064B
:1017900051F00E94FC06F701E65EFE4F80832FEFBA
:1017A000E21AF20AF3CFA7016FEF70E08AE191E04D
:1017B0000E9480038091B2038B3809F454C0E8F48E
:1017C000883809F44DC080F4873809F0DCC00E94E5
:1017D000FC06809390030E94FC06809391030E9474
:1017E00086018091910364C08938D1F18A3809F06B
:1017F000CAC084E98093BC00C6C08B3A09F444C0D7
:1018000080F48C3809F0BFC00E94FC0680939003DE
:101810000E94FC0680939103809191030E94E00155
:101820002EC08C3A09F453C08D3A09F0ACC00E9426
:10183000FC06809390030E94FC06809391030E9413
:10184000FC0680939203009191038091920310E033
:10185000102F0027080F111D6801E894D7F867C002
:101860000E948C0190C00E94FC06809390030E940D
:10187000FC0680939103809191030E94A7018093BD
:101880001A0181E090E07BC00E94FC0680939003E7
:101890000E94FC06809391030E94FC0680939203B1
:1018A000809191038093D7030E94860180919203D7
:1018B000823041F0833041F088E48093B800109288
:1018C000B90061C08CE0F9CF1092B800F8CF0E9447
:1018D000FC06809390030E94FC06809391030E9473
:1018E000FC0680939203409191038091920350E013
:1018F000542F4427480F511DCA010296909321028C
:10190000809320026FEF70E08AE191E00E94020272
:10191000E0912002F0912102E85EFE4F9083E09179
:101920002002F0912102E75EFE4F80832CC080915F
:101930002002909121028C159D05A0F4E0902002D8
:10194000F09021020E94FC06F701E65EFE4F8083C4
:101950008091200290912102019690932102809320
:101960002002E5CFA8016FEF70E08AE191E00E94CC
:10197000380290931A0180931B0182E090E09093CB
:101980002102809320028091B2038E3871F118F405
:101990008D3841F0B9C08F3809F44AC0803909F454
:1019A0007DC0B2C00E94FC0680939003809190039A
:1019B000833091F038F4813061F0823099F40E94E4
:1019C0009E06A2C0843059F0853061F40E947406EE
:1019D0009BC00E94920798C00E948C0695C00E94EE
:1019E000800692C00E949D078FC00E94FC068093D3
:1019F000900380919003833091F038F4813061F04E
:101A0000823099F40E949A067FC0843059F0853064
:101A100061F40E94700678C00E948E0775C00E9413
:101A2000880672C00E947C066FC00E9499076CC035
:101A30000E94FC06809390030E94FC068093910311
:101A40000E94FC068093920380919003833059F0AA
:101A500028F48130D1F0823031F017C0843061F049
:101A6000853051F012C0609191038091920370E033
:101A700090E00E94DE0248C0609191038091920341
:101A800070E090E00E942E033FC06091910380912E
:101A9000920370E090E00E94930236C00E94FC0620
:101AA000809390030E94FC068093910380919003A1
:101AB0008330D1F060F4813099F0823011F580915B
:101AC000910390E090938900809388001DC084303A
:101AD00099F08530B1F4809191038093B40014C0E3
:101AE0008091910388BD10C08091910390E0909304
:101AF0008B0080938A0008C0809191038093B3008B
:101B000003C08091910387BDE091B2038E2F90E0D6
:101B1000FC01E05BF109E930F10508F045C0EF5741
:101B2000FF4F0C946D100E946D063EC00E94C004D1
:101B300033C00E944A0538C0809192038983809106
:101B400093038A83809194038B83809195038C8384
:101B5000809196038D83809197038E83809191036A
:101B600046E050E0BE016F5F7F4F0E944F051CC0F2
:101B70000E942E0611C060919203809191030E94F1
:101B80000B050AC08091150107C0809190030E9447
:101B900034050AC00E94F20480931A0181E090E0AB
:101BA00090932102809320028091B2038A3B69F0D6
:101BB0008B3BA1F0893B01F50E94FC0680939003CA
:101BC000809190030E94320417C00E94FC0680930B
:101BD0009003809190030E94EF030EC00E94FC06C8
:101BE000809390030E94FC0680939103609191037F
:101BF000809190030E941E048091B2038139A9F163
:101C0000823909F061C00E94FC06809390030E9413
:101C1000FC06809391038091900390E09093DE0303
:101C20008093DD038091DD039091DE03982F882758
:101C30009093DE038093DD03209191038091DD0377
:101C40009091DE03822B9093DE038093DD03E0917D
:101C5000DD03F091DE03808180931A0181E090E042
:101C600090932102809320022FC00E94FC06809353
:101C700090030E94FC06809391030E94FC068093CF
:101C800092038091900390E09093DE038093DD03B4
:101C90008091DD039091DE03982F88279093DE03D7
:101CA0008093DD03209191038091DD039091DE0309
:101CB000822B9093DE038093DD03E091DD03F091AE
:101CC000DE038091920380838091B20390E00E94B2
:101CD000B6038091200290912102892B51F040910E
:101CE00020025091210264E170E08AE191E00E94BB
:101CF000A40780E026960FB6F894DEBF0FBECDBFD6
:101D0000DF91CF911F910F91FF90EF90DF90CF90D7
:101D1000089580E00E94BD030C94DB0614BE10926F
:101D20001E020E949B0378948091C100806880937A
:101D3000C1000E94650480911E0201E0882379F0B1
:101D400020E042E063E070E085E091E00E9422073D
:101D5000882389F30E94B90710921E02ECCF21E07C
:101D600041E062E070E088E091E00E942207882371
:101D700011F381E080931E02DECF1F920F920FB607
:101D80000F9211242F933F934F935F936F937F9301
:101D90008F939F93AF93BF93EF93FF930E94890E0E
:101DA000FF91EF91BF91AF919F918F917F916F9133
:101DB0005F914F913F912F910F900FBE0F901F9009
:101DC00018951F920F920FB60F9211242F933F93E5
:101DD0004F935F936F937F938F939F93AF93BF9333
:101DE000EF93FF93809117018830E0F580911901FE
:101DF0002091170190E002C0959587952A95E2F70A
:101E000080FF30C080911701811102C0529A5A9A06
:101E100080911701813011F4539A5B9A80911701D8
:101E2000823011F4549A5C9A80911701833011F436
:101E3000559A5D9A80911701843011F4569A5E9AF2
:101E400080911701853011F4579A5F9A809117019C
:101E5000863011F4209A289A80911701873011F466
:101E6000219A299AE0911701F0E0EE0FFF1FE4514B
:101E7000FD4F20813181E0911701F0E0EE0FFF1F4F
:101E8000EF53FC4F80819181092E000CAA0BBB0BF4
:101E9000820F931FA11DB11D8057914CAF4FBF4FB3
:101EA000492F5A2F6B2F772740938B0080938A00FE
:101EB000B198FF91EF91BF91AF919F918F917F91D9
:101EC0006F915F914F913F912F910F900FBE0F90A7
:101ED0001F9018951F920F920FB60F9211242F93F7
:101EE0003F938F939F93AF93BF93EF93FF93809113
:101EF00017018830E0F5809119012091170190E0D9
:101F000002C0959587952A95E2F780FF30C08091B1
:101F10001701811102C0529A5A988091170181309D
:101F200011F4539A5B9880911701823011F4549AFE
:101F30005C9880911701833011F4559A5D988091D7
:101F40001701843011F4569A5E98809117018530FC
:101F500011F4579A5F9880911701863011F4209AF6
:101F6000289880911701873011F4219A299880913F
:101F700017018F5F877080931701E0911701F0E0E0
:101F8000EE0FFF1FE456FC4F20813181E0911701D5
:101F9000F0E0EE0FFF1FE451FD4F80819181E09151
:101FA0001701F0E0EE0FFF1F82179307D0F4E45102
:101FB000FD4F208131818091010190910201820FBA
:101FC000931FE0911701F0E0EE0FFF1FE456FC4F66
:101FD00020813181E0911701F0E08217930778F5B5
:101FE00037C0E456FC4F20813181E0911701F0E0C9
:101FF000EE0FFF1FE451FD4F8081918128173907B3
:1020000070F5E0911701F0E0EE0FFF1FE451FD4F76
:10201000808191812091010130910201821B930BFB
:10202000E0911701F0E0EE0FFF1FE456FC4F208116
:102030003181E0911701F0E02817390748F0A091AD
:102040001701B0E0AA0FBB1FA456BC4F8D919C9105
:10205000EE0FFF1FE451FD4F918380830EC030913E
:1020600017012091180181E090E001C0880F3A9596
:10207000EAF78095822380931801B298FF91EF913F
:10208000BF91AF919F918F913F912F910F900FBE74
:102090000F901F901895A1E21A2EAA1BBB1BFD01E1
:1020A0000DC0AA1FBB1FEE1FFF1FA217B307E40737
:1020B000F50720F0A21BB30BE40BF50B661F771F8F
:1020C000881F991F1A9469F760957095809590956F
:1020D0009B01AC01BD01CF010895EE0FFF1F0590DC
:0A20E000F491E02D0994F894FFCF6D
:0A20EA001F01000A013B0A003A0042
:00000001FF
