:020000040000fa
:04005c00fc020000a2
:020000040000fa
:04007c00fc02000082
:020000040000fa
:04000c00fc020000f2
:020000040000fa
:0400b400fc0200004a
:020000040000fa
:0400b000fc0200004e
:020000040000fa
:04014000fc020000bd
:020000040000fa
:04010800fc020000f5
:020000040000fa
:04010400fc020000f9
:020000040000fa
:04014400fc020000b9
:020000040000fa
:04007000fc0200008e
:020000040000fa
:04007400fc0200008a
:020000040000fa
:04013400fc020000c9
:020000040000fa
:04011400fc020000e9
:020000040000fa
:04011800fc020000e5
:020000040000fa
:04003800fc020000c6
:020000040000fa
:04020800fc020000f4
:020000040000fa
:04020c00fc020000f0
:020000040000fa
:04023000fc020000cc
:020000040000fa
:04023400fc020000c8
:020000040000fa
:04023800fc020000c4
:020000040000fa
:04006000fc0200009e
:020000040000fa
:04008800fc02000076
:020000040000fa
:0400b800fc02000046
:020000040000fa
:0400e000fc0200001e
:020000040000fa
:04011c00fc020000e1
:020000040000fa
:04013800fc020000c5
:020000040000fa
:04013c00fc020000c1
:020000040000fa
:04020000fc020000fc
:020000040000fa
:04020400fc020000f8
:020000040000fa
:04001c00fc020000e2
:020000040000fa
:04001000fc020000ee
:020000040000fa
:04021c00fc020000e0
:020000040000fa
:04022400fc020000d8
:020000040000fa
:04022c00fc020000d0
:020000040000fa
:04024400fc020000b8
:020000040000fa
:04024c00fc020000b0
:020000040000fa
:04025400fc020000a8
:020000040000fa
:04025c00fc020000a0
:020000040000fa
:04002c00fc020000d2
:020000040000fa
:04003c00fc020000c2
:020000040000fa
:0400bc00fc02000042
:020000040000fa
:0400c000fc0200003e
:020000040000fa
:0400c400fc0200003a
:020000040000fa
:0400c800fc02000036
:020000040000fa
:04008000fc0200007e
:020000040000fa
:04008400fc0200007a
:020000040000fa
:04019c00fc02000061
:020000040000fa
:04026000fc0200009c
:020000040000fa
:04002800fc020000d6
:020000040000fa
:04007800fc02000086
:020000040000fa
:04009c00fc02000062
:020000040000fa
:0400fc00fc02000002
:020000040000fa
:04010000fc020000fd
:020000040000fa
:0401b800fc02000045
:020000040000fa
:0401bc00fc02000041
:020000040000fa
:0401c000fc0200003d
:020000040000fa
:0401c400fc02000039
:020000040000fa
:0401c800fc02000035
:020000040000fa
:0401cc00fc02000031
:020000040000fa
:0401d000fc0200002d
:020000040000fa
:0401d400fc02000029
:020000040000fa
:0401d800fc02000025
:020000040000fa
:0401dc00fc02000021
:020000040000fa
:0401e000fc0200001d
:020000040000fa
:0401e400fc02000019
:020000040000fa
:0401e800fc02000015
:020000040000fa
:0401ec00fc02000011
:020000040000fa
:0401f000fc0200000d
:020000040000fa
:0401f400fc02000009
:020000040000fa
:0401f800fc02000005
:020000040000fa
:0401fc00fc02000001
:020000040000fa
:04023c00fc020000c0
:020000040000fa
:04012400fc020000d9
:020000040000fa
:04012800fc020000d5
:020000040000fa
:04014800fc020000b5
:020000040000fa
:04015000fc020000ad
:020000040000fa
:04015800fc020000a5
:020000040000fa
:04015c00fc020000a1
:020000040000fa
:04016000fc0200009d
:020000040000fa
:04016400fc02000099
:020000040000fa
:04016800fc02000095
:020000040000fa
:04017800fc02000085
:020000040000fa
:04017c00fc02000081
:020000040000fa
:0401b000fc0200004d
:020000040000fa
:0401b400fc02000049
:020000040000fa
:04026400fc02000098
:020000040000fa
:04006c00fc02000092
:020000040000fa
:0400f000fc0200000e
:020000040000fa
:04001800fc020000e6
:020000040000fa
:04006400fc0200009a
:020000040000fa
:04021800fc020000e4
:020000040000fa
:04022000fc020000dc
:020000040000fa
:04022800fc020000d4
:020000040000fa
:04024000fc020000bc
:020000040000fa
:04024800fc020000b4
:020000040000fa
:04025000fc020000ac
:020000040000fa
:04025800fc020000a4
:020000040000fa
:04003000fc020000ce
:020000040000fa
:04004000fc020000be
:020000040000fa
:04008c00fc02000072
:020000040000fa
:04009000fc0200006e
:020000040000fa
:0400cc00fc02000032
:020000040000fa
:0400d000fc0200002e
:020000040000fa
:0400d400fc0200002a
:020000040000fa
:0400d800fc02000026
:020000040000fa
:04019800fc02000065
:020000040000fa
:04000800fc020000f6
:020000040000fa
:0400dc00fc02000022
:020000040000fa
:0401a000fc0200005d
:020000040000fa
:0401a400fc02000059
:020000040000fa
:0401a800fc02000055
:020000040000fa
:0401ac00fc02000051
:020000040000fa
:04014c00fc020000b1
:020000040000fa
:04010c00fc020000f1
:020000040000fa
:04011000fc020000ed
:020000040000fa
:04015400fc020000a9
:020000040000fa
:04012000fc020000dd
:020000040000fa
:04002400fc020000da
:020000040000fa
:04006800fc02000096
:020000040000fa
:0400ec00fc02000012
:020000040000fa
:04004c00fc020000b2
:020000040000fa
:04005000fc020000ae
:020000040000fa
:0400a800fc02000056
:020000040000fa
:0400ac00fc02000052
:020000040000fa
:04019000fc0200006d
:020000040000fa
:04019400fc02000069
:020000040000fa
:04021000fc020000ec
:020000040000fa
:04021400fc020000e8
:020000040000fa
:04002000fc020000de
:020000040000fa
:04001400fc020000ea
:020000040000fa
:04003400fc020000ca
:020000040000fa
:04004400fc020000ba
:020000040000fa
:04004800fc020000b6
:020000040000fa
:04009400fc0200006a
:020000040000fa
:04009800fc02000066
:020000040000fa
:0400e400fc0200001a
:020000040000fa
:0400e800fc02000016
:020000040000fa
:0400f400fc0200000a
:020000040000fa
:0400f800fc02000006
:020000040000fa
:04012c00fc020000d1
:020000040000fa
:04005800fc020000a6
:020000040000fa
:04013000fc020000cd
:020000040000fa
:0400a400fc0200005a
:020000040000fa
:04016c00fc02000091
:020000040000fa
:04017400fc02000089
:020000040000fa
:04018400fc02000079
:020000040000fa
:04018c00fc02000071
:020000040000fa
:080000000002040000000000f2
:020000040000fa
:100400000f6621000eff27000e018800000000008b
:10041000000020000000e000020032000001200087
:10042000200288000c000700006627000100200061
:100430001d000700000020000000e0000200320064
:10044000000002000000000006750200000000002d
:100450000040da000000fe00200a20000000e0005a
:1004600002003200002020009001880000000600f9
:10047000f03fb1000180b10006003500ee03090035
:1004800000000000403fb1000180b100fbff3d00d3
:100490001000b000203fb0000200350000800900cd
:1004a0000000000000000600a10288008000780023
:1004b0000000eb001a003700e280400054a0b400b6
:1004c0009101ba00e280400054a0b4009102ba0049
:1004d000e280400054a0b4000002eb00472bde0095
:1004e000f507b200a6018800602ce10008003a0080
:1004f0000049eb000201e800020039003420ec0062
:1005000002f0a0008301e900f9ff3e00040037007b
:100510006128e100010032000082eb000b000700bf
:1005200011c3ba001101ba000604e00003003a004a
:100530000200e000e0ff3a0000000600f607b2000b
:10054000a602880082007800f5ff370004d0a300df
:10055000e20f49001c003900810278003549ba00d9
:100560000201e800020039003420ec0002f0a00093
:100570008301e9000f0032002549ba000201e800ba
:10058000020039003420ec0002f0a0008301e900f1
:10059000080032000400e0000600320015c9ba006d
:1005a0000201e800020039003420ec0002f0a00053
:1005b0008301e9008180e80054a0b4000300e0005a
:1005c000e2ff3a00000006009102ba0005597800e7
:1005d0008301e900f7ff3200c82ade0005597800e0
:1005e0008301e900f3ff32000400e000f1ff320074
:1005f00011d9ba00eeff37000040da000000fe001b
:100600008001780002003700815978000201e9007a
:100610000200e000fcff3a00000006006022b80083
:10062000060220000000d0008180d2000482d200a7
:100630008582d2000000a0000202520083825a008c
:10064000030031000202420083824a000000a10040
:100650000603e900f3ff3a00000006006011b8004d
:10066000d101370081037800fe0107000001be00c0
:100670006000b8000478a30013003a006220e10093
:1006800015003e000d0039008301d1000281d30026
:100690008180d3008301d1000281d3008180d30007
:1006a0008301d1000281d3008180d3000538b000de
:1006b000c42add00f300b2008381720007f0a700b6
:1006c00003f0a00000000600f3ff2700f2ff2f0058
:1006d0006110b900fbff370003ff2700f7ff370069
:1006e0002800fa00889fbe008a9fbe008c9fbe0033
:1006f00003866b00f00107000028a30064003a00a5
:100700000128a30067003a000008a30062003a0035
:100710000108a30065003a001e009000be0890008a
:1007200081064000ed3fb100f4805700ee019000db
:10073000111ab8008e099000311bb8009e09900074
:10074000311cb800511db800f48557004600070061
:10075000fe0190003a0007008b85e8003e0007008c
:100760008e09900040000700ee0190003400070061
:100770008b85e800380007008e09900040000700d4
:100780009e0990001b18b800890440000a854800a3
:10079000fe019000340007008b85e8003800070058
:1007a000ee019000300007008e0990001b18b80081
:1007b000890440000a8548000a98a30008003a000e
:1007c0000402420085824a0006034b0087834b00e7
:1007d00008044c0089844c000a054d008d06e90090
:1007e00084827200850273004c3add00850272003b
:1007f0000100320015002000443ade001400b2006f
:100800004538de00cb45dd000b007000c540de0042
:10081000cb4ddd008b8070004549de00cb55dd00ff
:100820000b017100c551de000d037800bb0107000c
:1008300003f0a1000cf0a70003f0a000b201370004
:100840001b18b8008502400006834800e0834b0077
:1008500060044c00070037001b18b8000603400076
:1008600087834800faff37001b18b8008703400051
:1008700008844800e0844c0060054d00000006003c
:100880001b18b8000804400089844800faff3700ac
:100890000108a30099013a005800be005801be00ab
:1008a000e3ff37000008a30094013a000904780030
:1008b000f9ff37001400fa00889fbe008a9fbe002f
:1008c0008c9fbe000005be000206be006800470007
:1008d0000c90be000a90be00bc0107006400e1005d
:1008e0001a00320016003e006100e1001a003200da
:1008f0006e049000fe0490000e0b90009e0b900082
:100900006011b8009e0590000b38b100d5012000a1
:1009100082817100610164008703d1000683d300e6
:100920008984d3000884d3008502e900f8ff3a00e7
:10093000cd0107000df0a70001f0a0007201370003
:10094000f1ff2700f0ff2f006f01370001f82700ab
:1009500000002000f7ff37006000b800f5ff370007
:10096000889fbe008a9fbe008c1f7800e4010700ac
:10097000eb01330003866c006450e1002400320078
:100980006420e100270032006150e10022003200c3
:100990006120e100210032008b854200eb07b100ad
:1009a0000134b800003ab8000804420089844a00c3
:1009b000013ab8000030b8008880400009014a00c0
:1009c000040033000000400081804800020149001b
:1009d0008b05e900c909dd008301700001003200c8
:1009e00013002000c814de004814dd004709de00b3
:1009f0001200b200c808de00088470009a010700e7
:100a000001f0a1000cf0a70001f0a000cd0137001b
:100a10006120e100cf0132000801be000200be00eb
:100a2000f7ff37006150e100fcff3a00c9013700d1
:100a300003f0a200889fbe008a9fbe008c1f780032
:100a4000af010700b60133006450e1004f003200ef
:100a50006420e1005200320003826c0007003b007a
:100a60000905d0000306d000820f54000c065d007b
:100a70000200390002003200890178000306780084
:100a80008582550004003d000003fd008103fd0048
:100a90008502ea008b854200840f720002003b0051
:100aa00060001000e08018006011b8000005eb0045
:100ab0007a28e1000a00390006007800c75ddd00f1
:100ac000f707b200878075002d0037008281710022
:100ad0000a017800610560008180d1000080d300a8
:100ae0008502e900f9ff3b000604400087844800c6
:100af00002003b0060041400e0841c000988a3008d
:100b0000070032008a8171008281710061016400f6
:100b10008904d1000884d3008b05e8001700370052
:100b20000978a30013003a000b00e0001300340022
:100b30008b05e9000804440089844c000a447400d1
:100b40000978a3000d003a000b00e0000700340014
:100b50008b05e9000804440089844c0001003a0038
:100b60000b0020000978a300f7ff32000001eb0022
:100b700002003700828171000a0178003a01070003
:100b80000cf0a70001f0a0006e0137006420e10026
:100b900002003a00838f6c006e0133000801be0032
:100ba0000200be0067013700140020006c0137000e
:100bb0000002eb00850107000500320007ff23005b
:100bc000060020006022b80003f0a700c301070060
:100bd000000006000001be00a20007000470a7008c
:100be00003f0a1006509b100160032000d003500c8
:100bf0006828e10006003500f0ff2f00f1ff270014
:100c00000300e00013003b00010028000000050085
:100c100000004000818048008502e900fcff3a00a6
:100c200008003700f88f420002003c008000eb0013
:100c3000000005008100d1000080d3008502e8009b
:100c4000fcff3a000300e00002003b0060001000df
:100c5000e0801800000006004f89de008201780065
:100c6000a0013700839f68000100e00002003d0002
:100c700060001000e08018000300e00002003d006a
:100c800060011100e081190064fe07004f00e000e0
:100c900002003b0060001000e08018000000060029
:100ca000889fbe008a9fbe008c1f78001401070039
:100cb0001b01330003866c006450e1002e003200fb
:100cc0006420e100330032006150e1002f00320067
:100cd0006120e1003100320085855500eb07b0004e
:100ce0000900200008042000050037000804440023
:100cf00089844c000a0031000603430087834b00bf
:100d00000001530081815b00f8ff33000203be0045
:100d10000800a0000804440089844c00f6ff390054
:100d2000c639dd008301730001003200130020008a
:100d30008904d1000884d3000998a300050032007b
:100d40000800a7000300a0008904d1000884d30094
:100d50008b05e8008904d1000884d3000001eb0072
:100d60000281d200c000070001f0a1000cf0a70032
:100d700001f0a000f30037006420e100f50032002c
:100d80000801be000200be00f7ff37006120e1004d
:100d9000f00032006000b800f3ff370000002000d0
:100da00001f82700f0ff3700889fbe008a9fbe0031
:100db000008270000402710004827100260032007b
:100dc0000004be000200be006011b8006b092000e4
:100dd000950220000182cf000a0039000541b100d0
:100de0000082cf00070039000541b1000982cf0021
:100df000040039000541b1000882cf00010039002c
:100e00000541b10005425200120032000a003b00c9
:100e100082817100610164008100d1000080d300f3
:100e20008984d3000884d3008b05e8000442e800dd
:100e3000f7ff3a00070037000804440089844c009b
:100e400000004800818048008b05e9000442e90069
:100e5000f9ff3a00840007004f05be004f04be00b2
:100e600000000600c70ade00f107b200f50fb2006d
:100e700008003200e1cf4200020032000170a00001
:100e800024000500810f70000100320004080500f5
:100e900044000500810f700002003a0014000500b4
:100ea0008502e9000000400081c04800fcff3b00d3
:100eb0000170a00024000500680447000294be00f1
:100ec0000094be00fc0447008694be008494be00db
:100ed000090078003d000700080078003b0007008b
:100ee00099007800814f70000b003b000800be00a5
:100ef0000c0107004f00b10003003700f3ff27008b
:100f0000f2ff2f006110b9004f06be004f05be0072
:100f10004f04be000080fa00000006001800200008
:100f200057002000080453000d003d00060020007b
:100f300097fc2f000740e1001e00340084827200fd
:100f4000610260008301d1000281d3008180d3005f
:100f50000080d3000804e800f8ff3a0047002000b2
:100f60006104600005047400040464000d00320094
:100f700061004000e080480060014900e0814900d4
:100f800003b8a500070032000603e8006538e10059
:100f900004003a008301d1000281d3008180d30094
:100fa0000080d300f87f20000830e1000300350006
:100fb000080378006000b8006011b8004433dd0019
:100fc000f300b20083017300000006008000780087
:100fd0005002be005003be004439de00f700b200ec
:100fe000f37f200003016100090032000218e100d4
:100ff00016003a008501720083017300838173003b
:101000000008200015003a004000200013003700bf
:1010100085017200830173008381730005003a002b
:1010200004a8be0006a8be00100020000b00370078
:101030000201e9000402420085824a0006034b00d7
:1010400087834b000748a300f9ff32000740a00048
:1010500004a8be0006a8be00200020008000980062
:101060009200980000000600810020006180550079
:101070000b003d000b00200061fe2f000100e1008d
:101080001d00340082817100610164008904d10077
:101090000884d3000000e800faff3a007100200045
:1010a000610064000300700002006000090032006b
:1010b00061044400e0844c000988a500050032006a
:1010c0008b05e8006808e10002003a008904d100bd
:1010d0000884d300f20f20000258e10005003d0013
:1010e000c75ddd00f907b20089807500080078004f
:1010f000000006000bf827008b00780000000500b8
:101100000004be0057ff07000003be000405be0038
:101110000200be0053ff0700844f75000000060068
:101120000200be006450e100050036006420e100ca
:10113000020036000968a30001003a000800be0062
:101140000160a0004f0678004f05be004f04be00ae
:1011500000000600f0ff2f00f1ff2700f9ff370025
:10116000889fbe008a9fbe00841f7800e4ff0700ae
:101170004f00780011003300f0ff2f00838f6c00c8
:1011800006003b00040565000a00a70008003700c0
:1011900009f0a6001000200008003700820f54005c
:1011a000838f5c00030039001000200001003e0026
:1011b0000000200009f0a7000000ea004f05be0073
:1011c0004f04be000000e000000006001400fa001a
:1011d000889fbe008a9fbe008c9fbe0004067800d8
:1011e000e80247008292be008092be0005007800af
:1011f00076ff07006200e10033003a006000b800ab
:101200006011b8001e0390000c035300f63fb100bc
:10121000220035004b0320000b30e1002a003d0086
:10122000fb012000faff2f006154b9006c01470058
:101230008b05d1000a85d3008984d3000884d300ac
:101240000603e900faff3b003200be001201be00b7
:1012500000026400818264000203650083836500ec
:1012600005027200060272000702720016003200c8
:101270000884ea008984ea000a85ea008b85ea008e
:1012800000006400818064000201650083816500c4
:101290006022b8001e03900020ff0700de039000cc
:1012a00007f0a70003f0a0000082eb000400e000bc
:1012b0008e0290004f06be004f05be004f04be00d8
:1012c0000080fa00000006006401470004002000ce
:1012d0003200be001201be00f4ff370007f0a2008a
:1012e0001e003700881f7800030478000300e00028
:1012f00007003d0060001000e08018006001190048
:10130000e081190002003b0001f02d0003003700ce
:10131000a5fe070008f0a70001f0a0004f04780028
:1013200000000600e48240001078a30007003200ad
:10133000640240001178a3003400be001401be0016
:10134000040032000330a700000006003500be0094
:101350001501be000330a000000006002800fa00be
:10136000889fbe008a9fbe008c9fbe000706780043
:10137000878669000c003b0003047800870478002e
:1013800008f0a10009f0a100840f5000858f5800db
:10139000860f5900890f5c00030033000cf0a20097
:1013a00001003a000cf0a100c3fe07006400e10058
:1013b0005f003200780147006408e10061003200fc
:1013c0006c014700748557003200be001201be0058
:1013d0003a04be001a05be001e039000be0a90002b
:1013e0008503530006003d000004fd008104fd005c
:1013f0000205fd008305fd008703ea000503780070
:101400000df8a3000400320060041400e0841c0006
:1014100060051d00e0851d006022b8007d032000ee
:101420000d38e1008006eb000b0039004433dd008d
:10143000f300b20083017300390037008482720028
:101440000d027800e10664008b85d1000a85d30087
:101450008984d3000884d3008703e900f7ff3b00a9
:1014600008004000898048000a0149008b8149003a
:1014700004003b0060001000e080180060011900cb
:10148000e08119000358a300090032008d82720028
:1014900084827200610260008301d1000281d30066
:1014a0008180d3000080d3000603e8001b003700d2
:1014b0000348a30017003a000600e00017003400bc
:1014c0000603e9000d00a3000000480081804800e9
:1014d00002014900838149000348a3000f003a003c
:1014e0000600e000090034000603e90000004000a7
:1014f00081804800020149008381490001003a00cf
:101500000003eb000348a300f5ff32006022b8009f
:101510000200370084827200618266007ffe07004d
:1015200003f0a1000cf0a70003f0a00076fe370046
:10153000640147006408e10002003a000df8a300ce
:101540006efe3a003200be001201be006efe370091
:020000040000fa
:0200000401f009
:04000800cfff000026
:020000040000fa
:0200000401f009
:04000c00fbff0000f6
:020000040000fa
:0200000401f009
:040010001eff0000cf
:020000040000fa
:0200000401f009
:040014007aff00006f
:020000040000fa
:0200000401f009
:04001800efff0000f6
:020000040000fa
:0200000401f009
:04001c00dfff000002
:020000040000fa
:0200000401f009
:04002000cfff00000e
:020000040000fa
:0200000401f009
:0400240055ff000084
:020000040000fa
:04018000a81f0000b4
:020000040000fa
:04005400b075000083
:020000040000fa
:0400a000dc7500000b
:020000040000fa
:04017000087600000d
:020000040000fa
:0401880034760000c9
:020000040000fa
:101550003a0000003b0a00000000000026030000e3
:10156000420000004c00000030000000300000008d
:101570003300000032000000200000005300000093
:101580004300000041000000440000004100000052
:1015900020000000530000006c000000610000000b
:1015a0007600000065000000140300004d000000fc
:1015b000610000007400000072000000690000007b
:1015c0007800000054000000530000004c000000b0
:1015d00012010000000200000200000000080000ec
:1015e000bf12000010f00000000100000102000026
:1015f0000001000009020000430000000201000099
:1016000000c00000320900000400000000010000da
:10161000020200000100000005240000001000008c
:10162000010400002402000002050000240600005e
:101630000001000005240000010000000107000077
:1016400005810000030800000002000009040000fa
:1016500001000000020a0000000000000007000076
:101660000502000002400000000000000705000025
:10167000820200004000000000000000040300009f
:1016800009040000fa8a00003e8b0000ae8a0000c8
:04169000d48a0000f8
:020000040000fa
:101694000001eb000100e000080032001004e0004b
:1016a40003003a00050037005004e0000300320054
:1016b4000201e800828f5000fbff3e000200780028
:1016c40000000600e8874700889fbe008a9fbe008e
:1016d4008c9fbe008e1f7800e2b79f0083067800bf
:1016e4000d00e00043003200e00f5000e08f58008e
:1016f40009003d00d2c2b300efb1970082497800df
:1017040060011000e0811800f2b79f0083bf9f00c2
:101714001c00200003003700f0b79f0081bf9f002a
:101724000006eb0018002000090020001ec0b300d2
:101734007fb097008fb89700e00f5000e08f5800fb
:101744000300320008a02c00a9b923000047eb00d5
:101754008d0f560027003100e00f5400e08f5c002d
:101764002b0032007fb597008fbd9700880f55007e
:10177400898f5d00020031000e04e0001200320087
:101784000801be000a00be00a3fb0700efb19700ea
:101794008c80410002c3b300824840000c06e8007c
:1017a4000080fb008000eb0080c9b9000800b8008d
:1017b400810041000001550081815d00f2b79f0066
:1017c40083bf9f001ec0b3008d0f56000900310077
:1017d400a2002000030020000800be008efb0700ca
:1017e4000004be00e00f5000e08f5800ddff3a0017
:1017f400070037006fb097004f0778004f06be0010
:101804004f05be004f04be008f00b100000006006b
:10181400efb197000c864100004eeb00f5ff370056
:1018240000017800810278006000b8000500e00043
:10183400460032001240780001cdb30081404000e0
:10184400e9cf50000c003600d1c2b300814f5000e4
:1018540019003a0004003700d4c2b300844f50008a
:1018640017003a00010037008001eb008301e80013
:1018740017c0b300020037008001eb008043eb0087
:101884006000b800838f52002a0036000301410033
:10189400124278006000b800f6c2b300864f5200ce
:1018a4002400360090c3b300804f52000e0036006f
:1018b4006000b8001f003700820078008001eb0050
:1018c4008301e800838f52001f00360051407800e6
:1018d40004cdb30004424000e94f5200deff3e0055
:1018e4008043eb00e9ff37006000b800ea0bb90061
:1018f4006a00b800810043000482fb000403b100c5
:101904004fa3de000000420081004b008301e80089
:10191400838f52000700360052427800f6c2b300ab
:10192400864f5200030036006a434300864f52003c
:10193400eeff36000704e0000400320060001000ef
:10194400e0801800000006006000b80000000600f7
:10195400f0874700889fbe008a9fbe008c9fbe0010
:101964008e1f78000007780081067800d0c2b3008b
:101974001e4068000080fb000000e9004f00de000c
:10198400e0ef9f000084fb008d0f54000b0031003a
:1019940008004700e1c2b30090cf100004003a00f1
:1019a40006003700e1c2b300d0cf100003003200bc
:1019b4000804e800888f5600faff3e00880078008b
:1019c4000e00780096ff07000005be008d0f54003e
:1019d40002003a0020fb0700450037000844e800f5
:1019e4000884fb0088bf9f00888f560025003600be
:1019f400880047001140780002cdb3000241400046
:101a0400e94f510023003e007d875700e1b79f0056
:101a1400080678000800200009f8230080407800b8
:101a24000801be000a04be006fb597000500370028
:101a3400da40780000cdb30000c04000e94f500008
:101a440018003e00016f78000200be0004fb07008e
:101a5400a4992900959929009699290097fb2300b8
:101a64001efb070092fb07000001be000c06e80005
:101a74008c8f5600eeff3e000805be000004be0039
:101a84000a0037000fbe97000800200009f8230061
:101a9400060037000fbe97000800200009f8230055
:101aa400020037000805be000204be000fb997000b
:101ab400820056007c80570059ff0700e6fa0700b1
:101ac4000801be00a5fb07000004be000a00be001a
:101ad400e1fa07000001be000800be00d4fb0700c5
:101ae4006fe997000204e0000100320001f0a20057
:101af4004f0778004f06be004f05be004f04be00de
:101b04000f01b100000006000080fb008181fb0092
:101b140000014000028141004411dd000360210006
:101b2400030141001274a1000104e00005003a0021
:101b340000004000e13521000080400002087800e8
:101b44000400370000004000c1362100008040003e
:101b5400020878001264a100680141001264a00028
:101b640000000600e19a800080c0b300e78f5000b7
:101b74000e003e00e09a8000cc50e20004003a00df
:101b840013c0b300c20c21000349780007003700da
:101b9400c10c210091407800e1cf500003003a00cd
:101ba40023c0b300c20c210003497800c1352100d1
:101bb4000081fb0091081100619b8000a14190000d
:101bc400a2409800b1419000c2cfb30002c16100ad
:101bd400b24098004139210071868800d19a800072
:101be4000108a300030032000004e0000c003a00e6
:101bf400000006000004e0001100320083352100db
:101c040093007800728680003159780072868800cb
:101c1400810978000040e900f8ff3a00000006005e
:101c24008335210093007800728680003159780052
:101c340072868800810978000040e900f8ff3a00c4
:101c44000000060000c8b30041382100914f100085
:101c540033003a0001ccb300a035210001487800dc
:101c64007038210010407800e24f50000900320023
:101c7400e34f500017003200e14f500026003a00b5
:101c840080ae2800c09a880020012000e09a8800d5
:101c940000000600603821001080fb0000004000b6
:101ca40021b428008080400080352100110878008c
:101cb40010017800e400400022419000824878003e
:101cc4009000780065004000b14090000148780021
:101cd400000006006038210021c0b30090cf10003e
:101ce4000a003e001080fb000000400041b42800c0
:101cf40080804000803521001108780010007800b1
:101d04001080fb00e09a880000000600a035210046
:101d14000048eb0000000600a03521000048eb005d
:101d2400000006000040eb004139210080487800a3
:101d34008100e80080487800403821001040780095
:101d44007f4060000080fb00e10f50000e00320075
:101d5400e20f50000f0032000000e00029003a00ba
:101d6400a03521001070a0000100e9001004a000bb
:101d7400d0858000e10f500022003a000100e90004
:101d84001014a0001f003700a03521001070a0001f
:101d94001c003700a03521001070a00080382100fd
:101da4001004e00008003500104078006f40600027
:101db4000080fb0000004000e1352100008040006d
:101dc4009000780008003700803821001040780027
:101dd4006f4060000080fb0000004000c13621001d
:101de400008040009000780040c8b300914060003b
:101df40080cf500003003a0011c0b30040392100e5
:101e040001487800d09a80000078a30007003200cf
:101e140040392100c09a8800a03521001000a0009c
:101e240021c0b3000080e8000148780000000600eb
:101e3400e024ab0017003200408680009080fb0055
:101e4400104190004811dd0002817000010820005b
:101e5400810f51000e003a00619b80009181fb00cc
:101e6400114190004811dd000281710041082000f9
:101e7400810f510006003a0090407800c1c8b300b9
:101e840001487800904090008040eb001140980099
:101e9400e024a900000820000026880000000600b5
:101ea400881f7800c0362100900078001184fb0060
:101eb4004644de00614464001034a200f0858000d2
:101ec400e80f50000a003a00603821001080fb003f
:101ed40060268800cc04e2000300320000012000e8
:101ee400f08588000200370040002000f08588005b
:101ef400cdd0bf00e14f500025003a00609b800028
:101f0400413921004041900041409800c808de005a
:101f1400504190005140980012ff0700ccd0bf0000
:101f2400e24f500008003a00609b80009040780027
:101f340041c8b30001487800904090008040eb0015
:101f440011409800260037000804e00008003a0019
:101f5400609b80009040780081ccb30001487800f9
:101f6400904090008040eb00114098001c00370026
:101f7400609b80009040780081c8b30001487800dd
:101f8400904090008040eb0011409800140037000e
:101f9400603621001004e00010003d0063004000a2
:101fa4009080fb000000e8001080fb004800dd008a
:101fb4000080700007003200903621009080fb0002
:101fc4000000e8001080fb004800dd000080700085
:101fd40000000100603621001074a100cd70ef00f4
:101fe4004f04780000000600f4874700889fbe0075
:101ff4008a9fbe008c9fbe008e1f78000005be0025
:1020040082f79f00e3b79f00f4b79f000204e0004b
:10201400110032000800200009f023000046eb0004
:102024000800be008ef90700a4992900959929009b
:102034009699290097fb2300a8f907001cfa0700ca
:102044000004be000c46e8000ff097008c4f5000cf
:10205400f3ff3e00020037000800200009f02300cf
:102064006011b8000a00be00cefa07008006eb003b
:102074000000e00005003d000bf0a200d0c2b30058
:10208400efb09700804878001d0020000801be00d2
:102094000a00be0066fa07000004be0070f90700db
:1020a400c2fa070002fa07000005be00c8fa0700da
:1020b400c300200002fe2f000f01410081fd070034
:1020c4008fe097000104e0000e0032000040eb00b6
:1020d4007fb197008d0f510004003600efb19700d7
:1020e4000d814100014978008d06e8000040e800b8
:1020f4008080fb000102b100efc078000104e00021
:10210400f3ff3a007fb097008d0f500005003600b2
:10211400efb097000d804000e1c2b30001487800a1
:102124008d06e8000ff197000204e0001f00320062
:10213400ffb19700838f5600230031000a01be00cf
:102144000800be0039fa07006fb197000d0741007f
:102154000d06780003003700ffb197008c8f510003
:10216400190036000200200003122400fbf90700c6
:102174000004be0096fa07000005be00b5fa070089
:102184000001be000800be0028fa070002c3b30025
:10219400025f45000c06e8000d4156008ff19700e0
:1021a400834f5100ecff3900010037000d06780021
:1021b4007fb097008c0f500003003600efb09700fb
:1021c4000c864000004eeb006fb097004f0778007c
:1021d4004f06be004f05be004f04be004f01b100c4
:1021e40000000600010161008180ea009080600027
:1021f40001087100000006000282ea0091086200f2
:1022040002816100100262000408710000000600ef
:10221400908060000281fb000208de0000000600de
:1022240091087100100161000380fb000010de00c2
:1022340000000600889fbe00804478000904e00086
:10224400080032000044eb000060fe00001721008b
:102254001100200085f807000844e80088cf5400e6
:10226400f9ff3e004f04be0000000600889fbe0038
:102274008a1f7800004578008044eb000a04e000df
:102284000a003a000b00370010c0b300e9ff070052
:102294000804e800703e2000800f5400faff3a0062
:1022a4008944e800894f5500020036000004eb0021
:1022b400f5ff37004f0578004f04be00000006000c
:1022c400889fbe0000047800f00f2000800f5400a7
:1022d40007003600a05b24000100200063f807001b
:1022e400f80fb100f00f2000800f5400f9ff3e00fa
:1022f4000800e000070032000880fb006104b80019
:102304006104200081c9b9000140b8008100410086
:1023140056f807004f04be0000000600881f78002e
:1023240000047800f00f2000800f540007003600ee
:1023340000e92500011120004cf80700f80fb10056
:10234400f00f2000800f5400f9ff3e000800e00069
:10235400050032000884fb00001721000040b8008b
:102364008100440041f807004f0478000000060093
:10237400881f780000047800f00f2000800f5400bc
:102384000600360000c0eb00aaff0700f80fb100fa
:10239400f00f2000800f5400faff3e000800e00018
:1023a4000200320008407800a2ff07004f047800c2
:1023b40000000600881f780000047800f00f200059
:1023c400800f54000700360000282600117f2200e9
:1023d40026f80700f80fb100f00f2000800f54001a
:1023e400f9ff3e000800e0000a0032000880fb000c
:1023f4008000eb0003d821008389b900c442200087
:102404008482b900040141000300b8008100410046
:1024140016f807004f04780000000600881f7800b3
:1024240000047800f00f2000800f540006003600ee
:1024340000c0eb008dff0700f80fb100f00f200083
:10244400800f5400faff3e000800e0000200320052
:102454000840780085ff07004f047800000006005c
:102464000000fa00889fbe008a9fbe008c1f78007f
:102474000604be006fb59700ffb59700060555002a
:1024840087855d00020050008380580080dbb9001e
:102494008a8eb9000c0343000050b8008100430049
:1024a4000201520083815a00edf907000000440044
:1024b40081804c004f0678004f05be004f04be00db
:1024c4000080fa00000006000400fa00889fbe00a5
:1024d4008a9fbe008c9fbe000204be0084bf9f0082
:1024e40095bf9f000606be000801be004ff9070015
:1024f4000005be000c01be003fb09700cfb09700ae
:102504004af907000001be000a00be0013f90700e3
:102514000005be000801be000fb897009fb89700e1
:1025240042f907000001be000a00be00dbf9070003
:102534000c01be003ef907004f06be004f05be0069
:102544004f04be000080fa00000006002ac8a9005b
:10255400f00f20002026880000268800e024ef00e9
:10256400e224ef00e424ef00dc24ef00f009200073
:1025740030268800102688009004a80000602100fe
:102584004800de00702688000000eb00c300dd0078
:1025940002602100810041006022b8006033b8006d
:1025a4008498be008690be000000e800ec0f500046
:1025b400f6ff3a00ca24a800cc24ef00caa4a9005c
:1025c400ca24a900c064ab000f00320080002000c0
:1025d400002688000040eb00a135210080487800e7
:1025e40061362100804878008100e80011417800bc
:1025f400804878008100e800114178008048780024
:10260400c064ab00f1ff3a0010002000b0868800df
:10261400c0868800b830ef00b430ef00bc30ef0063
:102624000000eb00f09a8800e1382100804878002f
:102634001139210080487800709b8800009b880035
:10264400f138210080487800213921008048780041
:10265400809b8800109b8800013921008048780005
:10266400313921008048780000612100609b880096
:10267400d0002000002788004038210020b08800c6
:102684002060210001c02f00908060000130a00074
:10269400010878004008200000b08800c070ef00f6
:1026a400be30ef0000000600889fbe008a1f78003d
:1026b40000457800814478000984fb000838a300b1
:1026c400030032008040eb000a4078000efd070052
:1026d4000828a3000300320011c0b3000a407800a8
:1026e40009fd07000a85fb000a054500004e20008d
:1026f4000a054000094d78004f0578004f04be00dc
:10270400000006000104e000060032000082fb0025
:1027140004024200c53621000482420014027800fb
:10272400050037000082fb0004024200e535210069
:1027340004824200140278008002eb000400e000ee
:102744002e003200c4429000424298004811de003c
:10275400d4429000524298008381fb00f50f200080
:102764002441900023429800b4419000c2cfb300aa
:1027740002c16100324298001481fb009441900030
:102784000204b20094417800054a61004811de0059
:1027940094419000124298009481fb0014419000ef
:1027a4004811dd00028171008208b3009441780071
:1027b400054a61004811de009441900012429800dd
:1027c4000104e000070032000080fb00000040002c
:1027d400c1362100010040001034a20084027800b8
:1027e400060037000080fb0000004000e1352100b6
:1027f400010040001034a200840278000500780033
:10280400000006000004e0001d003a00508680002d
:10281400a04090008040eb0082c0b30022409800aa
:10282400b0419000c2cfb30002c1610032409800b1
:102834005086800042382100c041900042409800f8
:102844004811de00d041900052409800508680002c
:1028540010417800c2c8b3000248780010419000cb
:1028640011409800609b80001041780042c8b3007a
:1028740002487800104190001140980000000600c2
:102884008180fb000080fb000000400000804000cd
:102894004400dd0004602100840040001181fb003d
:1028a40091429000c82add0085027100430820008f
:1028b40085827100f20f200082c86200c82ade00ff
:1028c4009540980068004000040040001082fb001e
:1028d40090409000c808dd00810072008180710082
:1028e40002c86000c808de0011409800000006001d
:1028f4001000fa00889fbe008a9fbe008c1f7800db
:10290400caa4ab00980032008080fb0081804000a4
:10291400c036210081004000110078001081fb00c6
:1029240090419000c819dd0083017100b3b79f0086
:10293400204190000281fb00b0419000c819dd00e5
:1029440083017100c3b79f00404190000281fb00e6
:10295400d0419000c819dd0083017100d3b79f00f6
:10296400604190000281fb00f0419000c819dd0035
:1029740083017100e3b79f003fb29700cfb2970085
:102984005fb39700efb3970008042000090020000c
:102994006055b80008026200898262000a0363007d
:1029a4008b836300f4b79f0085bf9f0096bf9f0091
:1029b400a7bf9f00f20f20009041780002486200f8
:1029c400ffb49700c849de001046900013409800f9
:1029d400a0419000254098000fbd9700c851de002b
:1029e4003046900033409800c04190004640980023
:1029f4009fbd9700c859de00504690005340980090
:102a0400e0419000674098002fba9700c821de008b
:102a14007044900073409800110078009081fb008e
:102a2400104690004866dd000c867100bcb79f001c
:102a3400a04190008381fb00304690004866dd0091
:102a44000c867100ccb79f00c04190008381fb00cd
:102a5400504690004866dd000c867100dcb79f008c
:102a6400e04190008381fb00704690004866dd00e1
:102a74000c867100ecb79f003fb49700cfb4970069
:102a84005fb59700efb5970004042000050020000f
:102a94006033b80004046c0085846c0006056d0086
:102aa40087856d00f8b79f0089bf9f009abf9f007c
:102ab400abbf9f009041780002486400ffb29700ca
:102ac400c829de001044900013409800a0419000f3
:102ad400294098000fbb9700c831de0030449000b5
:102ae40033409800c04190004a4098009fbb970033
:102af400c839de005044900053409800e0419000f3
:102b04006b4098002fbc9700c841de0070429000d3
:102b1400734098001134a200110078009081fb00ea
:102b2400104290000304b2001042780002c8610011
:102b3400c819de001042900013409800110078007c
:102b44009081fb0090409000c808dd0081807100f6
:102b54000160a2009041780002c86000c808de004d
:102b640010419000114098004f0678004f05be00b8
:102b74004f04be000080fa0000000600ca24ef00e3
:102b8400c224ef00be30ef0000000600be10e200d9
:102b940012003a00ca24ef00c224ef00dc24ef0044
:102ba400f009200030268800102688002ac8a800d2
:102bb400f0cf2f006a08b60000a0a00050438800a0
:102bc400ca04ab0003003a00ca04a800ca04ab005c
:102bd400fdff320010002000f08588000000060090
:102be400d610e20046003a0010002000b0868800ab
:102bf400d810e20042003a00c0868800cdd0bf0061
:102c0400e24f500010003a00c23621001200780052
:102c1400a04090008040eb0021409800304290009a
:102c2400c3cfb300834162003340980012007800a0
:102c34001041780082ccb300024878001041900023
:102c44001140980000000600cdd0bf00e14f5000b5
:102c54002b003a00d230ef0040868000a040900064
:102c64008040eb0085c0b3002540980030419000bf
:102c7400c4cfb30004416100324098004086800014
:102c8400423821008281fb00404390004340980079
:102c94004811de0050439000524098004086800066
:102ca4001043780046c8b3000648780010439000eb
:102cb4001140980010002000908688005086800003
:102cc4002043900025409800b042900004c2620066
:102cd4003440980050868000404290004340980061
:102ce400d0419000524098005086800010417800f6
:102cf40002c8b300024878001041900011409800c7
:102d04000000060040868000204390003040900080
:102d1400703621009080fb000000e8001080fb006a
:102d24004800dd00008070008680fb00808f50002a
:102d340004003600703621001083fb000000e80018
:102d44001080fb00713621009181fb000100e80036
:102d54001081fb004811dd00028171008681fb00b7
:102d64000301510091417800824878004811de0047
:102d740090407800024878000604e0001200320017
:102d84008000eb00433621009382fb000301e8003e
:102d94001280fb004800dd0044392100010242009a
:102da400008072001458780013427800804978003b
:102db4004800de0092417800004978008100e80074
:102dc400814f5300efff3e00703621009080fb00de
:102dd4000000e8001080fb004800dd000080700067
:102de4002300320050868000a040900081c0b300d0
:102df4002140980030419000c1cfb3008140610070
:102e040031409800508680004139210040419000b3
:102e140041409800c808de0050419000514098009d
:102e24004086800001c4b30010c0600008003a006e
:102e3400508680009040780081ccb300014878002f
:102e4400904090008040eb00114098000000060084
:102e5400508680009040780081c8b3000148780013
:102e6400904090008040eb00114098000000060064
:102e740050868000a040900081c0b300214098009b
:102e840030419000c1cfb3008140610031409800cf
:102e94005086800041382100404190004140980014
:102ea400c808de00504190005140980050868000d0
:102eb4009040780041c8b3000148780090409000e9
:102ec4008040eb0011409800903621009080fb0078
:102ed4000000e8001080fb004800dd000080700066
:102ee40007003200903621009080fb000000e800cb
:102ef4001080fb004800dd0000807000000001002d
:102f0400603621001074a100b610e20001003a00fe
:102f140033ff070000000600cdd0bf00e24f500091
:102f240001003a0077ff3700cd70ef00d210e200c5
:102f340017003a0050868000a040900081c0b30082
:102f44002140980030419000c1cfb300814061001e
:102f54003140980050868000413821004041900063
:102f640041409800c808de0050419000514098004c
:102f74005086800090407800c1c8b30001487800b2
:102f8400904090008040eb00114098000000060043
:102f9400d230ef0000000600b830ef00b430ef008c
:102fa400cdd0bf00e24f500017003a005086800099
:102fb400a040900081c0b3002140980030419000af
:102fc400c1cfb30081406100314098005086800039
:102fd400413921004041900041409800c808de007a
:102fe40050419000514098005086800090407800f5
:102ff40081ccb30001487800904090008040eb0001
:103004001140980000000600a03821001080fb0049
:10301400b13821009180fb00c808dd0081007000f8
:10302400e09a8000808f500007003100a038210012
:103034009080fb000000e8001081fb004811dd00d7
:10304400c035210001087100c6fa0700c13621000d
:103054001100780042392100c0419000424098009c
:103064004811de00d04190005240980011007800d1
:103074009040780081ccb3000148780090409000e3
:103084008040eb001140980000000600caa4a9008b
:10309400d09a80000078a30028003a00603621000e
:1030a4001004e00008003d0020c0b300cdf0b700dc
:1030b400b410e20001003a00b7ff0700d830ef0077
:1030c400d630ef000000060050868000a04090003b
:1030d4008040eb0082c0b30022409800b0419000d1
:1030e400c2cfb30002c16100324098005086800014
:1030f40042382100c0419000424098004811de004f
:10310400d0419000524098005086800010417800d1
:10311400c2c8b300024878001041900011409800e2
:10312400609b80001041780042c8b30002487800d8
:103134001041900011409800000006004038210022
:103144001004e0000a003d0010c0b300cdf0b70049
:10315400b810e20001003a008fff0700d830ef00fa
:10316400d630ef00b610e2001e003a009cfe370095
:1031740020c0b300cdf0b70050868000a04090007e
:1031840081c0b3002140980030419000c1cfb3000a
:103194008140610031409800508680004138210010
:1031a4004041900041409800c808de005041900022
:1031b40051409800508680009040780041c8b30088
:1031c40001487800904090008040eb001140980046
:1031d400d830ef00d630ef00b610e20001003a001c
:1031e4007ffe0700000006003226800011268000c2
:1031f4005024800053418000c619de00e1c1610003
:10320400c624ef00c224ef008a24ef000ac8a900f4
:103214008a84a80004012000442488002ac8a80045
:103224000040fe00e1816100c619dd00f4fb2f00bf
:1032340055418000050262000482710054418800f7
:1032440032268800112688005024880010000500ca
:1032540040382100104078007f406000e14f50006a
:1032640059003a004038210002c6b3009040610082
:1032740000c2b30080cf500053003a0080382100d0
:103284001004e0000300320011c0b30090cf10001e
:103294004d003a00503821001040780001c2b300bc
:1032a400814f50001a00320005003e000004e00087
:1032b4000a003200e14f500043003a000f0037008b
:1032c40011c2b300814f5000310032008140e80048
:1032d400814f50003c003a0035003700c0412100c6
:1032e400c09a880080002000e09a8800a035210060
:1032f4001000a0001070a00000000600c0412100d2
:10330400c09a8800a03521001070a00000000600bb
:10331400a03821009080fb000000e8001080fb0032
:103324004800dd0000807000f30f20007236210099
:10333400924078008040eb00034960004801de00c1
:10334400803621001042780002487800c0372100fe
:103354004236210012427800034960004801de0031
:103364005036210090417800024878006400400003
:1033740010417800014878000000e800104178000e
:1033840001487800640050001074a000000006009a
:10339400c0372100c09a880070002000e09a88009d
:1033a40011ccb300a03521000148780000000600cc
:1033b4006038210090407800020e21000149780015
:1033c400a03521001070a0000000060000b0240009
:1033d40001002000e09b8800f19b88000040eb0086
:1033e40001382100804878008100e8008048780096
:1033f40081c0b3002038210001487800c170ef007b
:1034040051c1b30010c0b300a7fc0700d1c1b30081
:1034140020c0b300a4fc070003c4b300c23d2100d4
:103424008040eb0020c0b300b6fc0700e0868800b3
:10343400de30ef00c270ef0000000600881f780045
:1034440001047800e50f500010003a00e086800087
:10345400880f500006003a0003c4b300c23d2100a7
:103464008040eb0020c0b300a6fc0700e086880083
:1034740010002000f1868000888f500004003a007c
:10348400c270ef00c670ef00010037000000eb00cf
:103494004f0478000000060000017800c170ef00be
:1034a400e08680000000e000020032001004e0002a
:1034b4001d003500204290000482fb00b0419000c2
:1034c400e3816100c819dd00830172000182fb0001
:1034d400830f520002003400a0409000304090005e
:1034e4000104e0000a0032000040eb000080fb0011
:1034f400c33d210080814100000041001348780051
:10350400c150ec00c1f0b70080cf5000f7ff3e007f
:1035140003c4b300c23d21008040eb0020c0b300cf
:1035240078fc0700e0868800c1d0bf0000000600d8
:103534002ac8a900c250e20007003a002086880089
:1035440001417800600c21000248780010c0b300eb
:10355400c7f0b700c2f0b7002ac8a80000000600f0
:103564002ac8a900c250e200060032002ac8a800f6
:10357400000006008140e800e1cf400003003a006b
:10358400040037000001780011c0b3003204e000e9
:10359400f8ff3a002086880001417800600c210081
:1035a4000248780010c0b300c7f0b700c2f0b700fb
:1035b4002ac8a800000006002ac8a900c250e200d8
:1035c400060032002ac8a800000006008140e80076
:1035d400e1cf400003003a00040037000001780006
:1035e40011c0b3003204e000f8ff3a0020868800de
:1035f40001417800600c210002487800c770ef0098
:1036040010c0b300c2f0b7002ac8a800000006002a
:103614002ac8a900f08680000000e00004003200ff
:103624001004e00002003d002ac8a80000000600c3
:10363400c2d0bf00e34f500002003a00c270ef0056
:10364400020037000004e00002003a002ac8a80083
:1036540000000600e24f500008003a008041eb00f1
:103664000001eb0011c0b30026fc0700f0868800bf
:1036740030c0b300c2f0b70033003700e14f500050
:1036840031003a00c6d0bf008041780001c4b300c5
:10369400814f500001003600814178000340500002
:1036a400c6f0b700c0392100d0868800c750e200b8
:1036b400030032000304e0000c003a00130037005a
:1036c4000304e000110032000340780022868000e9
:1036d400d186800092487800da30ec00c430ec00e7
:1036e4000040e900f9ff3a00080037000340780081
:1036f40022868000d186800092487800da30ec007f
:10370400c430ec000040e900f9ff3a00c650e20082
:1037140008003a0000c4b30080cf510003003a000f
:1037240020c0b300c2f0b7000200370030c0b300bd
:10373400c2f0b700c239210011c0b30020c0b300e9
:10374400f0fb0700f08688002ac8a80000000600e5
:10375400a5fe370000000600000006000000060079
:10376400bbfe37000000060018ff3700d08580003c
:10377400e10f50000a003a00e0858000e10f50009c
:1037840007003a002ac8a9009024a900bc30ef0021
:10379400ca44a8000031ef00ca44a9002ac8a800fe
:1037a40000000600e30f50000a0032005107200019
:1037b400810f500003003200e10f500006003a0070
:1037c40002003700e2ff070003003700e6ff0700ae
:1037d40001003700e2ff070010000500bc30ef00d5
:1037e4000001eb008000eb0040072000edff070024
:1037f4008a84a900000120004024880000000600fb
:103804008a84a800000120000026880010002000ff
:10381400e08588000001eb008000eb0050072000e9
:10382400e0ff3700881f7800a03521001070a00049
:10383400e224ef00e424ef000860210002062000e7
:103844008000eb00080078006cf30700ca24a8008d
:103854000040eb00e1382100804878001139210054
:1038640080487800f138210080487800213921000f
:1038740080487800013921008048780031392100de
:1038840080487800220020008000eb00c03821002e
:103894005af30700ca24a90070004400609b880002
:1038a40048868800588688006038210010417800d6
:1038b400010c210082487800c050e20003003a0065
:1038c40000012000f0858800060037001200200067
:1038d400010c210010002000b2ff070000022000ac
:1038e400f08588004f047800000006000200fa000a
:1038f400881f78006038210011c0b30090cf1000f9
:103904000e003a000080e900104078007f4060001b
:103914000a003a00a03521001070a00050382100a0
:1039240032c0b300904f110003003a001000200091
:10393400d085880001003700ba30ef0060382100dc
:103944001004e000c6003a000080e900104078004e
:103954007f406000e24f5000c1003a0080382100ef
:10396400104078006f406000bd00320080382100b4
:10397400104078006f4060000080fb00e20f5000b0
:10398400b7003c0000022000be10e300b4003a007f
:10399400a03521001070a000803821001004e00040
:1039a4000f00350010417800ef4061008180fb007a
:1039b40081804000e23521008100410091007800bf
:1039c400e1bf9f00104078006f4060000080fb0062
:1039d4001139210000804000104478000f003700a6
:1039e4008038210010417800ef4061008180fb00a5
:1039f40081804000c236210081004100910078009e
:103a0400e1bf9f00104078006f4060000080fb0021
:103a1400e138210000804000104478000808a30029
:103a240004003a004ff897000034a100c0ff9f0043
:103a340003003700cff897000134a000c1ff9f00b6
:103a4400803821001004e00009003500104078009f
:103a54006f4060000080fb0000004000e135210061
:103a6400008040006fb99700020878000900370011
:103a740080382100104078006f4060000080fb0017
:103a840000004000c136210000804000efb89700dc
:103a9400010878005038210032c0b300904f110063
:103aa4001e003a006fb897001004e00011003d00ba
:103ab400803821001004e000070035001040780031
:103ac4006f4060000080fb0011392100008040003d
:103ad4001014a0000700370080382100104078003f
:103ae4006f4060000080fb00e1382100008040004e
:103af4001014a0006fb897009080fb001041900054
:103b04004811dd00828070004108b300014878004c
:103b1400c808de0011409800510037004ff89700a4
:103b24000034a200c0ff9f00efb897001104e0002a
:103b34000d003d001180fb00114190004811dd0093
:103b4400020070000070a1000060a00080487800ae
:103b54004800de0090409800220020005000200021
:103b640010ff0700080037001181fb00114090008e
:103b74004800dd00000071000060a000804878006b
:103b84004800de0090409800cff897000134a2006e
:103b9400c1ff9f000818a30003003a006fb8970004
:103ba4001004e0001e003d00803821001004e000f5
:103bb40007003500104078006f4060000080fb0073
:103bc40011392100008040001014a10007003700c3
:103bd40080382100104078006f4060000080fb00b6
:103be400e1382100008040001014a100efb89700d4
:103bf4001180fb00114190004811dd00b003b200b8
:103c040000007100804878004800de009040980071
:103c14002200200050002000e2fe070008003700c8
:103c24009080fb00104190004811dd00b103b20008
:103c34008100710001487800c808de001140980036
:103c440080382100104078006f4060000080fb0045
:103c540000004000014e2000010040001014a100ab
:103c64004f0478000080fa0000000600403821006c
:103c740001c6b30010c060003e003a005038210075
:103c84001080fb008000eb00eb0f5000e08f580029
:103c940038003e00000601001b0037001b003700ff
:103ca40034003700190037003200370006003700af
:103cb4000a0037002b0037000a00370008003700dd
:103cc400130037001e003700a03521001070a0003b
:103cd40080002000f085880000000600d9f7370036
:103ce400d0fe3700000c2100c09a8800a0352100c6
:103cf4001000a00012c0b3008080e8008248780061
:103d04001070a0000000060006f83700f7fe370028
:103d1400803821009080fb0080352100c2382100ca
:103d2400010841000080e8001000a00012c0b300a8
:103d34008080e800824878001070a000000006002f
:103d4400a03521001070a000803821001080fb00f5
:103d5400c1382100008040006138210011487800fa
:103d6400000006000001eb008000eb0020002000b2
:103d74008cfe070000000600cc70ef00b630ef00a8
:103d8400b830ef00b430ef00d230ef00cd70ef0068
:103d9400c0362100900078001181fb009142900010
:103da400c82add0085027100f4f72f0084826200c6
:103db400f30f2000114178000041eb0083c862003a
:103dc400c82ade0011439000954098001034a200e8
:103dd400900078001183fb0091429000c82add0016
:103de40085027300848262001143780083c86200f4
:103df400c82ade0011439000954098001034a200b8
:103e0400508680009082fb0090409000c808dd003e
:103e14008180720004826000904078000348620050
:103e24004822de009040900014409800a035210004
:103e3400024878000000eb00e09a88006136210017
:103e4400804878000100e80090407800024878003b
:103e54000000e800904078000248780083ff0700e3
:103e64000001eb008000eb00300020004dfe070055
:103e740086fc3700d0c2b300d4f0b700d0d0bf0066
:103e8400b00fb2002b003a00d0d0bf000000d00029
:103e9400801fb200016021000100400040868800bc
:103ea40050868800ca70aa00c1c3b30010c1600064
:103eb400e8c05000814f51001d003a0041382100f4
:103ec4008102780068824000c04190008381fb0039
:103ed400504190004811dd00028171009258780031
:103ee400c04190008381fb00504190004811dd00e7
:103ef400028171000201e800c04190004240980034
:103f04004811de00d041900052409800848f500048
:103f1400edff3a0040868000c04090004540980084
:103f2400c82ade00d04090005540980092ff370028
:103f3400f9fb3700d0d0bf00b00fb200e80f50003b
:103f440001003a00d6f70700000006003600f8002a
:103f5400809fbe00829fbe00849fbe00869fbe00dd
:103f6400881f78003200f8003400f80010002000a8
:103f7400a0018800002020009001880000000000bb
:103f8400f0858000e10f500006003a00f00f200099
:103f940000268800c204a800c284a80020002000d3
:103fa400f08588008884ab00050032008a84ab0069
:103fb40003003200000120004024880007fe0700af
:103fc4009024ab00020032000ac8a9006a0037003e
:103fd400c004ab0008003200c204ab00060032008b
:103fe4005af907002ac8a80040002000f08588007c
:103ff4001000200000268800c084ab0005003200b9
:10400400c284ab0003003200fdfd07000001200064
:1040140000268800c044ab000e003200c244ab004e
:1040240004003200120020008000eb003007200062
:10403400dcfd07004000200000268800d450e20088
:1040440001003200d470ed00d450e20001003a00c7
:10405400e3fa0700c0e4ab0003003200c2e4ab00a3
:104064000100320072f70700c024ab000a003200de
:10407400c224ab0008003200120020008000eb00d4
:10408400f0ff2700c7fd0700f00f2000202688005e
:104094002000200000268800f0858000e30f5000f7
:1040a40002003e000ac8a90033003700c264ab0016
:1040b4003000320048c0b300c064ab0003003a00d3
:1040c4002c003700c064ab002a0032004026800078
:1040d400d0f0b700d0d0bf000080fb004400de0069
:1040e400d1f0b7008000200000268800d0d0bf00a7
:1040f4000038a3000b003a00d1d0bf000080fb00c1
:10410400113921000080400010417800e140610035
:104114000104a200104178000204a10001487100ca
:104124000a003700d1d0bf000080fb00e138210035
:104134000080400010417800e14061000104a200c9
:10414400104178000204a10001487100d150e2003e
:1041540002003a0047ff0700040037000001eb00ab
:10416400010d2100200720008efd07000844e9000e
:10417400d4ff3a000ac8a9003400f9003200f9005b
:104184004f0478004f03be004f02be004f01be0033
:104194004f00be003600f900004006000004e000b5
:1041a40005003a0004e1200084878800ee70ef00e7
:1041b400e4e120009487880084878000e60e2100d3
:1041c400164378000683fb0015002000062bdd0053
:1041d400144a730094878000e60e21001643780089
:1041e4000683fb00862add0014ca72007f0060008b
:1041f4004019880023c3a90023e3a9000204e000b6
:1042040002003a0023a3a9000100370023a3a80059
:1042140000c4b30080cf500002003a0025e3a80098
:104224000300370025e3a9008180fb0021198800e1
:104234002143a80021e3a8002023a8000380fb0059
:10424400610420000100b80088f037002023a90091
:104254002003ab00feff32000004e0000200320045
:104264000018800002003700001880004400de00bf
:104274002023a8000000060021e3a9009087800005
:10428400e10e2100914078008180fb0012002000a3
:104294008110dd0081c0ea0010c860000000060043
:1042a4000722a8000702a90007e2a800f01f2000c7
:1042b40020108800000006000622ef00000006001f
:1042c4000602a8000080eb00a08788000602ab006d
:1042d400050032000000e900e10f4000fbff3a0056
:1042e400a087880000000600a08788000000060060
:1042f4000622a8000080eb00a08788000622ab00fd
:10430400050032000000e900e10f4000fbff3a0025
:10431400a087880000000600a0878800000006002f
:104324000642a8000080eb00a08788000642ab008c
:10433400050032000000e900e10f4000fbff3a00f5
:10434400a087880000000600a087880000000600ff
:104354000080fb00101088000080eb00a08788001c
:1043640009c2ab00050032000000e900e10f400083
:10437400fbff3a00a087880001003700a08788006f
:10438400000028000802b6004f00de00000006000e
:104394000662a8008080eb00a18788000662ab005b
:1043a400050032008100e900e18f4000fbff3a0084
:1043b400a187880001003700a18788000004e0007d
:1043c4000200320006a2a8000100370006a2a900dc
:1043d4000682a8000080eb00a08788000682ab005c
:1043e400050032000000e900e10f4000fbff3a0045
:1043f400a087880001003700a08788000010800093
:104404000000060002042800321088000080fb002f
:104414000000d100501088008180fb008100d10091
:10442400611088000208a900000006000622ef00bf
:10443400000006000208a9000080fb00101088009c
:104444000782a8000080eb00a08788000782ab00e9
:10445400090032000862ab0002003a00a08788001d
:10446400060037000000e900e10f4000f7ff3a00c2
:10447400a087880001003700a08788000208a900ef
:10448400100020000802e200040035004010800003
:10449400680060000000e9004f00de000000060034
:1044a40080407800001080000208a90008a2ab0038
:1044b400180032000842ab0016003a000181fb00ec
:1044c4000201ea004f11de004511dd00f3fd2f006b
:1044d40034108000848161008301710033108800ee
:1044e4000104e0000b003a000782a8008080eb0082
:1044f400a18788000782ab00050032008100e90033
:10450400e18f4000fbff3a00a187880001003700db
:10451400a18788000782a8000000060010408000e0
:10452400614060000842ab00010032000024a0009a
:104534000862ab00010032000034a0000882ab0026
:10454400010032000044a00008a2ab0001003200c8
:104554000054a00000000600f6f0b70050ff07006a
:1045640010000500889fbe008a1f780000057800af
:10457400820478000004eb00818f540015003e0093
:104584004fff0700f6d0bf00004040000004a00029
:104594006fff07000004e0000e003a000900e0008d
:1045a4000b0032000804e80009006c0000f0a700ca
:1045b4000000ea000000e9004f00de0074ff07007d
:1045c400005d7800888f5400f6ff3e0009047800ef
:1045d40053ff0700080078004f0578004f04be0021
:1045e40000000600889fbe008a9fbe000005780078
:1045f400820478001bc0b3000900e00002003d0003
:1046040009f0a1008045eb000004eb00818f540009
:1046140012003e002aff0700f6d0bf000040400011
:104624004bff07000004e0000c003a000900e00022
:10463400070032003a40780045ff07000004e0001c
:1046440003003a000804e800888f5400f9ff3e0094
:104654000b04e0000100320031ff0700080078007d
:104664004f05be004f04be000000060012ff3700d5
:104674001722a8001702a90017e2a800f01f2000c3
:10468400a0108800000006001622ef0000000600bb
:104694001602a8000080eb00c08788001602ab0059
:1046a400050032000000e900e10f4000fbff3a0082
:1046b400c087880000000600c0878800000006004c
:1046c4001622a8000080eb00c08788001622ab00e9
:1046d400050032000000e900e10f4000fbff3a0052
:1046e400c087880000000600c0878800000006001c
:1046f4001642a8000080eb00c08788001642ab0079
:10470400050032000000e900e10f4000fbff3a0021
:10471400c087880000000600c087880000000600eb
:104724000080fb00901088000080eb00c0878800a8
:1047340019c2ab00050032000000e900e10f40009f
:10474400fbff3a00c087880001003700c08788005b
:10475400000028001802b6004f00de00000006002a
:104764001662a8008080eb00c18788001662ab0047
:10477400050032008100e900e18f4000fbff3a00b0
:10478400c187880001003700c18788000004e00069
:104794000200320016a2a8000100370016a2a900e8
:1047a4001682a8000080eb00c08788001682ab0048
:1047b400050032000000e900e10f4000fbff3a0071
:1047c400c087880001003700c087880080108000ff
:1047d4000000060002042800b21088000080fb00dc
:1047e4000000d100d01088008180fb008100d1003e
:1047f400e11088000628a900000006001622ef0038
:10480400000006000628a9000080fb009010880024
:104814001782a8000080eb00c08788001782ab00d5
:10482400090032001862ab0002003a00c087880019
:10483400060037000000e900e10f4000f7ff3a00ee
:10484400c087880001003700c08788000628a900b7
:10485400100020001802e20004003500c01080009f
:10486400680060000000e9004f00de000000060060
:1048740080407800801080000628a90018a2ab00b0
:10488400180032001842ab0016003a000181fb0008
:104894000201ea004f11de004511dd00f3fd2f0097
:1048a400b41080008481610083017100b31088001a
:1048b4000104e0000b003a001782a8008080eb009e
:1048c400c18788001782ab00050032008100e9002f
:1048d400e18f4000fbff3a00c187880001003700e8
:1048e400c18788001782a800000006000608d500ca
:1048f400614060001842ab00010032000024a000b7
:104904001862ab00010032000034a0001882ab0032
:10491400010032000044a00018a2ab0001003200e4
:104924000054a00000000600faf0b70050ff070092
:1049340010000500889fbe008a1f780000057800db
:10494400820478000004eb00818f540015003e00bf
:104954004fff0700fad0bf00004040000004a00051
:104964006fff07000004e0000e003a000900e000b9
:104974000b0032000804e80009006c0000f0a700f6
:104984000000ea000000e9004f00de0074ff0700a9
:10499400005d7800888f5400f6ff3e00090478001b
:1049a40053ff0700080078004f0578004f04be004d
:1049b40000000600889fbe008a9fbe0000057800a4
:1049c400820478001bc0b3000900e00002003d002f
:1049d40009f0a1008045eb000004eb00818f540036
:1049e40012003e002aff0700fad0bf00004040003a
:1049f4004bff07000004e0000c003a000900e0004f
:104a0400070032003a40780045ff07000004e00048
:104a140003003a000804e800888f5400f9ff3e00c0
:104a24000b04e0000100320031ff070008007800a9
:104a34004f05be004f04be000000060012ff370001
:104a440000fc2f008006b6000040a000003488005f
:104a5400e0ff2f00302eb600342eb6000429ef00fc
:104a64000629ef005000200000488800c000200004
:104a74001048880000000600300ea8000029ef004e
:104a8400000006000004e00001003a0010c0b3007a
:104a94000080fb00204888000601e3000100390083
:104aa4000621ef00000006006008880000042000d2
:104ab400808f50000b00320000102000808f5000c7
:104ac4000b003200e88f5000030032000000280081
:104ad4008008880000000600000128008008880083
:104ae400000006000002280080088800000006007c
:104af4000003280080088800000006000000e00091
:104b040001003a0010002000204888000601e3005c
:104b1400010039000621ef0000000600f10f2c000f
:104b240000348000808060000010210001007000cb
:104b340000348800d0ff2f00302eb600342eb6008b
:104b4400c0002000604888000e29ef001029ef0003
:104b54005100200051488800604888000000060089
:104b6400302ea8000a29ef00000006000004e0002f
:104b740001003a0010c0b3000080fb0070488800b8
:104b84000601e300010039000621ef0000000600e1
:104b94006008880000042000808f50000b00320061
:104ba40000102000808f50000b003200e88f50006e
:104bb400030032000000280080088800000006007e
:104bc4000001280080088800000006000002280078
:104bd4008008880000000600000328008008880080
:104be400000006000000e00001003a001000200070
:104bf400704888000601e300010039000621ef0037
:104c04000000060000fc2f008206b6002001b3005d
:104c140010348800b0ff2f00302eb600342eb600ba
:104c2400c0002000b04888001829ef001a29ef00be
:104c340051002000a1488800b04888000000060008
:104c4400304ea8001429ef00000006000004e00024
:104c540001003a0010c0b3000080fb00c048880087
:104c64000601e300010039000621ef000000060000
:104c74006008880000042000808f50000b00320080
:104c840000102000808f50000b003200e88f50008d
:104c9400030032000000280080088800000006009d
:104ca4000001280080088800000006000002280097
:104cb400800888000000060000032800800888009f
:104cc400000006000000e00001003a00100020008f
:104cd400c04888000601e300010039000621ef0006
:104ce40000000600f10f2c0010348000808060006a
:104cf40000302100010070001034880070ff2f0084
:104d0400302eb600342eb600c000200000498800c2
:104d14002229ef002429ef0051002000f1488800e7
:104d24000049880000000600306ea8001e29ef002c
:104d3400000006000004e00001003a0010c0b300c7
:104d44000080fb00104988000601e30001003900df
:104d54000621ef000000060060088800000420001f
:104d6400808f50000b00320000102000808f500014
:104d74000b003200e88f50000300320000002800ce
:104d840080088800000006000001280080088800d0
:104d940000000600000228008008880000000600c9
:104da4000003280080088800000006000000e000de
:104db40001003a0010002000104988000601e300b9
:104dc400010039000621ef000000060000fc2f005e
:104dd4008406b6004001b30020348800f0fe2f00a2
:104de400302eb600342eb600c00020005049880092
:104df4002c29ef002e29ef005100200041498800a2
:104e04005049880000000600308ea8002829ef00d1
:104e1400000006000004e00001003a0010c0b300e6
:104e24000080fb00604988000601e30001003900ae
:104e34000621ef000000060060088800000420003e
:104e4400808f50000b00320000102000808f500033
:104e54000b003200e88f50000300320000002800ed
:104e640080088800000006000001280080088800ef
:104e740000000600000228008008880000000600e8
:104e84000003280080088800000006000000e000fd
:104e940001003a0010002000604988000601e30088
:104ea400010039000621ef0000000600f10f2c007c
:104eb40020348000808060000050210001007000d8
:104ec40020348800f0fd2f00302eb600342eb600ba
:104ed400c0002000a04988003629ef003829ef00df
:104ee4005100200091498800a04988000000060074
:104ef40030aea8003229ef00000006000004e000f4
:104f040001003a0010c0b3000080fb00b0498800e3
:104f14000601e300010039000621ef00000006004d
:104f24006008880000042000808f50000b003200cd
:104f340000102000808f50000b003200e88f5000da
:104f440003003200000028008008880000000600ea
:104f540000012800800888000000060000022800e4
:104f640080088800000006000003280080088800ec
:104f7400000006000000e00001003a0010002000dc
:104f8400b04988000601e300010039000621ef0062
:104f94000000060000fc2f008606b6006001b30086
:104fa40030348800f0fb2f00302eb600342eb600cb
:104fb400c0002000f04988004029ef004229ef009a
:104fc40051002000e1498800f049880000000600f3
:104fd40030cea8003c29ef00000006000004e000e9
:104fe40001003a0010c0b3000080fb00004a8800b2
:104ff4000601e300010039000621ef00000006006d
:105004006008880000042000808f50000b003200ec
:1050140000102000808f50000b003200e88f5000f9
:105024000300320000002800800888000000060009
:105034000001280080088800000006000002280003
:10504400800888000000060000032800800888000b
:10505400000006000000e00001003a0010002000fb
:10506400004a88000601e300010039000621ef0030
:1050740000000600f10f2c003034800080806000b6
:10508400007021000100700030348800f0f72f0018
:10509400302eb600342eb600c0002000404a8800ee
:1050a4004a29ef004c29ef0051002000314a8800c2
:1050b400404a88000000060030eea8004629ef00b0
:1050c400000006000004e00001003a0010c0b30034
:1050d4000080fb00504a88000601e300010039000b
:1050e4000621ef000000060060088800000420008c
:1050f400808f50000b00320000102000808f500081
:105104000b003200e88f500003003200000028003a
:10511400800888000000060000012800800888003c
:105124000000060000022800800888000000060035
:105134000003280080088800000006000000e0004a
:1051440001003a0010002000504a88000601e300e4
:10515400010039000621ef000000060000fc2f00ca
:105164008e06b6005002b30070348800e0ff2f00b2
:10517400502eb600542eb600c0002000904a88007d
:105184005429ef005629ef00903fb000804a880070
:10519400d0002000904a880000000600500ea800ad
:1051a4005029ef00000006000004e00001003a006e
:1051b40010c0b3000080fb00a04a88000a01e3008d
:1051c400010039000a21ef00000006007008880081
:1051d40000042000808f50000b00320000102000db
:1051e400808f50000b003200e88f50000300320023
:1051f4000000280090088800000006000001280034
:10520400900888000000060000022800900888002a
:105214000000060000032800900888000000060033
:105224000000e00001003a0010002000a04a8800bd
:105234000a01e300010039000a21ef000000060022
:10524400f10f2c0070348000808060000060220028
:105254000100700070348800d0ff2f00502eb6007b
:10526400542eb600c0002000e04a88005e29ef00fa
:105274006029ef00903fb000d04a8800d0002000a1
:10528400e04a880000000600502ea8005a29ef00ca
:10529400000006000004e00001003a0010c0b30062
:1052a4000080fb00f04a88000a01e3000100390095
:1052b4000a21ef00000006007008880000042000a6
:1052c400808f50000b00320000102000808f5000af
:1052d4000b003200e88f5000030032000000280069
:1052e400900888000000060000012800900888004b
:1052f4000000060000022800900888000000060054
:105304000003280090088800000006000000e00068
:1053140001003a0010002000f04a88000a01e3006e
:10532400010039000a21ef0000000600f10f2c00f3
:1053340080348000808060000070220001007000d2
:105344008034880070ff2f00502eb600542eb60013
:10535400c0002000304b88006829ef006a29ef0064
:10536400903fb000204b8800d0002000304b8800d4
:1053740000000600506ea8006429ef00000006003b
:105384000004e00001003a0010c0b3000080fb00fc
:10539400404b88000a01e300010039000a21ef00b4
:1053a400000006007008880000042000808f500070
:1053b4000b00320000102000808f50000b003200e0
:1053c400e88f500003003200000028009008880095
:1053d4000000060000012800900888000000060074
:1053e400000228009008880000000600000328003e
:1053f40090088800000006000000e00001003a0068
:1054040010002000404b88000a01e300010039002d
:105414000a21ef000000060000fc2f009206b600ef
:105424008002b30090348800f0fe2f00502eb600a6
:10543400542eb600c0002000804b88007229ef0073
:105444007429ef00903fb000704b8800d00020001a
:10545400804b880000000600508ea8006e29ef00e3
:10546400000006000004e00001003a0010c0b30090
:105474000080fb00904b88000a01e3000100390022
:105484000a21ef00000006007008880000042000d4
:10549400808f50000b00320000102000808f5000dd
:1054a4000b003200e88f5000030032000000280097
:1054b4009008880000000600000128009008880079
:1054c4000000060000022800900888000000060082
:1054d4000003280090088800000006000000e00097
:1054e40001003a0010002000904b88000a01e300fc
:1054f400010039000a21ef0000000600f10f2c0022
:1055040090348000808060000090220001007000d0
:1055140090348800f0fd2f00502eb600542eb600b3
:10552400c0002000d04b88007c29ef007e29ef00ca
:10553400903fb000c04b8800d0002000d04b8800c2
:105544000000060050aea8007829ef000000060015
:105554000004e00001003a0010c0b3000080fb002a
:10556400e04b88000a01e300010039000a21ef0042
:10557400000006007008880000042000808f50009e
:105584000b00320000102000808f50000b0032000e
:10559400e88f5000030032000000280090088800c3
:1055a40000000600000128009008880000000600a2
:1055b400000228009008880000000600000328006c
:1055c40090088800000006000000e00001003a0096
:1055d40010002000e04b88000a01e30001003900bc
:1055e4000a21ef0000000600f10f2c004034800077
:1055f4008080600000a02200010070004034880018
:10560400e0ff2f00402eb600442eb600c00020005c
:10561400204c88008629ef008829ef00903fb000d5
:10562400104c8800d0002000204c880000000600a8
:10563400400ea8008229ef00000006000004e000ec
:1056440001003a0010c0b3000080fb00304c880019
:105654000a01e300010039000a21ef0000000600fe
