:0400000007EF00F016
:0A00080052822AED14F05DEF14F0AF
:1008000000B048760509024300020100C032090425
:10081000000001020201000524001001042402026C
:1008200005240600010524010001070581030800D5
:100830000209040100020A0000000705020240004C
:1008400000070582024000002E034D006100740085
:1008500072006900780020004D0075006C00740083
:1008600069006D00650064006900610020004C00B3
:10087000740064002E00280346006C006F007700AF
:1008800063006F00640065002000550053004200C3
:100890002000530065007200690061006C001201C5
:1008A000000202000008BF1210F000010102000166
:1008B000040309043B0A003A0000906B916B69EC59
:1008C00015F0B951A66F1ED369EC15F0B951766FCA
:1008D00069EC15F0B951776F5CD09290775103E0D5
:1008E000895001092FD08950FE0B2CD0929277515C
:1008F00003E08950020926D08950FD0B23D0929441
:10090000775103E0895004091DD08950FB0B1AD0A0
:100910009296775103E08950080914D08950F70B5B
:1009200011D09298775103E0895010090BD089506B
:10093000EF0B08D0929A775103E08950200902D03A
:100940008950DF0B806E97D09390775103E08A50E7
:1009500001091DD08A50FE0B1AD09392775103E003
:100960008A50020914D08A50FD0B11D0939477510C
:1009700003E08A5004090BD08A50FB0B08D09396F1
:10098000775103E08A50080902D08A50F70B816E34
:1009900072D07651A2E0010AA9E0030AB0E0010A90
:1009A000B7E0070ABEE0010AC5E0030ACDE0010A8C
:1009B000D4E00F0ADBE0010AE2E05DD093987751C2
:1009C00003E08A5010091DD08A50EF0B1AD0939A79
:1009D000775103E08A50200914D08A50DF0B11D0E0
:1009E000939C775103E08A5040090BD08A50BF0B8B
:1009F00008D0939E775103E08A50800902D08A5034
:100A00007F0B816EAAD09490775103E08B5001093F
:100A100026D08B50FE0B23D09492775103E08B505D
:100A200002091DD08B50FD0B1AD09494775103E02E
:100A30008B50040914D08B50FB0B11D0949C775130
:100A400003E08B5040090BD08B50BF0B08D0949E15
:100A5000775103E08B50800902D08B507F0B826E60
:100A60007CD09590775103E08C50010902D08C50D6
:100A7000FE0B836E72D076510A0AA0E0010AA7E04D
:100A8000070AAEE0010AB5E0030ABDE0010AC4E0CE
:100A90001F0ACBE0010AD2E0030AD9E0010AE1E033
:100AA0005CD09592775103E08C50020938D08C507D
:100AB000FD0B35D09594775103E08C5004092FD06D
:100AC0008C50FB0B2CD09596775103E08C50080985
:100AD00026D08C50F70B23D09598775103E08C509B
:100AE00010091DD08C50EF0B1AD0959A775103E066
:100AF0008C50200914D08C50DF0B11D0959C77516D
:100B000003E08C5040090BD08C50BF0B08D0959E51
:100B1000775103E08C50800902D08C507F0B836E9C
:100B2000DFD29690775103E08D50010914D08D509B
:100B3000FE0B11D09692775103E08D5002090BD035
:100B40008D50FD0B08D09694775103E08D50040929
:100B500002D08D50FB0B846EC3D27651140AA1E0F3
:100B6000010AA8E0030AAFE0010AB6E00F0ABDE0FF
:100B7000010AC4E0030ACBE0010AD3E0070ADAE085
:100B8000010AE1E0ADD269EC15F0B951766F86D07B
:100B9000AEEC0AF071EC0BF086EC0AF002D0D890C3
:100BA000C033BF2FFCD70001C05175D0AEEC0AF0A6
:100BB00029EC0BF086EC0AF002D0D890C033BF2F9E
:100BC000FCD7F1D768D0AEEC0AF02EEC0BF086EC37
:100BD0000AF002D0D890C033BF2FFCD7E4D75BD047
:100BE000AEEC0AF04DEC0BF086EC0AF002D0D89097
:100BF000C033BF2FFCD7D7D74ED0AEEC0AF05CEC99
:100C00000BF086EC0AF002D0D890C033BF2FFCD78F
:100C1000CAD741D0AEEC0AF061EC0BF086EC0AF0DA
:100C200002D0D890C033BF2FFCD7BDD734D09CECB6
:100C30000AF071EC0BF086EC0AF002D0D890C033C9
:100C4000BF2FFCD7B0D727D09CEC0AF029EC0BF0D3
:100C500086EC0AF002D0D890C033BF2FFCD7A3D7C0
:100C60001AD09CEC0AF02EEC0BF086EC0AF002D0C5
:100C7000D890C033BF2FFCD796D70DD09CEC0AF08C
:100C80004DEC0BF086EC0AF002D0D890C033BF2FA9
:100C9000FCD70001C0510101006F92D0765101E1F3
:100CA00077D7010A83E0030A8EE0010A99E0070A78
:100CB000A4E0010AAFE0030ABAE0010AC5E00F0AA6
:100CC000D0E0010ADBE07CD09CEC0AF05CEC0BF09D
:100CD00086EC0AF002D0D890C033BF2FFCD70001B9
:100CE000C0516BD09CEC0AF061EC0BF086EC0AF082
:100CF00002D0D890C033BF2FFCD7F1D75ED09CEC88
:100D00000AF052EC0BF086EC0AF002D0D890C03317
:100D1000BF2FFCD7E4D751D09CEC0AF057EC0BF076
:100D2000F5DB02D0D890C033BF2FFCD7D8D745D041
:100D3000B7EC0AF071EC0BF0E9DB02D0D890C033CD
:100D4000BF2FFCD7CCD739D0B7EC0AF029EC0BF089
:100D5000DDDB02D0D890C033BF2FFCD7C0D72DD059
:100D6000B7EC0AF02EEC0BF0D1DB02D0D890C033F8
:100D7000BF2FFCD7B4D721D0FADB52EC0BF0C6DB87
:100D800002D0D890C033BF2FFCD7A9D716D0EFDB45
:100D900057EC0BF0BBDB02D0D890C033BF2FFCD791
:100DA0009ED70BD0D2DB71EC0BF0B0DB02D0D89029
:100DB000C033BF2FFCD70001C0510101006F87D0A5
:100DC000000176510A0A80E0010A8CE0070A97E0E8
:100DD000010AA2E0030AACE0010AB6E01F0AC0E083
:100DE000010ACAE0030AD3E0010ADCE070D0ADDBFF
:100DF00029EC0BF08BDB02D0D890C033BF2FFCD78F
:100E00000001C05161D0A1DB2EEC0BF07FDB02D0E2
:100E1000D890C033BF2FFCD7F3D756D096DB4DEC1C
:100E20000BF074DB02D0D890C033BF2FFCD7E8D7CB
:100E30004BD08BDB5CEC0BF069DB02D0D890C0337D
:100E4000BF2FFCD7DDD740D080DB61EC0BF05EDB41
:100E500002D0D890C033BF2FFCD7D2D735D075DBA6
:100E600052EC0BF053DB02D0D890C033BF2FFCD72D
:100E7000C7D72AD06ADB57EC0BF048DB02D0D890FA
:100E8000C033BF2FFCD7BCD71FD0BDDB71EC0BF03C
:100E90003DDB02D0D890C033BF2FFCD7B1D714D0E0
:100EA000B2DBD7DB33DB02D0D890C033BF2FFCD707
:100EB000A7D70AD0A8DBD2DB29DB02D0D890C03379
:100EC000BF2FFCD70001C0510101006F16D00001F7
:100ED0007651140A8CE0010A96E0030A9FE0010AA9
:100EE000A8E00F0AB1E0010ABAE0030AC3E0010A70
:100EF000CCE0070AD5E0010ADDE00001916B010EAC
:100F0000906FEED0A651800A01E1DED4010A01E122
:100F10003AD6E6D069EC15F099DB49DB27EC0FF007
:100F2000000EEDEC14F0D2DB26EC19F0D5C000F188
:100F3000916B010E12D069EC15F088DB38DB27ECE1
:100F40000FF0010EEDEC14F0C1DB26EC19F0D5C06A
:100F500001F1D6C000F1916B020E906F1AD169ECCD
:100F600015F0B951766F020E766113D176C0A5F0F7
:100F7000050EBA6FA5C0BBF0D9C0BCF0000E27ECBF
:100F80000FF026EC19F005D169EC15F0B951766F28
:100F900069EC15F0B951776F69EC15F02BDB07DBC5
:100FA00027EC0FF008D0000EEDEC14F05CDB03E052
:100FB0007851F5EC16F077077729F5E126EC19F072
:100FC00009DB0FEC13F058DBCFC000F1B1D769ECAF
:100FD00015F0B951766F69EC15F0B951776F69EC7E
:100FE00015F008DBE4DA27EC0FF008D0010EEDEC89
:100FF00014F039DB03E07851F5EC16F07707772928
:10100000F5E126EC19F0E6DA0FEC13F035DBCFC092
:1010100001F1D0C000F19FD769EC15F0B951D96F3B
:10102000B8D069EC15F0B951766F69EC15F0B9518B
:10103000776F69EC15F0B951786F69EC15F0A0DAAB
:1010400027EC0FF00ED0FBDA000EEDEC14F0B951E6
:10105000DF6E8E518F1103E04CDB25EC18F0D34B83
:10106000D42B13DBF0E326EC19F0D3C090F0D4C0FE
:1010700091F08FD069EC15F0B951766F69EC15F0ED
:10108000B951776F69EC15F0B951786F69EC15F0CB
:1010900077DA27EC0FF01AD0010EEDEC14F016DB26
:1010A0001ADB000ED926010EDA22D6C0DFFF13DBD1
:1010B000010ED926010EDA22D5C0DFFF8E518F1125
:1010C00003E017DB25EC18F0D34BD42BDEDAE4E396
:1010D00026EC19F0D890D335906FD435916F59D054
:1010E000A651820A01E116D7010A01E124D7200A9C
:1010F00001E135D7070A01E147D7010A01E167D7C6
:10110000030A8AE0010A8DE00F0AB4E042D050ECF5
:1011100018F006D169EC15F0B951766F69EC15F04D
:10112000E4DAB8EC18F084DAFBD069EC15F0B951C8
:10113000766F69EC15F0D9DAC2EC18F0F1D069ECF1
:1011400015F0B951766F69EC15F0B951776F69EC0C
:1011500015F034DAD5C090F0D6C091F0D36BD46BD3
:1011600006D069EC15F06BDAB9C0DFFFC7DAD551EC
:10117000D35DD651D459F5E3000EBB6F010EBC6FA1
:10118000BE6BBD69D5C0BFF0D6C0C0F0B3EC16F0E1
:10119000C7D0A651840ABBE0010ABCE0030AC5E03F
:1011A0002C0ACDE0BDD069EC15F0B951766F69EC31
:1011B00015F0B951776F8CEC18F038D01D0E03D0B4
:1011C0000B0E01D0770EC86E1DD168EC18F01AD145
:1011D00074EC18F017D15CEC18F014D169EC15F030
:1011E000B951766F69EC15F080DAF2EC17F0010175
:1011F000006F0001916B010E91D069EC15F0B951AF
:10120000766F69EC15F071DAD4EC16F0F0D769EC72
:1012100015F0B951766F69EC15F0B951776F69EC3B
:1012200015F0B951786F775105EC19F0000177513D
:10123000020AC4E0010AC4E0C5D769EC15F0B9514F
:10124000766F69EC15F0B951776F69EC15F0B6D986
:10125000020ED525906F000ED621916F000EBA6F49
:10126000010EBB6FBD6BBC69D5C0BEF0D6C0BFF070
:1012700085EC13F0BAC0D5F0BBC0D6F0FE0E9025B9
:10128000D96E000E9121DA6ED6C0DFFFFF0E9025D9
:10129000D96E000E9121DA6ED5C0DFFFB3D069ECB4
:1012A00015F0B951766F69EC15F0B951776F69ECAB
:1012B00015F084D90DD069EC15F0000E9025D96E8B
:1012C000010E9121DA6EB9C0DFFF902B000E912341
:1012D000C6697F0EC76FD5C0C8F0D6C0C9F0C65169
:1012E000C817C751C917C851905DC9519159E3E357
:1012F000000EBA6F010EBB6FBD6BBC69D5C0BEF0EE
:10130000D6C0BFF0F4EC13F0BAC0D5F0BBC0D6F035
:10131000D6C000F1D5C001F1916B020E906F72D072
:10132000A651870A01E13FD70F0A01E14ED7010A12
:1013300001E14ED7030A01E14ED7010A01E14ED780
:10134000070A01E15AD7270A01E161D7070A01E13B
:1013500074D7010AA4E056D069EC15F0B951766F44
:1013600006D097EC18F07FD0A2EC18F07CD0765124
:10137000010AF7E0F9D769EC15F0B951766F06D09C
:101380002EEC19F070D034EC19F06DD07651010AC2
:10139000F7E0F9D769EC15F0B951766F69EC15F003
:1013A000B951776F69EC15F0B951786F12D078C0E8
:1013B000BFF0C06B77C0C1F0C26BCCEC18F053D05B
:1013C00078C0BFF0C06B77C0C1F0C26BD6EC18F02C
:1013D0004AD07651010AEBE0F3D769EC15F0B95128
:1013E000766F69EC15F0B951776F08D07751E0EC62
:1013F00018F039D07751E8EC18F035D07651010A61
:10140000F5E0F8D7A6518D0AA7E0030AB4E0010A77
:10141000C1E01F0AE2E027D03DEC19F0F28EF28C19
:101420009D8A5AD069EC15F0B951766F69EC15F0C8
:10143000B951776F77C0BBF0BC6BFFEC18F04CD0A4
:1014400003EC16F0B951F4D847D041EC15F0B9517E
:10145000FAD769EC15F0B951766F69EC15F045D9FA
:1014600019EC19F039D00001A651910AD5E0030A10
:10147000D9E0010AE5E0070AE8E0010AEAE02CD039
:1014800069EC15F0B951766F69EC15F0B951776FC9
:1014900069EC15F0B951786FBFD88EC0CBF08FC012
:1014A000CCF0CBC0D9FFCCC0DAFF78C0DFFF19D0B9
:1014B00069EC15F0B951766F69EC15F0B951776F99
:1014C000ABD88EC0CDF08FC0CEF0CDC0D9FFCEC08E
:1014D000DAFFDF50ADD805D0A651A10AD1E0030A4A
:1014E000E7E0A6516EEC16F090519111D8B41200BD
:1014F000D36BD46B05D0A3D8DF506EEC16F0FED8BA
:101500009051D35D9151D459F6E31200BBC0D9FF7D
:10151000BCC0DAFFDF50BD11BBC0D9FFBCC0DAFFD1
:10152000DF6EBEC0BFF0B9C0D9FFBAC0DAFFDF506E
:10153000BD15C06FBF2B1200810EB96F0F0EBA6FB1
:10154000930EBB6F0F0EBC6F0F0C830EB96F0F0E97
:10155000BA6F950EBB6F0F0EBC6F0F0C800EB96F7C
:101560000F0EBA6F920EBB6F0F0EBC6F0F0C820E78
:10157000B96F0F0EBA6F940EBB6F0F0EBC6F0F0CCE
:10158000B951796F795178C0C6F0C76BC6C0C7F042
:10159000C66BC6118E6FC7518F6FD36BD46B050EA0
:1015A000BA6FA5C0BBF0D9C0BCF076511200BA6FBB
:1015B000A5C0BBF0D9C0BCF076511200B951786F0C
:1015C0007751C76FC66B7851C625D56F000EC721FE
:1015D000D66F1200CFC0B9F0D0C0BAF0D1C0BBF006
:1015E000D2C0BCF0010100510001BD6FBE6BBF6BEA
:1015F000C06B1200B951786F77C000F1CF6BD06B20
:10160000D16BD26B050C840EB96F0F0EBA6F960EAC
:10161000BB6F0F0EBC6F0F0C76C08EF08F6B8E51B0
:101620008F6F8E6B8E5177118E6F8F518F6F12006F
:101630000101006F0001916B010E906F010C000E13
:10164000D325D96E010ED421DA6E1200B951766F0E
:10165000060C020EBD6F010EBE6F010C040EBD6FB5
:10166000020EBE6F020CB951CF27BA51D023000E23
:10167000D123D22378511200B9C0CFF0BAC0D0F034
:10168000BBC0D1F0BCC0D2F012007751C66FC76B9F
:10169000C651D35DC751D4591200080EBD6F030E59
:1016A000BE6F030C400EBD6F060EBE6F060C800EA3
:1016B000BD6F070EBE6F070C100EBD6F040EBE6F20
:1016C000040C200EBD6F050EBE6F050CB9C0D5F021
:1016D000BAC0D6F01200D890D335D96ED435DA6EB0
:1016E0001200010EBD6FBE6B010CB951776F7751BF
:1016F00012008EC0BAF08FC0BBF01200D32B000EC8
:10170000D423000C040132050DE130511F0B0AE116
:101710000C8E030E311904E1010E0001A26F02D0FC
:101720000001A26B04013251D8A4120030511F0BEA
:10173000020AD8A4120034510F0BD8B4120034514D
:101740000F0B3E6E030E3E60030C200E2718D8A42C
:1017500012000C8E34BF04D096D87AD8800F06D0F1
:1017600034510F0B1CEC0DF073D8830FD96EDA6A6D
:10177000DF50426E42B002D0439401D0438434BF64
:1017800002D081D802D0345184D8D96EDA6A43C0ED
:10179000DEFF44C0DDFF030E311914E154D8DFAE83
:1017A0000BD034BF03D06AD8800F02D067D8830F24
:1017B000D96EDA6A0001DF8246D8000EDB8443D896
:1017C000DB8E000C040E431A3ED8DFAE0AD03BD8A5
:1017D0007F0EDF1638D8000EDB8C45D8DEEC15F016
:1017E00003D031D8000EDB8C040E431A42B203D072
:1017F0002AD8DFAE13D0040134BF03D03FD8800F06
:1018000002D03CD8830FD96EDA6A0001DF921BD870
:101810003B0EDF1628D8DEEC15F003D014D83B0EB3
:10182000DF16040134510F0B3E6E3F6A700E3E24EA
:10183000406E0F0E3F20416E40C0D9FF41C0DAFF1D
:10184000FE0EDF16FE0C43C0D9FF44C0DAFF1200C3
:10185000D96EDA6ADECF43F0DDCF44F034510F0B9E
:101860003E6E3E501200376A050E366E43C038F0A9
:1018700044C039F03B6A020E3A6E020C34510F0B31
:101880003E6E3E50120034510F0B020DF350600FAC
:1018900012000F0B020DF3500F0F1200270407E187
:1018A0006DBA05D0686A69806988020E276E68B4CF
:1018B00069A403D0689403EC18F06DA202D0A19A39
:1018C000120068B069A006D0CBEC0CF0A08A040E20
:1018D000276E689068B869A802D0E0EC17F068AC91
:1018E00013D069AC07D0376A730E366E386A4ED89B
:1018F000DEEC15F0689C35EC18F09F5101E09F0775
:101900009F5102E14AEC13F068BA69AA02D073EC65
:1019100017F068B269A208D07F0E376E3668386A51
:1019200035D8DEEC15F06A6A040E276002D0A19A61
:10193000040C69A629D0476A68A626D06CCF28F087
:101940002830E832E8320F0B246E689628B403D0B2
:101950002450800F02D02450830FD96EDA6A000120
:10196000DF70245003E1BDEC13F00AD0376A720E29
:10197000366E280E386E396A3B6A3A6ADEEC15F02C
:10198000472A030E4764D8D7A19A1200396A3B6AE6
:10199000010E3A6E010C6BD85DEC10F0B9EC17F04B
:1019A0009DEC17F0326A32503BD8322A0B0E32646B
:1019B000FAD72AD8000160D8326A32503DD848D8C8
:1019C00032503ED8325049D832504CD8322A020ECA
:1019D0003264F3D7080E00D00F6E040E106E160E90
:1019E000706E040E0401036F300E026F080E016F5B
:1019F000040E006F008F296A00016E6B6F6B706BB5
:101A0000716B9A6B276A12006D8C6E6A6D986D9C73
:101A100068960C6A046A056A066A68A6010CF8D71B
:101A2000040D000EF324D96E040EF420DA6EDE6A83
:101A3000DE6ADE6ADD6A1200020DF3500F0F12003B
:101A4000020DF350600FD96EDA6ADE6ADD6A1200A9
:101A5000D96EDA6ADE6ADD6A1200830FD96EDA6A3D
:101A6000DF6A1200800FD96EDA6ADF6A1200A09A6C
:101A70006A6A686A706A12009E6F9D6F9C6B9B6BAE
:101A8000A16B1200800E04013019D8A41200C00E00
:101A90000C6E3DD09E0E096E0950D8A4080E0A6E39
:101AA0000E6A120E0D6E120C325116E13251040FF5
:101AB00048D8020E3AD8F76403D00800F55001D098
:101AC0002ED80D6E030E31D8F76403D00800F55000
:101AD00001D025D80E6E12000C6A1200030E32617E
:101AE00012D03251010F2DD809C0F6FF0AC0F7FFFE
:101AF000F86A070EF76403D00800F55001D00FD83C
:101B00000D6E0E6A12000C6A12000C6A120033513C
:101B1000010AC0E0030AC8E0010AE0E0F6D7F6CF08
:101B2000E1FFF7CFE2FFE750120009242A6E000E12
:101B30000A202B6E2AC0F6FF2BC0F7FFF86A070EAB
:101B400012002A6E2AC0F6FF080EF76E0900F5CFC4
:101B500009F00A6E1200A09A00018851891108E06C
:101B600088C0D9FF89C0DAFFDFAE02D0A08A120098
:101B7000030E221801E1226A225002E1A08A12001B
:101B8000020E22180AE145D8BB6FBC6F020E4FEC63
:101B900011F044D8030E226E2CD022042AE1400E0C
:101BA000986502D0C16F02D098C0C1F0C151985F52
:101BB000000E7A6F050E7B6FC1C0C0F0975102E036
:101BC00005D019D8C05104E0FCD715D8C051FDE1AB
:101BD000985106E1400EC119020ED8A4030E226EE0
:101BE00018D8050EBB6FC1C0BCF0020E4FEC11F04F
:101BF00015D8A08A12007D51D96EDA6A7AC0E1FF49
:101C00007BC0E2FFDFCFE7FF7A4B7B2B7D2BC0074A
:101C10001200010EB96F000EBA6F000CB9C088F047
:101C2000BAC089F012000001CA6FC66B020EC86FFD
:101C3000C76BC96BCA5104E1010ECA6F620EC96F4E
:101C4000CB6BCC6B965110E0800E9525D96EDA6A7D
:101C5000020EDA22DF50C76FC86B952B9651955D47
:101C60003EE3956B966B3BD0CA2934E1010EC66FFB
:101C700031D0800EC06F020EC16F400EC26F96EC65
:101C800012F0CB6FCC6BC6510DE1CB51CC110AE1F8
:101C9000C92B030EF5EC16F0640EC9191BE1C96BD4
:101CA000CA0718D080C2C7F0C86BCC5103E1020E3E
:101CB000CB5D10E3CBC096F0010E956FCC510AE1DD
:101CC000400ECB5D07E2800ECB25D96E020ECC21F3
:101CD000DA6EDF6ACB51CC1102E1CA51CAE1C7C04A
:101CE000C4F0C8C0C5F0120020EE01F080EC13F083
:101CF000DF502B6E2B50055C000E065802E205C02B
:101D00002BF02B50055E000E065A2A6A0DD0380EB5
:101D10002A24D96EDA6A040EDA220150E16EE26AF0
:101D2000DFCFE7FF012A2A2A2B502A5CF0E3055077
:101D3000061019E020EE01F020D824D81ED8380E65
:101D40007CEC13F087EC17F0DFBC05D019C0D9FF8D
:101D500025D81DD8000C19C0D9FF1AC0DAFF080E0B
:101D6000DF6E15D8000CA5EC10F0DF6E10D8049EC5
:101D70002350D8B44AEC13F012001950D9261A5047
:101D8000DA221200080EDF6E20EE02F0080C19C0F5
:101D9000D9FF1AC0DAFF000EDB8E000C1AC0DAFF82
:101DA000480EDF6E480C080E2A6E0E500DE1080E2C
:101DB0000D5C0AE20DC02AF0265002E1010E03D0AC
:101DC000260402E1020E266E2A500D5E000E0E5A07
:101DD00020EE01F037D82AC0DFFF380E00018C6FEB
:101DE000040E8D6F0CB01AD00BD009C0F6FF19D8B5
:101DF000F76403D00800F55002D08FEC0DF01AD82C
:101E00002A50F3E1120009C0F6FF0BD8F76403D0A3
:101E10000800F55002D08FEC0DF00CD82A50F3E1F9
:101E200012000AC0F7FFF86A8CC0D9FF8DC0DAFF34
:101E3000070E1200DF6E094A0A2A00018C4B8D2B17
:101E40002A0612000F50D9261050DA221200BD6F58
:101E500028D092800E0E23D092820D0E20D0928434
:101E60000C0E1DD092860B0E1AD0928A0A0E17D035
:101E70009680090E14D09682080E11D09684070E13
:101E80000ED09384060E0BD09386050E08D0938255
:101E9000040E05D09388030E02D09380020EC16E0B
:101EA0001BD00001BD51D5E0010AD6E0030AD7E0FE
:101EB000010AD8E0070AD9E0010ADAE0030ADBE008
:101EC000010ADCE00F0ADDE0010ADEE0030ADFE0E0
:101ED000010AE0E0070AE1E0BA51070BC06EBB510E
:101EE00001E0C188BD45E846FC0BC26EC280BC5112
:101EF000F5EF16F0C76BC40501E1216A21C0C8F0F7
:101F0000C96B27EC16F0B951C66F37D0C65134E013
:101F1000C30505E169EC15F0B951CA6F1AD0C85173
:101F20001524CB6FC9511620CC6FCC5103E1800E24
:101F3000CB5D04E3800ECB27FF0ECC23000ECB2518
:101F4000D96E020ECC21DA6EDF50CA6FC82B000E9C
:101F5000C92318D809E1212AC25121180BE1216AAD
:101F6000C26B010EC76F06D0215004E0216A0AD867
:101F700001E1212AC60701D0C26BC251215CC6E330
:101F8000C7511200BF512124C56FC5C0F6FF080E0E
:101F9000F76E0800F550CA191200BC6F080E000158
:101FA000BC6501D0080CBC5104E1020EBA6F700E82
:101FB00011D0BC0504E1010EBA6F380E0BD0020E31
:101FC000BC1903E1BA6B9C0E05D0030EBC1906E1E7
:101FD000BA6B4E0EB96F010EBB6F20D0040EBC1948
:101FE00005E1BA6B9B0EB96FBB6B18D0050EBC191F
:101FF00003E1BA6B4D0EF7D7060EBC1903E1BA6BBD
:10200000330EF1D7070EBC1903E1BA6B190EEBD7EB
:10201000080EBC1903E1BA6B0B0EE5D73AEC19F0C8
:10202000BB0502E1AC9401D0AC84B9C0AFFF00D0D5
:10203000AB6AAB8EAC8AAB8812000C8E3ED8B9EC82
:1020400017F02A6A040E2B6E2D6A2C6A2F6A300E46
:102050002E6EB9EC17F06D8C3E6A3E502DEC0DF0F3
:102060003E5032EC0DF03E2A020E3E64F6D7B70E1B
:102070002A6E2B6A2D6A2C6A2F6A020E2E6EB9EC1C
:1020800017F06D9C080E0F6E040E106E000E1B6E86
:10209000040E1DD832C429F0295003E1100E276E1A
:1020A000100C376A010E366E290E386EC6EC0CF035
:1020B000DEEC15F0200E276E200C710E2A6E0F0E2E
:1020C0002B6E2D6A2C6A2F6A020E2E6E020C1C6E6D
:1020D0001BC019F01CC01AF012006D980CBE16D06F
:1020E00004AE0AD0020E256E00019B5102E1C0EC45
:1020F00014F09D6B9E6B120028D80C0EDF6EC7EC9F
:102100000EF0C7EC11F0040EBFEF11F0040130AF78
:102110000ED0010E256E00019C5102E1C0EC14F0BE
:102120009D6B9E6B2350D8A412004AEF13F0020E51
:10213000256E0BD8DF6EC7EC0EF000019D6B9E6B19
:10214000235002E14AEF13F0120020EE01F0195083
:10215000D9261A50DA22080EDF6E20EE02F019504E
:10216000D9261A50DA22300EDE6E040EDD6E19C04A
:10217000D9FF1AC0DAFF040C2E6E2A5003E02E504D
:1021800034D802D02E502DD8D96EDA6ADECF2FF097
:10219000DDCF30F02F50301003E12A6A2B6A120095
:1021A00020EE02F030D82BC0DEFF2CC0DDFF20EE89
:1021B00001F029D82DC0DFFF1CD8400EDF1619D83A
:1021C000000EDB8616D8DB8E2A5003E02E500DD889
:1021D00002D02E5006D812D82FC02AF030C02BF0D3
:1021E000040C020DF350600F1200020DF3500F0F9C
:1021F00012002FC0D9FF30C0DAFF1200D96EDA6AA0
:10220000040EDF1A040C2F50D9263050DA221200A7
:1022100004013039E832030B1CE012000C8E080E6A
:10222000276E080C290E096E34D03451B70F456E55
:1022300045C009F02ED00C8E3451B70FD96EDA6A32
:1022400032C4DFFF1200376A020EECEC17F0DEEF4B
:1022500015F0315102E1D3EF12F0010A02E182EFF1
:102260000BF0020A02E182EF0BF0060AD7E0030A44
:1022700002E142EF0DF0010AE6E00F0AD3E0010AA5
:1022800002E11DEF10F0030AD0E0010AD4E0070AD2
:1022900012000A6A0C80010E0D6E0C8E010CBD6FCF
:1022A0000001B95104E0BD51F5EC10F003D0BD516F
:1022B000F1EC10F0D96EDA6ADECFBEF0DDCFBFF000
:1022C000BE51BF1103E1B96BBA6B120020EE02F0F0
:1022D00026D8BAC0DEFFBBC0DDFF20EE01F01FD85C
:1022E000BCC0DFFF17D8400EDF1614D8000EDB8607
:1022F00011D8DB8EB95104E0BD51F5EC10F003D0DC
:10230000BD51F1EC10F0FEEC10F0BEC0B9F0BFC052
:10231000BAF0040CBEC0D9FFBFC0DAFF1200BE5134
:10232000D926BF51DA22120032D8000EDFBC010ECE
:102330002B6E040E0F1A080E271809E10401325102
:102340007F0B6E6E6E50100ED8B4040E276E2504EF
:1023500012E128D821D8D3EC0EF0020E261803E1A2
:1023600016D8040E0CD02B5003E111D8480E07D01C
:102370000ED8080E04D004BE049E256A1200DF6E3B
:102380000FC0D9FF10C0DAFF000EDB8E000C0FC0AB
:10239000D9FF10C0DAFF1200DA22380EDE6E040E0A
:1023A000DD6E040C20EE02F00F50D9261050120002
:1023B0003D0EC26E0F0EC16E080E6F6EA09A000128
:1023C000A76BADEC18F0000E13EC0EF006D0D75151
:1023D00091EC16F0000E13EC0EF0C4C0D7F0C5C09F
:1023E000D8F0D805F4E3A7510FE1B70EBF6FC16B6A
:1023F000020EC06F010EC26FC36FC46F7AEC0FF094
:10240000000902E0010EA76FA705DDE1B40EBF6F62
:10241000C16B030EC06F020EC26FC36B010EC46F9F
:102420007AEC0FF00009CFE05DEC04F0A76BCBD79E
:10243000040130511F0BE80601E012003039E83288
:10244000030BE80601E01200345127E0340525E0D3
:102450001200A80E096E0A6A0E6A080E0D6E0C8034
:102460000C8E080CA80E096E0A6A0C8E120036C477
:1024700005F037C406F0B00E016E076A086A048ED4
:102480001200B00E096E0A6A0E6A070E0D6EC10EBA
:102490000C6EC10C32510C8E12003151DAE0010A7F
:1024A000E1E0210AE4E0010AECE0030AF3E01200B3
:1024B0002F6E306A040E316E2A502B6E2C6AD89023
:1024C0002B362C362F502D6E2E6A24D82B502D26CD
:1024D0002C502E221FD82D5030262E50312221D89C
:1024E000DF9E2A5004E12F50F1EC10F003D02F5062
:1024F000F5EC10F0D96EDA6A30C0DEFF31C0DDFFD6
:1025000010D8DF9C20EE04F03050D9263150DA226A
:10251000DF8C1200D8902D362E36D8902D362E36E0
:10252000120030C0D9FF31C0DAFF1200996B8A5116
:102530008B1106E08AC0D9FF8BC0DAFFDFBE2AD03C
:102540002BD8C251DE5C03E227D8DF50C26F996BF3
:102550000FD0400E9925D96EDA6A050EDA2299510C
:10256000C025E16E000EC121E26EDFCFE7FF992B9F
:10257000C251995DEEE3000EB96F400EBA6F050EC1
:10258000BB6F400EBC6F020E4FEC11F0B9C08AF069
:10259000BAC08BF09951120020EE01F08A51D92671
:1025A0008B51DA2212000401386B396B22D00C8E69
:1025B00038810001A20524E10401388321D00C8E6A
:1025C0001FD00C8E34BF03D043EC0CF003D0345139
:1025D00049EC0CF0D96EDA6ADECF2AF0DDCF2BF0B1
:1025E00019D8DFAE0DD016D8DFA40AD0010E386F8F
:1025F00007D030511F0BDBE0010AE1E0030AE1E004
:102600000CAE1200380E096E040E0A6E0C80020E1B
:102610000D6E020C2AC0D9FF2BC0DAFF1200C16B6D
:10262000C26BC36BC46BBD51BE11BF11C01129E099
:10263000010EC56F06D0D890BD37BE37BF37C03743
:10264000C52BC0AFF8D7D890C137C237C337C4370E
:10265000BD51B95DBE51BA59BF51BB59C051BC59EA
:1026600009E3BD51B95FBE51BA5BBF51BB5BC051FD
:10267000BC5BC181D890C033BF33BE33BD33C52FDF
:10268000E2D7C1C0B9F0C2C0BAF0C3C0BBF0C4C089
:10269000BCF0120000019E51D8A41200010E9E6FE2
:1026A0009D51D8A41200010E9D6F020E25180AE15B
:1026B00020EE01F022EC0FF0DF6AC7EC11F0480EBB
:1026C000BFEF11F02504D8A41200A06B20EE01F09A
:1026D00017D8C2EC0EF014D8300E0ED887EC17F0D5
:1026E000DF6E87EC17F0000EDB8E010EA06FA5ECFD
:1026F00010F0800EDF6E800CDE6E040EDD6E040CBA
:102700001B50D9261C50DA221200BE51BC5DBF51AD
:10271000BD5903E2BA6BBB6B1200C26BC36B68ECB2
:1027200018F0D8809235F2EC17F00009F3E119D0D7
:10273000C251BA25D96EC351BB21DA6EC229C06F0E
:10274000000EC321C16FBE51C01905E1BF51C119AF
:1027500002E1010E01D0000ED4EC16F0DF6EC24B88
:10276000C32BBE51C25DBF51C359E2E35CEC18F00C
:10277000C2C0BAF0C3C0BBF012002D0E9F6F28C0BC
:1027800046F0FD0E461629E1D89028303F0B040D87
:10279000000EF3241B6E040EF42067EC10F0040E00
:1027A000191A87EC17F0DF30E8320F0B0D0A02E040
:1027B00014EF18F0300E2A6E040E2B6E20EE02F08D
:1027C00080EC13F0DECF2CF0DDCF2DF02F6A080E59
:1027D0002E6E16EC17F091EF15F02850FD0B040A41
:1027E000D8B494EC11F01200010EC06FBFAF04D04A
:1027F000BE517F0EBF17C06BBE51BC5DBF51BD59EE
:1028000003E2BA6BBB6B1200C16BC26B68EC18F0D1
:1028100092519225F2EC17F00009F3E10DD0C1516D
:10282000BA25D96EC251BB21DA6EDF50F2EC17F037
:10283000000907E1C14BC22BBE51C15DBF51C25956
:10284000EEE3C05102E05CEC18F0C1C0BAF0C2C0C7
:10285000BBF012000600E1CF48F0E2CF49F0D9CF3B
:102860004AF0DACF4BF0F3CF4CF0F4CF4DF0F6CF87
:102870004EF0F7CF4FF0F8CF50F0F5CF51F09EBAB1
:102880009DAA03D0F0EC18F09E9A4EEC0CF051C0CB
:10289000F5FF50C0F8FF4FC0F7FF4EC0F6FF4DC028
:1028A000F4FF4CC0F3FF4BC0DAFF4AC0D9FF49C068
:1028B000E2FF48C0E1FF529211007E0EF66E320E2A
:1028C000F76E000EF86E0900F5CFD9F003EE00F0B8
:1028D000800EEE6AE806FDE102EE00F0C00EEE6A40
:1028E000E806FDE101EE00F010EEFFF0EE6AE550C3
:1028F000E150FCE1E250FAE100EE60F0590EEE6AC0
:10290000E806FDE100EE01F0290EEE6AE806FDE1C1
:1029100052905292000EF86E0001D8EF11F037EC91
:102920000DF0710EB96F0F0EBA6FBC6BBB6BBE6B47
:10293000020EBD6FA4EC17F09DEC17F0C16BC151F6
:1029400010EC0DF0C12B0B0EC165F9D704EC0DF0A6
:102950003CEC0DF0C16BC1511CEC0DF028EC0DF0FE
:10296000C15120EC0DF0C1512DEC0DF0C15132ECF4
:102970000DF0C12B020EC165EED7080EECEF0CF086
:102980009C6B9B6B020E251813E120EE01F0BDEC51
:102990000EF0C2EC0EF0BDEC0EF0380EDE6E040E42
:1029A000DD6E19C0D9FFCEEC0EF0C7EC0EF0000CB6
:1029B0000D500401365D0E50375904E236C40DF057
:1029C00037C40EF0D3EC0EF0D2EC11F0CCEC11F0D9
:1029D000C7EC11F0480EBFEF11F0BD6FC2500209F5
:1029E000C26EC2B2FED70001BD511AE0C450BB6F27
:1029F000BC6BD890BB37BC37D890BB37BC37BBC09B
:102A0000BEF0BCC0BFF0C3CFBBF0060EBC6FD89009
:102A1000BB33BC2FFCD7BE51BB11BE6FBF5103D01F
:102A2000C4CFBEF0BF6BBEC0B9F0BFC0BAF01200D9
:102A30000001B06B4B0EB16FB26BB36BB46BB56B87
:102A4000080EB66F996B1A0E326E010E58EC17F025
:102A50001E0E326E020E58EC17F0000E2A6E400E5B
:102A60002B6E050E2C6E400E2D6E020EBCEC10F07F
:102A70002AC08AF02BC08BF00001886B896B226A18
:102A800012001F501D1803E120501E181AE0000EFE
:102A90001D24D96E030E1E20DA6EDF50BB6FBC6B97
:102AA0001D28BD6F000E1E20BE6FBE5103E1800EBB
:102AB000BD5D02E3BD6BBE6BBDC01DF0BEC01EF0B0
:102AC00003D0000EBC6BBB69BBC0B9F0BCC0BAF090
:102AD00012001750151803E1185016181AE0000ECE
:102AE0001524D96E020E1620DA6EDF50BB6FBC6B58
:102AF0001528BD6F000E1620BE6FBE5103E1800E7B
:102B0000BD5D02E3BD6BBE6BBDC015F0BEC016F06F
:102B100003D0000EBC6BBB69BBC0B9F0BCC0BAF03F
:102B20001200266A236A9C6B9B6BA06B256AC7EC1C
:102B300011F019D8C7EC11F016D819C0D9FF1AC076
:102B4000DAFF7F0EDF160C6A0D6A0E6A046A056AE8
:102B5000066A08EC11F0376A030EECEC17F0DEECB5
:102B600015F06DEF10F07F0EDF16040E0F1A040C37
:102B7000B9C0CBFF08D062EF16F06BEF16F065EF2F
:102B800016F068EF16F0BBC0BDF0BCC0BEF0BE5181
:102B900002E06BEF16F0BD51010A02E162EF16F0A0
:102BA000050A02E16BEF16F0140A02E165EF16F078
:102BB000500A02E168EF16F06BEF16F036C03CF0F9
:102BC00037C03DF03D5004E07F0AD8A4120019D070
:102BD0003C50010A02E118EF15F0030AD8B41200C4
:102BE000010A02E118EF12F0060AD8B41200770ABF
:102BF000D8B41200010AD8B41200070AD8A4010AF6
:102C000012003C1C12001F501D5C20501E5806E292
:102C10001D501F5CBD6F1E50205810D01D501F5CF2
:102C20001E5020580DE21D501F5CBB6F1E502058D7
:102C3000BC6F800EBB25BD6F000EBC21BE6F02D0E5
:102C4000BD6BBE6BBDC0B9F0BEC0BAF0120017506C
:102C5000155C1850165806E21550175CBD6F1650DB
:102C6000185810D01550175C165018580DE2155012
:102C7000175CBB6F16501858BC6F800EBB25BD6F1C
:102C8000000EBC21BE6F02D0BD6BBE6BBDC0B9F0E3
:102C9000BEC0BAF01200B9C0CBFF04D013D01BD015
:102CA00014D016D0BBC0BDF0BCC0BEF0BE5113E105
:102CB000BD51010A07E0050A0EE0140A06E0500AB9
:102CC00007E009D0040ECA6E040C060ECA6E060C8C
:102CD000070ECA6E070C050ECA6E050CC36F000105
:102CE000C46BC56B1F0E27641F0C6DB21F0C03D085
:102CF000C42B000EC523225003E07D0EC55DF8E312
:102D00007D0EC519C41101E11200C30EB96F010E89
:102D1000BA6F80EC18F002D0ABEC0DF02250FCE161
:102D20001200BA6F17280001BB6F000E1820BC6F8D
:102D3000BC5103E1800EBB5D02E3BB6BBC6B155065
:102D4000BB1904E11650BC19D8B41200000E1724A8
:102D5000D96E020E1820DA6EBAC0DFFFBBC017F0C2
:102D6000BCC018F01200BF51BD5DC051BE5901E298
:102D70001200C16BC26B12D0C151BB25D96EC251BA
:102D8000BC21DA6EC151BB25E16EC251BC21E26E9D
:102D9000E750B8EC18F0DF6EC14BC22BBF51C15DDC
:102DA000C051C259E9E31200B96F9E96C586000171
:102DB000866987699EB604D013D8FCE18729FAE1B9
:102DC000B95102E0C58A01D0C59AC588866987696C
:102DD000C5A804D005D8FCE18729FAE1C950120042
:102DE0008607D8A0870786291200B96F08D0F00E91
:102DF00000F000F0E82EFCD7640E0001B95F640E0D
:102E00000001B961F4D706D0280EE82EFED70A0ECD
:102E10000001B95F0A0EB961F7D703D0040EE82E9E
:102E2000FED70001B907B929F9E112002CC032F030
:102E30002DC033F02AC030F02BC031F010D032C09A
:102E4000D9FF33C0DAFFDF50346E324A332A30C044
:102E5000D9FF31C0DAFF34C0DFFF304A312A2E06F5
:102E6000D8A02F062E28EBE12F28E9E112002B6EC7
:102E70001F282C6E000E20202D6E2D5003E1800E99
:102E80002C5C02E32C6A2D6A1D502C1804E11E50A4
:102E90002D18D8B41200000E1F24D96E030E202066
:102EA000DA6E2BC0DFFF2CC01FF02DC020F0120007
:102EB000356E32A404D02A6A355058EC12F032A292
:102EC00005D0010E2A6E355058EC12F0700E3524E4
:102ED000336E346A0F0E342233C0D9FF34C0DAFFA8
:102EE00032C0DFFF0F0C70A010D011D8800EDE189A
:102EF0000BE1C7EC11F0840EDE1806E108D80C0EC9
:102F0000DF6E05D8000EDB8E7090689A12001BC031
:102F1000D9FF1CC0DAFF12002750D8A412006D6A36
:102F2000696A0BD8D08EA28AA08AF28E01D06D86F3
:102F30006DA6FDD7010E276E010C160E6F6E9F0E4B
:102F40006B6E7B0E696E7B0CB9C0BFF0BAC0C0F06F
:102F500008D0BFC0D9FFC0C0DAFFBBC0DFFFBF4B86
:102F6000C02BBD07D8A0BE07BD29F3E1BE29F1E102
:102F700012002AC030F02BC031F008D030C0D9FF89
:102F800031C0DAFF2CC0DFFF304A312A2E06D8A02C
:102F90002F062E28F3E12F28F1E11200050E000183
:102FA000BA6FBB6B0A0EBC6F000E27EC0FF0000E61
:102FB000EDEC14F0B951C06F26EC19F0C0511200BD
:102FC000698468986D82010E0001A16F9A6B376A5F
:102FD000750E02D8DEEF15F0366E386A396A3B6A34
:102FE0003A6A1200B96F9E96B9C0C9FF000186699E
:102FF00087699EB605D0F0EC16F0FBE18729F9E170
:10300000C5BC010C000C0001A16B376A740EECEC1E
:1030100017F0DEEC15F06D92699401D0689468B4F5
:10302000FDD700019A6B1200020E251802E174EF21
:103030000EF0256AA05107E1A5EC10F00C0EDF6E32
:10304000C7EC0EF0000CA06B120006D0FF0EF5ECE2
:1030500016F0BA2BFF0EBB23BB05F8E2BA51BB1129
:10306000D8B41200BA51F5EF16F000016E2B000E25
:103070006F2370237123A151D8A412009A2B9A5167
:10308000D8B49A6912002E6E2E502AEC19F02AC07C
:103090002FF02BC030F02FC02CF030C02DF01200DC
:1030A000949E828E938093928192020EC66EC698F1
:1030B000C79CC79EC68A020C9E96C584866987698E
:1030C000C5A41200F0EC16F0FBE18729F9E112002B
:1030D0009E96C58086698769C5A01200F0EC16F03F
:1030E000FBE18729F9E112009E96C582866987690E
:1030F000C5A21200F0EC16F0FBE18729F9E11200FD
:10310000A09A225007E1B9C07DF0BAC098F0010E34
:10311000976F226EA08A1200C78EC79C280EC66EBB
:103120001D0EC86EC56AF28E938093821200010E46
:10313000946FBA6BB969BC6B010EBB6FB8EC15F03C
:103140000AEF19F0010E936FBA6BB969BC6B010EEF
:10315000BB6F4BEC16F00FEF19F0966B8FEC14F081
:10316000275002E18CEC17F0200E2718FDE1120029
:10317000B96FB9C0C9FFC7A0FED7C9CFBAF0000167
:10318000BA511200B96FC69AFC0EC6160001B951A9
:10319000030BC612C68A1200BFC0B9F0C0C0BAF095
:1031A000C1C0BBF0C2C0BCF0B8EF15F0BFC0B9F0F1
:1031B000C0C0BAF0C1C0BBF0C2C0BCF04BEF16F04B
:1031C000BA6F00019451D8B41200BA511EEF19F031
:1031D000BA6F00019351D8B41200BA5122EF19F01E
:1031E000000E43EC18F02C50316E315037EF17F0D1
:1031F000AC84190EAF6E18EC10F09D9A1200BBC093
:10320000B9F0BCC0BAF014EF19F0B96FB9C092F0C0
:103210008CEF18F0949282920C0EBA6E0C0C94946F
:1032200082940C0EBD6E0C0C9EA8FED7B9C0ADFFEB
:103230001200BD6F0001BD51CDEF0FF0B96FB9C0E5
:10324000BBFF1200B96FB9C0BEFF1200C26A0F0EF9
:10325000C16E0F0CAECF2AF02B6A1200946B31EFC7
:1032600019F09482BA6A1200936B37EF19F09484C4
:0F327000BD6A1200AB6AAC6A1200F8EF18F00AE0
:020000040030CA
:0E000000200E3E1EFF8181FF0F800FA00F001B
:00000001FF
