:0400000007EF00F016
:0A0008005282CDED12F000EF13F06C
:1008000000B048760509024300020100C032090425
:10081000000001020201000524001001042402026C
:1008200005240600010524010001070581030800D5
:100830000209040100020A0000000705020240004C
:1008400000070582024000002E034D006100740085
:1008500072006900780020004D0075006C00740083
:1008600069006D00650064006900610020004C00B3
:10087000740064002E00280346006C006F007700AF
:1008800063006F00640065002000550053004200C3
:100890002000530065007200690061006C001201C5
:1008A000000202000008BF1210F000010102000166
:1008B000040309043B0A003A0000906B916B0CECB6
:1008C00014F0B951A66FEED10CEC14F0B951766F5B
:1008D0000CEC14F0B951776F5CD09290775103E033
:1008E000895001092FD08950FE0B2CD0929277515C
:1008F00003E08950020926D08950FD0B23D0929441
:10090000775103E0895004091DD08950FB0B1AD0A0
:100910009296775103E08950080914D08950F70B5B
:1009200011D09298775103E0895010090BD089506B
:10093000EF0B08D0929A775103E08950200902D03A
:100940008950DF0B806E8DD09390775103E08A50F1
:1009500001091DD08A50FE0B1AD09392775103E003
:100960008A50020914D08A50FD0B11D0939477510C
:1009700003E08A5004090BD08A50FB0B08D09396F1
:10098000775103E08A50080902D08A50F70B816E34
:1009900068D07651A2E0010AA9E0030AB0E0010A9A
:1009A000B7E0070ABEE0010AC5E0030ACDE0010A8C
:1009B000D4E00F0ADBE0010AE2E053D093987751CC
:1009C00003E08A5010091DD08A50EF0B1AD0939A79
:1009D000775103E08A50200914D08A50DF0B11D0E0
:1009E000939C775103E08A5040090BD08A50BF0B8B
:1009F00008D0939E775103E08A50800902D08A5034
:100A00007F0B816E3AD29490775103E08B500109AD
:100A100026D08B50FE0B23D09492775103E08B505D
:100A200002091DD08B50FD0B1AD09494775103E02E
:100A30008B50040914D08B50FB0B11D0949C775130
:100A400003E08B5040090BD08B50BF0B08D0949E15
:100A5000775103E08B50800902D08B507F0B826E60
:100A60000CD276510A0AAAE0010AB1E0070AB8E0FE
:100A7000010ABFE0030AC7E0010ACEE01F0AD5E081
:100A8000010ADCE0030AE3E0F8D10CEC14F0B95100
:100A9000766F77D072EC09F02CEC0AF053EC09F089
:100AA00002D0D890C033BF2FFCD70001C05166D010
:100AB00072EC09F0F5EC09F0F6DB02D0D890C03307
:100AC000BF2FFCD7F2D75AD072EC09F0FAEC09F03C
:100AD000EADB02D0D890C033BF2FFCD7E6D74ED088
:100AE00072EC09F013EC0AF0DEDB02D0D890C033D0
:100AF000BF2FFCD7DAD742D0F5DB22EC0AF0D3DBEC
:100B000002D0D890C033BF2FFCD7CFD737D0EADB85
:100B100027EC0AF0C8DB02D0D890C033BF2FFCD737
:100B2000C4D72CD0D6DB2CEC0AF0BDDB02D0D89099
:100B3000C033BF2FFCD7B9D721D0CBDBF5EC09F000
:100B4000B2DB02D0D890C033BF2FFCD7AED716D0BF
:100B5000C0DBFAEC09F0A7DB02D0D890C033BF2F7E
:100B6000FCD7A3D70BD0B5DB13EC0AF09CDB02D08B
:100B7000D890C033BF2FFCD70001C0510101006FD6
:100B800078D0765187E0010A93E0030A9DE0010ADC
:100B9000A7E0070AB1E0010ABAE0030AC3E0010ACC
:100BA000CCE00F0AD5E0010ADEE063D092DB22EC54
:100BB0000AF079DB02D0D890C033BF2FFCD720D009
:100BC00055D087DB27EC0AF06EDB02D0D890C0331B
:100BD000BF2FFCD715D04AD07CDB18EC0AF063DBC2
:100BE00002D0D890C033BF2FFCD70AD03FD071DBE2
:100BF0001DEC0AF058DB02D0D890C033BF2FFCD7D1
:100C00000001C05133D07FDB2CEC0AF04CDB02D06A
:100C1000D890C033BF2FFCD7F3D728D074DBE5DBE7
:100C200042DB02D0D890C033BF2FFCD7E9D71ED00B
:100C30006ADBE0DB38DB02D0D890C033BF2FFCD7B3
:100C4000DFD714D060DBF4DB2EDB02D0D890C033CA
:100C5000BF2FFCD7D5D70AD056DBEFDB24DB02D081
:100C6000D890C033BF2FFCD70001C0510101006FE5
:100C700014D0000176510A0A99E0010AA2E0070A9D
:100C8000ABE0010AB4E0030ABEE0010AC7E01F0AB4
:100C9000CFE0010AD7E0030ADFE00001916B010E0B
:100CA000906FEBD0A651800A01E10ED6010A01E156
:100CB000ECD6E3D00CEC14F0B951766F1CDBF3ECFE
:100CC0000FF0000E90EC13F09ADBC8EC17F0D5C0D3
:100CD00000F1916B010E13D00CEC14F0B951766F4A
:100CE0000ADBF3EC0FF0010E90EC13F088DBC8EC9C
:100CF00017F0D5C001F1D6C000F1916B020E906FD4
:100D000015D10CEC14F0B951766F040E76610ED14A
:100D1000020E761901E10AD176C0A5F007D10CECDC
:100D200014F0B951766F0CEC14F0B951776F0CECEC
:100D300014F01EDBE0DAF3EC0FF008D0000E90ECBC
:100D400013F039DB03E07851DAEC15F077077729F7
:100D5000F5E1C8EC17F0FCDAB2EC11F035DBCFC0EE
:100D600000F1B7D70CEC14F0B951766F0CEC14F01D
:100D7000B951776F0CEC14F0FBDABDDAF3EC0FF03D
:100D800008D0010E90EC13F016DB03E07851DAEC9A
:100D900015F077077729F5E1C8EC17F0D9DAB2EC4E
:100DA00011F012DBCFC001F1D0C000F1A6D70CECDE
:100DB00014F0B951D96FBAD00CEC14F0B951766F68
:100DC0000CEC14F0B951776F0CEC14F0B951786F4A
:100DD0000CEC14F0A1DA8FDAF3EC0FF00ED0E4DAB9
:100DE000000E90EC13F0B951DF6E8E518F1103E0BD
:100DF00015DBC7EC16F0D34BD42BEFDAF0E3C8ECDD
:100E000017F0D3C090F0D4C091F090D00CEC14F057
:100E1000B951766F0CEC14F0B951776F0CEC14F0FB
:100E2000B951786F0CEC14F077DA65DAF3EC0FF067
:100E30001AD0010E90EC13F0E2DAE6DA000ED926B1
:100E4000010EDA22D6C0DFFFDFDA010ED926010E4D
:100E5000DA22D5C0DFFF8E518F1103E0DFDAC7EC55
:100E600016F0D34BD42BB9DAE4E3C8EC17F0D890E2
:100E7000D335906FD435916F59D0A651820A01E1D4
:100E800019D7010A01E128D7200A01E13AD7070A58
:100E900001E145D7010A01E165D7030A88E0010AAB
:100EA0008BE00F0AB3E042D0F2EC16F006D10CEC66
:100EB00014F0B951766F0CEC14F0ACDA5AEC17F070
:100EC0006CDAFBD00CEC14F0B951766F0CEC14F02A
:100ED000A1DA64EC17F0F1D00CEC14F0B951766F94
:100EE0000CEC14F0B951776F0CEC14F025DAD5C086
:100EF00090F0D6C091F0D36BD46B06D00CEC14F00C
:100F000053DAB9C0DFFFACDAD551D35DD651D4592D
:100F1000F5E3000EBB6F010EBC6FBE6BBD69D5C0A3
:100F2000BFF0D6C0C0F056EC15F0C7D0A651840A69
:100F3000BBE0010ABCE0030AC5E02C0ACDE0BDD04D
:100F40000CEC14F0B951766F0CEC14F0B951776FCA
:100F50002EEC17F038D01D0E03D00B0E01D0770EFB
:100F6000C86E1DD10AEC17F01AD116EC17F017D184
:100F7000FEEC16F014D10CEC14F0B951766F0CECB9
:100F800014F048DA94EC16F00101006F0001916B47
:100F9000010E91D00CEC14F0B951766F0CEC14F0FA
:100FA00039DA77EC15F0F0D70CEC14F0B951766F14
:100FB0000CEC14F0B951776F0CEC14F0B951786F58
:100FC0007751A7EC17F000017751020AC4E0010A3B
:100FD000C4E0C5D70CEC14F0B951766F0CEC14F0EA
:100FE000B951776F0CEC14F0A7D9020ED525906F8C
:100FF000000ED621916F000EBA6F010EBB6FBD6B54
:10100000BC69D5C0BEF0D6C0BFF028EC12F0BAC0A3
:10101000D5F0BBC0D6F0FE0E9025D96E000E912102
:10102000DA6ED6C0DFFFFF0E9025D96E000E91213B
:10103000DA6ED5C0DFFFB3D00CEC14F0B951766F87
:101040000CEC14F0B951776F0CEC14F075D90DD08D
:101050000CEC14F0000E9025D96E010E9121DA6E81
:10106000B9C0DFFF902B000E9123C6697F0EC76FBA
:10107000D5C0C8F0D6C0C9F0C651C817C751C917E6
:10108000C851905DC9519159E3E3000EBA6F010E4A
:10109000BB6FBD6BBC69D5C0BEF0D6C0BFF097ECCE
:1010A00012F0BAC0D5F0BBC0D6F0D6C000F1D5C0A2
:1010B00001F1916B020E906F72D0A651870A01E187
:1010C0003FD70F0A01E14ED7010A01E14ED7030ACB
:1010D00001E14ED7010A01E14ED7070A01E15AD7D3
:1010E000270A01E161D7070A01E174D7010AA4E0E8
:1010F00056D00CEC14F0B951766F06D039EC17F0DD
:101100007FD044EC17F07CD07651010AF7E0F9D794
:101110000CEC14F0B951766F06D0D0EC17F070D00B
:10112000D6EC17F06DD07651010AF7E0F9D70CEC48
:1011300014F0B951766F0CEC14F0B951776F0CECD8
:1011400014F0B951786F12D078C0BFF0C06B77C07F
:10115000C1F0C26B6EEC17F053D078C0BFF0C06B1B
:1011600077C0C1F0C26B78EC17F04AD07651010A13
:10117000EBE0F3D70CEC14F0B951766F0CEC14F0F3
:10118000B951776F08D0775182EC17F039D0775189
:101190008AEC17F035D07651010AF5E0F8D7A65160
:1011A0008D0AA7E0030AB4E0010AC1E01F0AE2E0E9
:1011B00027D0DFEC17F0F28EF28C9D8A5AD00CEC1F
:1011C00014F0B951766F0CEC14F0B951776F77C009
:1011D000BBF0BC6BA1EC17F04CD0A6EC14F0B951ED
:1011E000DCD847D0E4EC13F0B951FAD70CEC14F08A
:1011F000B951766F0CEC14F00DD9BBEC17F039D067
:101200000001A651910AD5E0030AD9E0010AE5E000
:10121000070AE8E0010AEAE02CD00CEC14F0B9511E
:10122000766F0CEC14F0B951776F0CEC14F0B951E7
:10123000786FA7D88EC0CBF08FC0CCF0CBC0D9FFD1
:10124000CCC0DAFF78C0DFFF19D00CEC14F0B95134
:10125000766F0CEC14F0B951776F93D88EC0CDF047
:101260008FC0CEF0CDC0D9FFCEC0DAFFDF5095D809
:1012700005D0A651A10AD1E0030AE7E0A65111EC7E
:1012800015F090519111D8B41200D36BD46B05D0E6
:101290008BD8DF5011EC15F0E3D89051D35D91510C
:1012A000D459F6E31200BBC0D9FFBCC0DAFFDF504F
:1012B000BD11BBC0D9FFBCC0DAFFDF6EBEC0BFF03E
:1012C000B9C0D9FFBAC0DAFFDF50BD15C06FBF2B60
:1012D0001200810EB96F0F0EBA6F930EBB6F0F0E17
:1012E000BC6F0F0C800EB96F0F0EBA6F920EBB6FF2
:1012F0000F0EBC6F0F0C050EBA6FA5C0BBF0D9C0A6
:10130000BCF076511200820EB96F0F0EBA6F940EB8
:10131000BB6F0F0EBC6F0F0CB951796F795178C04C
:10132000C6F0C76BC6C0C7F0C66BC6118E6FC7517B
:101330008F6FD36BD46B1200B951786F7751C76F31
:10134000C66B7851C625D56F000EC721D66F120027
:10135000CFC0B9F0D0C0BAF0D1C0BBF0D2C0BCF0A1
:10136000010100510001BD6FBE6BBF6BC06B12006D
:10137000B951786F77C000F1CF6BD06BD16BD26B66
:10138000120076C08EF08F6B8E518F6F8E6B8E51E8
:1013900077118E6F8F518F6F12000101006F000166
:1013A000916B010E906F010C000ED325D96E010ECA
:1013B000D421DA6E1200B951CF27BA51D023000ED2
:1013C000D123D22378511200B9C0CFF0BAC0D0F0E7
:1013D000BBC0D1F0BCC0D2F012007751C66FC76B52
:1013E000C651D35DC751D4591200020EBD6F010E14
:1013F000BE6F010C040EBD6F020EBE6F020CB9C0B1
:10140000D5F0BAC0D6F01200D890D335D96ED43505
:10141000DA6E1200B951776F775112008EC0BAF0B0
:101420008FC0BBF01200080EBD6F030EBE6F030C21
:10143000400EBD6F060EBE6F060C800EBD6F070E10
:10144000BE6F070C100EBD6F040EBE6F040C200E95
:10145000BD6F050EBE6F050C010EBD6FBE6B010C9E
:10146000D32B000ED423000C040132050DE13051C2
:101470001F0B0AE10C8E030E311904E1010E00016D
:10148000A26F02D00001A26B04013251D8A4120055
:1014900030511F0B020AD8A4120034510F0BD8B4DC
:1014A000120034510F0B3E6E030E3E60030C200EF3
:1014B0002718D8A412000C8E34BF04D091D885D838
:1014C000800F06D034510F0BD6EC0BF07ED8830F73
:1014D000D96EDA6ADF50426E42B002D0439401D036
:1014E000438434BF02D07CD802D0345184D8D96E22
:1014F000DA6A43C0DEFF44C0DDFF030E311914E198
:1015000054D8DFAE0BD034BF03D070D8800F02D0D8
:101510006DD8830FD96EDA6A0001DF8246D8000EDB
:10152000DB8443D8DB8E000C040E431A3ED8DFAEBA
:101530000AD03BD87F0EDF1638D8000EDB8C3AD8A5
:1015400081EC14F003D031D8000EDB8C040E431A6A
:1015500042B203D02AD8DFAE13D0040134BF03D087
:1015600045D8800F02D042D8830FD96EDA6A0001C5
:10157000DF921BD83B0EDF161DD881EC14F003D090
:1015800014D83B0EDF16040134510F0B3E6E3F6A38
:10159000700E3E24406E0F0E3F20416E40C0D9FFBA
:1015A00041C0DAFFFE0EDF16FE0C43C0D9FF44C077
:1015B000DAFF1200376A050E366E43C038F044C0B9
:1015C00039F03B6A020E3A6E020CD96EDA6ADECF4F
:1015D00043F0DDCF44F034510F0B3E6E3E5012000D
:1015E00034510F0B020DF350600F120034510F0BEA
:1015F0003E6E3E5012000F0B020DF3500F0F120003
:10160000270407E16DBA05D0686A69806988020E0F
:10161000276E68B469A403D06894A5EC16F06DA297
:1016200002D0A19A120068B069A006D07DEC0BF040
:10163000A08A040E276E689068B869A802D082EC70
:1016400016F068AC13D069AC07D0376A730E366EEB
:10165000386A4ED881EC14F0689CD7EC16F09F5194
:1016600001E09F079F5102E1EDEC11F068BA69AA11
:1016700002D015EC16F068B269A208D07F0E376E62
:101680003668386A35D881EC14F06A6A040E27602F
:1016900002D0A19A040C69A629D0476A68A626D070
:1016A0006CCF28F02830E832E8320F0B246E6896B1
:1016B00028B403D02450800F02D02450830FD96E59
:1016C000DA6A0001DF70245003E160EC12F00AD006
:1016D000376A720E366E280E386E396A3B6A3A6A7D
:1016E00081EC14F0472A030E4764D8D7A19A120060
:1016F000396A3B6A010E3A6E010C71D8BCEC0EF0EF
:101700005BEC16F03FEC16F0326A32503BD8322ACE
:101710000B0E3264FAD72AD800015BD8326A3250F5
:1017200045D848D832503AD832504ED8325047D89F
:10173000322A020E3264F3D7080E00D00F6E040E68
:10174000106E160E706E040E0401036F300E026FE1
:10175000080E016F040E006F008F296A00016E6B86
:101760006F6B706B716B9A6B276A12006D8C6E6A6F
:101770006D986D9C68960C6A046A056A066A68A68C
:10178000010CF8D7040D000EF324D96E040EF420DA
:10179000DA6EDE6ADE6ADE6ADD6A1200020DF3507E
:1017A000600FD96EDA6ADE6ADD6A1200020DF3504C
:1017B0000F0F1200D96EDA6ADE6ADD6A1200800F3E
:1017C000D96EDA6ADF6A1200830FD96EDA6ADF6ACD
:1017D00012009E6F9D6F9C6B9B6BA16B1200A09A79
:1017E0006A6A686A706A1200800E04013019D8A40F
:1017F0001200C00E0C6E3DD09E0E096E0950D8A48A
:10180000080E0A6E0E6A120E0D6E120C325116E19F
:101810003251040F48D8020E3AD8F76403D00800BA
:10182000F55001D02ED80D6E030E31D8F76403D0D9
:101830000800F55001D025D80E6E12000C6A120077
:10184000030E326112D03251010F2DD809C0F6FFBC
:101850000AC0F7FFF86A070EF76403D00800F550D6
:1018600001D00FD80D6E0E6A12000C6A12000C6ABD
:1018700012003351010AC0E0030AC8E0010AE0E0A7
:10188000F6D7F6CFE1FFF7CFE2FFE75012000924C9
:101890002A6E000E0A202B6E2AC0F6FF2BC0F7FF1F
:1018A000F86A070E12002A6E2AC0F6FF080EF76EBD
:1018B0000900F5CF09F00A6E1200A09A00018851C4
:1018C000891108E088C0D9FF89C0DAFFDFAE02D0F5
:1018D000A08A1200030E221801E1226A225002E1BE
:1018E000A08A1200020E22180AE145D8BB6FBC6F15
:1018F000020EAEEC0FF044D8030E226E2CD0220460
:101900002AE1400E986502D0C16F02D098C0C1F0A4
:10191000C151985F000E7A6F050E7B6FC1C0C0F099
:10192000975102E005D019D8C05104E0FCD715D872
:10193000C051FDE1985106E1400EC119020ED8A434
:10194000030E226E18D8050EBB6FC1C0BCF0020E8C
:10195000AEEC0FF015D8A08A12007D51D96EDA6A6C
:101960007AC0E1FF7BC0E2FFDFCFE7FF7A4B7B2B42
:101970007D2BC0071200010EB96F000EBA6F000C6C
:10198000B9C088F0BAC089F012000001CA6FC66BF6
:10199000020EC86FC76BC96BCA5104E1010ECA6F52
:1019A000620EC96FCB6BCC6B965110E0800E952503
:1019B000D96EDA6A020EDA22DF50C76FC86B952B38
:1019C0009651955D3EE3956B966B3BD0CA2934E109
:1019D000010EC66F31D0800EC06F020EC16F400E77
:1019E000C26F39EC11F0CB6FCC6BC6510DE1CB510E
:1019F000CC110AE1C92B030EDAEC15F0640EC919FB
:101A00001BE1C96BCA0718D080C2C7F0C86BCC51A4
:101A100003E1020ECB5D10E3CBC096F0010E956F93
:101A2000CC510AE1400ECB5D07E2800ECB25D96E8A
:101A3000020ECC21DA6EDF6ACB51CC1102E1CA5121
:101A4000CAE1C7C0C4F0C8C0C5F0120020EE01F062
:101A50001FEC12F0DF502B6E2B50055C000E065869
:101A600002E205C02BF02B50055E000E065A2A6AD2
:101A70000DD0380E2A24D96EDA6A040EDA2201500B
:101A8000E16EE26ADFCFE7FF012A2A2A2B502A5CA7
:101A9000F0E30550061019E020EE01F020D824D81C
:101AA0001ED8380E24EC12F029EC16F0DFBC05D05D
:101AB00019C0D9FF25D81DD8000C19C0D9FF1AC0EC
:101AC000DAFF080EDF6E15D8000C04EC0FF0DF6EA5
:101AD00010D8049E2350D8B4EDEC11F01200195028
:101AE000D9261A50DA221200080EDF6E20EE02F01C
:101AF000080C19C0D9FF1AC0DAFF000EDB8E000CEB
:101B00001AC0DAFF480EDF6E480C080E2A6E0E501F
:101B10000DE1080E0D5C0AE20DC02AF0265002E12C
:101B2000010E03D0260402E1020E266E2A500D5E3D
:101B3000000E0E5A20EE01F02FD82AC0DFFF380E1B
:101B400000018C6F040E8D6F0CB01AD00BD009C041
:101B5000F6FF19D8F76403D00800F55002D041EC25
:101B60000CF01FD82A50F3E1120009C0F6FF0BD881
:101B7000F76403D00800F55002D041EC0CF011D806
:101B80002A50F3E112000AC0F7FFF86A8CC0D9FFAF
:101B90008DC0DAFF070E12000F50D9261050DA223E
:101BA0001200DF6E094A0A2A00018C4B8D2B2A068F
:101BB0001200C76BC40501E1216A21C0C8F0C96BDE
:101BC000CAEC14F0B951C66F37D0C65134E0C30522
:101BD00005E10CEC14F0B951CA6F1AD0C8511524A4
:101BE000CB6FC9511620CC6FCC5103E1800ECB5D79
:101BF00004E3800ECB27FF0ECC23000ECB25D96E3D
:101C0000020ECC21DA6EDF50CA6FC82B000EC9233A
:101C100018D809E1212AC25121180BE1216AC26BAF
:101C2000010EC76F06D0215004E0216A0AD801E1F5
:101C3000212AC60701D0C26BC251215CC6E3C7513D
:101C40001200BF512124C56FC5C0F6FF080EF76E04
:101C50000800F550CA191200BC6F080E0001BC65DF
:101C600001D0080CBC5104E1020EBA6F700E11D005
:101C7000BC0504E1010EBA6F380E0BD0020EBC1980
:101C800003E1BA6B9C0E05D0030EBC1906E1BA6BDA
:101C90004E0EB96F010EBB6F20D0040EBC1905E1CA
:101CA000BA6B9B0EB96FBB6B18D0050EBC1903E164
:101CB000BA6B4D0EF7D7060EBC1903E1BA6B330EA3
:101CC000F1D7070EBC1903E1BA6B190EEBD7080E5A
:101CD000BC1903E1BA6B0B0EE5D7DCEC17F0BB05C2
:101CE00002E1AC9401D0AC84B9C0AFFF00D0AB6AC4
:101CF000AB8EAC8AAB8812000C8E3ED85BEC16F033
:101D00002A6A040E2B6E2D6A2C6A2F6A300E2E6EF4
:101D10005BEC16F06D8C3E6A3E50E4EC0BF03E50EE
:101D2000DFEC0BF03E2A020E3E64F6D7B70E2A6EA9
:101D30002B6A2D6A2C6A2F6A020E2E6E5BEC16F04F
:101D40006D9C080E0F6E040E106E000E1B6E040EBE
:101D50001DD832C429F0295003E1100E276E100C53
:101D6000376A010E366E290E386E78EC0BF081EC76
:101D700014F0200E276E200C710E2A6E0F0E2B6EA3
:101D80002D6A2C6A2F6A020E2E6E020C1C6E1BC06E
:101D900019F01CC01AF012006D980CBE16D004AEDB
:101DA0000AD0020E256E00019B5102E163EC13F094
:101DB0009D6B9E6B120028D80C0EDF6E79EC0DF037
:101DC0006AEC10F0040E62EF10F0040130AF0ED098
:101DD000010E256E00019C5102E163EC13F09D6B36
:101DE0009E6B2350D8A41200EDEF11F0020E256E69
:101DF0000BD8DF6E79EC0DF000019D6B9E6B2350CC
:101E000002E1EDEF11F0120020EE01F01950D92699
:101E10001A50DA22080EDF6E20EE02F01950D92691
:101E20001A50DA22300EDE6E040EDD6E19C0D9FFB4
:101E30001AC0DAFF040C2E6E2A5003E02E5030D860
:101E400002D02E5036D8D96EDA6ADECF2FF0DDCF31
:101E500030F02F50301003E12A6A2B6A120020EE76
:101E600002F02BD82BC0DEFF2CC0DDFF20EE01F0EE
:101E700024D82DC0DFFF18D8400EDF1615D8000E6D
:101E8000DB8612D8DB8E2A5003E02E5009D802D010
:101E90002E500FD817D82FC02AF030C02BF0040CCA
:101EA000020DF3500F0F12002FC0D9FF30C0DAFF20
:101EB0001200020DF350600F12002F50D92630503F
:101EC000DA221200D96EDA6A040EDF1A040C040159
:101ED0003039E832030B1CE012000C8E080E276E1E
:101EE000080C290E096E34D03451B70F456E45C029
:101EF00009F02ED00C8E3451B70FD96EDA6A32C485
:101F0000DFFF1200376A020E8EEC16F081EF14F03C
:101F1000315102E176EF11F0010A02E134EF0AF0EB
:101F2000020A02E134EF0AF0060AD7E0030A02E1EE
:101F3000F4EF0BF0010AE6E00F0AD3E0010A02E138
:101F40007CEF0EF0030AD0E0010AD4E0070A120089
:101F50000A6A0C80010E0D6E0C8E010CBD6F000123
:101F6000B95104E0BD5150EC0FF003D0BD5159EC14
:101F70000FF0D96EDA6ADECFBEF0DDCFBFF0BE5112
:101F8000BF1103E1B96BBA6B120020EE02F026D844
:101F9000BAC0DEFFBBC0DDFF20EE01F01FD8BCC021
:101FA000DFFF17D8400EDF1614D8000EDB8611D8DD
:101FB000DB8EB95104E0BD5150EC0FF003D0BD51A0
:101FC00059EC0FF062EC0FF0BEC0B9F0BFC0BAF030
:101FD000040CBEC0D9FFBFC0DAFF1200BE51D92623
:101FE000BF51DA221200BD6F1FD092800E0E1AD0A0
:101FF00092820D0E17D092840C0E14D092860B0E86
:1020000011D0928A0A0E0ED09384060E0BD09386BE
:10201000050E08D09382040E05D09388030E02D0DB
:102020009380020EC16E15D00001BD51DEE0010AA1
:10203000DFE0030AE0E0010AE1E0070AE2E00C0A5F
:10204000E3E0010AE4E0030AE5E0010AE6E0070A4A
:10205000E7E0BA51070BC06EBB5101E0C188BD4536
:10206000E846FC0BC26EC280BC51DAEF15F032D8E4
:10207000000EDFBC010E2B6E040E0F1A080E27187F
:1020800009E1040132517F0B6E6E6E50100ED8B410
:10209000040E276E250412E128D821D885EC0DF016
:1020A000020E261803E116D8040E0CD02B5003E1C3
:1020B00011D8480E07D00ED8080E04D004BE049ED6
:1020C000256A1200DF6E0FC0D9FF10C0DAFF000EC4
:1020D000DB8E000C0FC0D9FF10C0DAFF1200DA222D
:1020E000380EDE6E040EDD6E040C20EE02F00F5092
:1020F000D926105012003D0EC26E0F0EC16E080E92
:102100006F6EA09A0001A76B4FEC17F0000EC5ECA4
:102110000CF006D0D75134EC15F0000EC5EC0CF0E5
:10212000C4C0D7F0C5C0D8F0D805F4E3A7510FE17B
:10213000B70EBF6FC16B020EC06F010EC26FC36FCF
:10214000C46FD9EC0DF0000902E0010EA76FA705DE
:10215000DDE1B40EBF6FC16B030EC06F020EC26F24
:10216000C36B010EC46FD9EC0DF00009CFE05DEC3C
:1021700004F0A76BCBD7040130511F0BE80601E038
:1021800012003039E832030BE80601E01200345146
:1021900027E0340525E01200A80E096E0A6A0E6ACF
:1021A000080E0D6E0C800C8E080CA80E096E0A6AC3
:1021B0000C8E120036C405F037C406F0B00E016E66
:1021C000076A086A048E1200B00E096E0A6A0E6A67
:1021D000070E0D6EC10E0C6EC10C32510C8E12002A
:1021E0003151DAE0010AE1E0210AE4E0010AECE021
:1021F000030AF3E012002F6E306A040E316E2A508B
:102200002B6E2C6AD8902B362C362F502D6E2E6AC2
:1022100024D82B502D262C502E221FD82D5030265E
:102220002E50312221D8DF9E2A5004E12F5059EC44
:102230000FF003D02F5050EC0FF0D96EDA6A30C097
:10224000DEFF31C0DDFF10D8DF9C20EE04F03050FF
:10225000D9263150DA22DF8C1200D8902D362E3656
:10226000D8902D362E36120030C0D9FF31C0DAFF9B
:102270001200996B8A518B1106E08AC0D9FF8BC07E
:10228000DAFFDFBE2AD02BD8C251DE5C03E227D8AA
:10229000DF50C26F996B0FD0400E9925D96EDA6A64
:1022A000050EDA229951C025E16E000EC121E26EC1
:1022B000DFCFE7FF992BC251995DEEE3000EB96FB6
:1022C000400EBA6F050EBB6F400EBC6F020EAEEC37
:1022D0000FF0B9C08AF0BAC08BF09951120020EE0D
:1022E00001F08A51D9268B51DA2212000401386B91
:1022F000396B22D00C8E38810001A20524E1040143
:10230000388321D00C8E1FD00C8E34BF03D0F0EC5C
:102310000AF003D03451FBEC0AF0D96EDA6ADECF52
:102320002AF0DDCF2BF019D8DFAE0DD016D8DFA400
:102330000AD0010E386F07D030511F0BDBE0010AC5
:10234000E1E0030AE1E00CAE1200380E096E040E63
:102350000A6E0C80020E0D6E020C2AC0D9FF2BC033
:10236000DAFF1200C16BC26BC36BC46BBD51BE11EF
:10237000BF11C01129E0010EC56F06D0D890BD373E
:10238000BE37BF37C037C52BC0AFF8D7D890C137DD
:10239000C237C337C437BD51B95DBE51BA59BF51F9
:1023A000BB59C051BC5909E3BD51B95FBE51BA5BBD
:1023B000BF51BB5BC051BC5BC181D890C033BF3340
:1023C000BE33BD33C52FE2D7C1C0B9F0C2C0BAF029
:1023D000C3C0BBF0C4C0BCF0120000019E51D8A421
:1023E0001200010E9E6F9D51D8A41200010E9D6F28
:1023F000020E25180AE120EE01F0CCEC0DF0DF6AA8
:102400006AEC10F0480E62EF10F02504D8A4120018
:10241000A06B20EE01F013D874EC0DF010D8300E44
:1024200013D829EC16F0DF6E29EC16F0000EDB8EC7
:10243000010EA06F04EC0FF0800EDF6E800C1B50BD
:10244000D9261C50DA221200DE6E040EDD6E040C5A
:10245000BE51BC5DBF51BD5903E2BA6BBB6B1200EC
:10246000C26BC36B0AEC17F0D880923594EC16F06F
:102470000009F3E119D0C251BA25D96EC351BB216D
:10248000DA6EC229C06F000EC321C16FBE51C019E0
:1024900005E1BF51C11902E1010E01D0000E77EC38
:1024A00015F0DF6EC24BC32BBE51C25DBF51C35985
:1024B000E2E3FEEC16F0C2C0BAF0C3C0BBF01200FB
:1024C0002D0E9F6F28C046F0FD0E461629E1D890CC
:1024D00028303F0B040D000EF3241B6E040EF42075
:1024E000C6EC0EF0040E191A29EC16F0DF30E832B3
:1024F0000F0B0D0A02E0B6EF16F0300E2A6E040E36
:102500002B6E20EE02F01FEC12F0DECF2CF0DDCFB0
:102510002DF02F6A080E2E6E98EC15F034EF14F0A3
:102520002850FD0B040AD8B437EC10F01200010E4D
:10253000C06FBFAF04D0BE517F0EBF17C06BBE517E
:10254000BC5DBF51BD5903E2BA6BBB6B1200C16BDE
:10255000C26B0AEC17F09251922594EC16F0000928
:10256000F3E10DD0C151BA25D96EC251BB21DA6E4B
:10257000DF5094EC16F0000907E1C14BC22BBE51AD
:10258000C15DBF51C259EEE3C05102E0FEEC16F04E
:10259000C1C0BAF0C2C0BBF012000600E1CF48F0E3
:1025A000E2CF49F0D9CF4AF0DACF4BF0F3CF4CF07D
:1025B000F4CF4DF0F6CF4EF0F7CF4FF0F8CF50F00C
:1025C000F5CF51F09EBA9DAA03D092EC17F09E9AD7
:1025D00000EC0BF051C0F5FF50C0F8FF4FC0F7FF03
:1025E0004EC0F6FF4DC0F4FF4CC0F3FF4BC0DAFF06
:1025F0004AC0D9FF49C0E2FF48C0E1FF5292110032
:10260000C20EF66E2F0EF76E000EF86E0900F5CFB3
:10261000D9F003EE00F0800EEE6AE806FDE102EE6E
:1026200000F0C00EEE6AE806FDE101EE00F010EEEB
:10263000FFF0EE6AE550E150FCE1E250FAE100EE15
:1026400060F0590EEE6AE806FDE100EE01F0290E99
:10265000EE6AE806FDE152905292000EF86E00011B
:102660007BEF10F0EFEC0BF0710EB96F0F0EBA6F3D
:10267000BC6BBB6BBE6B020EBD6F46EC16F03FEC45
:1026800016F0C16BC151C2EC0BF0C12B0B0EC16532
:10269000F9D7B6EC0BF0E9EC0BF0C16BC151D6ECFD
:1026A0000BF0DAEC0BF0C151CEEC0BF0C151E4ECC5
:1026B0000BF0C151DFEC0BF0C12B020EC165EED760
:1026C000080E9EEF0BF09C6B9B6B020E251813E11E
:1026D00020EE01F06FEC0DF074EC0DF06FEC0DF0EE
:1026E000380EDE6E040EDD6E19C0D9FF80EC0DF0E1
:1026F00079EC0DF0000C0D500401365D0E50375989
:1027000004E236C40DF037C40EF085EC0DF075EC24
:1027100010F06FEC10F06AEC10F0480E62EF10F061
:10272000BD6FC2500209C26EC2B2FED70001BD51D8
:102730001AE0C450BB6FBC6BD890BB37BC37D89085
:10274000BB37BC37BBC0BEF0BCC0BFF0C3CFBBF013
:10275000060EBC6FD890BB33BC2FFCD7BE51BB114B
:10276000BE6FBF5103D0C4CFBEF0BF6BBEC0B9F0C7
:10277000BFC0BAF012000001B06B4B0EB16FB26B6C
:10278000B36BB46BB56B080EB66F996B1A0E326EE5
:10279000010EFAEC15F01E0E326E020EFAEC15F078
:1027A000000E2A6E400E2B6E050E2C6E400E2D6E06
:1027B000020E1BEC0FF02AC08AF02BC08BF0000138
:1027C000886B896B226A12001F501D1803E120508C
:1027D0001E181AE0000E1D24D96E030E1E20DA6E9C
:1027E000DF50BB6FBC6B1D28BD6F000E1E20BE6F7F
:1027F000BE5103E1800EBD5D02E3BD6BBE6BBDC08B
:102800001DF0BEC01EF003D0000EBC6BBB69BBC088
:10281000B9F0BCC0BAF012001750151803E11850F7
:1028200016181AE0000E1524D96E020E1620DA6E64
:10283000DF50BB6FBC6B1528BD6F000E1620BE6F3E
:10284000BE5103E1800EBD5D02E3BD6BBE6BBDC03A
:1028500015F0BEC016F003D0000EBC6BBB69BBC048
:10286000B9F0BCC0BAF01200266A236A9C6B9B6B5D
:10287000A06B256A6AEC10F019D86AEC10F016D833
:1028800019C0D9FF1AC0DAFF7F0EDF160C6A0D6A75
:102890000E6A046A056A066A67EC0FF0376A030E6F
:1028A0008EEC16F081EC14F0CCEF0EF07F0EDF16FC
:1028B000040E0F1A040CB9C0CBFF08D008EF15F0B6
:1028C00005EF15F00BEF15F00EEF15F0BBC0BDF0E6
:1028D000BCC0BEF0BE5102E005EF15F0BD51010ACB
:1028E00002E108EF15F0050A02E105EF15F0140A00
:1028F00002E10BEF15F0500A02E10EEF15F005EFC3
:1029000015F036C03CF037C03DF03D5004E07F0A82
:10291000D8A4120019D03C50010A02E1BBEF13F019
:10292000030AD8B41200010A02E1BBEF10F0060A54
:10293000D8B41200770AD8B41200010AD8B4120031
:10294000070AD8A4010A12003C1C12001F501D5C8B
:1029500020501E5806E21D501F5CBD6F1E502058AF
:1029600010D01D501F5C1E5020580DE21D501F5CE2
:10297000BB6F1E502058BC6F800EBB25BD6F000E74
:10298000BC21BE6F02D0BD6BBE6BBDC0B9F0BEC076
:10299000BAF012001750155C1850165806E2155080
:1029A000175CBD6F1650185810D01550175C165094
:1029B00018580DE21550175CBB6F16501858BC6FB5
:1029C000800EBB25BD6F000EBC21BE6F02D0BD6B5B
:1029D000BE6BBDC0B9F0BEC0BAF01200B9C0CBFF2B
:1029E00004D016D012D017D019D0BBC0BDF0BCC0D7
:1029F000BEF0BE510AE1BD51010A0AE0050A05E038
:102A0000140A09E0500A0AE000D0050ECA6E050C4F
:102A1000040ECA6E040C060ECA6E060C070ECA6EB1
:102A2000070CC36F0001C46BC56B1F0E27641F0C1E
:102A30006DB21F0C03D0C42B000EC523225003E03F
:102A40007D0EC55DF8E37D0EC519C41101E11200CC
:102A5000C30EB96F010EBA6F22EC17F002D05DEC15
:102A60000CF02250FCE11200BA6F17280001BB6F76
:102A7000000E1820BC6FBC5103E1800EBB5D02E369
:102A8000BB6BBC6B1550BB1904E11650BC19D8B414
:102A90001200000E1724D96E020E1820DA6EBAC08A
:102AA000DFFFBBC017F0BCC018F01200BF51BD5D06
:102AB000C051BE5901E21200C16BC26B12D0C151AC
:102AC000BB25D96EC251BC21DA6EC151BB25E16E66
:102AD000C251BC21E26EE7505AEC17F0DF6EC14BD9
:102AE000C22BBF51C15DC051C259E9E31200B96F99
:102AF0009E96C5860001866987699EB604D013D864
:102B0000FCE18729FAE1B95102E0C58A01D0C59AF2
:102B1000C58886698769C5A804D005D8FCE18729DE
:102B2000FAE1C95012008607D8A08707862912004B
:102B30002CC032F02DC033F02AC030F02BC031F061
:102B400010D032C0D9FF33C0DAFFDF50346E324AC2
:102B5000332A30C0D9FF31C0DAFF34C0DFFF304A3A
:102B6000312A2E06D8A02F062E28EBE12F28E9E1E6
:102B700012002B6E1F282C6E000E20202D6E2D5063
:102B800003E1800E2C5C02E32C6A2D6A1D502C1888
:102B900004E11E502D18D8B41200000E1F24D96E67
:102BA000030E2020DA6E2BC0DFFF2CC01FF02DC0DB
:102BB00020F01200B96F07D0F00E00D0E82EFDD73C
:102BC000640E0001B95F640E0001B961F5D706D04B
:102BD000280EE82EFED70A0E0001B95F0A0EB96171
:102BE000F7D703D0040EE82EFED70001B907B929A4
:102BF000F9E11200356E32A404D02A6A3550FBEC9C
:102C000010F032A205D0010E2A6E3550FBEC10F008
:102C1000700E3524336E346A0F0E342233C0D9FF60
:102C200034C0DAFF32C0DFFF0F0C70A010D011D813
:102C3000800EDE180BE16AEC10F0840EDE1806E15F
:102C400008D80C0EDF6E05D8000EDB8E7090689AE7
:102C500012001BC0D9FF1CC0DAFF12002750D8A4F5
:102C600012006D6A696A0BD8D08EA28AA08AF28E91
:102C700001D06D866DA6FDD7010E276E010C160ED4
:102C80006F6E9F0E6B6E7B0E696E7B0CB9C0BFF0D2
:102C9000BAC0C0F008D0BFC0D9FFC0C0DAFFBBC007
:102CA000DFFFBF4BC02BBD07D8A0BE07BD29F3E196
:102CB000BE29F1E112002AC030F02BC031F008D05B
:102CC00030C0D9FF31C0DAFF2CC0DFFF304A312AD3
:102CD0002E06D8A02F062E28F3E12F28F1E11200AE
:102CE000050E0001BA6FBB6B280EBC6F000EF3EC33
:102CF0000FF0000E90EC13F0B951C06FC8EC17F054
:102D0000C0511200698468986D82010E0001A16FA4
:102D10009A6B376A750E02D881EF14F0366E386AF6
:102D2000396A3B6A3A6A1200B96F9E96B9C0C9FF08
:102D30000001866987699EB605D093EC15F0FBE12A
:102D40008729F9E1C5BC010C000C0001A16B376AB1
:102D5000740E8EEC16F081EC14F06D92699401D033
:102D6000689468B4FDD700019A6B1200020E251812
:102D700002E126EF0DF0256AA05107E104EC0FF007
:102D80000C0EDF6E79EC0DF0000CA06B120006D07B
:102D9000FF0EDAEC15F0BA2BFF0EBB23BB05F8E2F1
:102DA000BA51BB11D8B41200BA51DAEF15F00001D4
:102DB0006E2B000E6F2370237123A151D8A4120033
:102DC0009A2B9A51D8B49A6912002E6E2E50CCECE0
:102DD00017F02AC02FF02BC030F02FC02CF030C0DD
:102DE0002DF01200949E828E938093928192020E17
:102DF000C66EC698C79CC79EC68A020C9E96C5849E
:102E000086698769C5A4120093EC15F0FBE1872958
:102E1000F9E112009E96C58086698769C5A01200F7
:102E200093EC15F0FBE18729F9E112009E96C5822B
:102E300086698769C5A2120093EC15F0FBE187292A
:102E4000F9E11200A09A225007E1B9C07DF0BAC0A2
:102E500098F0010E976F226EA08A1200C78EC79C51
:102E6000280EC66E1D0EC86EC56AF28E93809382C0
:102E70001200010E946FBA6BB969BC6B010EBB6F87
:102E80005BEC14F0ACEF17F0010E936FBA6BB969FD
:102E9000BC6B010EBB6FEEEC14F0B1EF17F0966B4C
:102EA00032EC13F0275002E12EEC16F0200E27181A
:102EB000FDE11200B96FB9C0C9FFC7A0FED7C9CFE5
:102EC000BAF00001BA511200B96FC69AFC0EC616CC
:102ED0000001B951030BC612C68A1200BFC0B9F077
:102EE000C0C0BAF0C1C0BBF0C2C0BCF05BEF14F010
:102EF000BFC0B9F0C0C0BAF0C1C0BBF0C2C0BCF026
:102F0000EEEF14F0BA6F00019451D8B41200BA5128
:102F1000C0EF17F0BA6F00019351D8B41200BA5144
:102F2000C4EF17F0000EE5EC16F02C50316E315066
:102F3000B9EF15F0AC84190EAF6E77EC0EF09D9AD8
:102F40001200BBC0B9F0BCC0BAF0B6EF17F0B96F51
:102F5000B9C092F02EEF17F0949282920C0EBA6ED6
:102F60000C0C949482940C0EBD6E0C0C9EA8FED793
:102F7000B9C0ADFF1200BD6F0001BD512CEF0EF0C6
:102F8000B96FB9C0BBFF1200B96FB9C0BEFF120064
:102F9000C26A0F0EC16E0F0CAECF2AF02B6A120060
:102FA000946BD3EF17F09482BA6A1200936BD9EF47
:102FB00017F09484BD6A1200AB6AAC6A12009AEFF3
:032FC00017F00AFD
:020000040030CA
:0E000000200E3E1EFF8181FF0F800FA00F001B
:00000001FF
